S00F00006461745F6C63642E737265634A
S11300000C9446000C9465000C9465000C946500F7
S11300100C9465000C9465000C9465000C946500C8
S11300200C9465000C9465000C9465000C946500B8
S11300300C9465000C9465000C9465000C946500A8
S11300400C9465000C9465000C9465000C94650098
S11300500C9465000C9465000C9465000C94650088
S11300600C9465000C9465000C9465000C94650078
S11300700C9465000C9465000C9465000C94650068
S11300800C9465000C9465000C94650011241FBE4B
S1130090CFEFD0E4DEBFCDBF11E0A0E0B1E0E8E1F6
S11300A0F5E000E00BBF02C007900D92AA32B10741
S11300B0D9F711E0AAE2B1E001C01D92AC32B10758
S11300C0E1F70E9474020C948A020C940000129AC4
S11300D081EE94E00197F1F700C0000012980895B2
S11300E010922B0110922A0181E090E0909301017B
S11300F08093000181B18FEF81B987E893E1019783
S1130100F1F700C0000012981098119816981598ED
S1130110149A139A0E94670081EE94E00197F1F714
S113012000C000000E94670089EF90E00197F1F79A
S113013000C000000E94670089EF90E00197F1F78A
S113014000C0000016981598149A13980E9467002E
S113015089EF90E00197F1F700C000001698159818
S1130160149A13980E94670089EF90E00197F1F7C1
S113017000C00000169A1598149813980E946700FE
S113018089EF90E00197F1F700C0000016981598E8
S1130190149813980E94670089EF90E00197F1F793
S11301A000C00000169A159A149A13980E946700CA
S11301B089EF90E00197F1F700C0000016981598B8
S11301C0149813980E94670089EF90E00197F1F763
S11301D000C00000169815981498139A0E9467009E
S11301E089EF90E00197F1F700C000001698159888
S11301F0149813980E94670089EF90E00197F1F733
S113020000C000001698159A149A13980E9467006B
S113021089EF90E00197F1F700C000001698159857
S1130220149813980E94670089EF90E00197F1F702
S113023000C00000169A159A149A139A0E94670037
S113024089EF90E00197F1F700C0000080E090E0B2
S11302500895019711F4169A01C01698613071053A
S113026011F4159A01C015984130510511F4149AEE
S113027001C014982130310511F4139A01C0139868
S11302800E94670089EF90E00197F1F700C0000039
S113029008951F93CF93DF9381B1877881B9109824
S11302A0119A129A81EE94E00197F1F700C00000D0
S11302B012B182B1C2B1A2B11298E9EFF0E0319764
S11302C0F1F700C00000129AE1EEF4E03197F1F783
S11302D000C00000E2B162B142B152B1807290E05C
S11302E026E0880F991F2A95E1F7C071D0E035E028
S11302F0CC0FDD1F3A95E1F78C2B9D2B5870852B85
S1130300A870B0E054E0AA0FBB1F5A95E1F78A2BFE
S11303109B2BE074F0E073E0EE0FFF1F7A95E1F79A
S11303208E2B9F2B607270E0660F771F660F771F0E
S1130330862B972B129851B1586751B91098119880
S1130340407150E0440F551F842B952B16FB222738
S113035020F930E03695322F222737952795822BC6
S1130360932BDF91CF911F9108950E9449018F77BC
S1130370992701960895892B11F4169801C0169AAD
S1130380672B11F4159801C0159A452B11F4149894
S113039001C0149A232B11F413980895139A089505
S11303A0CF93DF93EC0110981198282F2295217098
S11303B085FB442740F986FB662760F930E050E06E
S11303C070E081E090E00E94BB010E9467009E0102
S11303D0217033274C2F46954170C2FB662760F984
S11303E050E070E0C3FB882780F990E00E94BB01D5
S11303F0DF91CF910C946700CF93C82F109A119876
S113040084FB222720F985FB442740F986FB6627D5
S113041060F9881F8827881F30E050E070E090E082
S11304200E94BB010E9467002C2F2170C1FB44274E
S113043040F9C2FB662760F930E050E070E0C3FB8E
S1130440882780F990E00E94BB01CF910C9467004B
S1130450CF93C82F20912A0130912B012F5F3F4F5A
S113046030932B0120932A012031310531F08A3059
S113047021F08C2FCF910C94FC012091000130913C
S113048001012130310551F480E490E00E94D00153
S113049022E030E03093010120930001CA3049F793
S11304A0CF9108950F931F93CF93DF93EC010E9494
S11304B0B5018E01FE0101900020E9F73197EC1B94
S11304C0FD0BC8018C1B9D0B8E179F0740F4F80190
S11304D081918F010E9428020E94B501EBCFDF9128
S11304E0CF911F910F9108950E94700082E091E0D6
S11304F00E9452022FE38DE093E02150804090400F
S1130500E1F700C000000E94700089E191E00E94C0
S10B05105202FFCFF894FFCF63
S113051801006162636465666768696A6B6C6D6E25
S11305286F7071727374757600646F73650A6261B3
S10D05386C6C7320646F2E2E2E00ED
S9030000FC
