S00F00006461745F6C63642E737265634A
S11300000C9446000C9450000C9450000C94500036
S11300100C9450000C9450000C9450000C9450001C
S11300200C9450000C9450000C9450000C9450000C
S11300300C9450000C9450000C9450000C945000FC
S11300400C9450000C9450000C9450000C945000EC
S11300500C9450000C9450000C9450000C945000DC
S11300600C9450000C9450000C9450000C945000CC
S11300700C9450000C9450000C9450000C945000BC
S11300800C9450000C9450000C94500011241FBE8A
S1130090CFEFD0E4DEBFCDBF0E94FC010C94200260
S11300A00C940000129A81EE94E00197F1F700C0DD
S11300B000001298089581B18FEF81B987E893E128
S11300C00197F1F700C00000129810981198169843
S11300D01598149A139A0E94520081EE94E00197A5
S11300E0F1F700C000000E94520089EF90E00197F0
S11300F0F1F700C000000E94520089EF90E00197E0
S1130100F1F700C0000016981598149A13980E94ED
S1130110520089EF90E00197F1F700C000001698B3
S11301201598149A13980E94520089EF90E0019751
S1130130F1F700C00000169A1598149813980E94BD
S1130140520089EF90E00197F1F700C00000169883
S11301501598149813980E94520089EF90E0019723
S1130160F1F700C00000169A159A149A13980E9489
S1130170520089EF90E00197F1F700C00000169853
S11301801598149813980E94520089EF90E00197F3
S1130190F1F700C00000169815981498139A0E945D
S11301A0520089EF90E00197F1F700C00000169823
S11301B01598149813980E94520089EF90E00197C3
S11301C0F1F700C000001698159A149A13980E942B
S11301D0520089EF90E00197F1F700C000001698F3
S11301E01598149813980E94520089EF90E0019793
S11301F0F1F700C00000169A159A149A139A0E94F7
S1130200520089EF90E00197F1F700C0000080E010
S113021090E00895019711F4169A01C01698613080
S1130220710511F4159A01C015984130510511F466
S1130230149A01C014982130310511F4139A01C0A5
S113024013980E94520089EF90E00197F1F700C0E3
S1130250000008951F93CF93DF9381B1877881B90C
S11302601098119A129A81EE94E00197F1F700C068
S1130270000012B182B1C2B1A2B11298E9EFF0E06C
S11302803197F1F700C00000129AE1EEF4E03197E3
S1130290F1F700C00000E2B162B142B152B1807224
S11302A090E026E0880F991F2A95E1F7C071D0E00D
S11302B035E0CC0FDD1F3A95E1F78C2B9D2B587060
S11302C0852BA870B0E054E0AA0FBB1F5A95E1F744
S11302D08A2B9B2BE074F0E073E0EE0FFF1F7A95FE
S11302E0E1F78E2B9F2B607270E0660F771F660F0D
S11302F0771F862B972B129851B1586751B91098D4
S11303001198407150E0440F551F842B952B16FB18
S1130310222720F930E03695322F2227379527956A
S1130320822B932BDF91CF911F9108950E942A0174
S11303308F7799270895892B11F4169801C0169A7E
S1130340672B11F4159801C0159A452B11F41498D4
S113035001C0149A232B11F413980895139A089545
S1130360CF93C82F109A119884FB222720F985FB7C
S1130370442740F986FB662760F9881F8827881F71
S113038030E050E070E090E00E949B010E94520037
S11303902C2F2170C1FB442740F9C2FB662760F96A
S11303A030E050E070E0C3FB882780F990E00E94C1
S11303B09B01CF910C9452000C94B0010F931F93A6
S11303C0CF93DF93EC018C01FE0101900020E9F74B
S11303D03197EC1BFD0BC8018C1B9D0B8E179F07DF
S11303E030F4F80181918F010E94B001EDCFDF91CB
S11303F0CF911F910F9108950E945B0061E480E00A
S113040090E00E94120280E090E00E940A020E94A2
S1130410DC01FFCFF999FECF92BD81BDF89A9927EF
S113042080B50895262FF999FECF1FBA92BD81BDDC
S113043020BD0FB6F894FA9AF99A0FBE0196089562
S1070440F894FFCF5A
S9030000FC
