:100000000C9487000C94A6000C94A6000C94A600F7
:100010000C94A6000C94A6000C94A6000C94A600C8
:100020000C94A6000C94A6000C94A6000C94A600B8
:100030000C94A6000C94A6000C94A6000C94A600A8
:100040000C94A6000C94A6000C94A6000C94A60098
:100050000C94A6000C94A6000C94A6000C94A60088
:100060000C94A6000C94A6000C94A6000C94A60078
:100070000C94F2000C94A6000C94A6000C94A6001C
:100080000C94A6000C94A6000C94A6000800000096
:10009000BE922449123EABAAAA2ABECDCCCC4C3E7D
:1000A00000000080BEABAAAAAA3E00000000BF006C
:1000B0000000803F0000000000084178D3BB438768
:1000C000D1133D190E3CC3BD4282AD2B3E68EC827C
:1000D00076BED98FE1A93E4C80EFFFBE01C4FF7F01
:1000E0003F000000000007634236B79BD8A71A39CB
:1000F000685618AEBAAB558C1D3CB7CC5763BD6D76
:10010000EDFD753EF6177231BF000000803F1124EF
:100110001FBECFEFD0E4DEBFCDBF11E0A0E0B1E065
:10012000EEE2F0E200E00BBF02C007900D92A03AB1
:10013000B107D9F713E0A0EAB1E001C01D92AF3CCE
:10014000B107E1F70E944A070C9415100C940000C7
:100150001092CD008CE08093CC00E9ECF0E080813F
:10016000886D8083E8ECF0E0808182608083EAEC37
:10017000F0E080818E60808308959091B401809139
:10018000B301981739F0E091B401F0E0E55BFC4F62
:100190008081089580E00895E091B401F0E0E55B8E
:1001A000FC4F80819091B4019F5F9093B401909136
:1001B000B40197FD1092B40108958091B00190911F
:1001C000010189130CC02091B101281308C030919E
:1001D000B20181E090E0321721F080E0089580E0E4
:1001E00090E008951F920F920FB60F9211240BB654
:1001F0000F922F933F934F935F936F937F938F93C0
:100200009F93AF93BF93EF93FF938091B10180933E
:10021000B2018091B0018093B1018091CE008093B2
:10022000B0018091AA019091AB01019769F4E0912E
:10023000B301F0E08091B001E55BFC4F80838091D9
:10024000B3018F5F8093B3010E94DD00892B31F0F1
:1002500081E090E09093AB018093AA018091B3017B
:1002600087FD1092B301FF91EF91BF91AF919F91E4
:100270008F917F916F915F914F913F912F910F904F
:100280000BBE0F900FBE0F901F9018958091B0017C
:100290009091000189130CC02091B101281308C06E
:1002A0003091B20181E090E0321721F080E00895B2
:1002B00080E090E00895CF93DF931F92CDB7DEB733
:1002C0000E94530F8983CE0101960E94F30C0F9078
:1002D000DF91CF9108950C94530F0C945B0F0C9405
:1002E000430F0F931F93CF93DF93182F092FCB0149
:1002F0000E94CC0BD82FC92F0F931F932AE031E017
:100300003F932F939F938F930E94190D8D2F9C2FB6
:100310000E9428070F900F900F900F900F900F9052
:100320008D2F9C2FDF91CF911F910F910C94640C16
:10033000CF92DF92EF92FF920F931F93CF93DF93B1
:1003400000D000D0CDB7DEB78A01AE014F5F5F4F5E
:100350000E94AB096B017C0169817A818B819C8150
:100360000E944A08DC01CB0164E070E00E94710148
:100370008EE991E00E942807B801882777FD8095D3
:10038000982F0E947D089B01AC0160E070E080E244
:1003900091E40E94410A9B01AC01C701B6010E9491
:1003A000DE090E948D0A0E944A087B0177FF04C083
:1003B000EE24FF24E61AF70AE114F104A1F0B701D4
:1003C000882777FD8095982F0E947D080E946009FC
:1003D0000E94B80820E030E040E85FE30E94E607B2
:1003E0000E944A0802C060E070E0C12CD12C061BBC
:1003F000170BC016D10644F48DE091E00E94280747
:100400008FEFC81AD80AF5CF64E070E0C7010F90EB
:100410000F900F900F90DF91CF911F910F91FF9050
:10042000EF90DF90CF900C9471011F93CF93DF93E7
:10043000C0E0D0E01CE12091450330914603129FBB
:10044000C001139F900D11248C599F4F8C179D074D
:1004500084F0CE010E94530F811101C08FE30E94EE
:10046000F40687EA91E60197F1F700C000002196B3
:10047000E2CFDF91CF911F9108951F93CF93DF9328
:10048000C0E0D0E01CE12091450330914603129F6B
:10049000C001139F900D1124C817D90794F4CE0101
:1004A00088599F4F0E94530F811101C08FE30E9412
:1004B000F40687EA91E60197F1F700C00000219663
:1004C000E2CFDF91CF911F9108950F931F93CF93A8
:1004D000DF932CE1289F8001299F100D1124C0E09B
:1004E000D0E0E0914903F0914A03E00FF11FEC0FD7
:1004F000FD1F80810E94F4062196C830D10589F73E
:10050000DF91CF911F910F9108950F931F93CF9378
:10051000DF938C0163E070E001960E94710181E23B
:1005200091E00E942807C8010E94650283E294EFCF
:100530000197F1F700C000008FE091E00E942807CA
:100540008091AA019091AB01892B09F0B1C081E1A2
:1005500091E00E9428078CE1809FE001819FD00DEF
:100560001124E0914903F0914A03EC0FFD1F6085CF
:1005700071858285938541E050E00E94980183E275
:1005800094EF0197F1F700C000008FE091E00E9426
:1005900028078091AA019091AB01892B09F088C0AE
:1005A00088E191E00E942807E0914903F0914A0315
:1005B000EC0FFD1F648575858685978544E050E0C6
:1005C0000E94980183E294EF0197F1F700C00000C8
:1005D0008FE091E00E9428078091AA019091AB01E1
:1005E000892B09F065C08EE191E00E942807E09117
:1005F0004903F0914A03EC0FFD1F608971898289DC
:10060000938944E050E00E94980183E294EF0197BF
:10061000F1F700C000008FE091E00E942807809170
:10062000AA019091AB01892B09F042C084E291E0CC
:100630000E942807E0914903F0914A03EC0FFD1F47
:10064000648975898689978941E050E00E94980104
:1006500083E294EF0197F1F700C000008FE091E092
:100660000E9428078091AA019091AB01892B01F586
:100670008AE291E00E942807E0914903F0914A0341
:10068000EC0FFD1F608D718D828D938D40E050E0E9
:100690000E94980183E294EF0197F1F700C00000F7
:1006A0008FE091E00E9428078091AA019091AB0110
:1006B000DF91CF911F910F9108958FEF84B9F89436
:1006C0000E94A80078940E943C052FE38DE093E0FF
:1006D000215080409040E1F700C000000895BF9293
:1006E000CF92DF92EF92FF920F931F93CF93DF93FE
:1006F00080E090E00E945B0F0E944A0870934603DE
:10070000609345034CE1469F9001479F300D1124B3
:10071000C9010E94CC0B90934A03809349038DE753
:10072000C82E82E0D82E95EBE92E91E0F92EC4E098
:10073000D0E000E010E02CE1B22ECE010E945B017F
:10074000F601819391936F01B09E9001B19E300D9F
:10075000112428593F4FF701219331937F01080F4E
:10076000191F2196C836D10541F7C0E0D0E0E12C31
:10077000F12C8091450390914603E816F9060CF0A0
:100780004AC0BE0168597F4F8091490390914A0346
:1007900048E050E08C0F9D1F0E94430F00914903D9
:1007A00010914A030C0F1D1FCE0180599F4F0E94CC
:1007B0005B0FF8016087718782879387CE018C5821
:1007C0009F4F0E945B0FF801648775878687978724
:1007D000CE0188589F4F0E945B0FF801608B718B90
:1007E000828B938BCE0184589F4F0E945B0FF80140
:1007F000648B758B868B978BCE0180589F4F0E94A0
:100800005B0FF801608F718F828F938FFFEFEF1A6C
:10081000FF0A6C96AECFDF91CF911F910F91FF90A1
:10082000EF90DF90CF90BF90089510924603109202
:1008300045038091490390914A030E94640C1092F1
:100840004A0310924903EDE7F2E0A5EBB1E0119203
:1008500011921D921D9283E0E534F807C1F70895C7
:10086000CF93DF930E943C0563E070E080914503E5
:10087000909146030E94710181E391E00E94280754
:100880002FE78AE196E0215080409040E1F700C0D8
:1008900000008091AA019091AB01892B11F5C0E075
:1008A000D0E08091450390914603C817D907CCF456
:1008B0008091AA019091AB01892B99F40E943C058B
:1008C000CE010E9485028091AA019091AB01892BF3
:1008D00041F48FE493EC0197F1F700C000002196FA
:1008E000E0CFDF91CF9108950F931F93CF93DF93C4
:1008F0000E943C0563E070E08091450390914603BF
:100900000E94710181E391E00E9428072FE78AE1AC
:1009100096E0215080409040E1F700C000000E9426
:100920003C058091AA019091AB01892B81F5C0E033
:10093000D0E08091450390914603C817D9073CF554
:100940008091AA019091AB01892B09F58E010F5F6F
:100950001F4F63E070E0C8010E94710181E291E0E5
:100960000E942807CE010E9465028FE091E00E945C
:1009700028078091AA019091AB01892B41F483E271
:1009800094EF0197F1F700C00000E801D2CFDF91AA
:10099000CF911F910F910895CF93DF93EC011092A7
:1009A000AB011092AA011092A7011092A601109219
:1009B000AC011092AD011092AE011092AF010E94F5
:1009C0003C05209719F481E491E002C084E591E0B0
:1009D0000E9428070E946F032FE78AE196E02150CA
:1009E00080409040E1F700C00000CD2B19F487E66D
:1009F00091E002C089E791E00E9428072FED83E98A
:100A000094E0215080409040E1F700C00000DF9169
:100A1000CF910895CF93DF93209145033091460302
:100A2000E0914903F0914A0380E090E08217930738
:100A3000BCF4DF010D900020E9F71197EF01CA1710
:100A4000DB0759F0499141524E35C8F381E090E0FF
:100A50009093A1018093A00103C001967C96E6CFFC
:100A6000DF91CF910895129A81EE94E00197F1F70A
:100A700000C0000012980895109248031092470396
:100A800081E090E0909303018093020181B18FEFA8
:100A900081B987E893E10197F1F700C0000012984F
:100AA0001098119816981598149A139A0E94330565
:100AB00081EE94E00197F1F700C000000E94330539
:100AC00089EF90E00197F1F700C000000E94330524
:100AD00089EF90E00197F1F700C000001698159893
:100AE000149A13980E94330589EF90E00197F1F76B
:100AF00000C0000016981598149A13980E943305A8
:100B000089EF90E00197F1F700C00000169A159860
:100B1000149813980E94330589EF90E00197F1F73C
:100B200000C0000016981598149813980E94330579
:100B300089EF90E00197F1F700C00000169A159A2E
:100B4000149A13980E94330589EF90E00197F1F70A
:100B500000C0000016981598149813980E94330549
:100B600089EF90E00197F1F700C000001698159802
:100B70001498139A0E94330589EF90E00197F1F7DA
:100B800000C0000016981598149813980E94330519
:100B900089EF90E00197F1F700C000001698159AD0
:100BA000149A13980E94330589EF90E00197F1F7AA
:100BB00000C0000016981598149813980E943305E9
:100BC00089EF90E00197F1F700C00000169A159A9E
:100BD000149A139A0E94330589EF90E00197F1F778
:100BE00000C0000080E090E00895019711F4169A8B
:100BF00001C016986130710511F4159A01C015985D
:100C00004130510511F4149A01C014982130310576
:100C100011F4139A01C013980E94330589EF90E0F4
:100C20000197F1F700C0000008951F93CF93DF9361
:100C300081B1877881B91098119A129A81EE94E067
:100C40000197F1F700C0000012B182B1C2B1A2B1A8
:100C50001298E9EFF0E03197F1F700C00000129A26
:100C6000E1EEF4E03197F1F700C00000E2B162B1CB
:100C700042B152B1807290E026E0880F991F2A9508
:100C8000E1F7C071D0E035E0CC0FDD1F3A95E1F718
:100C90008C2B9D2B5870852BA870B0E054E0AA0FC8
:100CA000BB1F5A95E1F78A2B9B2BE074F0E073E0B1
:100CB000EE0FFF1F7A95E1F78E2B9F2B607270E08D
:100CC000660F771F660F771F862B972B129851B1EF
:100CD000586751B910981198407150E0440F551F52
:100CE000842B952B16FB222720F930E03695322FE6
:100CF000222737952795822B932BDF91CF911F9138
:100D000008950E9415068F77992701960895892BDB
:100D100011F4169801C0169A672B11F4159801C0AA
:100D2000159A452B11F4149801C0149A232B11F431
:100D300013980895139A0895CF93DF93EC011098B8
:100D40001198282F2295217085FB442740F986FBB6
:100D5000662760F930E050E070E081E090E00E94AA
:100D600087060E9433059E01217033274C2F46953C
:100D70004170C2FB662760F950E070E0C3FB882732
:100D800080F990E00E948706DF91CF910C943305A3
:100D9000CF93C82F109A119884FB222720F985FB46
:100DA000442740F986FB662760F9881F8827881F3B
:100DB00030E050E070E090E00E9487060E9433052A
:100DC0002C2F2170C1FB442740F9C2FB662760F934
:100DD00030E050E070E0C3FB882780F990E00E948B
:100DE0008706CF910C943305CF93C82F20914703EA
:100DF000309148032F5F3F4F3093480320934703C0
:100E00002131310531F08A3021F08C2FCF910C94B3
:100E1000C80620910201309103012130310579F497
:100E200080E490E00E949C0622E030E030930301D1
:100E300020930201109248031092470305C022300C
:100E4000310511F40E943C05CA30F9F6CF9108959E
:100E50000F931F93CF93DF93EC010E9481068E01C5
:100E6000FE0101900020E9F73197EC1BFD0BC80152
:100E70008C1B9D0B8E179F0740F4F80181918F0109
:100E80000E94F4060E948106EBCFDF91CF911F9163
:100E90000F910895CF93DF931F92CDB7DEB70E94D5
:100EA0005D0381E491E00E9428070E946F032FE315
:100EB0008DE093E0215080409040E1F700C00000B9
:100EC0000091AA011091AB010130110509F064C035
:100ED0008091A6019091A701892B61F40E943C05A5
:100EE00088E891E00E9428071093A7010093A601CB
:100EF0000E9415049091B4018091B301981749F1B3
:100F00001092AC011092AD011092AE011092AF019F
:100F10000E94CC0089830E9446016981892B19F0C7
:100F200080E090E036C08091A8019091A9010E94D4
:100F3000610F8091A8019091A90101969093A90158
:100F40008093A80181E090E09093A5018093A40193
:100F500027C020E030E040E85FE36091AC01709191
:100F6000AD018091AE019091AF010E94E6076093C0
:100F7000AC017093AD018093AE019093AF0120E07E
:100F800030E543E457E40E945C0918164CF481E014
:100F900090E00E94CC0404C00E9474040E943004BB
:100FA0008091A4019091A501892B09F489CF8091AA
:100FB000A2019091A30101969093A3018093A201B5
:100FC0001092A5011092A4017BCF5058BB27AA27ED
:100FD0000ED021C112D130F017D120F031F49F3F53
:100FE00011F41EF407C10EF4E095E7FBD4C0E92F1D
:100FF00023D180F3BA17620773078407950718F0A7
:1010000071F49EF552C10EF4E0950B2EBA2FA02D6F
:101010000B01B90190010C01CA01A0011124FF27A5
:10102000591B99F0593F50F4503E68F11A16F040A0
:10103000A22F232F342F4427585FF3CF469537959F
:101040002795A795F0405395C9F77EF41F16BA0B64
:10105000620B730B840BBAF09150A1F0FF0FBB1F12
:10106000661F771F881FC2F70EC0BA0F621F731F5B
:10107000841F48F4879577956795B795F7959E3FB8
:1010800008F0B3CF9395880F08F09927EE0F979546
:101090008795089504D06894B11108C10895D4D0FB
:1010A00088F09F5790F0B92F9927B751A0F0D1F051
:1010B000660F771F881F991F1AF0BA95C9F712C0DB
:1010C000B13081F0F2D0B1E00895EFC0672F782FF2
:1010D0008827B85F39F0B93FCCF386957795679547
:1010E000B395D9F73EF490958095709561957F4FB3
:1010F0008F4F9F4F0895E89409C097FB3EF4909559
:101100008095709561957F4F8F4F9F4F9923A9F0E0
:10111000F92F96E9BB279395F6958795779567956F
:10112000B795F111F8CFFAF4BB0F11F460FF1BC0B3
:101130006F5F7F4F8F4F9F4F16C0882311F096E946
:1011400011C0772321F09EE8872F762F05C06623F4
:1011500071F096E8862F70E060E02AF09A95660FAD
:10116000771F881FDAF7880F9695879597F9089566
:1011700085D080F09F3740F491110EF097C060E069
:1011800070E080E89FEB089526F41B16611D711D29
:10119000811D07C021C097F99F6780E870E060E07B
:1011A0000895882371F4772321F09850872B762FA8
:1011B00007C0662311F499270DC09051862B70E06B
:1011C00060E02AF09A95660F771F881FDAF7880F7C
:1011D0009695879597F908959F3F31F0915020F4A7
:1011E000879577956795B795880F911D9695879503
:1011F00097F908959FEF80EC089500240A9416163D
:10120000170618060906089500240A9412161306F4
:10121000140605060895092E0394000C11F4882382
:1012200052F0BB0F40F4BF2B11F460FF04C06F5F9E
:101230007F4F8F4F9F4F089557FD9058440F551F74
:1012400059F05F3F71F04795880F97FB991F61F048
:101250009F3F79F087950895121613061406551FBF
:10126000F2CF4695F1DF08C0161617061806991F2B
:10127000F1CF86957105610508940895E5DFA0F02A
:10128000BEE7B91788F4BB279F3860F41616B11D66
:10129000672F782F8827985FF7CF86957795679582
:1012A000B11D93959639C8F30895E894BB27662736
:1012B0007727CB0197F9089581D108F48FEF08952E
:1012C0000AD029ED3BE54EED5EE378C00EF084CF09
:1012D00091CF689460CFB8DFC8F39923D1F3C6F3F8
:1012E000DF93CF931F930F93FF92C92FDD2788239E
:1012F0002AF02197660F771F881FDAF720E030E089
:1013000040E85FEB9FE3883920F0803E30F0219683
:101310008F775CDEECE8F0E003C058DEE9EBF0E04C
:1013200071D18B01BE01EC01FB2E6F5771097595D0
:10133000771F880B990BE1DE28E132E741E35FE399
:1013400049D0AF2D9801AE01FF900F911F91CF9121
:10135000DF914DDE60CFFA01DC01AA0FBB1F9B01BC
:10136000AC01BF5728F422273327442750781FC0E9
:10137000B75188F4AB2F0024469537952795011C6B
:10138000A395D2F3002069F0220F331F441FB395B9
:10139000DAF30DD01ACE61307105A0E88A07B9469C
:1013A00030F49B01AC016627772788279078309628
:1013B00021F0208331834283538308950BD02BCFB8
:1013C0001CDF28F021DF18F0952309F0E4CE12CFBE
:1013D00011246CCF31DFA0F3959FD1F3950F50E02E
:1013E000551F629FF001729FBB27F00DB11D639FD7
:1013F000AA27F00DB11DAA1F649F6627B00DA11D7D
:10140000661F829F2227B00DA11D621F739FB00D22
:10141000A11D621F839FA00D611D221F749F332792
:10142000A00D611D231F849F600D211D822F762F2B
:101430006A2F11249F5750408AF0E1F088234AF028
:10144000EE0FFF1FBB1F661F771F881F9150504074
:10145000A9F79E3F510570F09ECE28CF5F3FECF379
:10146000983EDCF3869577956795B795F795E79560
:101470009F5FC1F7FE2B880F911D9695879597F971
:101480000895FA01EE0FFF1F30962105310599F1FD
:101490006115710561F48038BFE39B0749F16894D9
:1014A0009038810561F08038BFEF9B0741F09923A8
:1014B00042F5FF3FE1053105210511F1E89408945B
:1014C000E795D901AA2329F4AB2FBE2FF85FD0F3FB
:1014D00010C0FF5F70F4A695E0F7F73950F019F0EF
:1014E000FF3A38F49F779F930CD00F9007FC9058E9
:1014F00008953EF07FCE60E070E080E89FE30895BD
:101500004FE79F775F934F933F932F93E4DE2F91A5
:101510003F914F915F9152DF25C096DEE0F09E37FC
:10152000D8F09639B8F49E3848F4672F782F88277A
:10153000985FF9CF86957795679593959539D0F310
:10154000B62FB1706B0F711D811D20F487957795B3
:101550006795939526CE40CEA9CE19F40EF01BCEFA
:10156000A4CE48CE71DEC8F39638C0F707F80F92C4
:10157000E8942BE33AEA48EB5FE72EDF0F920F92F5
:101580000F924DB75EB70F92E6DEE6EEF0E03AD08E
:101590004F915F91EF91FF91E595EE1FFF1F49F08D
:1015A000FE57E0684427EE0F441FFA95E1F7419596
:1015B000550B56D00F9007FE4AC00895990F0008AA
:1015C000550FAA0BE0E8FEEF16161706E807F90715
:1015D000C0F012161306E407F50798F0621B730BB0
:1015E000840B950B39F40A2661F0232B242B252B31
:1015F00021F408950A2609F4A140A6958FEF811DD4
:10160000811D0895DF93CF931F930F93FF92EF9265
:10161000DF927B018C01689405C0DA2EEF01DADEDF
:10162000FE01E894A5912591359145915591AEF330
:10163000EF01DDDCFE019701A801DA9479F7DF9074
:10164000EF90FF900F911F91CF91DF9108959B0133
:10165000AC0160E070E080E89FE336C09CCDBCCD7B
:10166000F3DDE8F39923D9F3940F511DBBF39150A7
:10167000504094F059F0882332F0660F771F881F8E
:1016800091505040C1F79E3F510544F7880F911D7E
:101690009695879597F908955F3FACF0983E9CF03A
:1016A000BB27869577956795B79508F4B1609395B4
:1016B000C1F7BB0F58F711F460FFE8CF6F5F7F4FA2
:1016C0008F4F9F4FE3CFF2CD0CD0A5CD9DDD40F0E5
:1016D00094DD30F021F45F3F19F05DCD5111E6CD7E
:1016E00089CDAADD98F39923C9F35523B1F3951B4E
:1016F000550BBB27AA2762177307840738F09F5F33
:101700005F4F220F331F441FAA1FA9F333D00E2EA1
:101710003AF0E0E830D091505040E695001CCAF70E
:1017200029D0FE2F27D0660F771F881FBB1F2617D3
:1017300037074807AB07B0E809F0BB0B802DBF01A6
:10174000FF2793585F4F2AF09E3F510568F023CD45
:10175000ADCD5F3FECF3983EDCF3869577956795CA
:10176000B795F7959F5FC9F7880F911D9695879557
:1017700097F90895E1E0660F771F881FBB1F621776
:1017800073078407BA0720F0621B730B840BBA0B34
:10179000EE1F88F7E0950895CF93DF93823091058F
:1017A00010F482E090E0E091CD03F091CE0320E0D0
:1017B00030E0A0E0B0E0309739F140815181481726
:1017C0005907B8F04817590771F48281938110972F
:1017D00029F013969C938E9312972CC09093CE036E
:1017E0008093CD0327C02115310531F042175307EF
:1017F00018F0A901DB0101C0EF019A01BD01DF0171
:101800000280F381E02DD7CF21153105F9F0281B97
:10181000390B2430310580F48A819B816115710573
:1018200021F0FB019383828304C09093CE038093C5
:10183000CD03FE01329644C0FE01E20FF31F8193F7
:10184000919322503109398328833AC02091CB03E8
:101850003091CC03232B41F42091060130910701F4
:101860003093CC032093CB032091040130910501E8
:101870002115310541F42DB73EB740910801509133
:101880000901241B350BE091CB03F091CC03E21747
:10189000F307A0F42E1B3F0B2817390778F0AC0193
:1018A0004E5F5F4F2417350748F04E0F5F1F509370
:1018B000CC034093CB038193919302C0E0E0F0E02E
:1018C000CF01DF91CF910895CF93DF93009709F473
:1018D00087C0FC01329713821282C091CD03D09150
:1018E000CE03209781F420813181280F391F809108
:1018F000CB039091CC038217930779F5F093CC0337
:10190000E093CB036DC0DE0120E030E0AE17BF07EF
:1019100050F412964D915C9113979D01411551051C
:1019200009F1DA01F3CFB383A28340815181840F9F
:10193000951F8A179B0771F48D919C911197840FC5
:10194000951F02969183808312968D919C91139797
:10195000938382832115310529F4F093CE03E0931C
:10196000CD033EC0D9011396FC93EE9312974D918F
:101970005D91A40FB51FEA17FB0779F4808191816F
:10198000840F951F0296D90111969C938E938281A4
:10199000938113969C938E931297E0E0F0E08A81F6
:1019A0009B81009719F0FE01EC01F9CFCE01029660
:1019B00028813981820F931F2091CB033091CC0372
:1019C0002817390769F4309729F41092CE03109242
:1019D000CD0302C013821282D093CC03C093CB03F9
:1019E000DF91CF910895FC0188279927E8942191F0
:1019F0002032E9F3293010F02E30C8F32B3241F0B9
:101A00002D3239F4689404C00E94110D820F911D8B
:101A1000219120532A30C0F31EF4909581959F4F59
:101A200008957AE0979F902D879F802D910D112426
:101A300008950F931F93CF93DF93CDB7DEB72E9703
:101A40000FB6F894DEBF0FBECDBF0D891E8986E0AC
:101A50008C831A8309838FEF9FE79E838D83AE016A
:101A6000475E5F4F6F89788DCE0101960E94480DC9
:101A7000EF81F885E00FF11F10822E960FB6F894D3
:101A8000DEBF0FBECDBFDF91CF911F910F910895A3
:101A90002F923F924F925F926F927F928F929F927E
:101AA000AF92BF92CF92DF92EF92FF920F931F936C
:101AB000CF93DF93CDB7DEB72C970FB6F894DEBF88
:101AC0000FBECDBF7C016B018A01FC01178216821B
:101AD000838181FFBDC1CE0101964C01F701938145
:101AE000F60193FD859193FF81916F01882309F49D
:101AF000ABC1853239F493FD859193FF81916F01DC
:101B0000853229F4B70190E00E94850FE7CF512C70
:101B1000312C20E02032A0F48B3269F030F4803296
:101B200059F0833269F420612CC08D3239F0803352
:101B300039F4216026C02260246023C0286021C0BF
:101B400027FD27C030ED380F3A3078F426FF06C065
:101B5000FAE05F9E300D1124532E13C08AE0389EA8
:101B6000300D1124332E20620CC08E3221F426FD5C
:101B70006BC1206406C08C3611F4206802C0883620
:101B800041F4F60193FD859193FF81916F018111DD
:101B9000C1CF982F9F7D9554933028F40C5F1F4F31
:101BA000FFE3F9830DC0833631F0833771F083355D
:101BB00009F05BC022C0F801808189830E5F1F4F4E
:101BC00044244394512C540115C03801F2E06F0EA7
:101BD000711CF801A080B18026FF03C0652D70E064
:101BE00002C06FEF7FEFC5012C870E947A0F2C0196
:101BF00083012C852F77222E17C03801F2E06F0E5B
:101C0000711CF801A080B18026FF03C0652D70E033
:101C100002C06FEF7FEFC5012C870E946F0F2C0170
:101C20002C852068222E830123FC1BC0832D90E08D
:101C300048165906B0F4B70180E290E00E94850F83
:101C40003A94F4CFF50127FC859127FE81915F013D
:101C5000B70190E00E94850F31103A94F1E04F1ADD
:101C600051084114510471F7E5C0843611F08936EA
:101C700039F5F80127FF07C0608171818281938166
:101C80000C5F1F4F08C060817181882777FD8095A8
:101C9000982F0E5F1F4F2F76B22E97FF09C0909599
:101CA0008095709561957F4F8F4F9F4F2068B22E22
:101CB0002AE030E0A4010E94B70FA82EA81844C063
:101CC000853729F42F7EB22E2AE030E025C0F22F8E
:101CD000F97FBF2E8F36C1F018F4883579F0B4C083
:101CE000803719F0883721F0AFC02F2F2061B22E36
:101CF000B4FE0DC08B2D8460B82E09C024FF0AC02D
:101D00009F2F9660B92E06C028E030E005C020E184
:101D100030E002C020E132E0F801B7FE07C0608188
:101D20007181828193810C5F1F4F06C06081718138
:101D300080E090E00E5F1F4FA4010E94B70FA82E15
:101D4000A818FB2DFF77BF2EB6FE0BC02B2D2E7FC4
:101D5000A51450F4B4FE0AC0B2FC08C02B2D2E7E90
:101D600005C07A2C2B2D03C07A2C01C0752C24FFC2
:101D70000DC0FE01EA0DF11D8081803311F4297E32
:101D800009C022FF06C07394739404C0822F867822
:101D900009F0739423FD13C020FF06C05A2C73145E
:101DA00018F4530C5718732C731468F4B70180E2BD
:101DB00090E02C870E94850F73942C85F5CF7314C7
:101DC00010F4371801C0312C24FF12C0B70180E392
:101DD00090E02C870E94850F2C8522FF17C021FFE1
:101DE00003C088E590E002C088E790E0B7010CC02E
:101DF000822F867859F021FD02C080E201C08BE27B
:101E000027FD8DE2B70190E00E94850FA51438F4FC
:101E1000B70180E390E00E94850F5A94F7CFAA940F
:101E2000F401EA0DF11D8081B70190E00E94850F59
:101E3000A110F5CF332009F451CEB70180E290E034
:101E40000E94850F3A94F6CFF7018681978102C0F0
:101E50008FEF9FEF2C960FB6F894DEBF0FBECDBF6D
:101E6000DF91CF911F910F91FF90EF90DF90CF9076
:101E7000BF90AF909F908F907F906F905F904F90AA
:101E80003F902F900895DC01CB01FC01F999FECF22
:101E900006C0F2BDE1BDF89A319600B40D924150F2
:101EA0005040B8F70895F999FECF92BD81BDF89AD8
:101EB000992780B50895A6E1B0E044E050E00C9485
:101EC000450F262FF999FECF1FBA92BD81BD20BDC7
:101ED0000FB6F894FA9AF99A0FBE01960895FC018C
:101EE0000590615070400110D8F7809590958E0F45
:101EF0009F1F0895FC016150704001900110D8F7B8
:101F0000809590958E0F9F1F08950F931F93CF93E9
:101F1000DF93182F092FEB018B8181FD03C08FEF19
:101F20009FEF20C082FF10C04E815F812C813D81D8
:101F3000421753077CF4E881F9819F012F5F3F4FDF
:101F400039832883108306C0E885F985812F099598
:101F5000892B29F72E813F812F5F3F4F3F832E83AF
:101F6000812F902FDF91CF911F910F910895FA014A
:101F7000AA27283051F1203181F1E8946F936E7FC8
:101F80006E5F7F4F8F4F9F4FAF4FB1E03ED0B4E0B9
:101F90003CD0670F781F891F9A1FA11D680F791FFA
:101FA0008A1F911DA11D6A0F711D811D911DA11D0B
:101FB00020D009F468943F912AE0269F112430191B
:101FC000305D3193DEF6CF010895462F4770405DB6
:101FD0004193B3E00FD0C9F7F6CF462F4F70405D65
:101FE0004A3318F0495D31FD4052419302D0A9F7C0
:101FF000EACFB4E0A6959795879577956795BA95BA
:10200000C9F700976105710508959B01AC010A2E7F
:1020100006945795479537952795BA95C9F7620F56
:0E202000731F841F951FA01D0895F894FFCF15
:10202E005E2401000000CF03200025640030000A6A
:10203E0000667265713A20006C61743A20006C6F14
:10204E006E3A20006572703A2000686161743A2021
:10205E0000206B6E6F776E0A73746174696F6E73A6
:10206E000073796E63696E670A6D656D6F727920A4
:10207E002E2E2E004552524F523A0A74696D656FDC
:10208E007574202E2E2E000A444154414241534570
:10209E000A55504441544544000A55504441544554
:1020AE000A4641494C454400646F776E6C6F61641B
:1020BE00696E670A75706461746573202E2E2E002A
:00000001FF
