S00F00006461745F6C63642E737265634A
S11300000C9487000C94A6000C94A6000C94A600F3
S11300100C94A6000C94A6000C94A6000C94A600C4
S11300200C94A6000C94A6000C94A6000C94A600B4
S11300300C94A6000C94A6000C94A6000C94A600A4
S11300400C94A6000C94A6000C94A6000C94A60094
S11300500C94A6000C94A6000C94A6000C94A60084
S11300600C94A6000C94A6000C94A6000C94A60074
S11300700C94EF000C94A6000C94A6000C94A6001B
S11300800C94A6000C94A6000C94A6000800000092
S1130090BE922449123EABAAAA2ABECDCCCC4C3E79
S11300A000000080BEABAAAAAA3E00000000BF0068
S11300B00000803F0000000000084178D3BB438764
S11300C0D1133D190E3CC3BD4282AD2B3E68EC8278
S11300D076BED98FE1A93E4C80EFFFBE01C4FF7FFD
S11300E03F000000000007634236B79BD8A71A39C7
S11300F0685618AEBAAB558C1D3CB7CC5763BD6D72
S1130100EDFD753EF6177231BF000000803F1124EB
S11301101FBECFEFD0E4DEBFCDBF11E0A0E0B1E061
S1130120E4EFFCE100E00BBF02C007900D92A6349F
S1130130B107D9F713E0A6E4B1E001C01D92AD36D2
S1130140B107E1F70E9445050C94780E0C94000069
S11301501092CD008CE08093CC00E9ECF0E080813B
S1130160886D8083E8ECF0E0808182608083EAEC33
S1130170F0E080818E6080830895E0915201809147
S11301805101E81729F0F0E0E751FD4F808108950F
S113019080E0089590915201E92FF0E0E751FD4F7E
S11301A080819F5F97FD03C0909352010895109240
S11301B05201089580914E019091010189130CC060
S11301C020914F01281308C03091500181E090E044
S11301D0321721F080E0089580E090E008951F92A6
S11301E00F920FB60F9211240BB60F922F933F93D9
S11301F04F935F936F937F938F939F93AF93BF932B
S1130200EF93FF9380914F018093500180914E01B1
S113021080934F018091CE0080934E0180914C01D8
S113022090914D01019761F48091510190914E019B
S1130230E82FF0E0E751FD4F90838F5F80935101E9
S11302400E94DA00892B31F081E090E090934D0117
S113025080934C018091510187FD10925101FF91CF
S1130260EF91BF91AF919F918F917F916F915F912A
S11302704F913F912F910F900BBE0F900FBE0F9097
S11302801F90189580914E019091000189130CC024
S113029020914F01281308C03091500181E090E073
S11302A0321721F080E0089580E090E00895CF9324
S11302B0DF931F92CDB7DEB70E94B60D8983CE01BE
S11302C001960E94560B0F90DF91CF9108950C94E4
S11302D0B60D0C94BE0D0C94A60D0F931F93CF93E3
S11302E0DF93182F092FCB010E942F0AD82FC92F73
S11302F00F931F932BE031E03F932F939F938F93A2
S11303000E947C0B8D2F9C2F0E9423050F900F9031
S11303100F900F900F900F908D2F9C2FDF91CF9106
S11303201F910F910C94C70ACF92DF92EF92FF9224
S11303300F931F93CF93DF9300D000D0CDB7DEB7D8
S11303408A01AE014F5F5F4F0E9432086B017C014E
S113035069817A818B819C810E94D506DC01CB0165
S113036064E070E00E946D0184E491E00E94230542
S1130370B801882777FD8095982F0E9408079B0174
S1130380AC0160E070E080E291E40E94C8089B0147
S1130390AC01C701B6010E9465080E9414090E94BD
S11303A0D5067B0177FF04C0EE24FF24E61AF70A82
S11303B0E114F104A1F0B701882777FD8095982F07
S11303C00E9408070E94E7070E94430720E030E0EC
S11303D040E85FE30E9471060E94D50602C060E017
S11303E070E0C12CD12C061B170BC016D10644F4A7
S11303F08EE091E00E9423058FEFC81AD80AF5CF4A
S113040064E070E0C7010F900F900F900F90DF91A0
S1130410CF911F910F91FF90EF90DF90CF900C94AC
S11304206D011F93CF93DF93C0E0D0E01CE12091D6
S1130430E3023091E402129FC001139F900D112436
S11304408C599F4F8C179D0784F0CE010E94B60DE6
S1130450811101C08FE30E94EF0487EA91E60197BE
S1130460F1F700C000002196E2CFDF91CF911F91F8
S113047008951F93CF93DF93C0E0D0E01CE1209157
S1130480E3023091E402129FC001139F900D1124E6
S1130490C817D90794F4CE018B599F4F0E94B60D0B
S11304A0811101C08FE30E94EF0487EA91E601976E
S11304B0F1F700C000002196E2CFDF91CF911F91A8
S11304C008950F931F93CF93DF938C0180E191E004
S11304D00E9423058CE1809FE001819FD00D1124AF
S11304E000E010E0E091E702F091E802EC0FFD1F5C
S11304F0E00FF11F80810E94EF040F5F1F4F08304F
S1130500110581F72FE38DE093E021508040904066
S1130510E1F700C0000087E191E00E94230589E132
S113052091E00E942305E091E702F091E802EC0FCC
S1130530FD1F608571858285938541E050E00E94AE
S113054094012FE38DE093E0215080409040E1F747
S113055000C0000087E191E00E94230580E291E061
S11305600E942305E091E702F091E802EC0FFD1FE1
S1130570648575858685978544E050E00E949401E2
S11305802FE38DE093E0215080409040E1F700C0DC
S1130590000087E191E00E94230586E291E00E9439
S11305A02305E091E702F091E802EC0FFD1F60895A
S11305B071898289938944E050E00E9494012FE379
S11305C08DE093E0215080409040E1F700C00000AE
S11305D087E191E00E9423058CE291E00E942305CB
S11305E0E091E702F091E802EC0FFD1F6489758940
S11305F08689978941E050E00E9494012FE38DE0C1
S113060093E0215080409040E1F700C0000087E172
S113061091E00E94230582E391E00E942305E0918A
S1130620E702F091E802EC0FFD1F608D718D828D61
S1130630938D40E050E00E9494012FE38DE093E01D
S1130640215080409040E1F700C0000087E191E034
S1130650DF91CF911F910F910C942305129A81EE93
S113066094E00197F1F700C00000129808951092E9
S1130670E6021092E50281E090E0909304018093F9
S1130680030181B18FEF81B987E893E10197F1F715
S113069000C0000012981098119816981598149A92
S11306A0139A0E942E0381EE94E00197F1F700C0A3
S11306B000000E942E0389EF90E00197F1F700C03B
S11306C000000E942E0389EF90E00197F1F700C02B
S11306D0000016981598149A13980E942E0389EF17
S11306E090E00197F1F700C0000016981598149A4D
S11306F013980E942E0389EF90E00197F1F700C050
S11307000000169A1598149813980E942E0389EFE6
S113071090E00197F1F700C000001698159814981E
S113072013980E942E0389EF90E00197F1F700C01F
S11307300000169A159A149A13980E942E0389EFB2
S113074090E00197F1F700C00000169815981498EE
S113075013980E942E0389EF90E00197F1F700C0EF
S11307600000169815981498139A0E942E0389EF86
S113077090E00197F1F700C00000169815981498BE
S113078013980E942E0389EF90E00197F1F700C0BF
S113079000001698159A149A13980E942E0389EF54
S11307A090E00197F1F700C000001698159814988E
S11307B013980E942E0389EF90E00197F1F700C08F
S11307C00000169A159A149A139A0E942E0389EF20
S11307D090E00197F1F700C0000080E090E00895F8
S11307E0019711F4169A01C016986130710511F43D
S11307F0159A01C015984130510511F4149A01C09D
S113080014982130310511F4139A01C013980E94F1
S11308102E0389EF90E00197F1F700C000000895DE
S11308201F93CF93DF9381B1877881B91098119A80
S1130830129A81EE94E00197F1F700C0000012B122
S113084082B1C2B1A2B11298E9EFF0E03197F1F7A9
S113085000C00000129AE1EEF4E03197F1F700C015
S11308600000E2B162B142B152B1807290E026E080
S1130870880F991F2A95E1F7C071D0E035E0CC0FBD
S1130880DD1F3A95E1F78C2B9D2B5870852BA870B2
S1130890B0E054E0AA0FBB1F5A95E1F78A2B9B2BBB
S11308A0E074F0E073E0EE0FFF1F7A95E1F78E2B12
S11308B09F2B607270E0660F771F660F771F862B81
S11308C0972B129851B1586751B9109811984071EB
S11308D050E0440F551F842B952B16FB222720F93B
S11308E030E03695322F222737952795822B932B8C
S11308F0DF91CF911F9108950E9410048F7799275B
S113090001960895892B11F4169801C0169A672B45
S113091011F4159801C0159A452B11F4149801C0CF
S1130920149A232B11F413980895139A0895CF93CE
S1130930DF93EC0110981198282F2295217085FBE4
S1130940442740F986FB662760F930E050E070E008
S113095081E090E00E9482040E942E039E01217097
S113096033274C2F46954170C2FB662760F950E04F
S113097070E0C3FB882780F990E00E948204DF9135
S1130980CF910C942E03CF93C82F109A119884FB07
S1130990222720F985FB442740F986FB662760F966
S11309A0881F8827881F30E050E070E090E00E94A4
S11309B082040E942E032C2F2170C1FB442740F98E
S11309C0C2FB662760F930E050E070E0C3FB882783
S11309D080F990E00E948204CF910C942E03CF936F
S11309E0C82F2091E5023091E6022F5F3F4F3093EC
S11309F0E6022093E5022131310531F08A3021F0FD
S1130A008C2FCF910C94C3042091030130910401E5
S1130A102130310579F480E490E00E94970422E0CB
S1130A2030E030930401209303011092E602109207
S1130A30E50205C02230310511F40E943703CA30A3
S1130A40F9F6CF9108950F931F93CF93DF93EC01A1
S1130A500E947C048E01FE0101900020E9F7319789
S1130A60EC1BFD0BC8018C1B9D0B8E179F0740F4DC
S1130A70F80181918F010E94EF040E947C04EBCF66
S1130A80DF91CF911F910F910895CF93DF931F9220
S1130A90CDB7DEB78FEF84B9F8940E94A80078949C
S1130AA00E9437032FE34DE053E021504040504073
S1130AB0E1F700C0000080E090E00E9457019093AD
S1130AC0E4028093E30263E070E00E946D0189E335
S1130AD091E00E94230587E191E00E9423058FE9BC
S1130AE096E8E1E081509040E040E1F700C000006A
S1130AF08091E3029091E4022CE1AC01249FC001B7
S1130B00259F900D11240E942F0A9093E802809350
S1130B10E7028BE1C82E82E0D82E93E5E92E91E01E
S1130B20F92E00E010E0812C912C2CE1B22E5FEF25
S1130B30851A950AC4010E945701F6018193919385
S1130B406F01B09E9001B19E300D11242B593F4F7F
S1130B50F701219331937F01080F191FF4E68F16D3
S1130B60910429F7C12CD12CE12CF12C8091E302C2
S1130B709091E402E816F9060CF04CC0B6016B59EA
S1130B807F4F8091E7029091E80248E050E08C0D9D
S1130B909D1D0E94A60D0091E7021091E8020C0D24
S1130BA01D1DC60183599F4F0E94BE0DF801608729
S1130BB0718782879387C6018F589F4F0E94BE0D0D
S1130BC0F8016487758786879787C6018B589F4F7E
S1130BD00E94BE0DF801608B718B828B938BC601D2
S1130BE087589F4F0E94BE0DF801648B758B868BCE
S1130BF0978BC60183589F4F0E94BE0DF801608FEA
S1130C00718F828F938FFFEFEF1AFF0A2CE1C20ED0
S1130C10D11CACCF00E010E08091E3029091E4029B
S1130C2008171907ECF40E943703C8010E946102F7
S1130C304FE75AE186E0415050408040E1F700C060
S1130C4000000F5F1F4FE8CF909152018091510136
S1130C5098130EC080914A0190914B01892B49F55C
S1130C6000914C0110914D010130110599F7ECCF21
S1130C700E94CA0089830E9442016981892B29F05C
S1130C8010924D0110924C01E5CF80914801909152
S1130C9049010E94C40D8091480190914901019637
S1130CA0909349018093480110934B0100934A01AA
S1130CB0D1CF0091460110914701C8010E94B60DA1
S1130CC00F5F1F4F1093470100934601083E110523
S1130CD014F40E94EF0410924B0110924A01C0CF09
S1130CE05058BB27AA270ED021C112D130F017D1FA
S1130CF020F031F49F3F11F41EF407C10EF4E09587
S1130D00E7FBD4C0E92F23D180F3BA176207730736
S1130D108407950718F071F49EF552C10EF4E0951E
S1130D200B2EBA2FA02D0B01B90190010C01CA01A1
S1130D30A0011124FF27591B99F0593F50F4503E4C
S1130D4068F11A16F040A22F232F342F4427585F3E
S1130D50F3CF469537952795A795F0405395C9F756
S1130D607EF41F16BA0B620B730B840BBAF091500E
S1130D70A1F0FF0FBB1F661F771F881FC2F70EC0AD
S1130D80BA0F621F731F841F48F487957795679580
S1130D90B795F7959E3F08F0B3CF9395880F08F069
S1130DA09927EE0F97958795089504D06894B1110B
S1130DB008C10895D4D088F09F5790F0B92F99278F
S1130DC0B751A0F0D1F0660F771F881F991F1AF052
S1130DD0BA95C9F712C0B13081F0F2D0B1E00895EC
S1130DE0EFC0672F782F8827B85F39F0B93FCCF36D
S1130DF0869577956795B395D9F73EF49095809548
S1130E00709561957F4F8F4F9F4F0895E89409C067
S1130E1097FB3EF490958095709561957F4F8F4F29
S1130E209F4F9923A9F0F92F96E9BB279395F6953F
S1130E30879577956795B795F111F8CFFAF4BB0FBD
S1130E4011F460FF1BC06F5F7F4F8F4F9F4F16C021
S1130E50882311F096E911C0772321F09EE8872FAB
S1130E60762F05C0662371F096E8862F70E060E067
S1130E702AF09A95660F771F881FDAF7880F9695E0
S1130E80879597F9089585D080F09F3740F49111A4
S1130E900EF097C060E070E080E89FEB089526F4C0
S1130EA01B16611D711D811D07C021C097F99F6725
S1130EB080E870E060E00895882371F4772321F0DE
S1130EC09850872B762F07C0662311F499270DC0FD
S1130ED09051862B70E060E02AF09A95660F771F98
S1130EE0881FDAF7880F9695879597F908959F3F9D
S1130EF031F0915020F4879577956795B795880FD1
S1130F00911D9695879597F908959FEF80EC089524
S1130F1000240A94161617061806090608950024D4
S1130F200A9412161306140605060895092E03944E
S1130F30000C11F4882352F0BB0F40F4BF2B11F4C2
S1130F4060FF04C06F5F7F4F8F4F9F4F089557FD21
S1130F509058440F551F59F05F3F71F04795880F23
S1130F6097FB991F61F09F3F79F0879508951216BA
S1130F7013061406551FF2CF4695F1DF08C0161666
S1130F8017061806991FF1CF869571056105089417
S1130F900895E5DFA0F0BEE7B91788F4BB279F38B2
S1130FA060F41616B11D672F782F8827985FF7CF46
S1130FB0869577956795B11D93959639C8F30895ED
S1130FC0E894BB2766277727CB0197F908950AD0C1
S1130FD029ED3BE54EED5EE378C00EF088CF95CF6A
S1130FE0689464CFBCDFC8F39923D1F3C6F3DF93CD
S1130FF0CF931F930F93FF92C92FDD2788232AF0E5
S11310002197660F771F881FDAF720E030E040E869
S11310105FEB9FE3883920F0803E30F021968F7794
S113102060DEECE8F0E003C05CDEE9EBF0E04DD11B
S11310308B01BE01EC01FB2E6F5771097595771F6B
S1131040880B990BE5DE28E132E741E35FE349D001
S1131050AF2D9801AE01FF900F911F91CF91DF91B9
S113106051DE64CFFA01DC01AA0FBB1F9B01AC0166
S1131070BF5728F422273327442750781FC0B7517D
S113108088F4AB2F0024469537952795011CA3952A
S1131090D2F3002069F0220F331F441FB395DAF313
S11310A00DD01ECE61307105A0E88A07B94630F430
S11310B09B01AC016627772788279078309621F02A
S11310C0208331834283538308950BD02FCF20DFB5
S11310D028F025DF18F0952309F0E8CE16CF112467
S11310E070CF35DFA0F3959FD1F3950F50E0551FD6
S11310F0629FF001729FBB27F00DB11D639FAA2769
S1131100F00DB11DAA1F649F6627B00DA11D661FB7
S1131110829F2227B00DA11D621F739FB00DA11DD8
S1131120621F839FA00D611D221F749F3327A00D92
S1131130611D231F849F600D211D822F762F6A2F2E
S113114011249F5750408AF0E1F088234AF0EE0FB3
S1131150FF1FBB1F661F771F881F91505040A9F7C0
S11311609E3F510570F0A2CE2CCF5F3FECF3983E2A
S1131170DCF3869577956795B795F795E7959F5F27
S1131180C1F7FE2B880F911D9695879597F90895C1
S1131190FA01EE0FFF1F30962105310599F1611513
S11311A0710561F48038BFE39B0749F16894903876
S11311B0810561F08038BFEF9B0741F0992342F528
S11311C0FF3FE1053105210511F1E8940894E79505
S11311D0D901AA2329F4AB2FBE2FF85FD0F310C096
S11311E0FF5F70F4A695E0F7F73950F019F0FF3A75
S11311F038F49F779F930CD00F9007FC9058089574
S11312003EF083CE60E070E080E89FE308954FE70E
S11312109F775F934F933F932F93E4DE2F913F91FA
S11312204F915F9152DF25C09ADEE0F09E37D8F0EF
S11312309639B8F49E3848F4672F782F8827985F3A
S1131240F9CF86957795679593959539D0F3B62F11
S1131250B1706B0F711D811D20F48795779567958B
S113126093952ACE44CEADCE19F40EF01FCEA8CE5F
S11312704CCE75DEC8F39638C0F707F80F92E894A1
S11312802BE33AEA48EB5FE72EDF0F920F920F92BF
S11312904DB75EB70F92E6DEE6EEF0E016D04F9162
S11312A05F91EF91FF91E595EE1FFF1F49F0FE5707
S11312B0E0684427EE0F441FFA95E1F74195550B7A
S11312C032D00F9007FE26C00895DF93CF931F936B
S11312D00F93FF92EF92DF927B018C01689405C01B
S11312E0DA2EEF01FEDEFE01E894A59125913591F9
S11312F045915591AEF3EF0105DDFE019701A8017B
S1131300DA9479F7DF90EF90FF900F911F91CF91CE
S1131310DF9108959B01AC0160E070E080E89FE3F9
S113132036C0C4CDE4CD1BDEE8F39923D9F3940F82
S1131330511DBBF39150504094F059F0882332F082
S1131340660F771F881F91505040C1F79E3F51058B
S113135044F7880F911D9695879597F908955F3FF7
S1131360ACF0983E9CF0BB27869577956795B7952A
S113137008F4B1609395C1F7BB0F58F711F460FFFF
S1131380E8CF6F5F7F4F8F4F9F4FE3CF1ACE0CD0C4
S1131390CDCDC5DD40F0BCDD30F021F45F3F19F068
S11313A085CD51110ECEB1CDD2DD98F39923C9F379
S11313B05523B1F3951B550BBB27AA276217730757
S11313C0840738F09F5F5F4F220F331F441FAA1F0B
S11313D0A9F333D00E2E3AF0E0E830D091505040CB
S11313E0E695001CCAF729D0FE2F27D0660F771F79
S11313F0881FBB1F261737074807AB07B0E809F05B
S1131400BB0B802DBF01FF2793585F4F2AF09E3FEF
S1131410510568F04BCDD5CD5F3FECF3983EDCF33E
S1131420869577956795B795F7959F5FC9F7880F68
S1131430911D9695879597F90895E1E0660F771FBA
S1131440881FBB1F621773078407BA0720F0621B4B
S1131450730B840BBA0BEE1F88F7E0950895CF93B6
S1131460DF938230910510F482E090E0E0916B0309
S1131470F0916C0320E030E0A0E0B0E0309739F167
S11314804081518148175907B8F04817590771F43A
S113149082819381109729F013969C938E931297CF
S11314A02CC090936C0380936B0327C021153105E6
S11314B031F04217530718F0A901DB0101C0EF0115
S11314C09A01BD01DF010280F381E02DD7CF211500
S11314D03105F9F0281B390B2430310580F48A8159
S11314E09B816115710521F0FB019383828304C004
S11314F090936C0380936B03FE01329644C0FE010B
S1131500E20FF31F81939193225031093983288389
S11315103AC02091690330916A03232B41F420914E
S113152007013091080130936A03209369032091E5
S11315300501309106012115310541F42DB73EB75F
S11315404091090150910A01241B350BE091690374
S1131550F0916A03E217F307A0F42E1B3F0B281740
S1131560390778F0AC014E5F5F4F2417350748F018
S11315704E0F5F1F50936A034093690381939193C5
S113158002C0E0E0F0E0CF01DF91CF910895CF9366
S1131590DF93009709F487C0FC013297138212820B
S11315A0C0916B03D0916C03209781F42081318129
S11315B0280F391F8091690390916A03821793075A
S11315C079F5F0936A03E09369036DC0DE0120E0CE
S11315D030E0AE17BF0750F412964D915C9113970B
S11315E09D014115510509F1DA01F3CFB383A283BB
S11315F040815181840F951F8A179B0771F48D9147
S11316009C911197840F951F029691838083129663
S11316108D919C911397938382832115310529F42D
S1131620F0936C03E0936B033EC0D9011396FC93D3
S1131630EE9312974D915D91A40FB51FEA17FB0726
S113164079F480819181840F951F0296D9011196B6
S11316509C938E938281938113969C938E9312977D
S1131660E0E0F0E08A819B81009719F0FE01EC0133
S1131670F9CFCE01029628813981820F931F2091E0
S1131680690330916A032817390769F4309729F4FC
S113169010926C0310926B0302C013821282D093D7
S11316A06A03C0936903DF91CF910895FC018827F1
S11316B09927E89421912032E9F3293010F02E3053
S11316C0C8F32B3241F02D3239F4689404C00E94DF
S11316D0740B820F911D219120532A30C0F31EF404
S11316E0909581959F4F08957AE0979F902D879FBD
S11316F0802D910D112408950F931F93CF93DF93A1
S1131700CDB7DEB72E970FB6F894DEBF0FBECDBFB0
S11317100D891E8986E08C831A8309838FEF9FE7E6
S11317209E838D83AE01475E5F4F6F89788DCE01B6
S113173001960E94AB0BEF81F885E00FF11F108238
S11317402E960FB6F894DEBF0FBECDBFDF91CF91BA
S11317501F910F9108952F923F924F925F926F9233
S11317607F928F929F92AF92BF92CF92DF92EF922D
S1131770FF920F931F93CF93DF93CDB7DEB72C97D0
S11317800FB6F894DEBF0FBECDBF7C016B018A019A
S1131790FC0117821682838181FFBDC1CE010196AF
S11317A04C01F7019381F60193FD859193FF81919B
S11317B06F01882309F4ABC1853239F493FD859117
S11317C093FF81916F01853229F4B70190E00E9463
S11317D0E80DE7CF512C312C20E02032A0F48B32DD
S11317E069F030F4803259F0833269F420612CC0FE
S11317F08D3239F0803339F4216026C022602460B0
S113180023C0286021C027FD27C030ED380F3A30AF
S113181078F426FF06C0FAE05F9E300D1124532EA3
S113182013C08AE0389E300D1124332E20620CC080
S11318308E3221F426FD6BC1206406C08C3611F46F
S1131840206802C0883641F4F60193FD859193FF28
S113185081916F018111C1CF982F9F7D9554933051
S113186028F40C5F1F4FFFE3F9830DC0833631F07A
S1131870833771F0833509F05BC022C0F8018081A1
S113188089830E5F1F4F44244394512C540115C087
S11318903801F2E06F0E711CF801A080B18026FFC0
S11318A003C0652D70E002C06FEF7FEFC5012C8788
S11318B00E94DD0D2C0183012C852F77222E17C069
S11318C03801F2E06F0E711CF801A080B18026FF90
S11318D003C0652D70E002C06FEF7FEFC5012C8758
S11318E00E94D20D2C012C852068222E830123FC1A
S11318F01BC0832D90E048165906B0F4B70180E26E
S113190090E00E94E80D3A94F4CFF50127FC85910C
S113191027FE81915F01B70190E00E94E80D31102C
S11319203A94F1E04F1A51084114510471F7E5C09B
S1131930843611F0893639F5F80127FF07C0608134
S11319407181828193810C5F1F4F08C06081718116
S1131950882777FD8095982F0E5F1F4F2F76B22E24
S113196097FF09C090958095709561957F4F8F4F33
S11319709F4F2068B22E2AE030E0A4010E941A0E84
S1131980A82EA81844C0853729F42F7EB22E2AE049
S113199030E025C0F22FF97FBF2E8F36C1F018F446
S11319A0883579F0B4C0803719F0883721F0AFC09A
S11319B02F2F2061B22EB4FE0DC08B2D8460B82E63
S11319C009C024FF0AC09F2F9660B92E06C028E0E4
S11319D030E005C020E130E002C020E132E0F8014F
S11319E0B7FE07C060817181828193810C5F1F4FB4
S11319F006C06081718180E090E00E5F1F4FA401FA
S1131A000E941A0EA82EA818FB2DFF77BF2EB6FE33
S1131A100BC02B2D2E7FA51450F4B4FE0AC0B2FCCB
S1131A2008C02B2D2E7E05C07A2C2B2D03C07A2CBA
S1131A3001C0752C24FF0DC0FE01EA0DF11D80814B
S1131A40803311F4297E09C022FF06C07394739475
S1131A5004C0822F867809F0739423FD13C020FFFD
S1131A6006C05A2C731418F4530C5718732C73149F
S1131A7068F4B70180E290E02C870E94E80D73942B
S1131A802C85F5CF731410F4371801C0312C24FFC2
S1131A9012C0B70180E390E02C870E94E80D2C85EA
S1131AA022FF17C021FF03C088E590E002C088E749
S1131AB090E0B7010CC0822F867859F021FD02C056
S1131AC080E201C08BE227FD8DE2B70190E00E9425
S1131AD0E80DA51438F4B70180E390E00E94E80D06
S1131AE05A94F7CFAA94F401EA0DF11D8081B7014D
S1131AF090E00E94E80DA110F5CF332009F451CEF7
S1131B00B70180E290E00E94E80D3A94F6CFF70125
S1131B108681978102C08FEF9FEF2C960FB6F894C1
S1131B20DEBF0FBECDBFDF91CF911F910F91FF900C
S1131B30EF90DF90CF90BF90AF909F908F907F9069
S1131B406F905F904F903F902F900895DC01CB01F0
S1131B50FC01F999FECF06C0F2BDE1BDF89A3196B9
S1131B6000B40D9241505040B8F70895F999FECF52
S1131B7092BD81BDF89A992780B50895A6E1B0E099
S1131B8044E050E00C94A80D262FF999FECF1FBA1B
S1131B9092BD81BD20BD0FB6F894FA9AF99A0FBE92
S1131BA001960895FC010590615070400110D8F72A
S1131BB0809590958E0F9F1F0895FC016150704091
S1131BC001900110D8F7809590958E0F9F1F08956E
S1131BD00F931F93CF93DF93182F092FEB018B8162
S1131BE081FD03C08FEF9FEF20C082FF10C04E81A4
S1131BF05F812C813D81421753077CF4E881F98190
S1131C009F012F5F3F4F39832883108306C0E885E7
S1131C10F985812F0995892B29F72E813F812F5F23
S1131C203F4F3F832E83812F902FDF91CF911F91C0
S1131C300F910895FA01AA27283051F1203181F13A
S1131C40E8946F936E7F6E5F7F4F8F4F9F4FAF4FC0
S1131C50B1E03ED0B4E03CD0670F781F891F9A1FD3
S1131C60A11D680F791F8A1F911DA11D6A0F711D87
S1131C70811D911DA11D20D009F468943F912AE093
S1131C80269F11243019305D3193DEF6CF0108957B
S1131C90462F4770405D4193B3E00FD0C9F7F6CFAC
S1131CA0462F4F70405D4A3318F0495D31FD405274
S1131CB0419302D0A9F7EACFB4E0A695979587950A
S1131CC077956795BA95C9F70097610571050895E9
S1131CD09B01AC010A2E0694579547953795279595
S1131CE0BA95C9F7620F731F841F951FA01D08952D
S1071CF0F894FFCF92
S1131CF45E2441010000006D0320002564003000CF
S1131D0463616C6C3A20000A00667265713A2000C3
S1131D146C61743A20006C6F6E3A20006572703AFC
S1131D242000686161743A20002073746174696FDF
S1091D346E732E2E2E003A
S9030000FC
