:100000000C9446000C9465000C9465000C946500FB
:100010000C9465000C9465000C9465000C946500CC
:100020000C9465000C9465000C9465000C946500BC
:100030000C9465000C9465000C9465000C946500AC
:100040000C9465000C9465000C9465000C9465009C
:100050000C9465000C9465000C9465000C9465008C
:100060000C9465000C9465000C9465000C9465007C
:100070000C9467000C9465000C9465000C9465006A
:100080000C9465000C9465000C94650011241FBE4F
:10009000CFEFD0E4DEBFCDBF11E0A0E0B1E0E2E5FC
:1000A000F6E000E00BBF02C007900D92A031B1074F
:1000B000D9F711E0A0E1B1E001C01D92AC3AB1075F
:1000C000E1F70E947B020C9427030C9400001F921E
:1000D0000F920FB60F9211240BB60F922F938F939E
:1000E0009F93EF93FF93209118018091CE00E22F10
:1000F000F0E0E45DFE4F8083803431F481E090E0F5
:10010000909317018093160181E0820F87FD03C051
:100110008093180102C010921801FF91EF919F91F6
:100120008F912F910F900BBE0F900FBE0F901F90CD
:1001300018951092CD008CE08093CC00E9ECF0E0B3
:100140008081886D8083E8ECF0E08081826080832C
:10015000EAECF0E080818E6080830895E0911901DF
:1001600080911801E81729F0F0E0E45DFE4F8081EE
:10017000089580E0089590911901809118019817D1
:1001800071F0E92FF0E0E45DFE4F80819F5F97FD05
:1001900003C090931901089510921901089580E009
:1001A0000895129A81EE94E00197F1F700C00000E3
:1001B0001298089581B18FEF81B987E893E1019793
:1001C000F1F700C000001298109811981698159831
:1001D000149A139A0E94D10081EE94E00197F1F7EE
:1001E00000C000000E94D10089EF90E00197F1F774
:1001F00000C000000E94D10089EF90E00197F1F764
:1002000000C0000016981598149A13980E94D10007
:1002100089EF90E00197F1F700C00000169815985B
:10022000149A13980E94D10089EF90E00197F1F79A
:1002300000C00000169A1598149813980E94D100D7
:1002400089EF90E00197F1F700C00000169815982B
:10025000149813980E94D10089EF90E00197F1F76C
:1002600000C00000169A159A149A13980E94D100A3
:1002700089EF90E00197F1F700C0000016981598FB
:10028000149813980E94D10089EF90E00197F1F73C
:1002900000C00000169815981498139A0E94D10077
:1002A00089EF90E00197F1F700C0000016981598CB
:1002B000149813980E94D10089EF90E00197F1F70C
:1002C00000C000001698159A149A13980E94D10045
:1002D00089EF90E00197F1F700C00000169815989B
:1002E000149813980E94D10089EF90E00197F1F7DC
:1002F00000C00000169A159A149A139A0E94D10011
:1003000089EF90E00197F1F700C0000080E090E0F5
:100310000895019711F4169A01C01698613071057D
:1003200011F4159A01C015984130510511F4149A31
:1003300001C014982130310511F4139A01C01398AB
:100340000E94D10089EF90E00197F1F700C0000012
:1003500008951F93CF93DF9381B1877881B9109867
:10036000119A129A81EE94E00197F1F700C0000013
:1003700012B182B1C2B1A2B11298E9EFF0E03197A7
:10038000F1F700C00000129AE1EEF4E03197F1F7C6
:1003900000C00000E2B162B142B152B1807290E09F
:1003A00026E0880F991F2A95E1F7C071D0E035E06B
:1003B000CC0FDD1F3A95E1F78C2B9D2B5870852BC8
:1003C000A870B0E054E0AA0FBB1F5A95E1F78A2B42
:1003D0009B2BE074F0E073E0EE0FFF1F7A95E1F7DE
:1003E0008E2B9F2B607270E0660F771F660F771F52
:1003F000862B972B129851B1586751B910981198C4
:10040000407150E0440F551F842B952B16FB22277B
:1004100020F930E03695322F222737952795822B09
:10042000932BDF91CF911F9108950E94A9018F779F
:1004300099270895892B11F4169801C0169A672BF5
:1004400011F4159801C0159A452B11F4149801C0A8
:10045000149A232B11F413980895139A0895CF93A7
:10046000C82F109A119884FB222720F985FB442776
:1004700040F986FB662760F9881F8827881F30E0CF
:1004800050E070E090E00E941A020E94D1002C2FF0
:100490002170C1FB442740F9C2FB662760F930E0B8
:1004A00050E070E0C3FB882780F990E00E941A02B8
:1004B000CF910C94D1000C942F020F931F93CF93E4
:1004C000DF93EC018C01FE0101900020E9F73197E8
:1004D000EC1BFD0BC8018C1B9D0B8E179F0730F486
:1004E000F80181918F010E942F02EDCFDF91CF9112
:1004F0001F910F910895CF93DF9300D000D0CDB717
:10050000DEB78FEF84B9F8940E94990078940E9426
:10051000DA00009116011091170101301105F9F46C
:100520000E94BB008823D9F0833229F4109217016E
:100530001092160114C0682F80911201909113013E
:100540000E941903809112019091130101969093DA
:1005500013018093120110931501009314018091EF
:10056000140190911501892BA1F2009110011091B5
:100570001101C8010E941103F801E65EFE4F80835D
:100580000F5F1F4F1093110100931001109215017E
:10059000109214010630110509F0BBCFEBE1F1E038
:1005A000DE01119681918D9381E0E032F807D1F759
:1005B00023E333E34CEC52E469817A818B819C81A3
:1005C0000E94E9028111A5CF81E091E00E945D02C5
:1005D000A0CF03D008F481E00895990F0008550FCB
:1005E000AA0BE0E8FEEF16161706E807F907C0F0B9
:1005F00012161306E407F50798F0621B730B840BC1
:10060000950B39F40A2661F0232B242B252B21F49A
:1006100008950A2609F4A140A6958FEF811D811D3A
:100620000895F999FECF92BD81BDF89A992780B5BA
:100630000895262FF999FECF1FBA92BD81BD20BD26
:100640000FB6F894FA9AF99A0FBE01960895F894A5
:02065000FFCFDA
:1006520041666C6F61742073756363657373000028
:00000001FF
