S00F00006461745F6C63642E737265634A
S11300000C9487000C94A6000C94A6000C94A600F3
S11300100C94A6000C94A6000C94A6000C94A600C4
S11300200C94A6000C94A6000C94A6000C94A600B4
S11300300C94A6000C94A6000C94A6000C94A600A4
S11300400C94A6000C94A6000C94A6000C94A60094
S11300500C94A6000C94A6000C94A6000C94A60084
S11300600C94A6000C94A6000C94A6000C94A60074
S11300700C94F2000C94A6000C94A6000C94A60018
S11300800C94A6000C94A6000C94A6000800000092
S1130090BE922449123EABAAAA2ABECDCCCC4C3E79
S11300A000000080BEABAAAAAA3E00000000BF0068
S11300B00000803F0000000000084178D3BB438764
S11300C0D1133D190E3CC3BD4282AD2B3E68EC8278
S11300D076BED98FE1A93E4C80EFFFBE01C4FF7FFD
S11300E03F000000000007634236B79BD8A71A39C7
S11300F0685618AEBAAB558C1D3CB7CC5763BD6D72
S1130100EDFD753EF6177231BF000000803F1124EB
S11301101FBECFEFD0E4DEBFCDBF11E0A0E0B1E061
S1130120EAE6FEE100E00BBF02C007900D92AC3698
S1130130B107D9F713E0ACE6B1E001C01D92A539CF
S1130140B107E1F70E949D060C94330F0C94000054
S11301501092CD008CE08093CC00E9ECF0E080813B
S1130160886D8083E8ECF0E0808182608083EAEC33
S1130170F0E080818E608083089590917A0180916F
S11301807901981739F0E0917A01F0E0EF5EFC4FC5
S11301908081089580E00895E0917A01F0E0EF5EB7
S11301A0FC4F808190917A019F5F90937A019091A6
S11301B07A0197FD10927A010895809176019091C9
S11301C0010189130CC020917701281308C03091D4
S11301D0780181E090E0321721F080E0089580E01A
S11301E090E008951F920F920FB60F9211240BB650
S11301F00F922F933F934F935F936F937F938F93BC
S11302009F93AF93BF93EF93FF9380917701809374
S1130210780180917601809377018091CE0080935C
S113022076018091740190917501019769F4E091D0
S11302307901F0E080917601EF5EFC4F808380913C
S113024079018F5F809379010E94DD00892B31F061
S113025081E090E09093750180937401809179011D
S113026087FD10927901FF91EF91BF91AF919F911A
S11302708F917F916F915F914F913F912F910F904B
S11302800BBE0F900FBE0F901F90189580917601B2
S11302909091000189130CC020917701281308C0A4
S11302A03091780181E090E0321721F080E00895E8
S11302B080E090E00895CF93DF931F92CDB7DEB72F
S11302C00E94710E8983CE0101960E94110C0F9039
S11302D0DF91CF9108950C94710E0C94790E0C94C7
S11302E0610E0F931F93CF93DF93182F092FCB0128
S11302F00E94EA0AD82FC92F0F931F932AE031E0F6
S11303003F932F939F938F930E94370C8D2F9C2F95
S11303100E947B060F900F900F900F900F900F90FC
S11303208D2F9C2FDF91CF911F910F910C94820BF5
S1130330CF92DF92EF92FF920F931F93CF93DF93AD
S113034000D000D0CDB7DEB78A01AE014F5F5F4F5A
S11303500E94ED086B017C0169817A818B819C810B
S11303600E949007DC01CB0164E070E00E947101FF
S113037085E491E00E947B06B801882777FD80958B
S1130380982F0E94C3079B01AC0160E070E080E2FB
S113039091E40E9483099B01AC01C701B6010E944C
S11303A020090E94CF090E9490077B0177FF04C0B7
S11303B0EE24FF24E61AF70AE114F104A1F0B701D0
S11303C0882777FD8095982F0E94C3070E94A20872
S11303D00E94FE0720E030E040E85FE30E942C0723
S11303E00E94900702C060E070E0C12CD12C061B73
S11303F0170BC016D10644F48DE091E00E947B06F1
S11304008FEFC81AD80AF5CF64E070E0C7010F90E7
S11304100F900F900F90DF91CF911F910F91FF904C
S1130420EF90DF90CF900C9471011F93CF93DF93E3
S1130430C0E0D0E01CE120910B0330910C03129F2B
S1130440C001139F900D11248C599F4F8C179D0749
S113045084F0CE010E94710E811101C08FE30E94CD
S1130460470687EA91E60197F1F700C0000021965C
S1130470E2CFDF91CF911F9108951F93CF93DF9324
S1130480C0E0D0E01CE120910B0330910C03129FDB
S1130490C001139F900D1124C817D90794F4CE01FD
S11304A088599F4F0E94710E811101C08FE30E94F1
S11304B0470687EA91E60197F1F700C0000021960C
S11304C0E2CFDF91CF911F9108950F931F93CF93A4
S11304D0DF932CE1289F8001299F100D1124C0E097
S11304E0D0E0E0910F03F0911003E00FF11FEC0F47
S11304F0FD1F80810E9447062196C830D10589F7E7
S1130500DF91CF911F910F9108950F931F93CF9374
S1130510DF938C0163E070E001960E94710181E237
S113052091E00E947B06C8010E9465022FE986E8DB
S113053091E0215080409040E1F700C000008FE03E
S113054091E00E947B068091740190917501892B42
S113055009F0C0C081E191E00E947B068CE1809F9C
S1130560E001819FD00D1124E0910F03F09110035D
S1130570EC0FFD1F608571858285938541E050E015
S11305800E9498012FE986E891E021508040904034
S1130590E1F700C000008FE091E00E947B068091AB
S11305A0740190917501892B09F094C088E191E060
S11305B00E947B06E0910F03F0911003EC0FFD1FE6
S11305C0648575858685978544E050E00E9498018E
S11305D02FE986E891E0215080409040E1F700C087
S11305E000008FE091E00E947B068091740190915D
S11305F07501892B09F06EC08EE191E00E947B06A3
S1130600E0910F03F0911003EC0FFD1F60897189D5
S11306108289938944E050E00E9498012FE986E89A
S113062091E0215080409040E1F700C000008FE04D
S113063091E00E947B068091740190917501892B51
S113064009F048C084E291E00E947B06E0910F0328
S1130650F0911003EC0FFD1F6489758986899789D1
S113066041E050E00E9498012FE986E891E0215092
S113067080409040E1F700C000008FE091E00E94CC
S11306807B068091740190917501892B19F58AE29A
S113069091E00E947B06E0910F03F0911003EC0FB0
S11306A0FD1F608D718D828D938D40E050E00E941E
S11306B098012FE986E891E0215080409040E1F7CD
S11306C000C000008FE091E00E947B0680917401DD
S11306D090917501DF91CF911F910F9108958FEF44
S11306E084B9F8940E94A80078940E948F042FE3A0
S11306F08DE093E0215080409040E1F700C000007D
S11307000895BF92CF92DF92EF92FF920F931F93BF
S1130710CF93DF9380E090E00E94790E0E949007CF
S113072070930C0360930B034CE1469F9001479F29
S1130730300D1124C9010E94EA0A9093100380939A
S11307400F0383E4C82E82E0D82E9BE7E92E91E0C4
S1130750F92EC4E0D0E000E010E02CE1B22ECE018E
S11307600E945B01F601819391936F01B09E900109
S1130770B19E300D112428593F4FF7012193319335
S11307807F01080F191F2196C836D10541F7C0E033
S1130790D0E0E12CF12C80910B0390910C03E8162E
S11307A0F9060CF04AC0BE0168597F4F80910F03CF
S11307B09091100348E050E08C0F9D1F0E94610E41
S11307C000910F03109110030C0F1D1FCE018059CF
S11307D09F4F0E94790EF801608771878287938703
S11307E0CE018C589F4F0E94790EF801648775875B
S11307F086879787CE0188589F4F0E94790EF8010B
S1130800608B718B828B938BCE0184589F4F0E9497
S1130810790EF801648B758B868B978BCE0180588B
S11308209F4F0E94790EF801608F718F828F938F92
S1130830FFEFEF1AFF0A6C96AECFDF91CF911F91B5
S11308400F91FF90EF90DF90CF90BF90089510929A
S11308500C0310920B0380910F03909110030E94DC
S1130860820B1092100310920F03E3E4F2E0ABE763
S1130870B1E0119211921D921D9283E0EB30F807C2
S1130880C1F70895CF93DF930E948F0463E070E073
S113089080910B0390910C030E94710181E391E01C
S11308A00E947B062FEB87E299E021508040904024
S11308B0E1F700C000008091740190917501892BCB
S11308C011F5C0E0D0E080910B0390910C03C817A0
S11308D0D907CCF48091740190917501892B99F416
S11308E00E948F04CE010E94850280917401909130
S11308F07501892B41F48FE493EC0197F1F700C063
S113090000002196E0CFDF91CF910895129A81EEF5
S113091094E00197F1F700C0000012980895109236
S11309200E0310920D0381E090E0909303018093F5
S1130930020181B18FEF81B987E893E10197F1F763
S113094000C0000012981098119816981598149ADF
S1130950139A0E94860481EE94E00197F1F700C097
S113096000000E94860489EF90E00197F1F700C02F
S113097000000E94860489EF90E00197F1F700C01F
S1130980000016981598149A13980E94860489EF0B
S113099090E00197F1F700C0000016981598149A9A
S11309A013980E94860489EF90E00197F1F700C044
S11309B00000169A1598149813980E94860489EFDB
S11309C090E00197F1F700C000001698159814986C
S11309D013980E94860489EF90E00197F1F700C014
S11309E00000169A159A149A13980E94860489EFA7
S11309F090E00197F1F700C000001698159814983C
S1130A0013980E94860489EF90E00197F1F700C0E3
S1130A100000169815981498139A0E94860489EF7A
S1130A2090E00197F1F700C000001698159814980B
S1130A3013980E94860489EF90E00197F1F700C0B3
S1130A4000001698159A149A13980E94860489EF48
S1130A5090E00197F1F700C00000169815981498DB
S1130A6013980E94860489EF90E00197F1F700C083
S1130A700000169A159A149A139A0E94860489EF14
S1130A8090E00197F1F700C0000080E090E0089545
S1130A90019711F4169A01C016986130710511F48A
S1130AA0159A01C015984130510511F4149A01C0EA
S1130AB014982130310511F4139A01C013980E943F
S1130AC0860489EF90E00197F1F700C000000895D3
S1130AD01F93CF93DF9381B1877881B91098119ACE
S1130AE0129A81EE94E00197F1F700C0000012B170
S1130AF082B1C2B1A2B11298E9EFF0E03197F1F7F7
S1130B0000C00000129AE1EEF4E03197F1F700C062
S1130B100000E2B162B142B152B1807290E026E0CD
S1130B20880F991F2A95E1F7C071D0E035E0CC0F0A
S1130B30DD1F3A95E1F78C2B9D2B5870852BA870FF
S1130B40B0E054E0AA0FBB1F5A95E1F78A2B9B2B08
S1130B50E074F0E073E0EE0FFF1F7A95E1F78E2B5F
S1130B609F2B607270E0660F771F660F771F862BCE
S1130B70972B129851B1586751B910981198407138
S1130B8050E0440F551F842B952B16FB222720F988
S1130B9030E03695322F222737952795822B932BD9
S1130BA0DF91CF911F9108950E9468058F7799274F
S1130BB001960895892B11F4169801C0169A672B93
S1130BC011F4159801C0159A452B11F4149801C01D
S1130BD0149A232B11F413980895139A0895CF931C
S1130BE0DF93EC0110981198282F2295217085FB32
S1130BF0442740F986FB662760F930E050E070E056
S1130C0081E090E00E94DA050E9486049E01217032
S1130C1033274C2F46954170C2FB662760F950E09C
S1130C2070E0C3FB882780F990E00E94DA05DF9129
S1130C30CF910C948604CF93C82F109A119884FBFB
S1130C40222720F985FB442740F986FB662760F9B3
S1130C50881F8827881F30E050E070E090E00E94F1
S1130C60DA050E9486042C2F2170C1FB442740F929
S1130C70C2FB662760F930E050E070E0C3FB8827D0
S1130C8080F990E00E94DA05CF910C948604CF930A
S1130C90C82F20910D0330910E032F5F3F4F3093E7
S1130CA00E0320930D032131310531F08A3021F0F8
S1130CB08C2FCF910C941B062091020130910301DB
S1130CC02130310579F480E490E00E94EF0522E0C0
S1130CD030E0309303012093020110920E0310922E
S1130CE00D0305C02230310511F40E948F04CA306F
S1130CF0F9F6CF9108950F931F93CF93DF93EC01EF
S1130D000E94D4058E01FE0101900020E9F731977D
S1130D10EC1BFD0BC8018C1B9D0B8E179F0740F429
S1130D20F80181918F010E9447060E94D405EBCF00
S1130D30DF91CF911F910F910895CF93DF931F926D
S1130D40CDB7DEB70E946F0387E491E00E947B0673
S1130D500E9481032FE38DE093E021508040904076
S1130D60E1F700C0000085E591E00E947B0601E008
S1130D7010E0E0907401F0907501E1E0EE16F104EA
S1130D8009F052C08091700190917101892B61F436
S1130D900E948F048BE591E00E947B06F092710122
S1130DA0E09270010E94270490917A018091790168
S1130DB09817E1F10E94CC0089830E944601698161
S1130DC0892BF1F010927501109274011092710147
S1130DD0109270010E948F0487E491E00E947B06C8
S1130DE00E948103FFE72AE186E0F1502040804021
S1130DF0E1F700C0000085E591E00E947B0616C083
S1130E0080917201909173010E947F0E8091720112
S1130E1090917301019690937301809372011093E2
S1130E206F0100936E0102C00E94420480916E0122
S1130E3090916F01892B09F49CCF80916C01909162
S1130E406D01019690936D0180936C0110926F0176
S1130E5010926E018ECF5058BB27AA270ED021C105
S1130E6012D130F017D120F031F49F3F11F41EF469
S1130E7007C10EF4E095E7FBD4C0E92F23D180F33A
S1130E80BA17620773078407950718F071F49EF583
S1130E9052C10EF4E0950B2EBA2FA02D0B01B9010F
S1130EA090010C01CA01A0011124FF27591B99F0DC
S1130EB0593F50F4503E68F11A16F040A22F232FE8
S1130EC0342F4427585FF3CF469537952795A79538
S1130ED0F0405395C9F77EF41F16BA0B620B730BDF
S1130EE0840BBAF09150A1F0FF0FBB1F661F771F50
S1130EF0881FC2F70EC0BA0F621F731F841F48F405
S1130F00879577956795B795F7959E3F08F0B3CF8A
S1130F109395880F08F09927EE0F97958795089574
S1130F2004D06894B11108C10895D4D088F09F57B3
S1130F3090F0B92F9927B751A0F0D1F0660F771F21
S1130F40881F991F1AF0BA95C9F712C0B13081F001
S1130F50F2D0B1E00895EFC0672F782F8827B85FEB
S1130F6039F0B93FCCF3869577956795B395D9F762
S1130F703EF490958095709561957F4F8F4F9F4F6C
S1130F800895E89409C097FB3EF490958095709578
S1130F9061957F4F8F4F9F4F9923A9F0F92F96E9C1
S1130FA0BB279395F695879577956795B795F11136
S1130FB0F8CFFAF4BB0F11F460FF1BC06F5F7F4FD3
S1130FC08F4F9F4F16C0882311F096E911C07723E5
S1130FD021F09EE8872F762F05C0662371F096E8EE
S1130FE0862F70E060E02AF09A95660F771F881FBD
S1130FF0DAF7880F9695879597F9089585D080F04C
S11310009F3740F491110EF097C060E070E080E8E3
S11310109FEB089526F41B16611D711D811D07C0E9
S113102021C097F99F6780E870E060E00895882305
S113103071F4772321F09850872B762F07C066230D
S113104011F499270DC09051862B70E060E02AF0CE
S11310509A95660F771F881FDAF7880F96958795FC
S113106097F908959F3F31F0915020F48795779533
S11310706795B795880F911D9695879597F908956B
S11310809FEF80EC089500240A941616170618069C
S11310900906089500240A94121613061406050678
S11310A00895092E0394000C11F4882352F0BB0F09
S11310B040F4BF2B11F460FF04C06F5F7F4F8F4F6C
S11310C09F4F089557FD9058440F551F59F05F3FA7
S11310D071F04795880F97FB991F61F09F3F79F056
S11310E087950895121613061406551FF2CF4695D8
S11310F0F1DF08C0161617061806991FF1CF86955A
S11311007105610508940895E5DFA0F0BEE7B917FD
S113111088F4BB279F3860F41616B11D672F782F0B
S11311208827985FF7CF869577956795B11D939536
S11311309639C8F30895E894BB2766277727CB012F
S113114097F908950AD029ED3BE54EED5EE378C0AA
S11311500EF088CF95CF689464CFBCDFC8F3992391
S1131160D1F3C6F3DF93CF931F930F93FF92C92F4D
S1131170DD2788232AF02197660F771F881FDAF767
S113118020E030E040E85FEB9FE3883920F0803EC8
S113119030F021968F7760DEECE8F0E003C05CDE8F
S11311A0E9EBF0E04DD18B01BE01EC01FB2E6F5752
S11311B071097595771F880B990BE5DE28E132E7F5
S11311C041E35FE349D0AF2D9801AE01FF900F9149
S11311D01F91CF91DF9151DE64CFFA01DC01AA0F98
S11311E0BB1F9B01AC01BF5728F422273327442798
S11311F050781FC0B75188F4AB2F0024469537951B
S11312002795011CA395D2F3002069F0220F331F08
S1131210441FB395DAF30DD01ECE61307105A0E8FA
S11312208A07B94630F49B01AC01662777278827E3
S11312309078309621F0208331834283538308953C
S11312400BD02FCF20DF28F025DF18F0952309F0ED
S1131250E8CE16CF112470CF35DFA0F3959FD1F3DC
S1131260950F50E0551F629FF001729FBB27F00D50
S1131270B11D639FAA27F00DB11DAA1F649F6627A5
S1131280B00DA11D661F829F2227B00DA11D621FF4
S1131290739FB00DA11D621F839FA00D611D221FAE
S11312A0749F3327A00D611D231F849F600D211D92
S11312B0822F762F6A2F11249F5750408AF0E1F035
S11312C088234AF0EE0FFF1FBB1F661F771F881F7E
S11312D091505040A9F79E3F510570F0A2CE2CCFFB
S11312E05F3FECF3983EDCF3869577956795B79569
S11312F0F795E7959F5FC1F7FE2B880F911D969593
S1131300879597F90895FA01EE0FFF1F309621058E
S1131310310599F16115710561F48038BFE39B07CC
S113132049F168949038810561F08038BFEF9B07DC
S113133041F0992342F5FF3FE1053105210511F103
S1131340E8940894E795D901AA2329F4AB2FBE2F7A
S1131350F85FD0F310C0FF5F70F4A695E0F7F7399B
S113136050F019F0FF3A38F49F779F930CD00F9008
S113137007FC905808953EF083CE60E070E080E86A
S11313809FE308954FE79F775F934F933F932F9386
S1131390E4DE2F913F914F915F9152DF25C09ADE99
S11313A0E0F09E37D8F09639B8F49E3848F4672FA9
S11313B0782F8827985FF9CF8695779567959395C9
S11313C09539D0F3B62FB1706B0F711D811D20F4C8
S11313D087957795679593952ACE44CEADCE19F42B
S11313E00EF01FCEA8CE4CCE75DEC8F39638C0F7EB
S11313F007F80F92E8942BE33AEA48EB5FE72EDF15
S11314000F920F920F924DB75EB70F92E6DEE6EEA3
S1131410F0E016D04F915F91EF91FF91E595EE1FAB
S1131420FF1F49F0FE57E0684427EE0F441FFA956A
S1131430E1F74195550B32D00F9007FE26C0089571
S1131440DF93CF931F930F93FF92EF92DF927B0171
S11314508C01689405C0DA2EEF01FEDEFE01E894EB
S1131460A5912591359145915591AEF3EF0105DD97
S1131470FE019701A801DA9479F7DF90EF90FF90CD
S11314800F911F91CF91DF9108959B01AC0160E012
S113149070E080E89FE336C0C4CDE4CD1BDEE8F302
S11314A09923D9F3940F511DBBF39150504094F0FC
S11314B059F0882332F0660F771F881F91505040EF
S11314C0C1F79E3F510544F7880F911D9695879566
S11314D097F908955F3FACF0983E9CF0BB27869542
S11314E077956795B79508F4B1609395C1F7BB0FED
S11314F058F711F460FFE8CF6F5F7F4F8F4F9F4F16
S1131500E3CF1ACE0CD0CDCDC5DD40F0BCDD30F03C
S113151021F45F3F19F085CD51110ECEB1CDD2DD4E
S113152098F39923C9F35523B1F3951B550BBB27A6
S1131530AA2762177307840738F09F5F5F4F220F53
S1131540331F441FAA1FA9F333D00E2E3AF0E0E84C
S113155030D091505040E695001CCAF729D0FE2F98
S113156027D0660F771F881FBB1F2617370748072A
S1131570AB07B0E809F0BB0B802DBF01FF279358E0
S11315805F4F2AF09E3F510568F04BCDD5CD5F3FAC
S1131590ECF3983EDCF3869577956795B795F795C8
S11315A09F5FC9F7880F911D9695879597F90895C0
S11315B0E1E0660F771F881FBB1F6217730784075C
S11315C0BA0720F0621B730B840BBA0BEE1F88F76B
S11315D0E0950895CF93DF938230910510F482E073
S11315E090E0E0919303F091940320E030E0A0E0D8
S11315F0B0E0309739F14081518148175907B8F06C
S11316004817590771F482819381109729F0139632
S11316109C938E9312972CC090939403809393037E
S113162027C02115310531F04217530718F0A901DD
S1131630DB0101C0EF019A01BD01DF010280F381EA
S1131640E02DD7CF21153105F9F0281B390B2430B3
S1131650310580F48A819B816115710521F0FB01BC
S11316609383828304C09093940380939303FE0135
S1131670329644C0FE01E20FF31F819391932250EE
S11316803109398328833AC0209191033091920320
S1131690232B41F4209106013091070130939203EA
S11316A02093910320910401309105012115310506
S11316B041F42DB73EB74091080150910901241B14
S11316C0350BE0919103F0919203E217F307A0F434
S11316D02E1B3F0B2817390778F0AC014E5F5F4F84
S11316E02417350748F04E0F5F1F50939203409321
S11316F091038193919302C0E0E0F0E0CF01DF9188
S1131700CF910895CF93DF93009709F487C0FC012C
S1131710329713821282C0919303D091940320973D
S113172081F420813181280F391F80919103909198
S113173092038217930779F5F0939203E093910350
S11317406DC0DE0120E030E0AE17BF0750F4129602
S11317504D915C9113979D014115510509F1DA01F1
S1131760F3CFB383A28340815181840F951F8A17DD
S11317709B0771F48D919C911197840F951F02968C
S11317809183808312968D919C9113979383828386
S11317902115310529F4F0939403E09393033EC09B
S11317A0D9011396FC93EE9312974D915D91A40F7A
S11317B0B51FEA17FB0779F480819181840F951F87
S11317C00296D90111969C938E93828193811396EC
S11317D09C938E931297E0E0F0E08A819B810097BE
S11317E019F0FE01EC01F9CFCE010296288139816E
S11317F0820F931F20919103309192032817390788
S113180069F4309729F4109294031092930302C060
S113181013821282D0939203C0939103DF91CF91EC
S11318200895FC0188279927E89421912032E9F34F
S1131830293010F02E30C8F32B3241F02D3239F418
S1131840689404C00E942F0C820F911D2191205393
S11318502A30C0F31EF4909581959F4F08957AE045
S1131860979F902D879F802D910D112408950F939C
S11318701F93CF93DF93CDB7DEB72E970FB6F894AF
S1131880DEBF0FBECDBF0D891E8986E08C831A830F
S113189009838FEF9FE79E838D83AE01475E5F4F81
S11318A06F89788DCE0101960E94660CEF81F885D0
S11318B0E00FF11F10822E960FB6F894DEBF0FBE14
S11318C0CDBFDF91CF911F910F9108952F923F9239
S11318D04F925F926F927F928F929F92AF92BF923C
S11318E0CF92DF92EF92FF920F931F93CF93DF93E8
S11318F0CDB7DEB72C970FB6F894DEBF0FBECDBFC1
S11319007C016B018A01FC0117821682838181FFAD
S1131910BDC1CE0101964C01F7019381F60193FDFF
S1131920859193FF81916F01882309F4ABC18532BE
S113193039F493FD859193FF81916F01853229F4E8
S1131940B70190E00E94A30EE7CF512C312C20E088
S11319502032A0F48B3269F030F4803259F08332B3
S113196069F420612CC08D3239F0803339F4216060
S113197026C02260246023C0286021C027FD27C020
S113198030ED380F3A3078F426FF06C0FAE05F9E57
S1131990300D1124532E13C08AE0389E300D1124CB
S11319A0332E20620CC08E3221F426FD6BC12064DC
S11319B006C08C3611F4206802C0883641F4F60162
S11319C093FD859193FF81916F018111C1CF982F70
S11319D09F7D9554933028F40C5F1F4FFFE3F983E8
S11319E00DC0833631F0833771F0833509F05BC065
S11319F022C0F801808189830E5F1F4F44244394E1
S1131A00512C540115C03801F2E06F0E711CF8011D
S1131A10A080B18026FF03C0652D70E002C06FEF87
S1131A207FEFC5012C870E94980E2C0183012C8521
S1131A302F77222E17C03801F2E06F0E711CF801C7
S1131A40A080B18026FF03C0652D70E002C06FEF57
S1131A507FEFC5012C870E948D0E2C012C852068F8
S1131A60222E830123FC1BC0832D90E048165906C7
S1131A70B0F4B70180E290E00E94A30E3A94F4CF50
S1131A80F50127FC859127FE81915F01B70190E064
S1131A900E94A30E31103A94F1E04F1A51084114F8
S1131AA0510471F7E5C0843611F0893639F5F8012F
S1131AB027FF07C060817181828193810C5F1F4F72
S1131AC008C060817181882777FD8095982F0E5F0B
S1131AD01F4F2F76B22E97FF09C090958095709571
S1131AE061957F4F8F4F9F4F2068B22E2AE030E0E0
S1131AF0A4010E94D50EA82EA81844C0853729F445
S1131B002F7EB22E2AE030E025C0F22FF97FBF2EBF
S1131B108F36C1F018F4883579F0B4C0803719F0E5
S1131B20883721F0AFC02F2F2061B22EB4FE0DC034
S1131B308B2D8460B82E09C024FF0AC09F2F9660A5
S1131B40B92E06C028E030E005C020E130E002C034
S1131B5020E132E0F801B7FE07C060817181828123
S1131B6093810C5F1F4F06C06081718180E090E01B
S1131B700E5F1F4FA4010E94D50EA82EA818FB2D9E
S1131B80FF77BF2EB6FE0BC02B2D2E7FA51450F46D
S1131B90B4FE0AC0B2FC08C02B2D2E7E05C07A2CE0
S1131BA02B2D03C07A2C01C0752C24FF0DC0FE011F
S1131BB0EA0DF11D8081803311F4297E09C022FFD2
S1131BC006C07394739404C0822F867809F07394CA
S1131BD023FD13C020FF06C05A2C731418F4530CB1
S1131BE05718732C731468F4B70180E290E02C87C3
S1131BF00E94A30E73942C85F5CF731410F4371838
S1131C0001C0312C24FF12C0B70180E390E02C877F
S1131C100E94A30E2C8522FF17C021FF03C088E574
S1131C2090E002C088E790E0B7010CC0822F86786C
S1131C3059F021FD02C080E201C08BE227FD8DE254
S1131C40B70190E00E94A30EA51438F4B70180E315
S1131C5090E00E94A30E5A94F7CFAA94F401EA0DDF
S1131C60F11D8081B70190E00E94A30EA110F5CF71
S1131C70332009F451CEB70180E290E00E94A30E14
S1131C803A94F6CFF7018681978102C08FEF9FEFD8
S1131C902C960FB6F894DEBF0FBECDBFDF91CF9167
S1131CA01F910F91FF90EF90DF90CF90BF90AF9076
S1131CB09F908F907F906F905F904F903F902F9068
S1131CC00895DC01CB01FC01F999FECF06C0F2BDF9
S1131CD0E1BDF89A319600B40D9241505040B8F7E6
S1131CE00895F999FECF92BD81BDF89A992780B5E0
S1131CF00895A6E1B0E044E050E00C94630E262F72
S1131D00F999FECF1FBA92BD81BD20BD0FB6F894DC
S1131D10FA9AF99A0FBE01960895FC010590615054
S1131D2070400110D8F7809590958E0F9F1F0895ED
S1131D30FC016150704001900110D8F78095909596
S1131D408E0F9F1F08950F931F93CF93DF93182F28
S1131D50092FEB018B8181FD03C08FEF9FEF20C022
S1131D6082FF10C04E815F812C813D814217530751
S1131D707CF4E881F9819F012F5F3F4F39832883E9
S1131D80108306C0E885F985812F0995892B29F7E9
S1131D902E813F812F5F3F4F3F832E83812F902FD2
S1131DA0DF91CF911F910F910895FA01AA2728304E
S1131DB051F1203181F1E8946F936E7F6E5F7F4F14
S1131DC08F4F9F4FAF4FB1E03ED0B4E03CD0670F90
S1131DD0781F891F9A1FA11D680F791F8A1F911DE3
S1131DE0A11D6A0F711D811D911DA11D20D009F433
S1131DF068943F912AE0269F11243019305D319375
S1131E00DEF6CF010895462F4770405D4193B3E05D
S1131E100FD0C9F7F6CF462F4F70405D4A3318F004
S1131E20495D31FD4052419302D0A9F7EACFB4E0B5
S1131E30A6959795879577956795BA95C9F700976D
S1131E406105710508959B01AC010A2E069457950E
S1131E50479537952795BA95C9F7620F731F841F65
S10D1E60951FA01D0895F894FFCF0C
S1131E6A5E24010000009503200025640030000A66
S1131E7A00667265713A20006C61743A20006C6FD6
S1131E8A6E3A20006572703A2000686161743A20E3
S1131E9A00206B6E6F776E0A73746174696F6E7368
S1131EAA202E202E202E00696D706F7274696E6761
S1131EBA202E2E2E00646F6E6521007472616E737B
S10F1ECA66657272696E67202E2E2E0071
S9030000FC
