S00F00006461745F6C63642E737265634A
S11300000C94DE000C94FD000C94FD000C94FD0097
S11300100C94FD000C94FD000C94FD000C94FD0068
S11300200C94FD000C94FD000C94FD000C94FD0058
S11300300C94FD000C94FD000C94FD000C94FD0048
S11300400C94FD000C94FD000C94FD000C94FD0038
S11300500C942D010C94FD000C94FD000C94FD00F7
S11300600C94FD000C94FD000C94FD000C94FD0018
S11300700C94BB020C94FD000C94FD000C94FD0048
S11300800C94FD000C94FD000C94FD0021052B053F
S1130090380547055605670573057F058B05E40597
S11300A0E705EA05ED05F005F305F605F905FC0598
S11300B0FF050206084AD73B3BCE016E84BCBFFD58
S11300C0C12F3D6C74319ABD56833DDA3D00C77F24
S11300D011BED9E4BB4C3E916BAAAABE00000080BD
S11300E03F05A84CCDB2D44EB93836A9020C50B94C
S11300F0918688083CA6AAAA2ABE000000803F0870
S1130100000000BE922449123EABAAAA2ABECDCC5E
S1130110CC4C3E00000080BEABAAAAAA3E00000060
S113012000BF000000803F0000000000084178D3B9
S1130130BB4387D1133D190E3CC3BD4282AD2B3E58
S113014068EC8276BED98FE1A93E4C80EFFFBE01F8
S1130150C4FF7F3F000000000007634236B79BD80E
S1130160A71A39685618AEBAAB558C1D3CB7CC5794
S113017063BD6DEDFD753EF6177231BF0000008062
S11301803F4E414E494E495459494E46CDCCCC3D43
S11301900AD7233C17B7D13877CC2B329595E62470
S11301A01FB14F0A000020410000C84200401C4615
S11301B020BCBE4CCA1B0E5AAEC59D7411241FBE72
S11301C0CFEFD0E4DEBFCDBF13E0A0E0B1E0E0E2CA
S11301D0F4E300E00BBF02C007900D92AA34B1070C
S11301E0D9F714E0AAE4B3E001C01D92A735B10722
S11301F0E1F70E94230E0C940E1A0C940000109246
S1130200CD008CE08093CC001092C5008093C40094
S1130210E9ECF0E08081886D8083E1ECF0E080819E
S1130220886D8083E8ECF0E0808182608083E0EC7C
S1130230F0E0808182608083EAECF0E080818E606F
S11302408083E2ECF0E08081866080830895E1ECB5
S1130250F0E080818772808308951F920F920FB619
S11302600F9211240BB60F922F933F934F935F93EA
S11302706F937F938F939F93AF93BF93EF93FF936A
S11302808091A2039091A3038135910574F080E0DD
S113029090E0FC01EE5AFC4F1082019680359105E6
S11302A0C1F71092A3031092A203E091A203F0916C
S11302B0A3038091C600EE5AFC4F80838091A20371
S11302C09091A30301969093A3038093A203E091DA
S11302D0A203F091A303EF5AFC4F8081843299F476
S11302E081E090E0FC01EE5AFC4F108201968035CB
S11302F09105C1F784E28093520381E090E09093EA
S1130300A3038093A203E091A203F091A303EF5A05
S1130310FC4F80818D3079F582E593E00E94B40B27
S1130320892B49F10E942701E2E5F3E001900020C6
S1130330E9F73297108263E171E082E593E00E946D
S1130340B91667E374E00E94080C6091B5037091DC
S1130350B60387E394E00E94270D80E090E0FC015F
S1130360EE5AFC4F1082019680359105C1F7109228
S1130370A3031092A203FF91EF91BF91AF919F91BC
S11303808F917F916F915F914F913F912F910F903A
S11303900BBE0F900FBE0F901F901895E1ECF0E08C
S11303A08081886D808308958FEF84B9F8940E94CA
S11303B0FF0078940E94D4082FE38DE093E021504D
S11303C080409040E1F700C000000895EF92FF9252
S11303D00F931F93CF93DF9380E090E00E94190E58
S11303E08F3F910529F09093AE038093AD0304C031
S11303F01092AE031092AD032FE946E851E021506C
S113040040405040E1F700C000000E94D40885E15C
S113041091E00E94C00A63E070E08091AD03909186
S1130420AE030E94E20A80E291E00E94C00A809139
S1130430AD039091AE032CE1FC012E9FC0012F9FD0
S1130440900D11240E94F5139093B4038093B30389
S1130450C0E0D0E000E010E08091AD039091AE03E5
S1130460081719070CF05CC0BE016F5F7F4F8091C5
S1130470B3039091B40348E050E08C0F9D1F0E9499
S1130480210EE090B303F090B403EC0EFD1ECE01F8
S113049009960E941F0EF7016087718782879387F0
S11304A0E090B303F090B403EC0EFD1ECE010D9664
S11304B00E941F0EF7016487758786879787E090EF
S11304C0B303F090B403EC0EFD1ECE0141960E94DE
S11304D01F0EF701608B718B828B938BE090B303BB
S11304E0F090B403EC0EFD1ECE0145960E941F0E43
S11304F0F701648B758B868B978BE090B303F09038
S1130500B403EC0EFD1ECE0149960E941F0EF701A6
S1130510608F718F828F938F0F5F1F4F6C969CCF6C
S1130520DF91CF911F910F91FF90EF90089510925A
S1130530AE031092AD038091B3039091B4030E9473
S11305408D141092B4031092B30308958091A803FC
S11305509091010189130CC02091A903281308C0AC
S11305603091AA0381E090E0321721F080E00895F1
S113057080E090E008951F920F920FB60F9211241D
S11305800BB60F922F933F934F935F936F937F9389
S11305908F939F93AF93BF93EF93FF938091A9039E
S11305A08093AA038091A8038093A9038091CE002D
S11305B08093A8038091500390915103019769F4AB
S11305C0E091AB03F0E08091A803E954FC4F8083F1
S11305D08091AB038F5F8093AB030E94A602892BAB
S11305E031F081E090E09093510380935003809127
S11305F0AB0387FD1092AB03FF91EF91BF91AF91D5
S11306009F918F917F916F915F914F913F912F9126
S11306100F900BBE0F900FBE0F901F9018958091F6
S1130620A8039091000189130CC02091A9032813F9
S113063008C03091AA0381E090E0321721F080E0F5
S1130640089580E090E00895E091AC03F0E0E9546F
S1130650FC4F80819091AC039F5F9093AC03909189
S1130660AC0397FD1092AC0308959091AC03809174
S1130670AB03981739F0E091AC03F0E0E954FC4F78
S11306808081089580E00895CF93DF93EC01109268
S113069051031092500310924D0310924C03109288
S11306A0A4031092A5031092A6031092A7030E941C
S11306B0D408209719F48DE291E002C082E491E01D
S11306C00E94C00A0E94E6012FE38DE093E02150CE
S11306D080409040E1F700C00000219721F485E5B7
S11306E091E00E94C00A2FE986E891E02150804001
S11306F09040E1F700C00000DF91CF9108958FEFA3
S11307009FEF08954F925F926F927F928F929F9284
S1130710AF92BF92CF92DF92EF92FF920F931F930B
S1130720CF93DF93CDB7DEB760970FB6F894DEBFF3
S11307300FBECDBF2B013C0129873A874B875C87CD
S1130740E982FA820B831C839B01AC01C801B701C7
S11307500E94070F2BED3FE049E450E40E9432125F
S113076020E030E044E353E40E94D10F20E030E085
S113077040E05FE30E9432120E9401136D837E8386
S11307808F8398872BED3FE049E450E4C301B20125
S11307900E94321220E030E044E353E40E94D10F7F
S11307A00E94CE0F2B013C012BED3FE049E450E4C5
S11307B0C801B7010E94321220E030E044E353E460
S11307C00E94D10F0E94CE0F69837A838B839C830E
S11307D029853A854B855C85C601B5010E94070FC2
S11307E02BED3FE049E450E40E94321220E030E077
S11307F044E353E40E94D10F20E030E040E05FE3A3
S11308000E9432120E9401134B015C012D813E8132
S11308104F815885CA01B9010E9432126B017C01D3
S113082029813A814B815C81C301B2010E94321259
S1130830A50194010E943212A50194010E94321272
S11308409B01AC01C701B6010E94080F6B017C013A
S11308509B01AC0160E070E080E89FE30E94070F19
S11308600E940B139B01AC01C701B6012D873E8783
S11308704F87588B0E940B132D853E854F855889D1
S11308800E947B0F9B01AC010E94080F20E038E11D
S113089047EC55E40E94321260960FB6F894DEBF1E
S11308A00FBECDBFDF91CF911F910F91FF90EF90BD
S11308B0DF90CF90BF90AF909F908F907F906F907C
S11308C05F904F9008952BED3FE049E450E40E947F
S11308D0321220E030E044E353E40E94D10F089543
S11308E00F931F93CF93DF938C01EB016F3F8FEF37
S11308F0780759F48091AD039091AE032CE1289FC1
S1130900E001299FD00D112421960E94D4080C17D0
S11309101D07BCF48091500390915103019789F015
S1130920C8010E941D0E811101C08FE30E948C0A30
S113093087EA91E60197F1F700C000000F5F1F4FAF
S1130940E6CFDF91CF911F910F9108951F93CF931D
S1130950DF93C0E0D0E01CE12091AD033091AE0301
S1130960129FC001139F900D1124C817D907B4F426
S11309708091500390915103019781F02196CE010B
S11309800E941D0E811101C08FE30E948C0A87EA28
S113099091E60197F1F700C00000DECFDF91CF911F
S11309A01F9108950E94D40885E691E00E94C00A30
S11309B080915003909151030197D1F70895CF93FB
S11309C0DF938091500390915103019709F4C4C0BF
S11309D00E94D40883E891E00E94C00A2FE38DE0CE
S11309E093E0215080409040E1F700C000000E9455
S11309F0D408C0E0D0E0209769F08EEF92E00E9426
S1130A00C00AFE013297E930F10578F4EA5BFF4F42
S1130A100C94EF1385E991E00E94C00A68E070E04D
S1130A208091B5039091B60381C08FE991E00E9453
S1130A30C00A8091B5039091B60368E070E008960F
S1130A4075C086EA91E00E94C00AE091B503F09176
S1130A50B60380895DC08CEA91E00E94C00AE091EF
S1130A60B503F091B60361897289838994890CC0B6
S1130A7082EB91E00E94C00AE091B503F091B603C5
S1130A80658976898789908D44E050E01DC088EBA4
S1130A9091E00E94C00AE091B503F091B603618D24
S1130AA0728D838D948D41E050E00EC080EC91E016
S1130AB00E94C00AE091B503F091B603658D768D6E
S1130AC0878D90A143E050E00E94090B31C089EC6E
S1130AD091E00E94C00A8091B5039091B60368E04A
S1130AE070E0819623C080ED91E00E94C00A80915D
S1130AF0B5039091B60368E070E0899617C089ED5C
S1130B0091E00E94C00AE091B503F091B60381A977
S1130B100E948C0A0DC080EE91E00E94C00A809170
S1130B20B5039091B60363E070E0C2960E94860B11
S1130B302FE38DE093E0215080409040E1F700C026
S1130B4000008091500390915103019729F0219660
S1130B50CB30D10509F04FCFDF91CF9108950F939A
S1130B601F93CF93DF93809150039091510301978A
S1130B7009F46AC00E94D4088BEE91E00E94C00A76
S1130B802FE38DE093E0215080409040E1F700C0D6
S1130B9000000E94D40807E314E0C0E0D0E02097EE
S1130BA069F08EEF92E00E94C00AFE013297EB30AA
S1130BB0F10538F4E15BFF4F0C94EF1381E092E010
S1130BC023C089E092E020C08EE092E01DC082E163
S1130BD092E01AC086E192E017C08AE192E014C064
S1130BE08EE192E011C082E292E00EC088E292E0CF
S1130BF00BC08FE292E008C084E392E005C08BE36F
S1130C0092E002C080E492E00E94C00A8FE892E081
S1130C100E94C00AF801819191918F010E94C00A3B
S1130C20FFE926E881E0F15020408040E1F700C070
S1130C3000008091500390915103019729F021966F
S1130C40CD30D10509F0ABCFDF91CF911F910F913A
S1130C500895CF93DF930E94D40889E492E00E9420
S1130C60C00AC0E0D0E080915003909151030197F5
S1130C7049F06FEFCE010E943D192196C13F8AE0F1
S1130C80D80789F7DF91CF9108950F931F93CF93DE
S1130C90DF932CE1289F8001299F100D1124C0E0CF
S1130CA0D0E0E091B303F091B403E00FF11FEC0F37
S1130CB0FD1F80810E948C0A2196C830D10589F7D6
S1130CC0DF91CF911F910F9108950F931F93CF93AD
S1130CD0DF936091AD037091AE038091B303909163
S1130CE0B403C0E0D0E0C617D7070CF06CC0AC0169
S1130CF020E030E08A014F5F5F4FD801EC91E05271
S1130D00EF3508F457C081E090E090934B03809353
S1130D104A030E94D4088AE592E00E94C00ABFE711
S1130D20EAE1F6E0B150E040F040E1F700C0000035
S1130D300E94D4088EE692E00E94C00A2FE986E859
S1130D4091E0215080409040E1F700C000000E94F3
S1130D50D40884E892E00E94C00A63E070E0CE0107
S1130D6001960E94E20A8EE892E00E94C00A87E29D
S1130D700E948C0AD8018C910E948C0A87E20E94FE
S1130D808C0A8AE00E948C0ABFE7EAE1F6E0B150DF
S1130D90E040F040E1F700C00000CE010E944506AB
S1130DA02FEF84E39CE0215080409040E1F700C0A5
S1130DB0000009C02F5F3F4F2830310509F09ACF5A
S1130DC021964C9690CFDF91CF911F910F9108956A
S1130DD00F931F93CF93DF9380915003909151030E
S1130DE0019709F44DC00E94D40863E070E080913B
S1130DF0AD039091AE030E94E20A82E992E00E9460
S1130E00C00A2FE78AE196E0215080409040E1F744
S1130E1000C000000E94D4088EEF92E00E94C00A35
S1130E20C0E0D0E08091AD039091AE03C817D9071C
S1130E303CF58091500390915103019709F18EEF95
S1130E4092E00E94C00A8E010F5F1F4F63E070E0C2
S1130E50C8010E94E20A8FE892E00E94C00ACE0113
S1130E600E9445068091500390915103019741F0EF
S1130E7083E294EF0197F1F700C00000E801D2CFBC
S1130E80DF91CF911F910F9108950F931F93CF93EB
S1130E90DF938C0163E070E001960E94E20A8FE820
S1130EA092E00E94C00AC8010E94450683E294EFC2
S1130EB00197F1F700C000008EEF92E00E94C00A93
S1130EC08091500390915103019709F4B1C082EAD3
S1130ED092E00E94C00A8CE1809FE001819FD00DC6
S1130EE01124E091B303F091B403EC0FFD1F60856E
S1130EF071858285938541E050E00E94090B83E26D
S1130F0094EF0197F1F700C000008EEF92E00E9489
S1130F10C00A8091500390915103019709F488C04D
S1130F2089EA92E00E94C00AE091B303F091B4030D
S1130F30EC0FFD1F648575858685978544E050E038
S1130F400E94090B83E294EF0197F1F700C00000BF
S1130F508EEF92E00E94C00A809150039091510359
S1130F60019709F465C08FEA92E00E94C00AE091FB
S1130F70B303F091B403EC0FFD1F6089718982897A
S1130F80938944E050E00E94090B83E294EF0197B7
S1130F90F1F700C000008EEF92E00E94C00A809139
S1130FA0500390915103019709F442C085EB92E0FC
S1130FB00E94C00AE091B303F091B403EC0FFD1F4B
S1130FC0648975898689978941E050E00E94090BFC
S1130FD083E294EF0197F1F700C000008EEF92E0F6
S1130FE00E94C00A8091500390915103019701F12E
S1130FF08BEB92E00E94C00AE091B303F091B4033A
S1131000EC0FFD1F608D718D828D938D40E050E05B
S11310100E94090B83E294EF0197F1F700C00000EE
S11310208EEF92E00E94C00A809150039091510388
S1131030DF91CF911F910F910895CF93DF9380910A
S11310405003909151030197C9F10E94D40863E0C1
S113105070E08091AD039091AE030E94E20A82E9B0
S113106092E00E94C00A2FE78AE196E02150804076
S11310709040E1F700C00000C0E0D0E08091AD03F3
S11310809091AE03C817D907CCF480915003909186
S11310905103019799F00E94D408CE010E9445079C
S11310A08091500390915103019741F08FE493ECA8
S11310B00197F1F700C000002196E0CFDF91CF91B6
S11310C008950E94D40882EC92E00E94C00A8091A4
S11310D00201909103010E9445062FE78AE196E000
S11310E0215080409040E1F700C00000809102014F
S11310F0909103010E9445072FE78AE196E0215071
S113110080409040E1F700C000000895AF92BF9284
S1131110CF92DF92EF92FF920F931F930E94D40815
S113112084ED92E00E94C00A2FE78AE196E0215004
S113113080409040E1F700C0000080EF92E00E9400
S1131140C00AA12CB12C80EDC82E82ECD82EE12C43
S1131150F12C0CE112E420E030E044E952EC60E0D0
S113116070E080E292E40E94820344E050E00E9436
S1131170090B2FE78AE196E0215080409040E1F787
S113118000C000001F910F91FF90EF90DF90CF906F
S1131190BF90AF900895129A81EE94E00197F1F711
S11311A000C00000129808951092B0031092AF038B
S11311B081E090E0909305018093040181B18FEF69
S11311C081B987E893E10197F1F700C00000129814
S11311D01098119816981598149A139A0E94CB088F
S11311E081EE94E00197F1F700C000000E94CB0863
S11311F089EF90E00197F1F700C000000E94CB084E
S113120089EF90E00197F1F700C000001698159857
S1131210149A13980E94CB0889EF90E00197F1F794
S113122000C0000016981598149A13980E94CB08D1
S113123089EF90E00197F1F700C00000169A159825
S1131240149813980E94CB0889EF90E00197F1F766
S113125000C0000016981598149813980E94CB08A3
S113126089EF90E00197F1F700C00000169A159AF3
S1131270149A13980E94CB0889EF90E00197F1F734
S113128000C0000016981598149813980E94CB0873
S113129089EF90E00197F1F700C0000016981598C7
S11312A01498139A0E94CB0889EF90E00197F1F704
S11312B000C0000016981598149813980E94CB0843
S11312C089EF90E00197F1F700C000001698159A95
S11312D0149A13980E94CB0889EF90E00197F1F7D4
S11312E000C0000016981598149813980E94CB0813
S11312F089EF90E00197F1F700C00000169A159A63
S1131300149A139A0E94CB0889EF90E00197F1F7A1
S113131000C0000080E090E00895019711F4169A4F
S113132001C016986130710511F4159A01C0159821
S11313304130510511F4149A01C01498213031053B
S113134011F4139A01C013980E94CB0889EF90E01E
S11313500197F1F700C0000008951F93CF93DF9326
S113136081B1877881B91098119A129A81EE94E02C
S11313700197F1F700C0000012B182B1C2B1A2B16D
S11313801298E9EFF0E03197F1F700C00000129AEB
S1131390E1EEF4E03197F1F700C00000E2B162B190
S11313A042B152B1807290E026E0880F991F2A95CD
S11313B0E1F7C071D0E035E0CC0FDD1F3A95E1F7DD
S11313C08C2B9D2B5870852BA870B0E054E0AA0F8D
S11313D0BB1F5A95E1F78A2B9B2BE074F0E073E076
S11313E0EE0FFF1F7A95E1F78E2B9F2B607270E052
S11313F0660F771F660F771F862B972B129851B1B4
S1131400586751B910981198407150E0440F551F16
S1131410842B952B16FB222720F930E03695322FAA
S1131420222737952795822B932BDF91CF911F91FC
S113143008950E94AD098F77992701960895892B05
S113144011F4169801C0169A672B11F4159801C06F
S1131450159A452B11F4149801C0149A232B11F4F6
S113146013980895139A0895CF93DF93EC0110987D
S11314701198282F2295217085FB442740F986FB7B
S1131480662760F930E050E070E081E090E00E946F
S11314901F0A0E94CB089E01217033274C2F4695CA
S11314A04170C2FB662760F950E070E0C3FB8827F7
S11314B080F990E00E941F0ADF91CF910C94CB0831
S11314C0CF93C82F109A119884FB222720F985FB0B
S11314D0442740F986FB662760F9881F8827881F00
S11314E030E050E070E090E00E941F0A0E94CB08B8
S11314F02C2F2170C1FB442740F9C2FB662760F9F9
S113150030E050E070E0C3FB882780F990E00E944F
S11315101F0ACF910C94CB08CF93C82F2091AF030F
S11315203091B0032F5F3F4F3093B0032093AF034C
S11315302131310531F08A3021F08C2FCF910C9478
S1131540600A20910401309105012130310579F4BC
S113155080E490E00E94340A22E030E030930501F8
S1131560209304011092B0031092AF0305C02230FF
S1131570310511F40E94D408CA30F9F6CF910895C8
S11315800F931F93CF93DF93EC010E94190A8E01EE
S1131590FE0101900020E9F73197EC1BFD0BC80117
S11315A08C1B9D0B8E179F0740F4F80181918F01CE
S11315B00E948C0A0E94190AEBCFDF91CF911F91F0
S11315C00F9108950F931F93CF93DF93182F092F33
S11315D0CB010E94F513D82FC92F0F931F932DE32E
S11315E033E03F932F939F938F930E94F1168D2F97
S11315F09C2F0E94C00A0F900F900F900F900F9095
S11316000F908D2F9C2FDF91CF911F910F910C94F0
S11316108D14CF92DF92EF92FF920F931F93CF938B
S1131620DF9300D000D0CDB7DEB78A01AE014F5FA3
S11316305F4F0E94FF116B017C0169817A818B816C
S11316409C810E943910DC01CB0164E070E00E94AF
S1131650E20A80E491E00E94C00AB801882777FD7D
S11316608095982F0E946C109B01AC0160E070E0A3
S113167080E291E40E9495129B01AC01C701B6017E
S11316800E9432120E94E1120E9439107B0177FFFE
S113169004C0EE24FF24E61AF70AE114F104A1F0D1
S11316A0B701882777FD8095982F0E946C100E94BF
S11316B0B4110E94A71020E030E040E85FE30E94EC
S11316C0080F0E94391002C060E070E0C12CD12CD8
S11316D0061B170BC016D10644F480E493E00E9465
S11316E0C00A8FEFC81AD80AF5CF64E070E0C701CA
S11316F00F900F900F900F90DF91CF911F910F914A
S1131700FF90EF90DF90CF900C94E20ACF92DF929B
S1131710EF92FF920F931F93CF93DF938C016B0192
S11317200E94190A7801C0E0D0E0CC15DD059CF4D4
S1131730F80101900020E9F73197E01BF10BCE1777
S1131740DF0748F4F70181917F010E948C0A0E940F
S1131750190A2196EACFDF91CF911F910F91FF9043
S1131760EF90DF90CF900895CF93DF9300D000D017
S113177000D0CDB7DEB726E0ECE0F1E0DE01119653
S113178001900D922A95E1F7FE01319620E030E0B8
S1131790DC01A20FB31F4C9141932F5F3F4F2630C2
S11317A03105B1F762E473E0CE0101960E94C416DC
S11317B021E030E0892B11F020E030E0C9012696C9
S11317C00FB6F894DEBF0FBECDBFDF91CF91089561
S11317D0CF93DF93009721F09093B2038093B103EA
S11317E0C091B103D091B203209769F0CE010E9459
S11317F0E316009741F0FC011192F093B203E093D9
S1131800B103CE0102C080E090E0DF91CF91089552
S11318100F931F93CF93DF938B0163E171E00E94D9
S1131820E80BEC01BC01D8018D919C910E94CD166E
S1131830FE0101900020E9F73197EC1BFD0BE0312C
S1131840F1055CF4D8018D919C918E0F9F1FDC01F2
S11318501C923196F4CF0E5F1F4FCD2B11F163E133
S113186071E080E090E00E94E80BEC01BC01F8011B
S1131870828193810E94CD16FE0101900020E9F738
S11318803197EC1BFD0BE031F1052CF7D8011296D2
S11318908D919C9113978E0F9F1FDC011C923196A2
S11318A0F2CF80E090E0DF91CF911F910F910895E6
S11318B0FC019F01281B390B2617370714F41192DA
S11318C0F8CF0895AF92BF92CF92DF92EF92FF923A
S11318D01F93CF93DF93CDB7DEB727970FB6F89456
S11318E0DEBF0FBECDBF5C01162FFC01808199279E
S11318F087FD9095C0972AE0289FB001299F700D1D
S113190011248181992787FD9095C097680F791FCD
S1131910882777FD8095982F0E946C106B017C01BD
S1131920B5016E5F7F4F47E050E0CE0101960E9403
S1131930D41660E070E0CE0101960E941C1520E0F0
S113194030E040E752E40E94D10F9B01AC01C70193
S1131950B6010E94080F133509F4905827960FB664
S1131960F894DEBF0FBECDBFDF91CF911F91FF90E2
S1131970EF90DF90CF90BF90AF900895AF92BF9259
S1131980CF92DF92EF92FF921F93CF93DF93CDB765
S1131990DEB727970FB6F894DEBF0FBECDBF5C014C
S11319A0162FFC018081992787FD9095C09724E626
S11319B0289FB001299F700D11248181992787FDEB
S11319C09095C0974AE0489F9001499F300D11249B
S11319D0620F731F8281992787FD9095C097680FC6
S11319E0791F882777FD8095982F0E946C106B01D2
S11319F07C01B5016D5F7F4F47E050E0CE01019659
S1131A000E94D41660E070E0CE0101960E941C157D
S1131A1020E030E040E752E40E94D10F9B01AC018A
S1131A20C701B6010E94080F173509F4905827968C
S1131A300FB6F894DEBF0FBECDBFDF91CF911F91DB
S1131A40FF90EF90DF90CF90BF90AF900895EF920A
S1131A50FF920F931F93CF93DF938C01EB0168E008
S1131A6070E0CE010E94580CD8016D917C91CE019A
S1131A700E94CD1668E070E0CE0108960E94580CD2
S1131A80D8011296ED91FC91139780818887129664
S1131A90ED91FC911397818189878AE38A87129655
S1131AA0ED91FC91139792819B871296ED91FC9195
S1131AB0139793819C878D871296ED91FC911397D0
S1131AC084818E871296ED91FC91139785818F877F
S1131AD01496ED91FC9115978081888B198A1A8A46
S1131AE01B8A1C8A1896ED91FC91199760811696B1
S1131AF08D919C9117970E94620C698B7A8B8B8BCA
S1131B009C8B1D8A1E8A1F8A188ED8011C96ED9103
S1131B10FC911D9760811A968D919C911B970E9450
S1131B20BE0C6D8B7E8B8F8B988F198E1A8E1B8EAD
S1131B301C8E60E070E0F801868597850E941C1574
S1131B40698F7A8F8B8F9C8F1D8E1E8E1F8E18A28D
S1131B5060E070E0D80150968D919C9151970E945D
S1131B601C156D8F7E8F8F8F98A368E070E0CE0177
S1131B7081960E94580CD8015296ED91FC9153978E
S1131B80828189A35296ED91FC91539783818AA314
S1131B908FE28BA35296ED91FC91539790819CA375
S1131BA05296ED91FC91539791819DA38EA35296E9
S1131BB0ED91FC91539784818FA35296ED91FC9102
S1131BC05397858188A77E01B9E2EB0EF11C68E08A
S1131BD070E0C7010E94580CF80164897589C70137
S1131BE00E94CD16D8015896ED91FC9159978081A9
S1131BF089AB63E070E0CE01C2960E94580CD80114
S1131C005896ED91FC91599781818AAB5896ED9144
S1131C10FC91599782818BAB5896ED91FC91599721
S1131C2083818CABDF91CF911F910F91FF90EF9047
S1131C3008950E942F1990E008950C942F190C9484
S1131C4037190C941F19CF93DF931F92CDB7DEB7CA
S1131C500E94D40107E314E080E190E00E94F513B0
S1131C60F801819391938F01F4E001351F07A1F7E7
S1131C7085E390E00E94F5139093B6038093B50337
S1131C8080E093E00E94C00A0E94E6012FE38DE009
S1131C9093E0215080409040E1F700C0000002E052
S1131CA010E0E0905003F0905103E1E0EE16F104EF
S1131CB0F1F0F2E0EF16F10489F0EF2891F780914A
S1131CC0AD039091AE031816190644F080915003A9
S1131CD090915103019709F04BC0E3CF0E9486080D
S1131CE00E94CE010E94DF040E94AF05DACF0E9459
S1131CF0270180914C0390914D03892BA1F40E94FC
S1131D00D40884E193E00E94C00AF0924D03E0926B
S1131D104C0310924B0310924A0310924F031092FB
S1131D204E030E9497029091AC038091AB039817E5
S1131D3009F443C01092A4031092A5031092A603C1
S1131D401092A7030E94240389830E940F036981D0
S1131D50892B19F180E090E00E9444030E946506FB
S1131D6080914A0390914B03892B39F00E942906F4
S1131D70109351030093500394CF0E94D4088DE232
S1131D8093E00E94C00A2FE38DE093E0215080404D
S1131D909040E1F700C0000084CF80914E03909101
S1131DA04F030E943D1980914E0390914F03019679
S1131DB090934F0380934E0374CF20E030E040E8CB
S1131DC05FE36091A4037091A5038091A6039091B1
S1131DD0A7030E94080F6093A4037093A503809344
S1131DE0A6039093A70320E030E543E457E40E9460
S1131DF0A91118160CF055CF81E090E00E9444031D
S1131E0060E270E080E090E00E947004AFCF505830
S1131E10BB27AA270ED03BC204D230F009D220F04F
S1131E2031F49F3F11F41EF4D4C10EF4E095E7FBA6
S1131E30A1C1E92F4ED280F3BA1762077307840752
S1131E40950718F071F49EF57DC20EF4E0950B2E03
S1131E50BA2FA02D0B01B90190010C01CA01A001F8
S1131E601124FF27591B99F0593F50F4503E68F153
S1131E701A16F040A22F232F342F4427585FF3CF94
S1131E80469537952795A795F0405395C9F77EF465
S1131E901F16BA0B620B730B840BBAF09150A1F0AE
S1131EA0FF0FBB1F661F771F881FC2F70EC0BA0F34
S1131EB0621F731F841F48F4879577956795B795BC
S1131EC0F7959E3F08F0B3CF9395880F08F09927B4
S1131ED0EE0F979587950895A4D158F080E891E086
S1131EE009F49EEFA5D128F040E851E059F45EEFE3
S1131EF009C06FC127C2E92FE078EBD168F3092E3E
S1131F00052AC1F3261737074807590738F00E2E5C
S1131F1007F8E02569F0E025E0640AC0EF6307F8FC
S1131F20009407FADB01B9019D01DC01CA01AD018E
S1131F30EF9346D0ACD10AD05F91552331F02BED0D
S1131F403FE049E450FD49EC63CF0895DF93DD277A
S1131F50B92FBF7740E85FE31616170648075B07FB
S1131F6010F4D92FFAD19F938F937F936F9391D3CA
S1131F70E4EBF0E031D18BD12F913F914F915F9100
S1131F807DD2DD2349F09058A2EA2AED3FE049ECE6
S1131F905FE3D0785D274DDFDF9179C151D1E395BF
S1131FA087C10CD074C144D140F03BD130F021F44E
S1131FB05F3F19F0DFC05111C6C10BC18AD198F33C
S1131FC09923C9F35523B1F3951B550BBB27AA27B6
S1131FD062177307840738F09F5F5F4F220F331F28
S1131FE0441FAA1FA9F333D00E2E3AF0E0E830D0F4
S1131FF091505040E695001CCAF729D0FE2F27D0F7
S1132000660F771F881FBB1F261737074807AB07C4
S1132010B0E809F0BB0B802DBF01FF2793585F4F39
S11320202AF09E3F510568F0A5C08DC15F3FECF3D7
S1132030983EDCF3869577956795B795F7959F5FFE
S1132040C9F7880F911D9695879597F90895E1E052
S1132050660F771F881FBB1F621773078407BA07B1
S113206020F0621B730B840BBA0BEE1F88F7E0950C
S1132070089504D06894B11166C1089532D188F0EE
S11320809F5790F0B92F9927B751A0F0D1F0660F60
S1132090771F881F991F1AF0BA95C9F712C0B1307B
S11320A081F050D1B1E008954DC1672F782F882772
S11320B0B85F39F0B93FCCF3869577956795B395BA
S11320C0D9F73EF490958095709561957F4F8F4F29
S11320D09F4F0895E89409C097FB3EF4909580952E
S11320E0709561957F4F8F4F9F4F9923A9F0F92FDA
S11320F096E9BB279395F695879577956795B79558
S1132100F111F8CFFAF4BB0F11F460FF1BC06F5F3D
S11321107F4F8F4F9F4F16C0882311F096E911C04F
S1132120772321F09EE8872F762F05C0662371F070
S113213096E8862F70E060E02AF09A95660F771F84
S1132140881FDAF7880F9695879597F90895E3D055
S113215080F09F3740F491110EF0F5C060E070E01C
S113216080E89FEB089526F41B16611D711D811DE7
S113217007C021C097F99F6780E870E060E0089588
S1132180882371F4772321F09850872B762F07C08A
S1132190662311F499270DC09051862B70E060E0FE
S11321A02AF09A95660F771F881FDAF7880F96959D
S11321B0879597F908959F3F31F0915020F48795C2
S11321C077956795B795880F911D9695879597F99B
S11321D008959FEF80EC0895DF93CF931F930F939F
S11321E0FF92EF92DF927B018C01689405C0DA2E96
S11321F0EF0144D1FE01E894A591259135914591D3
S11322005591AEF3EF0115DEFE019701A801DA94B2
S113221079F7DF90EF90FF900F911F91CF91DF91AD
S1132220089500240A941616170618060906089538
S113223000240A9412161306140605060895C9CF3D
S113224050D0E8F3E894E0E0BB279F57F0F02AED84
S11322503FE049EC06C0EE0FBB0F661F771F881FD7
S113226028F0B23A62077307840728F0B25A620B67
S1132270730B840BE3959A9572F7803830F49A9532
S1132280BB0F661F771F881FD2F7904896CF092E81
S11322900394000C11F4882352F0BB0F40F4BF2BBD
S11322A011F460FF04C06F5F7F4F8F4F9F4F0895FD
S11322B0EF93E0FF06C0A2EA2AED3FE049EC5FEBB2
S11322C0B8DDE5DF0F90039401FC9058E1EEF0E0F7
S11322D03FC257FD9058440F551F59F05F3F71F0AE
S11322E04795880F97FB991F61F09F3F79F0879579
S11322F00895121613061406551FF2CF4695F1DF02
S113230008C0161617061806991FF1CF8695710591
S1132310610508940895E5DFA0F0BEE7B91788F4D5
S1132320BB279F3860F41616B11D672F782F8827B6
S1132330985FF7CF869577956795B11D93959639F4
S1132340C8F30895E894BB2766277727CB0197F94C
S11323500895D3D108F48FEF08959B01AC0160E098
S113236070E080E89FE31DCE0AD029ED3BE54EEDF9
S11323705EE378C00EF01FCF2CCF6894FBCEB1DFA4
S1132380C8F39923D1F3C6F3DF93CF931F930F932D
S1132390FF92C92FDD2788232AF02197660F771F24
S11323A0881FDAF720E030E040E85FEB9FE38839EC
S11323B020F0803E30F021968F772ADDEFEFF0E0B9
S11323C003C026DDECE2F1E007DF8B01BE01EC0186
S11323D0FB2E6F5771097595771F880B990B7CDE5F
S11323E028E132E741E35FE349D0AF2D9801AE0124
S11323F0FF900F911F91CF91DF911BDD48CFFA0120
S1132400DC01AA0FBB1F9B01AC01BF5728F4222794
S11324103327442750781FC0B75188F4AB2F0024CA
S1132420469537952795011CA395D2F3002069F0B2
S1132430220F331F441FB395DAF30DD0E8CC61307B
S11324407105A0E88A07B94630F49B01AC01662700
S1132450772788279078309621F020833183428330
S1132460538308950BD013CFDCDE28F0E1DE18F09F
S1132470952309F07FCEADCE112465CF2ADFA0F3DA
S1132480959FD1F3950F50E0551F629FF001729F05
S1132490BB27F00DB11D639FAA27F00DB11DAA1F24
S11324A0649F6627B00DA11D661F829F2227B00D71
S11324B0A11D621F739FB00DA11D621F839FA00DFC
S11324C0611D221F749F3327A00D611D231F849F4C
S11324D0600D211D822F762F6A2F11249F575040A3
S11324E08AF0E1F088234AF0EE0FFF1FBB1F661F3E
S11324F0771F881F91505040A9F79E3F510570F0F7
S113250039CE21CF5F3FECF3983EDCF38695779587
S11325106795B795F795E7959F5FC1F7FE2B880FF1
S1132520911D9695879597F90895FA01EE0FFF1F6F
S113253030962105310599F16115710561F48038F2
S1132540BFE39B0749F168949038810561F08038B6
S1132550BFEF9B0741F0992342F5FF3FE1053105A9
S1132560210511F1E8940894E795D901AA2329F4E7
S1132570AB2FBE2FF85FD0F310C0FF5F70F4A695A9
S1132580E0F7F73950F019F0FF3A38F49F779F934A
S11325900CD00F9007FC905808953EF01ACE60E0DE
S11325A070E080E89FE308954FE79F775F934F9330
S11325B03F932F93E4DE2F913F914F915F9152DF30
S11325C070C08FDEE0F09E37D8F09639B8F49E38AC
S11325D048F4672F782F8827985FF9CF86957795E9
S11325E0679593959539D0F3B62FB1706B0F711D24
S11325F0811D20F48795779567959395C1CDDBCDA3
S1132600A2CE9F931DDE0F9007FCEE5F51CE11F416
S11326100EF4DFCDD0CD65DED0F39923D9F3CEF31C
S11326209F57550B87FF8DD00024A0E640EA900108
S113263080585695979528F4805C660F771F881FFD
S113264020F026173707480730F4621B730B840BFE
S1132650202931294A2BA695179407942025312542
S11326604A2758F7660F771F881F20F02617370769
S1132670480730F4620B730B840B200D311D411D90
S1132680A09581F7B901842F9158880F9695879565
S113269008959B01AC01E6CE19F40EF06BCD52CE39
S11326A098CD1FDEC8F39638C0F707F80F92E89468
S11326B02BE33AEA48EB5FE7E3DE0F920F920F92C7
S11326C04DB75EB70F929BDEE9E5F1E085DD4F91F2
S11326D05F91EF91FF91E595EE1FFF1F49F0FE57C3
S11326E0E0684427EE0F441FFA95E1F74195550B36
S11326F042D00F9007FE31CE0895990F0008550F70
S1132700AA0BE0E8FEEF16161706E807F907C0F073
S113271012161306E407F50798F0621B730B840B7B
S1132720950B39F40A2661F0232B242B252B21F455
S113273008950A2609F4A140A6958FEF811D811DF5
S1132740089591505040660F771F881FD2F708955F
S11327509F938F937F936F93FF93EF939B01AC01B0
S113276081DEEF91FF9138DD2F913F914F915F9181
S113277079CE00CD20CDB5DDE8F39923D9F3940FBC
S1132780511DBBF39150504094F059F0882332F01E
S1132790660F771F881F91505040C1F79E3F510527
S11327A044F7880F911D9695879597F908955F3F93
S11327B0ACF0983E9CF0BB27869577956795B795C6
S11327C008F4B1609395C1F7BB0F58F711F460FF9B
S11327D0E8CF6F5F7F4F8F4F9F4FE3CFB4CDEE0FA6
S11327E0FF1F0590F491E02D0994CF93DF9382307D
S11327F0910510F482E090E0E0915304F0915404C8
S113280020E030E0A0E0B0E0309739F14081518120
S113281048175907B8F04817590771F48281938112
S1132820109729F013969C938E9312972CC0909333
S113283054048093530427C02115310531F0421705
S1132840530718F0A901DB0101C0EF019A01BD0192
S1132850DF010280F381E02DD7CF21153105F9F096
S1132860281B390B2430310580F48A819B81611542
S1132870710521F0FB019383828304C09093540477
S113288080935304FE01329644C0FE01E20FF31F0D
S11328908193919322503109398328833AC020913E
S11328A0510430915204232B41F4209108013091BA
S11328B00901309352042093510420910601309170
S11328C007012115310541F42DB73EB740910A01A6
S11328D050910B01241B350BE0915104F0915204EB
S11328E0E217F307A0F42E1B3F0B2817390778F0E3
S11328F0AC014E5F5F4F2417350748F04E0F5F1F42
S113290050935204409351048193919302C0E0E0A8
S1132910F0E0CF01DF91CF910895CF93DF9300973B
S113292009F487C0FC01329713821282C0915304C8
S1132930D0915404209781F420813181280F391FCC
S113294080915104909152048217930779F5F09382
S11329505204E09351046DC0DE0120E030E0AE1774
S1132960BF0750F412964D915C9113979D01411548
S1132970510509F1DA01F3CFB383A2834081518178
S1132980840F951F8A179B0771F48D919C91119761
S1132990840F951F02969183808312968D919C914A
S11329A01397938382832115310529F4F0935404FA
S11329B0E09353043EC0D9011396FC93EE9312970F
S11329C04D915D91A40FB51FEA17FB0779F480813F
S11329D09181840F951F0296D90111969C938E9331
S11329E08281938113969C938E931297E0E0F0E09A
S11329F08A819B81009719F0FE01EC01F9CFCE0189
S1132A00029628813981820F931F209151043091BD
S1132A1052042817390769F4309729F410925404A2
S1132A201092530402C013821282D0935204C093B2
S1132A305104DF91CF9108954F925F926F927F92EC
S1132A408F929F92AF92BF92CF92DF92EF92FF92BA
S1132A500F931F93CF93DF938B016115710521F0C1
S1132A60DB018C9311969C93EC015E01BFEFAB1AD2
S1132A70BB0A7501C8808C2D90E00E949916892BA1
S1132A8011F0E501F2CFEDE2CE1208C07E01F2E0D2
S1132A90EF0EF11CC980DD24D39409C02BE2C212CD
S1132AA005C07E0142E0E40EF11CC980D12CE7018F
S1132AB0219743E050E069E871E0CE010E94A1163D
S1132AC0892BD1F4E701229645E050E064E871E0F7
S1132AD0CE010E94A116892B11F4E7012796011556
S1132AE0110519F0D801CD93DC93D11008C160E031
S1132AF070E080E89FE70CC143E050E061E871E0DA
S1132B00CE010E94A116892B59F40115110509F46F
S1132B10FBC0B2E0EB0EF11CF801F182E082F4C0DC
S1132B20F70160E070E0CB01C0E0D0E07F01A0EDF0
S1132B30AA2EAC0C29E02A1530F14D2D4260B42E9A
S1132B402D2D2870D2FE04C0211125C0219623C04A
S1132B5021112197A5E0B0E09B01AC010E94F4197A
S1132B60660F771F881F991F6A0D711D811D911DA6
S1132B706839A9E97A078A07A9E19A0760F0BD2DA7
S1132B80B660BB2E08C02EEFA2120AC0D3FC50C000
S1132B904D2D4860B42E3196D701CC90DB2CC6CF96
S1132BA02C2D2F7D253409F043C0A081AD3241F492
S1132BB0BD2DB061DB2E7F0122E0E20EF11C0CC0C2
S1132BC07F01AB3231F04FEFE41AF40A21E030E038
S1132BD006C0A2E0EA0EF11CA18122E030E0A0537D
S1132BE0AA3018F0E21AF30A23C0F70120E030E01B
S1132BF02038BCE03B075CF4A901440F551F440F87
S1132C00551F240F351F220F331F2A0F311DAF010B
S1132C104F5F5F4F7A01A081A053AA3010F4FA01EC
S1132C20E7CFD4FE03C0319521953109C20FD31FDC
S1132C30D1FE09C00115110531F0E1E0EE1AF108E9
S1132C40D801ED92FC920E946A102D2D237023303E
S1132C5019F06B017C0106C06B017C01F7FAF0945A
S1132C60F7F8F09420E030E0A901C701B6010E9412
S1132C702017882309F440C0D7FF06C0D195C19519
S1132C80D10900EA11E002C008EB11E04801B8E103
S1132C908B1A910890E2A92EB12CF8014590559019
S1132CA065907490CA15DB055CF0A3019201C7011D
S1132CB0B6010E9432126B017C01CA19DB09F2CF02
S1132CC004501109B594A7940815190531F78E2DF0
S1132CD0880F8F2D881F8F3F49F020E030E0A90135
S1132CE0C701B6010E942017811106C082E290E05C
S1132CF09093560480935504C701B60109C060E05F
S1132D0070E080E89FEF04C060E070E080EC9FE733
S1132D10DF91CF911F910F91FF90EF90DF90CF90B3
S1132D20BF90AF909F908F907F906F905F904F90E7
S1132D3008959111B0C2803219F089508550D0F7AE
S1132D400895FB01DC014150504088F08D9181349D
S1132D501CF08B350CF4805E659161341CF06B358E
S1132D600CF4605E861B611171F3990B0895881B46
S1132D70FCCFFB01DC010D900020E9F711970190D5
S1132D800D920020E1F70895FB01DC018D91019083
S1132D9080190110D9F3990B0895FB01DC0101900E
S1132DA00D920020E1F70895FB01DC0141505040F1
S1132DB048F001900D920020C9F701C01D924150C6
S1132DC05040E0F70895DC0199278D91882341F064
S1132DD0FB01019008160110E1F7B9F71197CD0135
S1132DE008950F931F93CF93DF93CDB7DEB72E973C
S1132DF00FB6F894DEBF0FBECDBF0D891E8986E0E5
S1132E008C831A8309838FEF9FE79E838D83AE01A2
S1132E10475E5F4F6F89788DCE0101960E9424171B
S1132E20EF81F885E00FF11F10822E960FB6F8940B
S1132E30DEBF0FBECDBFDF91CF911F910F910895DB
S1132E405CDC08F481E008952F923F924F925F92E8
S1132E506F927F928F929F92AF92BF92CF92DF92A6
S1132E60EF92FF920F931F93CF93DF93CDB7DEB70B
S1132E702C970FB6F894DEBF0FBECDBF7C016B015B
S1132E808A01FC0117821682838181FFBDC1CE01B4
S1132E9001964C01F7019381F60193FD859193FF0F
S1132EA081916F01882309F4ABC1853239F493FD14
S1132EB0859193FF81916F01853229F4B70190E0E8
S1132EC00E946419E7CF512C312C20E02032A0F469
S1132ED08B3269F030F4803259F0833269F4206126
S1132EE02CC08D3239F0803339F4216026C0226041
S1132EF0246023C0286021C027FD27C030ED380F8F
S1132F003A3078F426FF06C0FAE05F9E300D1124B3
S1132F10532E13C08AE0389E300D1124332E2062C4
S1132F200CC08E3221F426FD6BC1206406C08C36A1
S1132F3011F4206802C0883641F4F60193FD8591AE
S1132F4093FF81916F018111C1CF982F9F7D95547B
S1132F50933028F40C5F1F4FFFE3F9830DC08336D1
S1132F6031F0833771F0833509F05BC022C0F8017A
S1132F70808189830E5F1F4F44244394512C540154
S1132F8015C03801F2E06F0E711CF801A080B18009
S1132F9026FF03C0652D70E002C06FEF7FEFC5010F
S1132FA02C870E9459192C0183012C852F77222EFE
S1132FB017C03801F2E06F0E711CF801A080B180D7
S1132FC026FF03C0652D70E002C06FEF7FEFC501DF
S1132FD02C870E944E192C012C852068222E8301F7
S1132FE023FC1BC0832D90E048165906B0F4B701AA
S1132FF080E290E00E9464193A94F4CFF50127FC32
S1133000859127FE81915F01B70190E00E946419C8
S113301031103A94F1E04F1A51084114510471F7F8
S1133020E5C0843611F0893639F5F80127FF07C069
S113303060817181828193810C5F1F4F08C0608120
S11330407181882777FD8095982F0E5F1F4F2F760B
S1133050B22E97FF09C090958095709561957F4F2A
S11330608F4F9F4F2068B22E2AE030E0A4010E94C7
S11330709619A82EA81844C0853729F42F7EB22E9D
S11330802AE030E025C0F22FF97FBF2E8F36C1F041
S113309018F4883579F0B4C0803719F0883721F0F6
S11330A0AFC02F2F2061B22EB4FE0DC08B2D8460D3
S11330B0B82E09C024FF0AC09F2F9660B92E06C0FF
S11330C028E030E005C020E130E002C020E132E039
S11330D0F801B7FE07C060817181828193810C5F22
S11330E01F4F06C06081718180E090E00E5F1F4F2A
S11330F0A4010E949619A82EA818FB2DFF77BF2EB5
S1133100B6FE0BC02B2D2E7FA51450F4B4FE0AC0BE
S1133110B2FC08C02B2D2E7E05C07A2C2B2D03C0AB
S11331207A2C01C0752C24FF0DC0FE01EA0DF11D9F
S11331308081803311F4297E09C022FF06C0739474
S1133140739404C0822F867809F0739423FD13C00E
S113315020FF06C05A2C731418F4530C5718732C00
S1133160731468F4B70180E290E02C870E9464191C
S113317073942C85F5CF731410F4371801C0312CD7
S113318024FF12C0B70180E390E02C870E946419E9
S11331902C8522FF17C021FF03C088E590E002C000
S11331A088E790E0B7010CC0822F867859F021FDA2
S11331B002C080E201C08BE227FD8DE2B70190E0FE
S11331C00E946419A51438F4B70180E390E00E94CA
S11331D064195A94F7CFAA94F401EA0DF11D808181
S11331E0B70190E00E946419A110F5CF332009F4CF
S11331F051CEB70180E290E00E9464193A94F6CF70
S1133200F7018681978102C08FEF9FEF2C960FB64E
S1133210F894DEBF0FBECDBFDF91CF911F910F9108
S1133220FF90EF90DF90CF90BF90AF909F908F90E2
S11332307F906F905F904F903F902F900895DC01A6
S1133240CB01FC01F999FECF06C0F2BDE1BDF89AAD
S1133250319600B40D9241505040B8F70895F99951
S1133260FECF92BD81BDF89A992780B50895A6E155
S1133270B0E044E050E00C942119262FF999FECFD8
S11332801FBA92BD81BD20BD0FB6F894FA9AF99A7F
S11332900FBE01960895992788270895FC0105908B
S11332A0615070400110D8F7809590958E0F9F1F44
S11332B00895FC016150704001900110D8F7809589
S11332C090958E0F9F1F08950F931F93CF93DF93B5
S11332D0182F092FEB018B8181FD03C08FEF9FEF26
S11332E020C082FF10C04E815F812C813D81421736
S11332F053077CF4E881F9819F012F5F3F4F3983A5
S11333002883108306C0E885F985812F0995892BC8
S113331029F72E813F812F5F3F4F3F832E83812FDB
S1133320902FDF91CF911F910F910895FA01AA2751
S1133330283051F1203181F1E8946F936E7F6E5FF4
S11333407F4F8F4F9F4FAF4FB1E03ED0B4E03CD0A2
S1133350670F781F891F9A1FA11D680F791F8A1F85
S1133360911DA11D6A0F711D811D911DA11D20D0EC
S113337009F468943F912AE0269F11243019305DA6
S11333803193DEF6CF010895462F4770405D419397
S1133390B3E00FD0C9F7F6CF462F4F70405D4A33E4
S11333A018F0495D31FD4052419302D0A9F7EACFAC
S11333B0B4E0A6959795879577956795BA95C9F7DB
S11333C000976105710508959B01AC010A2E0694CE
S11333D05795479537952795BA95C9F7620F731F87
S11333E0841F951FA01D08950E94FF19A59F900D8D
S11333F0B49F900DA49F800D911D11240895A29F48
S1133400B001B39FC001A39F700D811D1124911DB4
S1133410B29F700D811D1124911D0895F894FFCF62
S11334205E24FFFF010000005704200024313233E2
S11334303435002C00696D706F7274696E672000FA
S11334400A73746174696F6E732E2E2E0072656137
S113345064696E670A6461746162617365202E2E0B
S11334602E004552524F523A0A74696D656F757455
S1133470202E2E2E000A75706461746520666169C1
S11334806C65640A00757064617465207265717599
S1133490697265640A2E2E2E66656564206D652E3C
S11334A02E2E005072696E74696E670A475053205D
S11334B044617461004D6573736167653A2000541B
S11334C0696D653A20004E52573A20004C61743AB7
S11334D020004C6F6E3A200053706565643A2000FA
S11334E0436F757273653A2000446174653A200035
S11334F04D61675661723A20004D6F64653A200051
S1133500436865636B73756D3A20005072696E741D
S1133510696E67205261770A475053204461746191
S1133520004D6573736167650054696D65004E52A3
S113353057004C6174004E2F53004C6F6E00452FA2
S11335405700537065656400436F7572736500447A
S1133550617465004D6167566172004D6F6465006A
S1133560436865636B73756D00776970696E670A8C
S11335706D656D6F72792E2E2E00434F5252555049
S113358054494F4E0A4445544543544544007472CB
S11335906163696E670A636F7272757074696F6EC6
S11335A02E2E2E0073746174696F6E202300203AEE
S11335B02000206B6E6F776E0A73746174696F6E8E
S11335C07300667265713A20006C61743A20006C75
S11335D06F6E3A20006572703A2000686161743A37
S11335E020004E6561726573742053746174696F51
S11335F06E3A0A0043616C63756C6174696E670AA4
S113360045617274682044697374616E6365730004
S113361044656E766572202D3E204E59433A0A0069
S113362072656164696E670A64617461626173657D
S11336302E2E2E007570646174696E672E2E2E0A0C
S1133640646F6E277420756E706C75670075706496
S113365061746520636F6D706C657465002564002A
S10D36603000244750524D4300008F
S9030000FC
