:100000000C94DE000C94FD000C94FD000C94FD009B
:100010000C94FD000C94FD000C94FD000C94FD006C
:100020000C94FD000C94FD000C94FD000C94FD005C
:100030000C94FD000C94FD000C94FD000C94FD004C
:100040000C94FD000C94FD000C94FD000C94FD003C
:100050000C942D010C94FD000C94FD000C94FD00FB
:100060000C94FD000C94FD000C94FD000C94FD001C
:100070000C94B8020C94FD000C94FD000C94FD004F
:100080000C94FD000C94FD000C94FD002D0437042D
:1000900044045304620473047F048B049704F00443
:1000A000F304F604F904FC04FF0402050505080541
:1000B0000B050E05084AD73B3BCE016E84BCBFFD45
:1000C000C12F3D6C74319ABD56833DDA3D00C77F28
:1000D00011BED9E4BB4C3E916BAAAABE00000080C1
:1000E0003F05A84CCDB2D44EB93836A9020C50B950
:1000F000918688083CA6AAAA2ABE000000803F0874
:10010000000000BE922449123EABAAAA2ABECDCC62
:10011000CC4C3E00000080BEABAAAAAA3E00000064
:1001200000BF000000803F0000000000084178D3BD
:10013000BB4387D1133D190E3CC3BD4282AD2B3E5C
:1001400068EC8276BED98FE1A93E4C80EFFFBE01FC
:10015000C4FF7F3F000000000007634236B79BD812
:10016000A71A39685618AEBAAB558C1D3CB7CC5798
:1001700063BD6DEDFD753EF6177231BF0000008066
:100180003F4E414E494E495459494E46CDCCCC3D47
:100190000AD7233C17B7D13877CC2B329595E62474
:1001A0001FB14F0A000020410000C84200401C4619
:1001B00020BCBE4CCA1B0E5AAEC59D7411241FBE76
:1001C000CFEFD0E4DEBFCDBF13E0A0E0B1E0ECEABA
:1001D000F8E300E00BBF02C007900D92A03AB10710
:1001E000D9F714E0A0EAB3E001C01D92AD3AB1071F
:1001F000E1F70E9418100C94541C0C94000010920B
:10020000CD008CE08093CC001092C5008093C40098
:10021000E9ECF0E08081886D8083E1ECF0E08081A2
:10022000886D8083E8ECF0E0808182608083E0EC80
:10023000F0E0808182608083EAECF0E080818E6073
:100240008083E2ECF0E08081866080830895E1ECB9
:10025000F0E080818772808308951F920F920FB61D
:100260000F9211240BB60F922F933F934F935F93EE
:100270006F937F938F939F93AF93BF93EF93FF936E
:100280008091F8039091F9038135910574F080E035
:1002900090E0FC01E855FC4F1082019680359105F5
:1002A000C1F71092F9031092F803E091F803F0916E
:1002B000F9038091C600E855FC4F80838091F803D4
:1002C0009091F90301969093F9038093F803E091DC
:1002D000F803F091F903E955FC4F8081843299F4D9
:1002E00081E090E0FC01E855FC4F108201968035DA
:1002F0009105C1F784E28093A80381E090E0909398
:10030000F9038093F803E091F803F091F903E955BC
:10031000FC4F80818D3061F588EA93E00E94780B74
:10032000892B31F10E942701E091F803F091F90344
:10033000E955FC4F8CE280836DE874E088EA93E035
:100340000E94CC0B60910B0470910C048DE894E03A
:100350000E94EB0C80E090E0FC01E855FC4F10821D
:10036000019680359105C1F71092F9031092F803B8
:10037000FF91EF91BF91AF919F918F917F916F917D
:100380005F914F913F912F910F900BBE0F900FBE39
:100390000F901F901895E1ECF0E08081886D8083CC
:1003A00008958FEF84B9F8940E94FF0078940E941A
:1003B00098082FE38DE093E0215080409040E1F7D2
:1003C00000C000000895EF92FF920F931F93CF9308
:1003D000DF9380E090E00E940E108F3F910529F09E
:1003E000909304048093030404C0109204041092B8
:1003F00003042FE946E851E0215040405040E1F726
:1004000000C000000E94980883E191E00E94840AE5
:1004100063E070E080910304909104040E94A60AB6
:100420008EE191E00E94840A80910304909104047B
:100430002CE1FC012E9FC0012F9F900D11240E94E2
:100440004A1690930A0480930904C0E0D0E000E0CB
:1004500010E08091030490910404081719070CF030
:100460005CC0BE016F5F7F4F8091090490910A04C8
:1004700048E050E08C0F9D1F0E941610E090090488
:10048000F0900A04EC0EFD1ECE0109960E94141095
:10049000F7016087718782879387E0900904F09065
:1004A0000A04EC0EFD1ECE010D960E941410F701F9
:1004B0006487758786879787E0900904F0900A041F
:1004C000EC0EFD1ECE0141960E941410F701608BC8
:1004D000718B828B938BE0900904F0900A04EC0EF0
:1004E000FD1ECE0145960E941410F701648B758B9A
:1004F000868B978BE0900904F0900A04EC0EFD1EA9
:10050000CE0149960E941410F701608F718F828F7F
:10051000938F0F5F1F4F6C969CCFDF91CF911F91F0
:100520000F91FF90EF90089510920404109203042D
:100530008091090490910A040E94E21610920A0424
:100540001092090408958091FE039091010189138E
:100550000CC02091FF03281308C03091000481E0F3
:1005600090E0321721F080E0089580E090E0089557
:100570001F920F920FB60F9211240BB60F922F936A
:100580003F934F935F936F937F938F939F93AF931B
:10059000BF93EF93FF938091FF03809300048091BA
:1005A000FE038093FF038091CE008093FE03809131
:1005B000A6039091A703019769F4E0910104F0E08C
:1005C0008091FE03E35FFB4F8083809101048F5F86
:1005D000809301040E94A302892B31F081E090E016
:1005E0009093A7038093A6038091010487FD109246
:1005F0000104FF91EF91BF91AF919F918F917F91F6
:100600006F915F914F913F912F910F900BBE0F9083
:100610000FBE0F901F9018958091FE0390910001DE
:1006200089130CC02091FF03281308C030910004E7
:1006300081E090E0321721F080E0089580E090E0C2
:100640000895E0910204F0E0E35FFB4F8081909118
:1006500002049F5F909302049091020497FD109210
:10066000020408959091020480910104981739F0D2
:10067000E0910204F0E0E35FFB4F8081089580E0A9
:100680000895CF93DF93EC011092A7031092A60375
:100690001092A3031092A2031092FA031092FB038C
:1006A0001092FC031092FD030E949808209719F401
:1006B0008BE291E002C080E491E00E94840A0E94F3
:1006C000E3012FE38DE093E0215080409040E1F77B
:1006D00000C00000219721F483E591E00E94840A84
:1006E0002FE986E891E0215080409040E1F700C07A
:1006F0000000DF91CF9108950F931F93CF93DF9365
:100700008C01EB016F3F8FEF780759F48091030460
:10071000909104042CE1289FE001299FD00D112421
:1007200021960E9498080C171D07BCF48091A6031F
:100730009091A703019789F0C8010E9412108111BE
:1007400001C08FE30E94500A87EA91E60197F1F712
:1007500000C000000F5F1F4FE6CFDF91CF911F91C8
:100760000F9108951F93CF93DF93C0E0D0E01CE179
:100770002091030430910404129FC001139F900D37
:100780001124C817D907B4F48091A6039091A70348
:10079000019781F02196CE010E941210811101C0B3
:1007A0008FE30E94500A87EA91E60197F1F700C0B3
:1007B0000000DECFDF91CF911F9108950E9498082D
:1007C00083E691E00E94840A8091A6039091A7039A
:1007D0000197D1F70895CF93DF938091A60390916D
:1007E000A703019709F4C4C00E94980881E891E02A
:1007F0000E94840A2FE38DE093E0215080409040D6
:10080000E1F700C000000E949808C0E0D0E0209707
:1008100069F084EF92E00E94840AFE013297E93089
:10082000F10578F4EA5BFF4F0C94441682E991E0FD
:100830000E94840A68E070E080910B0490910C049F
:1008400081C08CE991E00E94840A80910B04909110
:100850000C0468E070E0089675C083EA91E00E949D
:10086000840AE0910B04F0910C0480895DC089EA50
:1008700091E00E94840AE0910B04F0910C046189DC
:100880007289838994890CC08FEA91E00E94840A5E
:10089000E0910B04F0910C04658976898789908D2D
:1008A00044E050E01DC085EB91E00E94840AE09195
:1008B0000B04F0910C04618D728D838D948D41E059
:1008C00050E00EC08DEB91E00E94840AE0910B0491
:1008D000F0910C04658D768D878D90A143E050E0FA
:1008E0000E94CD0A31C086EC91E00E94840A80917A
:1008F0000B0490910C0468E070E0819623C08DECAD
:1009000091E00E94840A80910B0490910C0468E0AD
:1009100070E0899617C086ED91E00E94840AE0910C
:100920000B04F0910C0481A90E94500A0DC08DEDBA
:1009300091E00E94840A80910B0490910C0463E082
:1009400070E0C2960E944A0B2FE38DE093E02150A5
:1009500080409040E1F700C000008091A603909194
:10096000A703019729F02196CB30D10509F04FCF8D
:10097000DF91CF9108950F931F93CF93DF938091D1
:10098000A6039091A703019709F46AC00E949808F2
:1009900088EE91E00E94840A2FE38DE093E02150DD
:1009A00080409040E1F700C000000E9498080DE8E8
:1009B00014E0C0E0D0E0209769F084EF92E00E945C
:1009C000840AFE013297EB30F10538F4E15BFF4F0A
:1009D0000C94441685EF91E023C08DEF91E020C088
:1009E00082E092E01DC086E092E01AC08AE092E0C8
:1009F00017C08EE092E014C082E192E011C086E15F
:100A000092E00EC08CE192E00BC083E292E008C05D
:100A100088E292E005C08FE292E002C084E392E0B7
:100A20000E94840A83E892E00E94840AF80181917E
:100A300091918F010E94840AFFE926E881E0F1503C
:100A400020408040E1F700C000008091A603909113
:100A5000A703019729F02196CD30D10509F0ABCF3E
:100A6000DF91CF911F910F910895CF93DF930E9453
:100A700098088DE392E00E94840AC0E0D0E0809163
:100A8000A6039091A703019749F06FEFCE010E9452
:100A9000831B2196C13F8AE0D80789F7DF91CF9168
:100AA00008950F931F93CF93DF932CE1289F80012C
:100AB000299F100D1124C0E0D0E0E0910904F091CD
:100AC0000A04E00FF11FEC0FFD1F80810E94500A05
:100AD0002196C830D10589F7DF91CF911F910F91F1
:100AE00008950F931F93CF93DF9360910304709148
:100AF00004048091090490910A04C0E0D0E0C61774
:100B0000D7070CF06CC0AC0120E030E08A014F5FE9
:100B10005F4FD801EC91E052EF3508F457C081E007
:100B200090E09093A1038093A0030E9498088EE424
:100B300092E00E94840ABFE7EAE1F6E0B150E040AB
:100B4000F040E1F700C000000E94980882E692E0C1
:100B50000E94840A2FE986E891E02150804090406D
:100B6000E1F700C000000E94980888E792E00E9428
:100B7000840A63E070E0CE0101960E94A60A82E832
:100B800092E00E94840A87E20E94500AD8018C9168
:100B90000E94500A87E20E94500A8AE00E94500A8E
:100BA000BFE7EAE1F6E0B150E040F040E1F700C015
:100BB0000000CE010E9451052FEF84E39CE02150FC
:100BC00080409040E1F700C0000009C02F5F3F4F18
:100BD0002830310509F09ACF21964C9690CFDF91BD
:100BE000CF911F910F9108950F931F93CF93DF9390
:100BF0008091A6039091A703019709F44DC00E942C
:100C0000980863E070E080910304909104040E94CE
:100C1000A60A86E892E00E94840A2FE78AE196E01D
:100C2000215080409040E1F700C000000E949808E9
:100C300084EF92E00E94840AC0E0D0E08091030437
:100C400090910404C817D9073CF58091A6039091B0
:100C5000A703019709F184EF92E00E94840A8E01B4
:100C60000F5F1F4F63E070E0C8010E94A60A83E88F
:100C700092E00E94840ACE010E9451058091A60351
:100C80009091A703019741F083E294EF0197F1F768
:100C900000C00000E801D2CFDF91CF911F910F91EA
:100CA00008950F931F93CF93DF938C0163E070E05F
:100CB00001960E94A60A83E892E00E94840AC80175
:100CC0000E94510583E294EF0197F1F700C0000004
:100CD00084EF92E00E94840A8091A6039091A7037A
:100CE000019709F4B1C086E992E00E94840A8CE180
:100CF000809FE001819FD00D1124E0910904F091C3
:100D00000A04EC0FFD1F608571858285938541E0A3
:100D100050E00E94CD0A83E294EF0197F1F700C002
:100D2000000084EF92E00E94840A8091A6039091D3
:100D3000A703019709F488C08DE992E00E94840A14
:100D4000E0910904F0910A04EC0FFD1F648575859C
:100D50008685978544E050E00E94CD0A83E294EFB7
:100D60000197F1F700C0000084EF92E00E94840A2E
:100D70008091A6039091A703019709F465C083EAC7
:100D800092E00E94840AE0910904F0910A04EC0FB9
:100D9000FD1F608971898289938944E050E00E9437
:100DA000CD0A83E294EF0197F1F700C0000084EFD1
:100DB00092E00E94840A8091A6039091A703019774
:100DC00009F442C089EA92E00E94840AE091090491
:100DD000F0910A04EC0FFD1F648975898689978953
:100DE00041E050E00E94CD0A83E294EF0197F1F7D1
:100DF00000C0000084EF92E00E94840A8091A60364
:100E00009091A703019701F18FEA92E00E94840A72
:100E1000E0910904F0910A04EC0FFD1F608D718DC3
:100E2000828D938D40E050E00E94CD0A83E294EFE2
:100E30000197F1F700C0000084EF92E00E94840A5D
:100E40008091A6039091A703DF91CF911F910F91FD
:100E50000895CF93DF938091A6039091A703019704
:100E6000C9F10E94980863E070E0809103049091BA
:100E700004040E94A60A86E892E00E94840A2FE7F2
:100E80008AE196E0215080409040E1F700C00000E8
:100E9000C0E0D0E08091030490910404C817D90702
:100EA000CCF48091A6039091A703019799F00E943A
:100EB0009808CE010E9451068091A6039091A70345
:100EC000019741F08FE493EC0197F1F700C0000027
:100ED0002196E0CFDF91CF910895EF92FF920F938B
:100EE0001F938091A6039091A703019709F46DC009
:100EF0000E94980886EB92E00E94840A2FE78AE11C
:100F000096E0215080409040E1F700C000000E9430
:100F10009808E0910B04F0910C04E588F6880789A5
:100F2000108D21893289438954896091030470911D
:100F300004048091090490910A040E94D60E9093B3
:100F40000301809302010E94510584EF92E00E9408
:100F5000840A40910201509103016091090470914B
:100F60000A0480910B0490910C040E94660F41E0EA
:100F700050E00E94CD0A81ED92E00E94840A8091A7
:100F8000A6039091A703019701F12FEF84E39CE062
:100F9000215080409040E1F700C000008091A603FE
:100FA0009091A703019789F00E949808809102010F
:100FB000909103010E9451062FE78AE196E02150AB
:100FC00080409040E1F700C000001F910F91FF901A
:100FD000EF900895AF92BF92CF92DF92EF92FF927F
:100FE0000F931F930E9498088CE393E00E94840A59
:100FF0002FE78AE196E0215080409040E1F700C061
:1010000000000E94980888E593E00E94840AA12CC1
:10101000B12C90EDC92E92ECD92EE12CF12C0CE1E3
:1010200012E420E030E044E952EC60E070E080E25D
:1010300092E40E94F50D41E050E00E94CD0A81ED5E
:1010400092E00E94840A2FE181EA97E021508040DB
:101050009040E1F700C000000E94980888E693E005
:101060000E94840A35E3A32E3EE1B32E3DEBC32E4E
:1010700032ECD32E12E3E12E15E5F12E0CE112E451
:1010800022E430E24DEB52EC65E276E88CE192E44A
:101090000E94F50D41E050E00E94CD0A81ED92E002
:1010A0000E94840A2FE181EA97E02150804090401D
:1010B000E1F700C000001F910F91FF90EF90DF90CB
:1010C000CF90BF90AF9008950E94980889E793E071
:1010D0000E94840A2FE38DE093E0215080409040ED
:1010E000E1F700C0000080910B0490910C040E9475
:1010F000A00F892B79F40E9498080E94EB0380913D
:10110000A6039091A703019749F083E294EF01971A
:10111000F1F7E7CF0E9498080C94EB030895129A18
:1011200081EE94E00197F1F700C000001298089555
:10113000109206041092050481E090E0909305015E
:101140008093040181B18FEF81B987E893E1019722
:10115000F1F700C000001298109811981698159891
:10116000149A139A0E948F0881EE94E00197F1F788
:1011700000C000000E948F0889EF90E00197F1F70E
:1011800000C000000E948F0889EF90E00197F1F7FE
:1011900000C0000016981598149A13980E948F08A2
:1011A00089EF90E00197F1F700C0000016981598BC
:1011B000149A13980E948F0889EF90E00197F1F735
:1011C00000C00000169A1598149813980E948F0872
:1011D00089EF90E00197F1F700C00000169815988C
:1011E000149813980E948F0889EF90E00197F1F707
:1011F00000C00000169A159A149A13980E948F083E
:1012000089EF90E00197F1F700C00000169815985B
:10121000149813980E948F0889EF90E00197F1F7D6
:1012200000C00000169815981498139A0E948F0811
:1012300089EF90E00197F1F700C00000169815982B
:10124000149813980E948F0889EF90E00197F1F7A6
:1012500000C000001698159A149A13980E948F08DF
:1012600089EF90E00197F1F700C0000016981598FB
:10127000149813980E948F0889EF90E00197F1F776
:1012800000C00000169A159A149A139A0E948F08AB
:1012900089EF90E00197F1F700C0000080E090E056
:1012A0000895019711F4169A01C0169861307105DE
:1012B00011F4159A01C015984130510511F4149A92
:1012C00001C014982130310511F4139A01C013980C
:1012D0000E948F0889EF90E00197F1F700C00000AD
:1012E00008951F93CF93DF9381B1877881B91098C8
:1012F000119A129A81EE94E00197F1F700C0000074
:1013000012B182B1C2B1A2B11298E9EFF0E0319707
:10131000F1F700C00000129AE1EEF4E03197F1F726
:1013200000C00000E2B162B142B152B1807290E0FF
:1013300026E0880F991F2A95E1F7C071D0E035E0CB
:10134000CC0FDD1F3A95E1F78C2B9D2B5870852B28
:10135000A870B0E054E0AA0FBB1F5A95E1F78A2BA2
:101360009B2BE074F0E073E0EE0FFF1F7A95E1F73E
:101370008E2B9F2B607270E0660F771F660F771FB2
:10138000862B972B129851B1586751B91098119824
:10139000407150E0440F551F842B952B16FB2227DC
:1013A00020F930E03695322F222737952795822B6A
:1013B000932BDF91CF911F9108950E9471098F7730
:1013C000992701960895892B11F4169801C0169A51
:1013D000672B11F4159801C0159A452B11F4149838
:1013E00001C0149A232B11F413980895139A0895A9
:1013F000CF93DF93EC0110981198282F229521703C
:1014000085FB442740F986FB662760F930E050E011
:1014100070E081E090E00E94E3090E948F089E0145
:10142000217033274C2F46954170C2FB662760F927
:1014300050E070E0C3FB882780F990E00E94E30948
:10144000DF91CF910C948F08CF93C82F109A1198E9
:1014500084FB222720F985FB442740F986FB662779
:1014600060F9881F8827881F30E050E070E090E026
:101470000E94E3090E948F082C2F2170C1FB442792
:1014800040F9C2FB662760F930E050E070E0C3FB32
:10149000882780F990E00E94E309CF910C948F088F
:1014A000CF93C82F20910504309106042F5F3F4F42
:1014B00030930604209305042131310531F08A3040
:1014C00021F08C2FCF910C94240A209104013091AB
:1014D00005012130310579F480E490E00E94F8099B
:1014E00022E030E0309305012093040110920604BD
:1014F0001092050405C02230310511F40E949808AD
:10150000CA30F9F6CF9108950F931F93CF93DF93CD
:10151000EC010E94DD098E01FE0101900020E9F737
:101520003197EC1BFD0BC8018C1B9D0B8E179F0781
:1015300040F4F80181918F010E94500A0E94DD0958
:10154000EBCFDF91CF911F910F9108950F931F93D0
:10155000CF93DF93182F092FCB010E944A16D82F63
:10156000C92F0F931F9321E933E03F932F939F934C
:101570008F930E943B198D2F9C2F0E94840A0F90FD
:101580000F900F900F900F900F908D2F9C2FDF9149
:10159000CF911F910F910C94E216CF92DF92EF92B0
:1015A000FF920F931F93CF93DF9300D000D0CDB75E
:1015B000DEB78A01AE014F5F5F4F0E9478146B0166
:1015C0007C0169817A818B819C810E948E12DC0171
:1015D000CB0164E070E00E94A60A8EE391E00E94D5
:1015E000840AB801882777FD8095982F0E94C11240
:1015F0009B01AC0160E070E080E291E40E940E1576
:101600009B01AC01C701B6010E94AB140E945A15A0
:101610000E948E127B0177FF04C0EE24FF24E61A9D
:10162000F70AE114F104A1F0B701882777FD80954E
:10163000982F0E94C1120E942D140E94FC1220E0DB
:1016400030E040E85FE30E9459110E948E1202C010
:1016500060E070E0C12CD12C061B170BC016D10620
:1016600044F484E993E00E94840A8FEFC81AD80AF0
:10167000F5CF64E070E0C7010F900F900F900F90CE
:10168000DF91CF911F910F91FF90EF90DF90CF905E
:101690000C94A60ACF92DF92EF92FF920F931F93C2
:1016A000CF93DF938C016B010E94DD097801C0E0CC
:1016B000D0E0CC15DD059CF4F80101900020E9F79D
:1016C0003197E01BF10BCE17DF0748F4F70181914A
:1016D0007F010E94500A0E94DD092196EACFDF9126
:1016E000CF911F910F91FF90EF90DF90CF900895D1
:1016F000CF93DF9300D000D000D0CDB7DEB726E087
:10170000ECE0F1E0DE01119601900D922A95E1F7EF
:10171000FE01319620E030E0DC01A20FB31F4C91B6
:1017200041932F5F3F4F26303105B1F766E973E0F3
:10173000CE0101960E940E1921E030E0892B11F0B4
:1017400020E030E0C90126960FB6F894DEBF0FBE48
:10175000CDBFDF91CF910895CF93DF93009721F014
:101760009093080480930704C0910704D091080463
:10177000209769F0CE010E942D19009741F0FC01DD
:101780001192F0930804E0930704CE0102C080E0B8
:1017900090E0DF91CF9108950F931F93CF93DF9344
:1017A0008B016DE973E00E94AC0BEC01BC01D80128
:1017B0008D919C910E941719FE0101900020E9F77C
:1017C0003197EC1BFD0BE031F1055CF4D8018D91F4
:1017D0009C918E0F9F1FDC011C923196F4CF0E5FFF
:1017E0001F4FCD2B11F16DE973E080E090E00E9476
:1017F000AC0BEC01BC01F801828193810E941719A6
:10180000FE0101900020E9F73197EC1BFD0BE03160
:10181000F1052CF7D80112968D919C9113978E0F9C
:101820009F1FDC011C923196F2CF80E090E0DF91A7
:10183000CF911F910F910895FC019F01281B390B37
:101840002617370714F41192F8CF0895AF92BF927C
:10185000CF92DF92EF92FF921F93CF93DF93CDB79A
:10186000DEB727970FB6F894DEBF0FBECDBF5C0181
:10187000162FFC018081992787FD9095C0972AE05B
:10188000289FB001299F700D11248181992787FD20
:101890009095C097680F791F882777FD8095982FBE
:1018A0000E94C1126B017C01B5016E5F7F4F47E062
:1018B00050E0CE0101960E941E1960E070E0CE015A
:1018C00001960E94711720E030E040E752E40E9448
:1018D00026129B01AC01C701B6010E9459111335B4
:1018E00009F4905827960FB6F894DEBF0FBECDBF0F
:1018F000DF91CF911F91FF90EF90DF90CF90BF903D
:10190000AF900895AF92BF92CF92DF92EF92FF9285
:101910001F93CF93DF93CDB7DEB727970FB6F89419
:10192000DEBF0FBECDBF5C01162FFC018081992761
:1019300087FD9095C09724E6289FB001299F700DE0
:1019400011248181992787FD9095C0974AE0489F8F
:101950009001499F300D1124620F731F82819927D6
:1019600087FD9095C097680F791F882777FD809530
:10197000982F0E94C1126B017C01B5016D5F7F4FF2
:1019800047E050E0CE0101960E941E1960E070E031
:10199000CE0101960E94711720E030E040E752E44A
:1019A0000E9426129B01AC01C701B6010E94591189
:1019B000173509F4905827960FB6F894DEBF0FBE7E
:1019C000CDBFDF91CF911F91FF90EF90DF90CF902F
:1019D000BF90AF900895CF92DF92EF92FF920F9356
:1019E0001F93CF93DF938C01EB0168E070E0CE0191
:1019F0000E941C0CD8016D917C91CE010E94171998
:101A000068E070E0CE0108960E941C0CD801129686
:101A1000ED91FC911397808188871296ED91FC914E
:101A20001397818189878AE38A871296ED91FC91C9
:101A3000139792819B871296ED91FC911397938156
:101A40009C878D871296ED91FC91139784818E87E8
:101A50001296ED91FC91139785818F871496ED91E5
:101A6000FC9115978081888B198A1A8A1B8A1C8A97
:101A70001896ED91FC911997608116968D919C9125
:101A800017970E94260C6B017C0120E030E044E0B7
:101A900054EC0E941F12882321F0C98ADA8AEB8A4B
:101AA000FC8A1D8A1E8A1F8A188ED8011C96ED9109
:101AB000FC911D9760811A968D919C911B970E94B5
:101AC000820C6B017C0120E030E846EA55EC0E9474
:101AD0001F12882321F0CD8ADE8AEF8AF88E198EB4
:101AE0001A8E1B8E1C8E60E070E0F801868597854B
:101AF0000E947117698F7A8F8B8F9C8F1D8E1E8E1F
:101B00001F8E18A260E070E0D80150968D919C91D4
:101B100051970E9471176D8F7E8F8F8F98A368E009
:101B200070E0CE0181960E941C0CD8015296ED9176
:101B3000FC915397828189A35296ED91FC91539722
:101B400083818AA38FE28BA35296ED91FC915397E8
:101B500090819CA35296ED91FC91539791819DA306
:101B60008EA35296ED91FC91539784818FA3529648
:101B7000ED91FC915397858188A77E01B9E2EB0E28
:101B8000F11C68E070E0C7010E941C0CF801648938
:101B90007589C7010E941719D8015896ED91FC91DB
:101BA0005997808189AB63E070E0CE01C2960E94B4
:101BB0001C0CD8015896ED91FC91599781818AAB04
:101BC0005896ED91FC91599782818BAB5896ED9187
:101BD000FC91599783818CABDF91CF911F910F912D
:101BE000FF90EF90DF90CF9008954F925F926F92A9
:101BF0007F928F929F92AF92BF92CF92DF92EF929D
:101C0000FF920F931F93CF93DF93CDB7DEB760970B
:101C10000FB6F894DEBF0FBECDBF2B013C01298764
:101C20003A874B875C87E982FA820B831C839B018E
:101C3000AC01C801B7010E9458112BED3FE049E407
:101C400050E40E94AB1420E030E044E353E40E94EF
:101C5000261220E030E040E05FE30E94AB140E94D7
:101C60007A156D837E838F8398872BED3FE049E45F
:101C700050E4C301B2010E94AB1420E030E044E321
:101C800053E40E9426120E9423122B013C012BEDEB
:101C90003FE049E450E4C801B7010E94AB1420E0E2
:101CA00030E044E353E40E9426120E942312698329
:101CB0007A838B839C8329853A854B855C85C60115
:101CC000B5010E9458112BED3FE049E450E40E9419
:101CD000AB1420E030E044E353E40E94261220E0FD
:101CE00030E040E05FE30E94AB140E947A154B01A4
:101CF0005C012D813E814F815885CA01B9010E9446
:101D0000AB146B017C0129813A814B815C81C30159
:101D1000B2010E94AB14A50194010E94AB14A5016D
:101D200094010E94AB149B01AC01C701B6010E9453
:101D300059116B017C019B01AC0160E070E080E80F
:101D40009FE30E9458110E9484159B01AC01C701BA
:101D5000B6012D873E874F87588B0E9484152D85AD
:101D60003E854F8558890E94CC119B01AC010E9491
:101D7000591120E038E147EC55E40E94AB1460961D
:101D80000FB6F894DEBF0FBECDBFDF91CF911F918C
:101D90000F91FF90EF90DF90CF90BF90AF909F900A
:101DA0008F907F906F905F904F9008952F923F9209
:101DB0004F925F926F927F928F929F92AF92BF925B
:101DC000CF92DF92EF92FF920F931F93CF93DF9307
:101DD000CDB7DEB72C970FB6F894DEBF0FBECDBFE0
:101DE0007E836D8329013A01EF82F88609871A877D
:101DF0009A8389831C861B862FEF2B833FEF3C83BE
:101E0000212C312C80E8882E9FEB992E8B859C8588
:101E1000ED81FE818E179F07F4F5E981FA81A08894
:101E2000B188C288D388E484F584068517852F811C
:101E3000388549855A85C301B2010E94F50D7B01A1
:101E40008C019101A4010E941F1287FD0DC020E0AA
:101E500030E040E85FEBB101C4010E941F1288230B
:101E600041F07101840109C0FB85FB832C852C8323
:101E700004C03B853B838C858C83EB85FC85319648
:101E8000FC87EB8729813A81245E3F4F3A8329837F
:101E900017014801BBCF8B819C812C960FB6F8941B
:101EA000DEBF0FBECDBFDF91CF911F910F91FF908D
:101EB000EF90DF90CF90BF90AF909F908F907F90EA
:101EC0006F905F904F903F902F900895AF92BF9288
:101ED000CF92DF92EF92FF920F931F93ECE1E49F7A
:101EE0009001E59F300D1124620F731FFB01A08844
:101EF000B188C288D388E484F58406851785FC01FF
:101F0000258936894789508D6189728983899489A9
:101F10000E94F50D1F910F91FF90EF90DF90CF90F1
:101F2000BF90AF9008952BED3FE049E450E40E944C
:101F3000AB1420E030E044E353E40E9426120895FD
:101F40008F929F92AF92BF92CF92DF92EF92FF92C9
:101F5000CF93DF93EC01FC0180E090E021912223FC
:101F600009F44FC0019684309105C1F780E090E0FC
:101F7000FE01E80FF91F2085222309F442C00196D3
:101F800084309105A9F789889A88AB88BC8820E0BD
:101F900030E0A901C501B4010E941F12882389F114
:101FA000CD88DE88EF88F88C20E030E0A901C701F9
:101FB000B6010E941F12882321F120E030E044E0A6
:101FC00054ECC501B4010E941F12811113C020E01E
:101FD00030E846EA55ECC701B6010E941F12811194
:101FE00009C0198A1A8A1B8A1C8A1D8A1E8A1F8A9E
:101FF000188E08C081E090E02AA92A3221F080E002
:1020000002C080E090E0DF91CF91FF90EF90DF90F1
:10201000CF90BF90AF909F908F9008950E94751BB6
:1020200090E008950C94751B0C947D1B0C94651B1B
:10203000CF93DF931F92CDB7DEB70E94D1010DE899
:1020400014E080E190E00E944A16F8018193919398
:102050008F01F4E0073A1F07A1F785E390E00E94A3
:102060004A1690930C0480930B0485ED92E00E9435
:10207000840A0E94E3012FE38DE093E02150804029
:102080009040E1F700C0000082E0E82EF12C0091C2
:10209000A6031091A7030130110509F479C002309D
:1020A000110509F472C0012B91F7809103049091FE
:1020B0000404181619060CF0ACC00E94CB010E9453
:1020C000F40580910B0490910C040E94A00F892BC1
:1020D00009F445C00E94980889EE92E00E94840AA3
:1020E000EFE9F6E821E0E150F0402040E1F700C0E0
:1020F0000000E0910B04F0910C04618972898389DE
:10210000948943E050E00E94CD0A83E294EF019766
:10211000F1F700C0000086EF92E00E94840AE3E23B
:10212000F4EF3197F1F700C00000E0910B04F0915B
:102130000C04658976898789908D43E050E00E9480
:10214000CD0AFFE32DE083E0F15020408040E1F72D
:1021500000C000000E946D070E94EB0313C00E94A4
:10216000980889EF92E00E94840A85E093E00E943B
:10217000840A9FE7EAE1F6E09150E040F040E1F7A1
:1021800000C000000E94290782CF0E94DE037FCF9B
:102190000E9427018091A2039091A303892BA1F4AF
:1021A0000E94980883E193E00E94840A1093A3039D
:1021B0000093A2031092A1031092A0031092A50312
:1021C0001092A4030E949402909102048091010451
:1021D000981709F443C01092FA031092FB0310926F
:1021E000FC031092FD030E94210389830E940C03CB
:1021F0006981892B19F180E090E00E9441030E94DF
:1022000071058091A0039091A103892B39F00E9460
:102210003505F092A703E092A60339CF0E949808F3
:102220008CE293E00E94840A2FE38DE093E021503A
:1022300080409040E1F700C0000029CF8091A403C6
:102240009091A5030E94831B8091A4039091A50304
:1022500001969093A5038093A40319CF20E030E06A
:1022600040E85FE36091FA037091FB038091FC0307
:102270009091FD030E9459116093FA037093FB0340
:102280008093FC039093FD0320E030E543E457E4A2
:102290000E94221418160CF0FACE81E090E00E9401
:1022A000410360E270E080E090E00E947C03AFCFE9
:1022B0005058BB27AA270ED063C22CD230F031D29F
:1022C00020F031F49F3F11F41EF4FCC10EF4E095B0
:1022D000E7FBC9C1E92F76D280F3BA17620773070B
:1022E0008407950718F071F49EF5A5C20EF4E095E9
:1022F0000B2EBA2FA02D0B01B90190010C01CA01C0
:10230000A0011124FF27591B99F0593F50F4503E6A
:1023100068F11A16F040A22F232F342F4427585F5C
:10232000F3CF469537952795A795F0405395C9F774
:102330007EF41F16BA0B620B730B840BBAF091502C
:10234000A1F0FF0FBB1F661F771F881FC2F70EC0CB
:10235000BA0F621F731F841F48F48795779567959E
:10236000B795F7959E3F08F0B3CF9395880F08F087
:102370009927EE0F979587950895CCD158F080E86E
:1023800091E009F49EEFCDD128F040E851E059F4F6
:102390005EEF09C097C14FC2E92FE07813D268F30E
:1023A000092E052AC1F3261737074807590738F0C1
:1023B0000E2E07F8E02569F0E025E0640AC0EF631F
:1023C00007F8009407FADB01B9019D01DC01CA019D
:1023D000AD01EF934AD0D4D10AD05F91552331F0AB
:1023E0002BED3FE049E450FD49EC63CF0895DF93C6
:1023F000DD27B92FBF7740E85FE3161617064807B9
:102400005B0710F4D92F22D29F938F937F936F9302
:10241000B9D3E4EBF0E059D1B3D12F913F914F9173
:102420005F91A5D2DD2349F09058A2EA2AED3FE062
:1024300049EC5FE3D0785D274DDFDF91A1C1EFD09C
:1024400008F481E0089575D1E395ABC10CD098C133
:1024500068D140F05FD130F021F45F3F19F003C143
:102460005111EAC12FC1AED198F39923C9F3552375
:10247000B1F3951B550BBB27AA2762177307840777
:1024800038F09F5F5F4F220F331F441FAA1FA9F32D
:1024900033D00E2E3AF0E0E830D091505040E6951F
:1024A000001CCAF729D0FE2F27D0660F771F881F80
:1024B000BB1F261737074807AB07B0E809F0BB0B6F
:1024C000802DBF01FF2793585F4F2AF09E3F510593
:1024D00068F0C9C0B1C15F3FECF3983EDCF386956C
:1024E00077956795B795F7959F5FC9F7880F911D09
:1024F0009695879597F90895E1E0660F771F881FF5
:10250000BB1F621773078407BA0720F0621B730BA7
:10251000840BBA0BEE1F88F7E095089504D06894F9
:10252000B1118AC1089556D188F09F5790F0B92F04
:102530009927B751A0F0D1F0660F771F881F991F18
:102540001AF0BA95C9F712C0B13081F074D1B1E078
:10255000089571C1672F782F8827B85F39F0B93F88
:10256000CCF3869577956795B395D9F73EF490951A
:102570008095709561957F4F8F4F9F4F0895E89498
:1025800009C097FB3EF490958095709561957F4FBB
:102590008F4F9F4F9923A9F0F92F96E9BB27939569
:1025A000F695879577956795B795F111F8CFFAF479
:1025B000BB0F11F460FF1BC06F5F7F4F8F4F9F4FAA
:1025C00016C0882311F096E911C0772321F09EE808
:1025D000872F762F05C0662371F096E8862F70E06E
:1025E00060E02AF09A95660F771F881FDAF7880F48
:1025F0009695879597F9089507D180F09F3740F415
:1026000091110EF019C160E070E080E89FEB089531
:1026100026F41B16611D711D811D2BC045C0990F2D
:102620000008550FAA0BE0E8FEEF16161706E8079C
:10263000F907C0F012161306E407F50798F0621BBD
:10264000730B840B950B39F40A2661F0232B242B92
:10265000252B21F408950A2609F4A140A6958FEFB1
:10266000811D811D089597F99F6780E870E060E003
:102670000895882371F4772321F09850872B762FC3
:1026800007C0662311F499270DC09051862B70E086
:1026900060E02AF09A95660F771F881FDAF7880F97
:1026A0009695879597F908959F3F31F0915020F4C2
:1026B000879577956795B795880F911D969587951E
:1026C00097F908959FEF80EC0895DF93CF931F93C0
:1026D0000F93FF92EF92DF927B018C01689405C00B
:1026E000DA2EEF0144D1FE01E894A59125913591B0
:1026F00045915591AEF3EF01EDDDFE019701A80183
:10270000DA9479F7DF90EF90FF900F911F91CF91BE
:10271000DF91089500240A94161617061806090674
:10272000089500240A941216130614060506089547
:10273000C9CF50D0E8F3E894E0E0BB279F57F0F012
:102740002AED3FE049EC06C0EE0FBB0F661F771F76
:10275000881F28F0B23A62077307840728F0B25A3C
:10276000620B730B840BE3959A9572F7803830F403
:102770009A95BB0F661F771F881FD2F7904896CF98
:10278000092E0394000C11F4882352F0BB0F40F47F
:10279000BF2B11F460FF04C06F5F7F4F8F4F9F4FBF
:1027A0000895EF93E0FF06C0A2EA2AED3FE049EC6E
:1027B0005FEB90DDE5DF0F90039401FC9058E1EEB4
:1027C000F0E01BC257FD9058440F551F59F05F3F72
:1027D00071F04795880F97FB991F61F09F3F79F043
:1027E00087950895121613061406551FF2CF4695C5
:1027F000F1DF08C0161617061806991FF1CF869547
:102800007105610508940895E5DFA0F0BEE7B917EA
:1028100088F4BB279F3860F41616B11D672F782FF8
:102820008827985FF7CF869577956795B11D939523
:102830009639C8F30895E894BB2766277727CB011C
:1028400097F90895ECDE08F48FEF08959B01AC0131
:1028500060E070E080E89FE3F9CD0AD029ED3BE528
:102860004EED5EE378C00EF01FCF2CCF6894FBCE08
:10287000B1DFC8F39923D1F3C6F3DF93CF931F934E
:102880000F93FF92C92FDD2788232AF02197660F27
:10289000771F881FDAF720E030E040E85FEB9FE326
:1028A000883920F0803E30F021968F7702DDEFEFFF
:1028B000F0E003C0FEDCECE2F1E007DF8B01BE01DB
:1028C000EC01FB2E6F5771097595771F880B990BDB
:1028D00058DE28E132E741E35FE349D0AF2D9801AC
:1028E000AE01FF900F911F91CF91DF91F3DC48CFA4
:1028F000FA01DC01AA0FBB1F9B01AC01BF5728F4F2
:1029000022273327442750781FC0B75188F4AB2FB4
:102910000024469537952795011CA395D2F30020F6
:1029200069F0220F331F441FB395DAF30DD0C0CCEA
:1029300061307105A0E88A07B94630F49B01AC010B
:102940006627772788279078309621F02083318377
:102950004283538308950BD013CFDCDE28F0E1DEF1
:1029600018F0952309F07FCEADCE112465CF2ADF74
:10297000A0F3959FD1F3950F50E0551F629FF00192
:10298000729FBB27F00DB11D639FAA27F00DB11DEB
:10299000AA1F649F6627B00DA11D661F829F222774
:1029A000B00DA11D621F739FB00DA11D621F839FFB
:1029B000A00D611D221F749F3327A00D611D231FD1
:1029C000849F600D211D822F762F6A2F11249F571F
:1029D00050408AF0E1F088234AF0EE0FFF1FBB1F42
:1029E000661F771F881F91505040A9F79E3F5105E1
:1029F00070F039CE21CF5F3FECF3983EDCF3869543
:102A000077956795B795F795E7959F5FC1F7FE2B8B
:102A1000880F911D9695879597F90895FA01EE0F05
:102A2000FF1F30962105310599F16115710561F49B
:102A30008038BFE39B0749F168949038810561F0C5
:102A40008038BFEF9B0741F0992342F5FF3FE10536
:102A50003105210511F1E8940894E795D901AA23DD
:102A600029F4AB2FBE2FF85FD0F310C0FF5F70F4D6
:102A7000A695E0F7F73950F019F0FF3A38F49F7750
:102A80009F930CD00F9007FC905808953EF01ACEFB
:102A900060E070E080E89FE308954FE79F775F93E1
:102AA0004F933F932F93E4DE2F913F914F915F918E
:102AB00052DF70C08FDEE0F09E37D8F09639B8F460
:102AC0009E3848F4672F782F8827985FF9CF86952E
:102AD0007795679593959539D0F3B62FB1706B0FB5
:102AE000711D811D20F48795779567959395C1CDCC
:102AF000DBCDA2CE9F931DDE0F9007FCEE5F51CE83
:102B000011F40EF4DFCDD0CD65DED0F39923D9F3E7
:102B1000CEF39F57550B87FF69D00024A0E640EA0B
:102B2000900180585695979528F4805C660F771F22
:102B3000881F20F026173707480730F4621B730BF5
:102B4000840B202931294A2BA69517940794202518
:102B500031254A2758F7660F771F881F20F0261760
:102B60003707480730F4620B730B840B200D311DBF
:102B7000411DA09581F7B901842F9158880F969532
:102B8000879508959B01AC01E6CE19F40EF06BCD4C
:102B900052CE98CD1FDEC8F39638C0F707F80F92D3
:102BA000E8942BE33AEA48EB5FE7E3DE0F920F92FB
:102BB0000F924DB75EB70F929BDEE9E5F1E085DD40
:102BC0004F915F91EF91FF91E595EE1FFF1F49F047
:102BD000FE57E0684427EE0F441FFA95E1F7419550
:102BE000550B1ED00F9007FE31CE089591505040E6
:102BF000660F771F881FD2F708959F938F937F9357
:102C00006F93FF93EF939B01AC01A5DEEF91FF91D2
:102C10005CDD2F913F914F915F919DCE24CD44CDAE
:102C2000D9DDE8F39923D9F3940F511DBBF39150EB
:102C3000504094F059F0882332F0660F771F881FB8
:102C400091505040C1F79E3F510544F7880F911DA8
:102C50009695879597F908955F3FACF0983E9CF064
:102C6000BB27869577956795B79508F4B1609395DE
:102C7000C1F7BB0F58F711F460FFE8CF6F5F7F4FCC
:102C80008F4F9F4FE3CFD8CDEE0FFF1F0590F491EC
:102C9000E02D0994CF93DF938230910510F482E008
:102CA00090E0E091A904F091AA0420E030E0A0E0D7
:102CB000B0E0309739F14081518148175907B8F099
:102CC0004817590771F482819381109729F0139660
:102CD0009C938E9312972CC09093AA048093A9047E
:102CE00027C02115310531F04217530718F0A9010B
:102CF000DB0101C0EF019A01BD01DF010280F38118
:102D0000E02DD7CF21153105F9F0281B390B2430E0
:102D1000310580F48A819B816115710521F0FB01E9
:102D20009383828304C09093AA048093A904FE0134
:102D3000329644C0FE01E20FF31F8193919322501B
:102D40003109398328833AC02091A7043091A8041F
:102D5000232B41F420910801309109013093A804FC
:102D60002093A70420910601309107012115310518
:102D700041F42DB73EB740910A0150910B01241B3D
:102D8000350BE091A704F091A804E217F307A0F433
:102D90002E1B3F0B2817390778F0AC014E5F5F4FB1
:102DA0002417350748F04E0F5F1F5093A804409337
:102DB000A7048193919302C0E0E0F0E0CF01DF919E
:102DC000CF910895CF93DF93009709F487C0FC015A
:102DD000329713821282C091A904D091AA0420973D
:102DE00081F420813181280F391F8091A7049091AF
:102DF000A8048217930779F5F093A804E093A70439
:102E00006DC0DE0120E030E0AE17BF0750F412962F
:102E10004D915C9113979D014115510509F1DA011E
:102E2000F3CFB383A28340815181840F951F8A170A
:102E30009B0771F48D919C911197840F951F0296B9
:102E40009183808312968D919C91139793838283B3
:102E50002115310529F4F093AA04E093A9043EC09A
:102E6000D9011396FC93EE9312974D915D91A40FA7
:102E7000B51FEA17FB0779F480819181840F951FB4
:102E80000296D90111969C938E9382819381139619
:102E90009C938E931297E0E0F0E08A819B810097EB
:102EA00019F0FE01EC01F9CFCE010296288139819B
:102EB000820F931F2091A7043091A8042817390787
:102EC00069F4309729F41092AA041092A90402C060
:102ED00013821282D093A804C093A704DF91CF91EC
:102EE00008954F925F926F927F928F929F92AF92CE
:102EF000BF92CF92DF92EF92FF920F931F93CF93E7
:102F0000DF938B016115710521F0DB018C93119624
:102F10009C93EC015E01BFEFAB1ABB0A7501C88040
:102F20008C2D90E00E94EE18892B11F0E501F2CF74
:102F3000EDE2CE1208C07E01F2E0EF0EF11CC98076
:102F4000DD24D39409C02BE2C21205C07E0142E009
:102F5000E40EF11CC980D12CE701219743E050E039
:102F600069E871E0CE010E94F618892BD1F4E701DF
:102F7000229645E050E064E871E0CE010E94F61828
:102F8000892B11F4E70127960115110519F0D801D5
:102F9000CD93DC93D11008C160E070E080E89FE73A
:102FA0000CC143E050E061E871E0CE010E94F618E8
:102FB000892B59F40115110509F4FBC0B2E0EB0EA1
:102FC000F11CF801F182E082F4C0F70160E070E0EA
:102FD000CB01C0E0D0E07F01A0EDAA2EAC0C29E02F
:102FE0002A1530F14D2D4260B42E2D2D2870D2FEC1
:102FF00004C0211125C0219623C021112197A5E0ED
:10300000B0E09B01AC010E943A1C660F771F881F3D
:10301000991F6A0D711D811D911D6839A9E97A07F3
:103020008A07A9E19A0760F0BD2DB660BB2E08C0E3
:103030002EEFA2120AC0D3FC50C04D2D4860B42E12
:103040003196D701CC90DB2CC6CF2C2D2F7D25348B
:1030500009F043C0A081AD3241F4BD2DB061DB2E3B
:103060007F0122E0E20EF11C0CC07F01AB3231F097
:103070004FEFE41AF40A21E030E006C0A2E0EA0EC5
:10308000F11CA18122E030E0A053AA3018F0E21A2E
:10309000F30A23C0F70120E030E02038BCE03B0712
:1030A0005CF4A901440F551F440F551F240F351F11
:1030B000220F331F2A0F311DAF014F5F5F4F7A017F
:1030C000A081A053AA3010F4FA01E7CFD4FE03C0C8
:1030D000319521953109C20FD31FD1FE09C00115C9
:1030E000110531F0E1E0EE1AF108D801ED92FC9201
:1030F0000E94BF122D2D2370233019F06B017C012B
:1031000006C06B017C01F7FAF094F7F8F09420E028
:1031100030E0A901C701B6010E941F12882309F4FB
:1031200040C0D7FF06C0D195C195D10900EA11E092
:1031300002C008EB11E04801B8E18B1A910890E257
:10314000A92EB12CF8014590559065907490CA1540
:10315000DB055CF0A3019201C701B6010E94AB142C
:103160006B017C01CA19DB09F2CF04501109B59437
:10317000A7940815190531F78E2D880F8F2D881FFC
:103180008F3F49F020E030E0A901C701B6010E945D
:103190001F12811106C082E290E09093AC048093EC
:1031A000AB04C701B60109C060E070E080E89FEFA2
:1031B00004C060E070E080EC9FE7DF91CF911F9149
:1031C0000F91FF90EF90DF90CF90BF90AF909F90C6
:1031D0008F907F906F905F904F9008959111A1C252
:1031E000803219F089508550D0F70895FB01DC0139
:1031F0004150504088F08D9181341CF08B350CF497
:10320000805E659161341CF06B350CF4605E861B4A
:10321000611171F3990B0895881BFCCFFB01DC0150
:103220008D91019080190110D9F3990B0895FB013C
:10323000DC0101900D920020E1F70895FB01DC0113
:103240004150504048F001900D920020C9F701C054
:103250001D9241505040E0F70895DC0199278D916F
:10326000882341F0FB01019008160110E1F7B9F73E
:103270001197CD0108950F931F93CF93DF93CDB78F
:10328000DEB72E970FB6F894DEBF0FBECDBF0D8907
:103290001E8986E08C831A8309838FEF9FE79E83C4
:1032A0008D83AE01475E5F4F6F89788DCE010196A9
:1032B0000E946A19EF81F885E00FF11F10822E96A7
:1032C0000FB6F894DEBF0FBECDBFDF91CF911F9137
:1032D0000F9108952F923F924F925F926F927F923B
:1032E0008F929F92AF92BF92CF92DF92EF92FF9216
:1032F0000F931F93CF93DF93CDB7DEB72C970FB605
:10330000F894DEBF0FBECDBF7C016B018A01FC01CA
:1033100017821682838181FFBDC1CE0101964C01C7
:10332000F7019381F60193FD859193FF81916F01E0
:10333000882309F4ABC1853239F493FD859193FF5D
:1033400081916F01853229F4B70190E00E94AA1B98
:10335000E7CF512C312C20E02032A0F48B3269F0E1
:1033600030F4803259F0833269F420612CC08D3200
:1033700039F0803339F4216026C02260246023C0F4
:10338000286021C027FD27C030ED380F3A3078F48F
:1033900026FF06C0FAE05F9E300D1124532E13C0A5
:1033A0008AE0389E300D1124332E20620CC08E32FC
:1033B00021F426FD6BC1206406C08C3611F4206810
:1033C00002C0883641F4F60193FD859193FF819107
:1033D0006F018111C1CF982F9F7D9554933028F4B0
:1033E0000C5F1F4FFFE3F9830DC0833631F0833745
:1033F00071F0833509F05BC022C0F80180818983B8
:103400000E5F1F4F44244394512C540115C03801C2
:10341000F2E06F0E711CF801A080B18026FF03C09E
:10342000652D70E002C06FEF7FEFC5012C870E9411
:103430009F1B2C0183012C852F77222E17C038016A
:10344000F2E06F0E711CF801A080B18026FF03C06E
:10345000652D70E002C06FEF7FEFC5012C870E94E1
:10346000941B2C012C852068222E830123FC1BC079
:10347000832D90E048165906B0F4B70180E290E041
:103480000E94AA1B3A94F4CFF50127FC859127FEF0
:1034900081915F01B70190E00E94AA1B31103A941C
:1034A000F1E04F1A51084114510471F7E5C0843618
:1034B00011F0893639F5F80127FF07C06081718165
:1034C000828193810C5F1F4F08C0608171818827C2
:1034D00077FD8095982F0E5F1F4F2F76B22E97FFA6
:1034E00009C090958095709561957F4F8F4F9F4F44
:1034F0002068B22E2AE030E0A4010E94DC1BA82E36
:10350000A81844C0853729F42F7EB22E2AE030E077
:1035100025C0F22FF97FBF2E8F36C1F018F4883501
:1035200079F0B4C0803719F0883721F0AFC02F2F61
:103530002061B22EB4FE0DC08B2D8460B82E09C060
:1035400024FF0AC09F2F9660B92E06C028E030E005
:1035500005C020E130E002C020E132E0F801B7FE12
:1035600007C060817181828193810C5F1F4F06C00B
:103570006081718180E090E00E5F1F4FA4010E9486
:10358000DC1BA82EA818FB2DFF77BF2EB6FE0BC0A4
:103590002B2D2E7FA51450F4B4FE0AC0B2FC08C037
:1035A0002B2D2E7E05C07A2C2B2D03C07A2C01C02A
:1035B000752C24FF0DC0FE01EA0DF11D80818033C2
:1035C00011F4297E09C022FF06C07394739404C0CD
:1035D000822F867809F0739423FD13C020FF06C064
:1035E0005A2C731418F4530C5718732C731468F472
:1035F000B70180E290E02C870E94AA1B73942C856F
:10360000F5CF731410F4371801C0312C24FF12C009
:10361000B70180E390E02C870E94AA1B2C8522FF33
:1036200017C021FF03C088E590E002C088E790E062
:10363000B7010CC0822F867859F021FD02C080E2CC
:1036400001C08BE227FD8DE2B70190E00E94AA1B2A
:10365000A51438F4B70180E390E00E94AA1B5A94A5
:10366000F7CFAA94F401EA0DF11D8081B70190E033
:103670000E94AA1BA110F5CF332009F451CEB70147
:1036800080E290E00E94AA1B3A94F6CFF70186816F
:10369000978102C08FEF9FEF2C960FB6F894DEBF94
:1036A0000FBECDBFDF91CF911F910F91FF90EF9093
:1036B000DF90CF90BF90AF909F908F907F906F9052
:1036C0005F904F903F902F900895DC01CB01FC015B
:1036D000F999FECF06C0F2BDE1BDF89A319600B46B
:1036E0000D9241505040B8F70895F999FECF92BD20
:1036F00081BDF89A992780B50895A6E1B0E044E02D
:1037000050E00C94671B262FF999FECF1FBA92BD8B
:1037100081BD20BD0FB6F894FA9AF99A0FBE0196B2
:103720000895992788270895FC01059061507040FD
:103730000110D8F7809590958E0F9F1F0895FC017A
:103740006150704001900110D8F7809590958E0FD0
:103750009F1F08950F931F93CF93DF93182F092F67
:10376000EB018B8181FD03C08FEF9FEF20C082FFB3
:1037700010C04E815F812C813D81421753077CF43C
:10378000E881F9819F012F5F3F4F398328831083A0
:1037900006C0E885F985812F0995892B29F72E81A7
:1037A0003F812F5F3F4F3F832E83812F902FDF91EB
:1037B000CF911F910F910895FA01AA27283051F156
:1037C000203181F1E8946F936E7F6E5F7F4F8F4F52
:1037D0009F4FAF4FB1E03ED0B4E03CD0670F781FB1
:1037E000891F9A1FA11D680F791F8A1F911DA11D96
:1037F0006A0F711D811D911DA11D20D009F46894CF
:103800003F912AE0269F11243019305D3193DEF676
:10381000CF010895462F4770405D4193B3E00FD02C
:10382000C9F7F6CF462F4F70405D4A3318F0495D17
:1038300031FD4052419302D0A9F7EACFB4E0A695FA
:103840009795879577956795BA95C9F7009761051C
:10385000710508959B01AC010A2E06945795479572
:1038600037952795BA95C9F7620F731F841F951F67
:10387000A01D08950E94451CA59F900DB49F900D1A
:10388000A49F800D911D11240895A29FB001B39FA4
:10389000C001A39F700D811D1124911DB29F700D59
:0C38A000811D1124911D0895F894FFCFA4
:1038AC005E24FFFF01000000AD0420002431323300
:1038BC00343500696D706F7274696E6720000A731D
:1038CC00746174696F6E732E2E2E0072656164695B
:1038DC006E670A6461746162617365202E2E2E001E
:1038EC004552524F523A0A74696D656F7574202EA9
:1038FC002E2E000A757064617465206661696C65B2
:10390C00640A007570646174652072657175697202
:10391C0065640A2E2E2E66656564206D652E2E2E2E
:10392C00004C61746573740A475053204461746190
:10393C003A004D6573736167653A200054696D6593
:10394C003A20004E52573A20004C61743A20004CF9
:10395C006F6E3A200053706565643A2000436F75B2
:10396C007273653A2000446174653A20004D6167BA
:10397C005661723A20004D6F64653A2000436865C9
:10398C00636B73756D3A20005261770A4750532070
:10399C0044617461004D6573736167650054696DB2
:1039AC0065004E5257004C6174004E2F53004C6F03
:1039BC006E00452F5700537065656400436F757238
:1039CC0073650044617465004D6167566172004D0A
:1039DC006F646500436865636B73756D0077697020
:1039EC00696E670A6D656D6F72792E2E2E00434FCE
:1039FC005252555054494F4E0A4445544543544530
:103A0C00440074726163696E670A636F72727570D9
:103A1C0074696F6E2E2E2E0073746174696F6E2034
:103A2C002300203A2000206B6E6F776E0A7374614E
:103A3C0074696F6E7300667265713A20006C617404
:103A4C003A20006C6F6E3A20006572703A20006864
:103A5C006161743A200046696E64696E67204E6538
:103A6C0061726573740A53746174696F6E2E2E2EB5
:103A7C0000206B6D0072656164696E670A64617425
:103A8C0061626173652E2E2E00475053204C6F637C
:103A9C006B6564210A002C20004E6F204750532088
:103AAC004669780A0042652050617469656E742E0F
:103ABC002E2E007570646174696E672E2E2E0A644A
:103ACC006F6E277420756E706C756700757064610D
:103ADC00746520636F6D706C6574650043616C6315
:103AEC00756C6174696E670A45617274682044690B
:103AFC007374616E6365730044656E766572202D18
:103B0C003E204E59433A0A004E6F727468204B4364
:103B1C00202D3E204B433A0A0057616974696E6749
:103B2C0020466F720A475053204C6F636B2E2E2E1B
:103B3C00002564003000244750524D43002C0000F7
:00000001FF
