S00F00006461745F6C63642E737265634A
S11300000C9487000C94A6000C94A6000C94A600F3
S11300100C94A6000C94A6000C94A6000C94A600C4
S11300200C94A6000C94A6000C94A6000C94A600B4
S11300300C94A6000C94A6000C94A6000C94A600A4
S11300400C94A6000C94A6000C94A6000C94A60094
S11300500C94D6000C94A6000C94A6000C94A60054
S11300600C94A6000C94A6000C94A6000C94A60074
S11300700C94F5030C94A6000C94A6000C94A60012
S11300800C94A6000C94A6000C94A6000800000092
S1130090BE922449123EABAAAA2ABECDCCCC4C3E79
S11300A000000080BEABAAAAAA3E00000000BF0068
S11300B00000803F0000000000084178D3BB438764
S11300C0D1133D190E3CC3BD4282AD2B3E68EC8278
S11300D076BED98FE1A93E4C80EFFFBE01C4FF7FFD
S11300E03F000000000007634236B79BD8A71A39C7
S11300F0685618AEBAAB558C1D3CB7CC5763BD6D72
S1130100EDFD753EF6177231BF000000803F1124EB
S11301101FBECFEFD0E4DEBFCDBF12E0A0E0B1E060
S1130120ECEFF4E200E00BBF02C007900D92A6389A
S1130130B107D9F713E0A6E8B2E001C01D92AD38CB
S1130140B107E1F70E9476090C947C120C9400002C
S11301501092CD008CE08093CC001092C500809367
S1130160C400E9ECF0E08081886D8083E1ECF0E08C
S11301708081886D8083E8ECF0E0808182608083F8
S1130180E0ECF0E0808182608083EAECF0E0808142
S11301908E608083E2ECF0E0808186608083089545
S11301A0E1ECF0E080818772808308951F920F92C2
S11301B00FB60F9211240BB60F922F933F934F93C8
S11301C05F936F937F938F939F93AF93BF93EF93BB
S11301D0FF938091DE029091DF0201969093DF02FB
S11301E08093DE028091DE029091DF0281359105D9
S11301F084F080E090E0FC01E257FD4F108201960C
S113020080359105C1F781E090E09093DF028093FF
S1130210DE02E091DE02F091DF028091C600E25737
S1130220FD4F8083E091DE02F091DF02E257FD4F43
S11302308081843281F481E090E0FC01E257FD4F3B
S11302401082019680359105C1F781E090E090938A
S1130250DF028093DE02E091DE02F091DF02E257DA
S1130260FD4F80818D3049F0E091DE02F091DF0294
S1130270E257FD4F80818A3061F463E171E08EE8DA
S113028092E00E945E0F61E773E00E9435090E94CC
S1130290D000FF91EF91BF91AF919F918F917F918A
S11302A06F915F914F913F912F910F900BBE0F90E3
S11302B00FBE0F901F901895E1ECF0E08081886DDF
S11302C0808308958FEF84B9F8940E94A8007894ED
S11302D00E94D5062FE38DE093E0215080409040AA
S11302E0E1F700C0000008951092EA021092E902BA
S11302F08091EF029091F0020E94CF0E1092F002D2
S11303001092EF020895CF93DF930E94D50685E102
S113031091E00E94C108C0E0D0E080918C029091ED
S11303208D02019749F06FEFCE010E94C81121960A
S1130330C13F8AE0D80789F7DF91CF9108950E94E1
S1130340BA1190E008950C94BA110C94C2110C9453
S1130350AA110F931F93CF93DF93182F092FCB016B
S11303600E94370ED82FC92F0F931F9326E231E036
S11303703F932F939F938F930E94800F8D2F9C2FD9
S11303800E94C1080F900F900F900F900F900F9044
S11303908D2F9C2FDF91CF911F910F910C94CF0E35
S11303A0EF92FF920F931F93CF93DF9380E090E03F
S11303B00E94BA1190E08F3F910529F09093EA02D0
S11303C08093E90204C01092EA021092E9022FE934
S11303D046E851E0215040405040E1F700C00000A1
S11303E00E94D50689E291E00E94C10863E070E0B2
S11303F08091E9029091EA020E94A90184E391E0CC
S11304000E94C1088091E9029091EA022CE1FC016A
S11304102E9FC0012F9F900D11240E94370E9093A0
S1130420F0028093EF02C0E0D0E0E12CF12C809147
S1130430E9029091EA02E816F9060CF045C0BE0103
S11304406F5F7F4F8091EF029091F00248E050E09F
S11304508C0F9D1F0E94AA110091EF021091F002CF
S11304600C0F1D1FCE0109960E94C211F80160876E
S1130470718782879387CE010D960E94C211F8017D
S11304806487758786879787CE0141960E94C2113B
S1130490F801608B718B828B938BCE0145960E9401
S11304A0C211F801648B758B868B978BCE014996AC
S11304B00E94C211F801608F718F828F938FFFEFBA
S11304C0EF1AFF0A6C96B3CFDF91CF911F910F9172
S11304D0FF90EF900895CF92DF92EF92FF920F93E7
S11304E01F93CF93DF9300D000D0CDB7DEB78A013E
S11304F0AE014F5F5F4F0E94160C6B017C01698156
S11305007A818B819C810E94B50ADC01CB0164E075
S113051070E00E94A90186E791E00E94C108B80139
S1130520882777FD8095982F0E94E80A9B01AC01EB
S113053060E070E080E291E40E94AC0C9B01AC01AD
S1130540C701B6010E94490C0E94F80C0E94B50A2A
S11305507B0177FF04C0EE24FF24E61AF70AE114B6
S1130560F104A1F0B701882777FD8095982F0E94A8
S1130570E80A0E94CB0B0E94230B20E030E040E805
S11305805FE30E94510A0E94B50A02C060E070E075
S1130590C12CD12C061B170BC016D10644F481E4E0
S11305A091E00E94C1088FEFC81AD80AF5CF64E021
S11305B070E0C7010F900F900F900F90DF91CF91D3
S11305C01F910F91FF90EF90DF90CF900C94A901B1
S11305D00F931F93CF93DF932CE1289F8001299FD2
S11305E0100D1124C0E0D0E0E091EF02F091F00290
S11305F0E00FF11FEC0FFD1F80810E948D082196F2
S1130600C830D10589F7DF91CF911F910F910895DB
S11306100F931F93CF93DF938C0163E070E00196F7
S11306200E94A90180ED91E00E94C108C8010E94C6
S1130630E80283E294EF0197F1F700C000008EE432
S113064092E00E94C10880918C0290918D020197E2
S113065009F4B1C083E491E00E94C1088CE1809F59
S1130660E001819FD00D1124E091EF02F091F0029E
S1130670EC0FFD1F608571858285938541E050E014
S11306800E946B0283E294EF0197F1F700C000002F
S11306908EE492E00E94C10880918C0290918D02B8
S11306A0019709F488C08AE491E00E94C108E091AE
S11306B0EF02F091F002EC0FFD1F648575858685CD
S11306C0978544E050E00E946B0283E294EF019727
S11306D0F1F700C000008EE492E00E94C10880910E
S11306E08C0290918D02019709F465C080E591E038
S11306F00E94C108E091EF02F091F002EC0FFD1F9F
S1130700608971898289938944E050E00E946B0278
S113071083E294EF0197F1F700C000008EE492E0C9
S11307200E94C10880918C0290918D02019709F476
S113073042C086E591E00E94C108E091EF02F09189
S1130740F002EC0FFD1F648975898689978941E061
S113075050E00E946B0283E294EF0197F1F700C02E
S113076000008EE492E00E94C10880918C02909176
S11307708D02019701F18CE591E00E94C108E0919E
S1130780EF02F091F002EC0FFD1F608D718D828DF0
S1130790938D40E050E00E946B0283E294EF019756
S11307A0F1F700C000008EE492E00E94C10880913D
S11307B08C0290918D02DF91CF911F910F9108953A
S11307C08091E4029091010189130CC02091E5020B
S11307D0281308C03091E60281E090E0321721F03E
S11307E080E0089580E090E008951F920F920FB684
S11307F00F9211240BB60F922F933F934F935F9355
S11308006F937F938F939F93AF93BF93EF93FF93D4
S11308108091E5028093E6028091E4028093E502F0
S11308208091CE008093E40280918C0290918D029D
S1130830019769F4E091E702F0E08091E402EF505F
S1130840FD4F80838091E7028F5F8093E7020E94CF
S1130850E003892B31F081E090E090938D02809346
S11308608C028091E70287FD1092E702FF91EF91DD
S1130870BF91AF919F918F917F916F915F914F91B4
S11308803F912F910F900BBE0F900FBE0F901F90B2
S113089018958091E4029091000189130CC0209175
S11308A0E502281308C03091E60281E090E0321797
S11308B021F080E0089580E090E00895E091E8025E
S11308C0F0E0EF50FD4F80819091E8029F5F90939C
S11308D0E8029091E80297FD1092E8020895909141
S11308E0E8028091E702981739F0E091E802F0E01D
S11308F0EF50FD4F8081089580E00895CF93DF93FA
S1130900EC0110928D0210928C02109289021092C6
S113091088021092E0021092E1021092E202109218
S1130920E3020E94D506209719F483E691E002C001
S113093088E791E00E94C1080E94D0012FE38DE076
S113094093E0215080409040E1F700C000002197DF
S113095021F48BE891E00E94C1082FE986E891E038
S1130960215080409040E1F700C00000DF91CF911A
S113097008950F931F93CF93DF936091E9027091D1
S1130980EA028091EF029091F002C0E0D0E0C61735
S1130990D7070CF06CC0AC0120E030E08A014F5F57
S11309A05F4FD801EC91E052EF3508F457C081E075
S11309B090E090938702809386020E94D5068BE98B
S11309C091E00E94C108BFE7EAE1F6E0B150E040DF
S11309D0F040E1F700C000000E94D5068FEA91E0E4
S11309E00E94C1082FE986E891E0215080409040A0
S11309F0E1F700C000000E94D50685EC91E00E945A
S1130A00C10863E070E0CE0101960E94A9018FEC59
S1130A1091E00E94C10887E20E948D08D8018C9160
S1130A200E948D0887E20E948D088AE00E948D084A
S1130A30BFE7EAE1F6E0B150E040F040E1F700C082
S1130A400000CE010E94E8022FEF84E39CE02150D5
S1130A5080409040E1F700C0000009C02F5F3F4F85
S1130A602830310509F09ACF21964C9690CFDF912A
S1130A70CF911F910F91089508950F931F93CF93D2
S1130A80DF938C01EB016F3F8FEF780759F480916E
S1130A90E9029091EA022CE1289FE001299FD00D00
S1130AA0112421960E94D5060C171D07BCF48091D1
S1130AB08C0290918D02019789F0C8010E94BA11AD
S1130AC0811101C08FE30E948D0887EA91E60197A6
S1130AD0F1F700C000000F5F1F4FE6CFDF91CF9109
S1130AE01F910F9108951F93CF93DF93C0E0D0E03F
S1130AF01CE12091E9023091EA02129FC001139F88
S1130B00900D1124C817D907B4F480918C029091E8
S1130B108D02019781F02196CE010E94BA118111B4
S1130B2001C08FE30E948D0887EA91E60197F1F7EF
S1130B3000C00000DECFDF91CF911F910895CF93C5
S1130B40DF930E94D50663E070E08091E902909102
S1130B50EA020E94A90180E192E00E94C1082FE705
S1130B608AE196E0215080409040E1F700C0000007
S1130B7080918C0290918D02019711F1C0E0D0E038
S1130B808091E9029091EA02C817D907CCF48091C8
S1130B908C0290918D02019799F00E94D506CE01A6
S1130BA00E94080380918C0290918D02019741F07C
S1130BB08FE493EC0197F1F700C000002196E0CF99
S1130BC0DF91CF9108950F931F93CF93DF930E94EA
S1130BD0D50663E070E08091E9029091EA020E94F8
S1130BE0A90180E192E00E94C1082FE78AE196E022
S1130BF0215080409040E1F700C000000E94D506DB
S1130C008EE492E00E94C10880918C0290918D0242
S1130C10019781F1C0E0D0E08091E9029091EA026D
S1130C20C817D9073CF580918C0290918D020197E9
S1130C3009F18EE492E00E94C1088E010F5F1F4FFC
S1130C4063E070E0C8010E94A90180ED91E00E9478
S1130C50C108CE010E94E80280918C0290918D021D
S1130C60019741F083E294EF0197F1F700C000008F
S1130C70E801D2CFDF91CF911F910F9108950E9487
S1130C80D50680E292E00E94C10880918C02909186
S1130C908D020197D1F708950E94D5068EE392E064
S1130CA00E94C10880910201909103010E94E80210
S1130CB02FE78AE196E0215080409040E1F700C0A0
S1130CC0000080910201909103010E9408032FE724
S1130CD08AE196E0215080409040E1F700C0000096
S1130CE008950F931F93CF93DF930E94D50680E559
S1130CF092E00E94C1082FE38DE093E021508040F0
S1130D009040E1F700C000000E94D50689E692E019
S1130D100E94C1088091DE029091DF0264E070E0DD
S1130D200E94A9018EE492E00E94C108EFE3FDE075
S1130D3023E0E150F0402040E1F700C0000001E76B
S1130D4013E0C0E0D0E063E070E0CE010E94A901AE
S1130D5080ED91E00E94C108F801819191918F0189
S1130D600E94C1088FE493EC0197F1F700C00000E2
S1130D7080918C0290918D02019749F02196CB309D
S1130D80D10529F08EE492E00E94C108DCCFDF9106
S1130D90CF911F910F910895129A81EE94E00197DB
S1130DA0F1F700C00000129808951092EC0210921E
S1130DB0EB0281E090E0909305018093040181B1FE
S1130DC08FEF81B987E893E10197F1F700C0000044
S1130DD012981098119816981598149A139A0E94BC
S1130DE0CC0681EE94E00197F1F700C000000E9468
S1130DF0CC0689EF90E00197F1F700C000000E9453
S1130E00CC0689EF90E00197F1F700C00000169836
S1130E101598149A13980E94CC0689EF90E00197D4
S1130E20F1F700C0000016981598149A13980E94C0
S1130E30CC0689EF90E00197F1F700C00000169A04
S1130E401598149813980E94CC0689EF90E00197A6
S1130E50F1F700C0000016981598149813980E9492
S1130E60CC0689EF90E00197F1F700C00000169AD4
S1130E70159A149A13980E94CC0689EF90E0019772
S1130E80F1F700C0000016981598149813980E9462
S1130E90CC0689EF90E00197F1F700C000001698A6
S1130EA015981498139A0E94CC0689EF90E0019744
S1130EB0F1F700C0000016981598149813980E9432
S1130EC0CC0689EF90E00197F1F700C00000169876
S1130ED0159A149A13980E94CC0689EF90E0019712
S1130EE0F1F700C0000016981598149813980E9402
S1130EF0CC0689EF90E00197F1F700C00000169A44
S1130F00159A149A139A0E94CC0689EF90E00197DF
S1130F10F1F700C0000080E090E00895019711F41B
S1130F20169A01C016986130710511F4159A01C022
S1130F3015984130510511F4149A01C014982130C8
S1130F40310511F4139A01C013980E94CC0689EF5D
S1130F5090E00197F1F700C0000008951F93CF932C
S1130F60DF9381B1877881B91098119A129A81EE32
S1130F7094E00197F1F700C0000012B182B1C2B150
S1130F80A2B11298E9EFF0E03197F1F700C0000048
S1130F90129AE1EEF4E03197F1F700C00000E2B1FB
S1130FA062B142B152B1807290E026E0880F991F7D
S1130FB02A95E1F7C071D0E035E0CC0FDD1F3A95FA
S1130FC0E1F78C2B9D2B5870852BA870B0E054E072
S1130FD0AA0FBB1F5A95E1F78A2B9B2BE074F0E014
S1130FE073E0EE0FFF1F7A95E1F78E2B9F2B607253
S1130FF070E0660F771F660F771F862B972B12986A
S113100051B1586751B910981198407150E0440F8C
S1131010551F842B952B16FB222720F930E036959B
S1131020322F222737952795822B932BDF91CF914F
S11310301F9108950E94AE078F779927019608950E
S1131040892B11F4169801C0169A672B11F4159880
S113105001C0159A452B11F4149801C0149A232B3E
S113106011F413980895139A0895CF93DF93EC0124
S113107010981198282F2295217085FB442740F958
S113108086FB662760F930E050E070E081E090E094
S11310900E9420080E94CC069E01217033274C2F09
S11310A046954170C2FB662760F950E070E0C3FBCF
S11310B0882780F990E00E942008DF91CF910C945A
S11310C0CC06CF93C82F109A119884FB222720F9BD
S11310D085FB442740F986FB662760F9881F88272B
S11310E0881F30E050E070E090E00E9420080E94E9
S11310F0CC062C2F2170C1FB442740F9C2FB662784
S113110060F930E050E070E0C3FB882780F990E09C
S11311100E942008CF910C94CC06CF93C82F209125
S1131120EB023091EC022F5F3F4F3093EC0220939F
S1131130EB022131310531F08A3021F08C2FCF912F
S11311400C9461082091040130910501213031058E
S113115079F480E490E00E94350822E030E0309396
S11311600501209304011092EC021092EB0205C0D9
S11311702230310511F40E94D506CA30F9F6CF9118
S113118008950F931F93CF93DF93EC010E941A08E5
S11311908E01FE0101900020E9F73197EC1BFD0B55
S11311A0C8018C1B9D0B8E179F0740F4F801819199
S11311B08F010E948D080E941A08EBCFDF91CF9116
S11311C01F910F910895CF93DF9300D000D000D0EA
S11311D0CDB7DEB726E0ECE0F1E0DE011196019038
S11311E00D922A95E1F7FE0131969E01295F3F4F4A
S11311F0DC014D91CD014193E217F307C9F762E792
S113120072E0CE0101960E94690F21E030E0892B43
S113121011F020E030E0C90126960FB6F894DEBF45
S11312200FBECDBFDF91CF910895CF93DF93009789
S113123021F09093EE028093ED02C091ED02D091E3
S1131240EE02209769F0CE010E94720F009741F0E0
S1131250FC011192F093EE02E093ED02CE0102C084
S113126080E090E0DF91CF9108950F931F93CF9387
S1131270DF93EC018B010E94D506CE010E94C108C8
S11312802FE78AE196E0215080409040E1F700C0CA
S11312900000CE010E94E308892B81F489E792E0E3
S11312A00E94C1082FE78AE196E0215080409040D7
S11312B0E1F700C000008FEF9FEF13C063E171E01E
S11312C0CE010E941509E80189939993892B39F07D
S11312D063E171E080E090E00E941509F5CF80E0C1
S11312E090E0DF91CF911F910F910895CF93DF93F9
S11312F01F92CDB7DEB70E94620183ED91E00E9498
S1131300C1080E94D0012FE38DE093E0215080407A
S11313109040E1F700C0000001E713E080E190E0B5
S11313200E94370EF801819391938F01F3E0053801
S11313301F07A1F702E010E0E0908C02F0908D020C
S113134021E0E216F104F1F082E0E816F104B9F0CC
S1131350EF2891F78091E9029091EA021816190694
S113136074F060E270E080E090E00E943D058091BE
S11313708C0290918D02019709F043C0DDCF0E9449
S11313805C01DACF8091880290918902892BA1F4C3
S11313900E94D50687EE91E00E94C108F09289026E
S11313A0E0928802109287021092860210928B02B9
S11313B010928A020E9474019091E8028091E702DF
S11313C0981709F443C01092E0021092E1021092BF
S11313D0E2021092E3020E945E0489830E9449049F
S11313E06981892B19F180E090E00E947E040E94BB
S11313F0B9048091860290918702892B39F00E946A
S1131400830110938D0200938C0296CF0E94D5061F
S113141080E092E00E94C1089FE3EDE0F3E0915088
S1131420E040F040E1F700C0000086CF80918A02DE
S113143090918B020E94C81180918A0290918B0234
S1131440019690938B0280938A0276CF20E030E05D
S113145040E85FE36091E0027091E1028091E20272
S11314609091E3020E94510A6093E0027093E102BA
S11314708093E2029093E30220E030E543E457E4F2
S11314800E94C70B18160CF057CF81E090E00E9421
S11314907E0460E270E080E090E00E943D05AFCF02
S11314A05058BB27AA270ED021C112D130F017D132
S11314B020F031F49F3F11F41EF407C10EF4E095BF
S11314C0E7FBD4C0E92F23D180F3BA17620773076F
S11314D08407950718F071F49EF552C10EF4E09557
S11314E00B2EBA2FA02D0B01B90190010C01CA01DA
S11314F0A0011124FF27591B99F0593F50F4503E85
S113150068F11A16F040A22F232F342F4427585F76
S1131510F3CF469537952795A795F0405395C9F78E
S11315207EF41F16BA0B620B730B840BBAF0915046
S1131530A1F0FF0FBB1F661F771F881FC2F70EC0E5
S1131540BA0F621F731F841F48F4879577956795B8
S1131550B795F7959E3F08F0B3CF9395880F08F0A1
S11315609927EE0F97958795089504D06894B11143
S113157008C10895D4D088F09F5790F0B92F9927C7
S1131580B751A0F0D1F0660F771F881F991F1AF08A
S1131590BA95C9F712C0B13081F0F2D0B1E0089524
S11315A0EFC0672F782F8827B85F39F0B93FCCF3A5
S11315B0869577956795B395D9F73EF49095809580
S11315C0709561957F4F8F4F9F4F0895E89409C0A0
S11315D097FB3EF490958095709561957F4F8F4F62
S11315E09F4F9923A9F0F92F96E9BB279395F69578
S11315F0879577956795B795F111F8CFFAF4BB0FF6
S113160011F460FF1BC06F5F7F4F8F4F9F4F16C059
S1131610882311F096E911C0772321F09EE8872FE3
S1131620762F05C0662371F096E8862F70E060E09F
S11316302AF09A95660F771F881FDAF7880F969518
S1131640879597F9089585D080F09F3740F49111DC
S11316500EF097C060E070E080E89FEB089526F4F8
S11316601B16611D711D811D07C021C097F99F675D
S113167080E870E060E00895882371F4772321F016
S11316809850872B762F07C0662311F499270DC035
S11316909051862B70E060E02AF09A95660F771FD0
S11316A0881FDAF7880F9695879597F908959F3FD5
S11316B031F0915020F4879577956795B795880F09
S11316C0911D9695879597F908959FEF80EC08955D
S11316D000240A941616170618060906089500240D
S11316E00A9412161306140605060895092E039487
S11316F0000C11F4882352F0BB0F40F4BF2B11F4FB
S113170060FF04C06F5F7F4F8F4F9F4F089557FD59
S11317109058440F551F59F05F3F71F04795880F5B
S113172097FB991F61F09F3F79F0879508951216F2
S113173013061406551FF2CF4695F1DF08C016169E
S113174017061806991FF1CF86957105610508944F
S11317500895E5DFA0F0BEE7B91788F4BB279F38EA
S113176060F41616B11D672F782F8827985FF7CF7E
S1131770869577956795B11D93959639C8F3089525
S1131780E894BB2766277727CB0197F9089581D181
S113179008F48FEF08950AD029ED3BE54EED5EE3A2
S11317A078C00EF084CF91CF689460CFB8DFC8F3CF
S11317B09923D1F3C6F3DF93CF931F930F93FF9233
S11317C0C92FDD2788232AF02197660F771F881FEA
S11317D0DAF720E030E040E85FEB9FE3883920F05F
S11317E0803E30F021968F775CDEECE8F0E003C0B9
S11317F058DEE9EBF0E071D18B01BE01EC01FB2E68
S11318006F5771097595771F880B990BE1DE28E1F5
S113181032E741E35FE349D0AF2D9801AE01FF9079
S11318200F911F91CF91DF914DDE60CFFA01DC0162
S1131830AA0FBB1F9B01AC01BF5728F422273327F3
S1131840442750781FC0B75188F4AB2F0024469525
S113185037952795011CA395D2F3002069F0220F38
S1131860331F441FB395DAF30DD01ACE61307105DE
S1131870A0E88A07B94630F49B01AC0166277727B4
S113188088279078309621F02083318342835383D4
S113189008950BD02BCF1CDF28F021DF18F09523FF
S11318A009F0E4CE12CF11246CCF31DFA0F3959F61
S11318B0D1F3950F50E0551F629FF001729FBB2733
S11318C0F00DB11D639FAA27F00DB11DAA1F649FDF
S11318D06627B00DA11D661F829F2227B00DA11D92
S11318E0621F739FB00DA11D621F839FA00D611D18
S11318F0221F749F3327A00D611D231F849F600D39
S1131900211D822F762F6A2F11249F5750408AF071
S1131910E1F088234AF0EE0FFF1FBB1F661F771FFD
S1131920881F91505040A9F79E3F510570F09ECEFC
S113193028CF5F3FECF3983EDCF386957795679567
S1131940B795F795E7959F5FC1F7FE2B880F911D1B
S11319509695879597F90895FA01EE0FFF1F309633
S11319602105310599F16115710561F48038BFE3F2
S11319709B0749F168949038810561F08038BFEF86
S11319809B0741F0992342F5FF3FE105310521050D
S113199011F1E8940894E795D901AA2329F4AB2F0F
S11319A0BE2FF85FD0F310C0FF5F70F4A695E0F788
S11319B0F73950F019F0FF3A38F49F779F930CD021
S11319C00F9007FC905808953EF07FCE60E070E0E1
S11319D080E89FE308954FE79F775F934F933F938A
S11319E02F93E4DE2F913F914F915F9152DF25C0F9
S11319F096DEE0F09E37D8F09639B8F49E3848F475
S1131A00672F782F8827985FF9CF86957795679504
S1131A1093959539D0F3B62FB1706B0F711D811D5D
S1131A2020F4879577956795939526CE40CEA9CED9
S1131A3019F40EF01BCEA4CE48CE71DEC8F396384E
S1131A40C0F707F80F92E8942BE33AEA48EB5FE714
S1131A502EDF0F920F920F924DB75EB70F92E6DE14
S1131A60E6EEF0E03AD04F915F91EF91FF91E5956A
S1131A70EE1FFF1F49F0FE57E0684427EE0F441F96
S1131A80FA95E1F74195550B56D00F9007FE4AC0E1
S1131A900895990F0008550FAA0BE0E8FEEF1616FB
S1131AA01706E807F907C0F012161306E407F5074E
S1131AB098F0621B730B840B950B39F40A2661F0C2
S1131AC0232B242B252B21F408950A2609F4A14065
S1131AD0A6958FEF811D811D0895DF93CF931F93EA
S1131AE00F93FF92EF92DF927B018C01689405C003
S1131AF0DA2EEF01DADEFE01E894A5912591359105
S1131B0045915591AEF3EF01DDDCFE019701A8018B
S1131B10DA9479F7DF90EF90FF900F911F91CF91B6
S1131B20DF9108959B01AC0160E070E080E89FE3E1
S1131B3036C09CCDBCCDF3DDE8F39923D9F3940FE3
S1131B40511DBBF39150504094F059F0882332F06A
S1131B50660F771F881F91505040C1F79E3F510573
S1131B6044F7880F911D9695879597F908955F3FDF
S1131B70ACF0983E9CF0BB27869577956795B79512
S1131B8008F4B1609395C1F7BB0F58F711F460FFE7
S1131B90E8CF6F5F7F4F8F4F9F4FE3CFF2CD0CD0D5
S1131BA0A5CD9DDD40F094DD30F021F45F3F19F0C8
S1131BB05DCD5111E6CD89CDAADD98F39923C9F302
S1131BC05523B1F3951B550BBB27AA27621773073F
S1131BD0840738F09F5F5F4F220F331F441FAA1FF3
S1131BE0A9F333D00E2E3AF0E0E830D091505040B3
S1131BF0E695001CCAF729D0FE2F27D0660F771F61
S1131C00881FBB1F261737074807AB07B0E809F042
S1131C10BB0B802DBF01FF2793585F4F2AF09E3FD7
S1131C20510568F023CDADCD5F3FECF3983EDCF376
S1131C30869577956795B795F7959F5FC9F7880F50
S1131C40911D9695879597F90895E1E0660F771FA2
S1131C50881FBB1F621773078407BA0720F0621B33
S1131C60730B840BBA0BEE1F88F7E0950895CF939E
S1131C70DF938230910510F482E090E0E0918B03D1
S1131C80F0918C0320E030E0A0E0B0E0309739F12F
S1131C904081518148175907B8F04817590771F422
S1131CA082819381109729F013969C938E931297B7
S1131CB02CC090938C0380938B0327C0211531058E
S1131CC031F04217530718F0A901DB0101C0EF01FD
S1131CD09A01BD01DF010280F381E02DD7CF2115E8
S1131CE03105F9F0281B390B2430310580F48A8141
S1131CF09B816115710521F0FB019383828304C0EC
S1131D0090938C0380938B03FE01329644C0FE01B2
S1131D10E20FF31F81939193225031093983288371
S1131D203AC02091890330918A03232B41F42091F6
S1131D3008013091090130938A032093890320918B
S1131D400601309107012115310541F42DB73EB745
S1131D5040910A0150910B01241B350BE09189033A
S1131D60F0918A03E217F307A0F42E1B3F0B281708
S1131D70390778F0AC014E5F5F4F2417350748F000
S1131D804E0F5F1F50938A0340938903819391936D
S1131D9002C0E0E0F0E0CF01DF91CF910895CF934E
S1131DA0DF93009709F487C0FC01329713821282F3
S1131DB0C0918B03D0918C03209781F420813181D1
S1131DC0280F391F8091890390918A038217930702
S1131DD079F5F0938A03E09389036DC0DE0120E076
S1131DE030E0AE17BF0750F412964D915C911397F3
S1131DF09D014115510509F1DA01F3CFB383A283A3
S1131E0040815181840F951F8A179B0771F48D912E
S1131E109C911197840F951F02969183808312964B
S1131E208D919C911397938382832115310529F415
S1131E30F0938C03E0938B033EC0D9011396FC937B
S1131E40EE9312974D915D91A40FB51FEA17FB070E
S1131E5079F480819181840F951F0296D90111969E
S1131E609C938E938281938113969C938E93129765
S1131E70E0E0F0E08A819B81009719F0FE01EC011B
S1131E80F9CFCE01029628813981820F931F2091C8
S1131E90890330918A032817390769F4309729F4A4
S1131EA010928C0310928B0302C013821282D0937F
S1131EB08A03C0938903DF91CF910895FB01DC016C
S1131EC00D900020E9F7119701900D920020E1F7A1
S1131ED00895FB01DC018D91019080190110D9F363
S1131EE0990B0895DC0199278D91882341F0FB011A
S1131EF0019008160110E1F7B9F71197CD01089583
S1131F000F931F93CF93DF93CDB7DEB72E970FB602
S1131F10F894DEBF0FBECDBF0D891E8986E08C8389
S1131F201A8309838FEF9FE79E838D83AE01475EFB
S1131F305F4F6F89788DCE0101960E94AF0FEF81BC
S1131F40F885E00FF11F10822E960FB6F894DEBFCD
S1131F500FBECDBFDF91CF911F910F9108952F92A6
S1131F603F924F925F926F927F928F929F92AF9225
S1131F70BF92CF92DF92EF92FF920F931F93CF9372
S1131F80DF93CDB7DEB72C970FB6F894DEBF0FBE44
S1131F90CDBF7C016B018A01FC011782168283810B
S1131FA081FFBDC1CE0101964C01F7019381F60179
S1131FB093FD859193FF81916F01882309F4ABC14F
S1131FC0853239F493FD859193FF81916F018532B8
S1131FD029F4B70190E00E94EC11E7CF512C312C89
S1131FE020E02032A0F48B3269F030F4803259F0D2
S1131FF0833269F420612CC08D3239F0803339F496
S1132000216026C02260246023C0286021C027FDEF
S113201027C030ED380F3A3078F426FF06C0FAE0D6
S11320205F9E300D1124532E13C08AE0389E300D6C
S11320301124332E20620CC08E3221F426FD6BC194
S1132040206406C08C3611F4206802C0883641F43E
S1132050F60193FD859193FF81916F018111C1CFA9
S1132060982F9F7D9554933028F40C5F1F4FFFE306
S1132070F9830DC0833631F0833771F0833509F06D
S11320805BC022C0F801808189830E5F1F4F442406
S11320904394512C540115C03801F2E06F0E711CA9
S11320A0F801A080B18026FF03C0652D70E002C056
S11320B06FEF7FEFC5012C870E94E1112C01830192
S11320C02C852F77222E17C03801F2E06F0E711C79
S11320D0F801A080B18026FF03C0652D70E002C026
S11320E06FEF7FEFC5012C870E94D6112C012C8540
S11320F02068222E830123FC1BC0832D90E0481608
S11321005906B0F4B70180E290E00E94EC113A94D1
S1132110F4CFF50127FC859127FE81915F01B7017A
S113212090E00E94EC1131103A94F1E04F1A5108FA
S11321304114510471F7E5C0843611F0893639F53C
S1132140F80127FF07C060817181828193810C5F50
S11321501F4F08C060817181882777FD8095982F73
S11321600E5F1F4F2F76B22E97FF09C09095809572
S1132170709561957F4F8F4F9F4F2068B22E2AE054
S113218030E0A4010E941E12A82EA81844C085376E
S113219029F42F7EB22E2AE030E025C0F22FF97FF9
S11321A0BF2E8F36C1F018F4883579F0B4C080376B
S11321B019F0883721F0AFC02F2F2061B22EB4FE62
S11321C00DC08B2D8460B82E09C024FF0AC09F2F38
S11321D09660B92E06C028E030E005C020E130E06A
S11321E002C020E132E0F801B7FE07C060817181CE
S11321F0828193810C5F1F4F06C06081718180E0F2
S113220090E00E5F1F4FA4010E941E12A82EA81872
S1132210FB2DFF77BF2EB6FE0BC02B2D2E7FA514F2
S113222050F4B4FE0AC0B2FC08C02B2D2E7E05C0AB
S11322307A2C2B2D03C07A2C01C0752C24FF0DC0E1
S1132240FE01EA0DF11D8081803311F4297E09C05D
S113225022FF06C07394739404C0822F867809F019
S1132260739423FD13C020FF06C05A2C731418F472
S1132270530C5718732C731468F4B70180E290E080
S11322802C870E94EC1173942C85F5CF731410F4F1
S1132290371801C0312C24FF12C0B70180E390E04D
S11322A02C870E94EC112C8522FF17C021FF03C04C
S11322B088E590E002C088E790E0B7010CC0822F67
S11322C0867859F021FD02C080E201C08BE227FD2F
S11322D08DE2B70190E00E94EC11A51438F4B70127
S11322E080E390E00E94EC115A94F7CFAA94F40191
S11322F0EA0DF11D8081B70190E00E94EC11A1105C
S1132300F5CF332009F451CEB70180E290E00E946A
S1132310EC113A94F6CFF7018681978102C08FEFD2
S11323209FEF2C960FB6F894DEBF0FBECDBFDF91A2
S1132330CF911F910F91FF90EF90DF90CF90BF90BE
S1132340AF909F908F907F906F905F904F903F9051
S11323502F900895DC01CB01FC01F999FECF06C052
S1132360F2BDE1BDF89A319600B40D92415050404F
S1132370B8F70895F999FECF92BD81BDF89A9927CF
S113238080B50895A6E1B0E044E050E00C94AC11AF
S1132390262FF999FECF1FBA92BD81BD20BD0FB67D
S11323A0F894FA9AF99A0FBE01960895FC010590E3
S11323B0615070400110D8F7809590958E0F9F1F43
S11323C00895FC016150704001900110D8F7809588
S11323D090958E0F9F1F08950F931F93CF93DF93B4
S11323E0182F092FEB018B8181FD03C08FEF9FEF25
S11323F020C082FF10C04E815F812C813D81421735
S113240053077CF4E881F9819F012F5F3F4F3983A3
S11324102883108306C0E885F985812F0995892BC7
S113242029F72E813F812F5F3F4F3F832E83812FDA
S1132430902FDF91CF911F910F910895FA01AA2750
S1132440283051F1203181F1E8946F936E7F6E5FF3
S11324507F4F8F4F9F4FAF4FB1E03ED0B4E03CD0A1
S1132460670F781F891F9A1FA11D680F791F8A1F84
S1132470911DA11D6A0F711D811D911DA11D20D0EB
S113248009F468943F912AE0269F11243019305DA5
S11324903193DEF6CF010895462F4770405D419396
S11324A0B3E00FD0C9F7F6CF462F4F70405D4A33E3
S11324B018F0495D31FD4052419302D0A9F7EACFAB
S11324C0B4E0A6959795879577956795BA95C9F7DA
S11324D000976105710508959B01AC010A2E0694CD
S11324E05795479537952795BA95C9F7620F731F86
S10F24F0841F951FA01D0895F894FFCFD1
S11324FC5E24FFFF010000008D03200024313233E1
S113250C3435002C00776970696E670A6D656D6FE0
S113251C72792E2E2E00256400696D706F727469A9
S113252C6E6720000A73746174696F6E732E2E2E9D
S113253C003000667265713A20006C61743A2000B8
S113254C6C6F6E3A20006572703A20006861617499
S113255C3A200072656164696E670A646174616231
S113256C617365202E2E2E004552524F523A0A7436
S113257C696D656F7574202E2E2E000A757064615A
S113258C7465206661696C65640A00434F52525548
S113259C5054494F4E0A44455445435445440074E1
S11325AC726163696E670A636F7272757074696FB6
S11325BC6E2E2E2E0073746174696F6E20230020AE
S11325CC3A200072656164696E670A6461746162C1
S11325DC6173652E2E2E007570646174696E672E9E
S11325EC2E2E0A646F6E277420756E706C756700DE
S11325FC75706461746520636F6D706C65746500CF
S113260C206B6E6F776E0A73746174696F6E7300EE
S113261C7570646174652072657175697265640A9C
S113262C2E2E2E66656564206D652E2E2E004E654D
S113263C61726573742053746174696F6E3A0A0025
S113264C5072696E74696E67204C61746573740A98
S113265C475053204461746100636F756E74203D60
S113266C2000244750524D43006E6F204E4D45417F
S109267C207461670000F8
S9030000FC
