:100000000C94B9000C94D8000C94D8000C94D8002F
:100010000C94D8000C94D8000C94D8000C94D80000
:100020000C94D8000C94D8000C94D8000C94D800F0
:100030000C94D8000C94D8000C94D8000C94D800E0
:100040000C94D8000C94D8000C94D8000C94D800D0
:100050000C9408010C94D8000C94D8000C94D8008F
:100060000C94D8000C94D8000C94D8000C94D800B0
:100070000C9496020C94D8000C94D8000C94D800E0
:100080000C94D8000C94D8000C94D8000E041804DA
:10009000250434044304540460046C047804D1043B
:1000A000D404D704DA04DD04E004E304E604E9043C
:1000B000EC04EF0408000000BE922449123EABAAF3
:1000C000AA2ABECDCCCC4C3E00000080BEABAAAA72
:1000D000AA3E00000000BF000000803F00000000BA
:1000E00000084178D3BB4387D1133D190E3CC3BDF3
:1000F0004282AD2B3E68EC8276BED98FE1A93E4CA0
:1001000080EFFFBE01C4FF7F3F00000000000763D7
:100110004236B79BD8A71A39685618AEBAAB558C79
:100120001D3CB7CC5763BD6DEDFD753EF6177231C2
:10013000BF000000803F4E414E494E495459494E40
:1001400046CDCCCC3D0AD7233C17B7D13877CC2B42
:10015000329595E6241FB14F0A000020410000C8E7
:100160004200401C4620BCBE4CCA1B0E5AAEC59D68
:10017000740011241FBECFEFD0E4DEBFCDBF13E06B
:10018000A0E0B1E0EAE6FFE200E00BBF02C00790AA
:100190000D92AE31B107D9F714E0AEE1B3E001C082
:1001A0001D92AB32B107E1F70E94CB0C0C94B31750
:1001B0000C9400001092CD008CE08093CC00109243
:1001C000C5008093C400E9ECF0E08081886D8083F5
:1001D000E1ECF0E08081886D8083E8ECF0E08081E4
:1001E00082608083E0ECF0E0808182608083EAECD2
:1001F000F0E080818E608083E2ECF0E080818660B8
:1002000080830895E1ECF0E0808187728083089517
:100210001F920F920FB60F9211240BB60F922F93CD
:100220003F934F935F936F937F938F939F93AF937E
:10023000BF93EF93FF93809176039091770381357D
:10024000910574F080E090E0FC01EA5DFC4F1082C3
:10025000019680359105C1F71092770310927603CD
:10026000E0917603F09177038091C600EA5DFC4F40
:100270008083809176039091770301969093770322
:1002800080937603E0917603F0917703EB5DFC4F6A
:100290008081843299F481E090E0FC01EA5DFC4FBA
:1002A0001082019680359105C1F784E28093260380
:1002B00081E090E09093770380937603E09176035A
:1002C000F0917703EB5DFC4F80818D3079F586E20C
:1002D00093E00E945C0A892B49F10E940201E6E248
:1002E000F3E001900020E9F73297108263E171E0BA
:1002F00086E293E00E945E146BE074E00E94B00A14
:100300006091890370918A038BE094E00E94CF0B87
:1003100080E090E0FC01EA5DFC4F108201968035A0
:100320009105C1F71092770310927603FF91EF9138
:10033000BF91AF919F918F917F916F915F914F91FD
:100340003F912F910F900BBE0F900FBE0F901F90FB
:100350001895E1ECF0E08081886D808308958FEF3F
:1003600084B9F8940E94DA0078940E947C072FE305
:100370008DE093E0215080409040E1F700C0000004
:100380000895EF92FF920F931F93CF93DF9380E036
:1003900090E00E94C10C8F3F910529F09093820359
:1003A0008093810304C010928203109281032FE98D
:1003B00046E851E0215040405040E1F700C00000C5
:1003C0000E947C0785E191E00E94680963E070E08B
:1003D00080918103909182030E948A0980E291E0DA
:1003E0000E94680980918103909182032CE1FC01B5
:1003F0002E9FC0012F9F900D11240E949A1190935F
:10040000880380938703C0E0D0E000E010E0809193
:10041000810390918203081719070CF05CC0BE019C
:100420006F5F7F4F809187039091880348E050E091
:100430008C0F9D1F0E94C90CE0908703F0908803E9
:10044000EC0EFD1ECE0109960E94C70CF7016087D5
:10045000718782879387E0908703F0908803EC0E82
:10046000FD1ECE010D960E94C70CF70164877587AB
:1004700086879787E0908703F0908803EC0EFD1E37
:10048000CE0141960E94C70CF701608B718B828B65
:10049000938BE0908703F0908803EC0EFD1ECE0155
:1004A00045960E94C70CF701648B758B868B978BE2
:1004B000E0908703F0908803EC0EFD1ECE01499674
:1004C0000E94C70CF701608F718F828F938F0F5F2F
:1004D0001F4F6C969CCFDF91CF911F910F91FF9092
:1004E000EF90089510928203109281038091870308
:1004F000909188030E943212109288031092870311
:10050000089580917C039091010189130CC0209182
:100510007D03281308C030917E0381E090E03217FC
:1005200021F080E0089580E090E008951F920F92FE
:100530000FB60F9211240BB60F922F933F934F9348
:100540005F936F937F938F939F93AF93BF93EF933B
:10055000FF9380917D0380937E0380917C03809341
:100560007D038091CE0080937C0380912403909141
:100570002503019769F4E0917F03F0E080917C030B
:10058000E557FC4F808380917F038F5F80937F03CB
:100590000E948102892B31F081E090E09093250345
:1005A0008093240380917F0387FD10927F03FF9146
:1005B000EF91BF91AF919F918F917F916F915F91DB
:1005C0004F913F912F910F900BBE0F900FBE0F9048
:1005D0001F90189580917C039091000189130CC0A5
:1005E00020917D03281308C030917E0381E090E0C4
:1005F000321721F080E0089580E090E00895E091C6
:100600008003F0E0E557FC4F8081909180039F5F6D
:10061000909380039091800397FD1092800308953A
:100620009091800380917F03981739F0E0918003C7
:10063000F0E0E557FC4F8081089580E00895CF9366
:10064000DF93EC01109225031092240310922103F2
:1006500010922003109278031092790310927A037B
:1006600010927B030E947C07209719F48DE291E0A1
:1006700002C082E491E00E9468090E94C1012FE358
:100680008DE093E0215080409040E1F700C00000F1
:10069000219721F485E591E00E9468092FE986E819
:1006A00091E0215080409040E1F700C00000DF91D0
:1006B000CF9108958FEF9FEF08950F931F93CF93DE
:1006C000DF938C01EB016F3F8FEF780759F4809136
:1006D0008103909182032CE1289FE001299FD00D96
:1006E000112421960E947C070C171D07BCF48091F1
:1006F000240390912503019789F0C8010E94C50C3D
:10070000811101C08FE30E94340987EA91E60197C5
:10071000F1F700C000000F5F1F4FE6CFDF91CF91D0
:100720001F910F9108951F93CF93DF93C0E0D0E006
:100730001CE12091810330918203129FC001139F1D
:10074000900D1124C817D907B4F480912403909117
:100750002503019781F02196CE010E94C50C8111DD
:1007600001C08FE30E94340987EA91E60197F1F70F
:1007700000C00000DECFDF91CF911F9108950E944D
:100780007C0785E691E00E9468098091240390919E
:1007900025030197D1F70895CF93DF938091240328
:1007A00090912503019709F4C4C00E947C0783E857
:1007B00091E00E9468092FE38DE093E02150804092
:1007C0009040E1F700C000000E947C07C0E0D0E04C
:1007D000209769F08FE093E00E946809FE0132974C
:1007E000E930F10578F4EA5BFF4F0C94941185E948
:1007F00091E00E94680968E070E08091890390911F
:100800008A0381C08FE991E00E9468098091890381
:1008100090918A0368E070E0089675C086EA91E0DE
:100820000E946809E0918903F0918A0380895DC084
:100830008CEA91E00E946809E0918903F0918A03B3
:1008400061897289838994890CC082EB91E00E944E
:100850006809E0918903F0918A036589768987891F
:10086000908D44E050E01DC088EB91E00E94680943
:10087000E0918903F0918A03618D728D838D948D4F
:1008800041E050E00EC080EC91E00E946809E091E8
:100890008903F0918A03658D768D878D90A143E061
:1008A00050E00E94B10931C089EC91E00E946809D2
:1008B0008091890390918A0368E070E0819623C05B
:1008C00080ED91E00E9468098091890390918A03EC
:1008D00068E070E0899617C089ED91E00E94680990
:1008E000E0918903F0918A0381A90E9434090DC027
:1008F00080EE91E00E9468098091890390918A03BB
:1009000063E070E0C2960E942E0A2FE38DE093E030
:10091000215080409040E1F700C000008091240306
:1009200090912503019729F02196CB30D10509F04C
:100930004FCFDF91CF9108950F931F93CF93DF9304
:100940008091240390912503019709F46AC00E94C5
:100950007C078BEE91E00E9468092FE38DE093E025
:10096000215080409040E1F700C000000E947C07C9
:100970000BE014E0C0E0D0E0209769F08FE093E056
:100980000E946809FE013297EB30F10538F4E15B13
:10099000FF4F0C94941181E092E023C089E092E033
:1009A00020C08EE092E01DC082E192E01AC086E194
:1009B00092E017C08AE192E014C08EE192E011C08B
:1009C00082E292E00EC088E292E00BC08FE292E0F9
:1009D00008C084E392E005C08BE392E002C080E4AB
:1009E00092E00E9468098FE892E00E946809F8018D
:1009F000819191918F010E946809FFE926E881E0C9
:100A0000F15020408040E1F700C0000080912403B5
:100A100090912503019729F02196CD30D10509F059
:100A2000ABCFDF91CF911F910F910895CF93DF93BB
:100A30000E947C0789E492E00E946809C0E0D0E04F
:100A40008091240390912503019749F06FEFCE0127
:100A50000E94E2162196C13F8AE0D80789F7DF910C
:100A6000CF9108950F931F93CF93DF932CE1289F8D
:100A70008001299F100D1124C0E0D0E0E091870390
:100A8000F0918803E00FF11FEC0FFD1F80810E94A1
:100A900034092196C830D10589F7DF91CF911F9194
:100AA0000F9108950F931F93CF93DF93609181036C
:100AB000709182038091870390918803C0E0D0E019
:100AC000C617D7070CF06CC0AC0120E030E08A01FB
:100AD0004F5F5F4FD801EC91E052EF3508F457C0FB
:100AE00081E090E090931F0380931E030E947C0797
:100AF0008AE592E00E946809BFE7EAE1F6E0B150BA
:100B0000E040F040E1F700C000000E947C078EE664
:100B100092E00E9468092FE986E891E02150804028
:100B20009040E1F700C000000E947C0784E892E05A
:100B30000E94680963E070E0CE0101960E948A0974
:100B40008EE892E00E94680987E20E943409D80189
:100B50008C910E94340987E20E9434098AE00E9445
:100B60003409BFE7EAE1F6E0B150E040F040E1F7D8
:100B700000C00000CE010E9432052FEF84E39CE00C
:100B8000215080409040E1F700C0000009C02F5F75
:100B90003F4F2830310509F09ACF21964C9690CFDF
:100BA000DF91CF911F910F9108950F931F93CF93D2
:100BB000DF938091240390912503019709F44DC0A0
:100BC0000E947C0763E070E0809181039091820332
:100BD0000E948A098FEC92E00E9468092FE78AE15F
:100BE00096E0215080409040E1F700C000000E9454
:100BF0007C078FE093E00E946809C0E0D0E080911C
:100C0000810390918203C817D9073CF58091240392
:100C100090912503019709F18FE093E00E94680904
:100C20008E010F5F1F4F63E070E0C8010E948A09C8
:100C30008FE892E00E946809CE010E9432058091FF
:100C4000240390912503019741F083E294EF0197EB
:100C5000F1F700C00000E801D2CFDF91CF911F91E2
:100C60000F9108950F931F93CF93DF938C0163E04F
:100C700070E001960E948A098FE892E00E9468095C
:100C8000C8010E94320583E294EF0197F1F700C09A
:100C900000008FE093E00E94680980912403909106
:100CA0002503019709F4B1C08FED92E00E94680915
:100CB0008CE1809FE001819FD00D1124E09187039A
:100CC000F0918803EC0FFD1F608571858285938507
:100CD00041E050E00E94B10983E294EF0197F1F7FF
:100CE00000C000008FE093E00E9468098091240317
:100CF00090912503019709F488C086EE92E00E9446
:100D00006809E0918703F0918803EC0FFD1F64856B
:100D100075858685978544E050E00E94B10983E29D
:100D200094EF0197F1F700C000008FE093E00E947C
:100D300068098091240390912503019709F465C007
:100D40008CEE92E00E946809E0918703F09188039D
:100D5000EC0FFD1F608971898289938944E050E01E
:100D60000E94B10983E294EF0197F1F700C00000FF
:100D70008FE093E00E9468098091240390912503FD
:100D8000019709F442C082EF92E00E946809E09165
:100D90008703F0918803EC0FFD1F648975898689AC
:100DA000978941E050E00E94B10983E294EF0197F6
:100DB000F1F700C000008FE093E00E946809809185
:100DC000240390912503019701F188EF92E00E949E
:100DD0006809E0918703F0918803EC0FFD1F608D97
:100DE000718D828D938D40E050E00E94B10983E2C5
:100DF00094EF0197F1F700C000008FE093E00E94AC
:100E000068098091240390912503DF91CF911F9170
:100E10000F910895CF93DF93809124039091250340
:100E20000197C9F10E947C0763E070E08091810323
:100E3000909182030E948A098FEC92E00E946809D7
:100E40002FE78AE196E0215080409040E1F700C012
:100E50000000C0E0D0E08091810390918203C81728
:100E6000D907CCF48091240390912503019799F040
:100E70000E947C07CE010E9432068091240390914B
:100E80002503019741F08FE493EC0197F1F700C03F
:100E900000002196E0CFDF91CF9108950E947C075A
:100EA0008FEF92E00E946809809102019091030106
:100EB0000E9432052FE78AE196E021508040904061
:100EC000E1F700C0000080910201909103010E94AF
:100ED00032062FE78AE196E0215080409040E1F70A
:100EE00000C000000895129A81EE94E00197F1F796
:100EF00000C000001298089510928403109283039A
:100F000081E090E0909305018093040181B18FEF1F
:100F100081B987E893E10197F1F700C000001298CA
:100F20001098119816981598149A139A0E9473079E
:100F300081EE94E00197F1F700C000000E94730772
:100F400089EF90E00197F1F700C000000E9473075D
:100F500089EF90E00197F1F700C00000169815980E
:100F6000149A13980E94730789EF90E00197F1F7A4
:100F700000C0000016981598149A13980E947307E1
:100F800089EF90E00197F1F700C00000169A1598DC
:100F9000149813980E94730789EF90E00197F1F776
:100FA00000C0000016981598149813980E947307B3
:100FB00089EF90E00197F1F700C00000169A159AAA
:100FC000149A13980E94730789EF90E00197F1F744
:100FD00000C0000016981598149813980E94730783
:100FE00089EF90E00197F1F700C00000169815987E
:100FF0001498139A0E94730789EF90E00197F1F714
:1010000000C0000016981598149813980E94730752
:1010100089EF90E00197F1F700C000001698159A4B
:10102000149A13980E94730789EF90E00197F1F7E3
:1010300000C0000016981598149813980E94730722
:1010400089EF90E00197F1F700C00000169A159A19
:10105000149A139A0E94730789EF90E00197F1F7B1
:1010600000C0000080E090E00895019711F4169A06
:1010700001C016986130710511F4159A01C01598D8
:101080004130510511F4149A01C0149821303105F2
:1010900011F4139A01C013980E94730789EF90E02E
:1010A0000197F1F700C0000008951F93CF93DF93DD
:1010B00081B1877881B91098119A129A81EE94E0E3
:1010C0000197F1F700C0000012B182B1C2B1A2B124
:1010D0001298E9EFF0E03197F1F700C00000129AA2
:1010E000E1EEF4E03197F1F700C00000E2B162B147
:1010F00042B152B1807290E026E0880F991F2A9584
:10110000E1F7C071D0E035E0CC0FDD1F3A95E1F793
:101110008C2B9D2B5870852BA870B0E054E0AA0F43
:10112000BB1F5A95E1F78A2B9B2BE074F0E073E02C
:10113000EE0FFF1F7A95E1F78E2B9F2B607270E008
:10114000660F771F660F771F862B972B129851B16A
:10115000586751B910981198407150E0440F551FCD
:10116000842B952B16FB222720F930E03695322F61
:10117000222737952795822B932BDF91CF911F91B3
:1011800008950E9455088F77992701960895892B15
:1011900011F4169801C0169A672B11F4159801C026
:1011A000159A452B11F4149801C0149A232B11F4AD
:1011B00013980895139A0895CF93DF93EC01109834
:1011C0001198282F2295217085FB442740F986FB32
:1011D000662760F930E050E070E081E090E00E9426
:1011E000C7080E9473079E01217033274C2F469534
:1011F0004170C2FB662760F950E070E0C3FB8827AE
:1012000080F990E00E94C708DF91CF910C9473079A
:10121000CF93C82F109A119884FB222720F985FBC1
:10122000442740F986FB662760F9881F8827881FB6
:1012300030E050E070E090E00E94C7080E94730721
:101240002C2F2170C1FB442740F9C2FB662760F9AF
:1012500030E050E070E0C3FB882780F990E00E9406
:10126000C708CF910C947307CF93C82F20918303A5
:10127000309184032F5F3F4F309384032093830387
:101280002131310531F08A3021F08C2FCF910C942F
:10129000080920910401309105012130310579F4CC
:1012A00080E490E00E94DC0822E030E03093050109
:1012B00020930401109284031092830305C022300E
:1012C000310511F40E947C07CA30F9F6CF910895D8
:1012D0000F931F93CF93DF93EC010E94C1088E01FF
:1012E000FE0101900020E9F73197EC1BFD0BC801CE
:1012F0008C1B9D0B8E179F0740F4F80181918F0185
:101300000E9434090E94C108EBCFDF91CF911F9159
:101310000F9108950F931F93CF93DF93182F092FE9
:10132000CB010E949A11D82FC92F0F931F9321E14F
:1013300033E03F932F939F938F930E9496148D2FAA
:101340009C2F0E9468090F900F900F900F900F90A4
:101350000F908D2F9C2FDF91CF911F910F910C94A7
:101360003212CF92DF92EF92FF920F931F93CF939F
:10137000DF9300D000D0CDB7DEB78A01AE014F5F5A
:101380005F4F0E94DB0F6B017C0169817A818B8149
:101390009C810E947A0EDC01CB0164E070E00E9427
:1013A0008A0980E491E00E946809B801882777FDE6
:1013B0008095982F0E94AD0E9B01AC0160E070E01B
:1013C00080E291E40E9471109B01AC01C701B6015B
:1013D0000E940E100E94BD100E947A0E7B0177FFC2
:1013E00004C0EE24FF24E61AF70AE114F104A1F088
:1013F000B701882777FD8095982F0E94AD0E0E9437
:10140000900F0E94E80E20E030E040E85FE30E9489
:10141000AE0D0E947A0E02C060E070E0C12CD12CAB
:10142000061B170BC016D10644F484E193E00E941A
:1014300068098FEFC81AD80AF5CF64E070E0C701D9
:101440000F900F900F900F90DF91CF911F910F9100
:10145000FF90EF90DF90CF900C948A09CF92DF92AB
:10146000EF92FF920F931F93CF93DF938C016B0149
:101470000E94C1087801C0E0D0E0CC15DD059CF4E5
:10148000F80101900020E9F73197E01BF10BCE172E
:10149000DF0748F4F70181917F010E9434090E941F
:1014A000C1082196EACFDF91CF911F910F91FF9054
:1014B000EF90DF90CF900895CF93DF9300D000D0CE
:1014C00000D0CDB7DEB726E0ECE0F1E0DE0111960A
:1014D00001900D922A95E1F7FE01319620E030E06F
:1014E000DC01A20FB31F4C9141932F5F3F4F263079
:1014F0003105B1F766E173E0CE0101960E946914EF
:1015000021E030E0892B11F020E030E0C90126967F
:101510000FB6F894DEBF0FBECDBFDF91CF91089517
:10152000CF93DF93009721F09093860380938503F8
:10153000C0918503D0918603209769F0CE010E9467
:101540008814009741F0FC011192F0938603E09318
:101550008503CE0102C080E090E0DF91CF91089535
:101560000F931F93CF93DF938B0163E171E00E9490
:10157000900AEC01BC01D8018D919C910E947214DB
:10158000FE0101900020E9F73197EC1BFD0BE031E3
:10159000F1055CF4D8018D919C918E0F9F1FDC01A9
:1015A0001C923196F4CF0E5F1F4FCD2B11F163E1EA
:1015B00071E080E090E00E94900AEC01BC01F8012B
:1015C000828193810E947214FE0101900020E9F74C
:1015D0003197EC1BFD0BE031F1052CF7D801129689
:1015E0008D919C9113978E0F9F1FDC011C92319659
:1015F000F2CF80E090E0DF91CF911F910F9108959D
:10160000FC019F01281B390B2617370714F4119290
:10161000F8CF0895AF92BF92CF92DF92EF92FF92F0
:101620001F93CF93DF93CDB7DEB727970FB6F8940C
:10163000DEBF0FBECDBF5C01162FFC018081992754
:1016400087FD9095C0972AE0289FB001299F700DD3
:1016500011248181992787FD9095C097680F791F84
:10166000882777FD8095982F0E94AD0E6B017C0135
:10167000B5016E5F7F4F47E050E0CE0101960E94BA
:10168000791460E070E0CE0101960E94C11220E062
:1016900030E040E752E40E94120E9B01AC01C7010A
:1016A000B6010E94AE0D133509F4905827960FB677
:1016B000F894DEBF0FBECDBFDF91CF911F91FF9099
:1016C000EF90DF90CF90BF90AF900895AF92BF9210
:1016D000CF92DF92EF92FF921F93CF93DF93CDB71C
:1016E000DEB727970FB6F894DEBF0FBECDBF5C0103
:1016F000162FFC018081992787FD9095C09724E6DD
:10170000289FB001299F700D11248181992787FDA1
:101710009095C0974AE0489F9001499F300D112451
:10172000620F731F8281992787FD9095C097680F7C
:10173000791F882777FD8095982F0E94AD0E6B0149
:101740007C01B5016D5F7F4F47E050E0CE0101960F
:101750000E94791460E070E0CE0101960E94C112EF
:1017600020E030E040E752E40E94120E9B01AC0101
:10177000C701B6010E94AE0D173509F4905827969F
:101780000FB6F894DEBF0FBECDBFDF91CF911F9192
:10179000FF90EF90DF90CF90BF90AF900895EF92C1
:1017A000FF920F931F93CF93DF938C01EB0168E0BF
:1017B00070E0CE010E94000BD8016D917C91CE01AA
:1017C0000E94721468E070E0CE0108960E94000B3F
:1017D000D8011296ED91FC9113978081888712961B
:1017E000ED91FC911397818189878AE38A8712960C
:1017F000ED91FC91139792819B871296ED91FC914C
:10180000139793819C878D871296ED91FC91139786
:1018100084818E871296ED91FC91139785818F8735
:101820001496ED91FC9115978081888B198A1A8AFC
:101830001B8A1C8A1896ED91FC9119976081169667
:101840008D919C9117970E940A0B698B7A8B8B8BD9
:101850009C8B1D8A1E8A1F8A188ED8011C96ED91BA
:10186000FC911D9760811A968D919C911B970E9407
:10187000660B6D8B7E8B8F8B988F198E1A8E1B8EBD
:101880001C8E60E070E0F801868597850E94C11289
:10189000698F7A8F8B8F9C8F1D8E1E8E1F8E18A244
:1018A00060E070E0D80150968D919C9151970E9414
:1018B000C1126D8F7E8F8F8F98A368E070E0CE018C
:1018C00081960E94000BD8015296ED91FC9153979E
:1018D000828189A35296ED91FC91539783818AA3CB
:1018E0008FE28BA35296ED91FC91539790819CA32C
:1018F0005296ED91FC91539791819DA38EA35296A0
:10190000ED91FC91539784818FA35296ED91FC91B8
:101910005397858188A77E01B9E2EB0EF11C68E040
:1019200070E0C7010E94000BF80164897589C70146
:101930000E947214D8015896ED91FC9159978081BC
:1019400089AB63E070E0CE01C2960E94000BD80123
:101950005896ED91FC91599781818AAB5896ED91FB
:10196000FC91599782818BAB5896ED91FC915997D8
:1019700083818CABDF91CF911F910F91FF90EF90FE
:1019800008950E94D41690E008950C94D4160C94F7
:10199000DC160C94C416CF93DF931F92CDB7DEB73D
:1019A0000E94AF010BE014E080E190E00E949A11E8
:1019B000F801819391938F01F4E005321F07A1F79D
:1019C00085E390E00E949A1190938A0380938903A3
:1019D00082E992E00E9468090E94C1012FE38DE034
:1019E00093E0215080409040E1F700C0000002E009
:1019F00010E0E0902403F0902503E1E0EE16F104FE
:101A0000E1F0F2E0EF16F10489F0EF2891F7809110
:101A10008103909182031816190644F080912403E3
:101A200090912503019709F049C0E3CF0E94A901D5
:101A30000E94CC030E949C04DCCF0E940201809192
:101A4000200390912103892BA1F40E947C0786EA50
:101A500092E00E946809F0922103E0922003109224
:101A60001F0310921E0310922303109222030E9460
:101A700072029091800380917F03981709F443C00C
:101A8000109278031092790310927A0310927B03DC
:101A90000E94FF0289830E94EA026981892B19F161
:101AA00080E090E00E941F030E94520580911E0377
:101AB00090911F03892B39F00E941605109325037E
:101AC0000093240396CF0E947C078FEB92E00E9444
:101AD00068092FE38DE093E0215080409040E1F7CA
:101AE00000C0000086CF80912203909123030E94C2
:101AF000E216809122039091230301969093230391
:101B00008093220376CF20E030E040E85FE36091ED
:101B100078037091790380917A0390917B030E94FE
:101B2000AE0D609378037093790380937A0390935A
:101B30007B0320E030E543E457E40E948C0F181645
:101B40000CF057CF81E090E00E941F0360E270E04C
:101B500080E090E00E945D03AFCF5058BB27AA27DA
:101B60000ED089C17AD130F07FD120F031F49F3F7F
:101B700011F41EF46FC10EF4E095E7FB3CC1E92FB0
:101B80008BD180F3BA17620773078407950718F0A3
:101B900071F49EF5BAC10EF4E0950B2EBA2FA02D6C
:101BA0000B01B90190010C01CA01A0011124FF270A
:101BB000591B99F0593F50F4503E68F11A16F04005
:101BC000A22F232F342F4427585FF3CF4695379504
:101BD0002795A795F0405395C9F77EF41F16BA0BC9
:101BE000620B730B840BBAF09150A1F0FF0FBB1F77
:101BF000661F771F881FC2F70EC0BA0F621F731FC0
:101C0000841F48F4879577956795B795F7959E3F1C
:101C100008F0B3CF9395880F08F09927EE0F9795AA
:101C2000879508950CD027C11FD140F016D130F010
:101C300021F45F3F19F0DFC0511168C10BC12CD1F5
:101C400098F39923C9F35523B1F3951B550BBB2783
:101C5000AA2762177307840738F09F5F5F4F220F30
:101C6000331F441FAA1FA9F333D00E2E3AF0E0E829
:101C700030D091505040E695001CCAF729D0FE2F75
:101C800027D0660F771F881FBB1F26173707480707
:101C9000AB07B0E809F0BB0B802DBF01FF279358BD
:101CA0005F4F2AF09E3F510568F0A5C02FC15F3FEE
:101CB000ECF3983EDCF3869577956795B795F795A5
:101CC0009F5FC9F7880F911D9695879597F908959D
:101CD000E1E0660F771F881FBB1F62177307840739
:101CE000BA0720F0621B730B840BBA0BEE1F88F748
:101CF000E095089504D06894B11108C10895D4D036
:101D000088F09F5790F0B92F9927B751A0F0D1F0E4
:101D1000660F771F881F991F1AF0BA95C9F712C06E
:101D2000B13081F0F2D0B1E00895EFC0672F782F85
:101D30008827B85F39F0B93FCCF3869577956795DA
:101D4000B395D9F73EF490958095709561957F4F46
:101D50008F4F9F4F0895E89409C097FB3EF49095EC
:101D60008095709561957F4F8F4F9F4F9923A9F074
:101D7000F92F96E9BB279395F69587957795679503
:101D8000B795F111F8CFFAF4BB0F11F460FF1BC047
:101D90006F5F7F4F8F4F9F4F16C0882311F096E9DA
:101DA00011C0772321F09EE8872F762F05C0662388
:101DB00071F096E8862F70E060E02AF09A95660F41
:101DC000771F881FDAF7880F9695879597F90895FA
:101DD00085D080F09F3740F491110EF097C060E0FD
:101DE00070E080E89FEB089526F41B16611D711DBD
:101DF000811D07C021C097F99F6780E870E060E00F
:101E00000895882371F4772321F09850872B762F3B
:101E100007C0662311F499270DC09051862B70E0FE
:101E200060E02AF09A95660F771F881FDAF7880F0F
:101E30009695879597F908959F3F31F0915020F43A
:101E4000879577956795B795880F911D9695879596
:101E500097F908959FEF80EC089500240A941616D0
:101E6000170618060906089500240A941216130688
:101E7000140605060895092E0394000C11F4882316
:101E800052F0BB0F40F4BF2B11F460FF04C06F5F32
:101E90007F4F8F4F9F4F089557FD9058440F551F08
:101EA00059F05F3F71F04795880F97FB991F61F0DC
:101EB0009F3F79F087950895121613061406551F53
:101EC000F2CF4695F1DF08C0161617061806991FBF
:101ED000F1CF86957105610508940895E5DFA0F0BE
:101EE000BEE7B91788F4BB279F3860F41616B11DFA
:101EF000672F782F8827985FF7CF86957795679516
:101F0000B11D93959639C8F30895E894BB276627C9
:101F10007727CB0197F9089581D108F48FEF0895C1
:101F20000AD029ED3BE54EED5EE378C00EF084CF9C
:101F300091CF689460CFB8DFC8F39923D1F3C6F38B
:101F4000DF93CF931F930F93FF92C92FDD27882331
:101F50002AF02197660F771F881FDAF720E030E01C
:101F600040E85FEB9FE3883920F0803E30F0219617
:101F70008F77F4DDE4EBF0E003C0F0DDE1EEF0E0BC
:101F800071D18B01BE01EC01FB2E6F577109759564
:101F9000771F880B990BE1DE28E132E741E35FE32D
:101FA00049D0AF2D9801AE01FF900F911F91CF91B5
:101FB000DF91E5DD60CFFA01DC01AA0FBB1F9B01B9
:101FC000AC01BF5728F422273327442750781FC07D
:101FD000B75188F4AB2F0024469537952795011CFF
:101FE000A395D2F3002069F0220F331F441FB3954D
:101FF000DAF30DD0B2CD61307105A0E88A07B94699
:1020000030F49B01AC0166277727882790783096BB
:1020100021F0208331834283538308950BD02BCF4B
:102020001CDF28F021DF18F0952309F0E4CE12CF51
:1020300011246CCF31DFA0F3959FD1F3950F50E0C1
:10204000551F629FF001729FBB27F00DB11D639F6A
:10205000AA27F00DB11DAA1F649F6627B00DA11D10
:10206000661F829F2227B00DA11D621F739FB00DB6
:10207000A11D621F839FA00D611D221F749F332726
:10208000A00D611D231F849F600D211D822F762FBF
:102090006A2F11249F5750408AF0E1F088234AF0BC
:1020A000EE0FFF1FBB1F661F771F881F9150504008
:1020B000A9F79E3F510570F09ECE28CF5F3FECF30D
:1020C000983EDCF3869577956795B795F795E795F4
:1020D0009F5FC1F7FE2B880F911D9695879597F905
:1020E0000895FA01EE0FFF1F30962105310599F191
:1020F0006115710561F48038BFE39B0749F168946D
:102100009038810561F08038BFEF9B0741F099233B
:1021100042F5FF3FE1053105210511F1E8940894EE
:10212000E795D901AA2329F4AB2FBE2FF85FD0F38E
:1021300010C0FF5F70F4A695E0F7F73950F019F082
:10214000FF3A38F49F779F930CD00F9007FC90587C
:1021500008953EF07FCE60E070E080E89FE3089550
:102160004FE79F775F934F933F932F93E4DE2F9139
:102170003F914F915F9152DF25C096DEE0F09E3790
:10218000D8F09639B8F49E3848F4672F782F88270E
:10219000985FF9CF86957795679593959539D0F3A4
:1021A000B62FB1706B0F711D811D20F48795779547
:1021B0006795939526CE40CEA9CE19F40EF01BCE8E
:1021C000A4CE48CE71DEC8F39638C0F707F80F9258
:1021D000E8942BE33AEA48EB5FE72EDF0F920F9289
:1021E0000F924DB75EB70F92E6DEEEE0F1E03AD027
:1021F0004F915F91EF91FF91E595EE1FFF1F49F021
:10220000FE57E0684427EE0F441FFA95E1F7419529
:10221000550B56D00F9007FE4AC00895990F00083D
:10222000550FAA0BE0E8FEEF16161706E807F907A8
:10223000C0F012161306E407F50798F0621B730B43
:10224000840B950B39F40A2661F0232B242B252BC4
:1022500021F408950A2609F4A140A6958FEF811D67
:10226000811D0895DF93CF931F930F93FF92EF92F9
:10227000DF927B018C01689405C0DA2EEF01DADE73
:10228000FE01E894A5912591359145915591AEF3C4
:10229000EF0175DCFE019701A801DA9479F7DF9070
:1022A000EF90FF900F911F91CF91DF9108959B01C7
:1022B000AC0160E070E080E89FE3B4CC9CCDBCCD85
:1022C000F3DDE8F39923D9F3940F511DBBF391503B
:1022D000504094F059F0882332F0660F771F881F22
:1022E00091505040C1F79E3F510544F7880F911D12
:1022F0009695879597F908955F3FACF0983E9CF0CE
:10230000BB27869577956795B79508F4B160939547
:10231000C1F7BB0F58F711F460FFE8CF6F5F7F4F35
:102320008F4F9F4FE3CFF2CDEE0FFF1F0590F4913B
:10233000E02D0994CF93DF938230910510F482E071
:1023400090E0E0912704F091280420E030E0A0E044
:10235000B0E0309739F14081518148175907B8F002
:102360004817590771F482819381109729F01396C9
:102370009C938E9312972CC09093280480932704EB
:1023800027C02115310531F04217530718F0A90174
:10239000DB0101C0EF019A01BD01DF010280F38181
:1023A000E02DD7CF21153105F9F0281B390B24304A
:1023B000310580F48A819B816115710521F0FB0153
:1023C0009383828304C09093280480932704FE01A2
:1023D000329644C0FE01E20FF31F81939193225085
:1023E0003109398328833AC020912504309126048D
:1023F000232B41F4209108013091090130932604E8
:102400002093250420910601309107012115310503
:1024100041F42DB73EB740910A0150910B01241BA6
:10242000350BE0912504F0912604E217F307A0F4A0
:102430002E1B3F0B2817390778F0AC014E5F5F4F1A
:102440002417350748F04E0F5F1F50932604409322
:1024500025048193919302C0E0E0F0E0CF01DF9189
:10246000CF910895CF93DF93009709F487C0FC01C3
:10247000329713821282C0912704D09128042097AA
:1024800081F420813181280F391F8091250490919A
:1024900026048217930779F5F0932604E093250428
:1024A0006DC0DE0120E030E0AE17BF0750F4129699
:1024B0004D915C9113979D014115510509F1DA0188
:1024C000F3CFB383A28340815181840F951F8A1774
:1024D0009B0771F48D919C911197840F951F029623
:1024E0009183808312968D919C911397938382831D
:1024F0002115310529F4F0932804E09327043EC008
:10250000D9011396FC93EE9312974D915D91A40F10
:10251000B51FEA17FB0779F480819181840F951F1D
:102520000296D90111969C938E9382819381139682
:102530009C938E931297E0E0F0E08A819B81009754
:1025400019F0FE01EC01F9CFCE0102962881398104
:10255000820F931F209125043091260428173907F4
:1025600069F4309729F4109228041092270402C0CD
:1025700013821282D0932604C0932504DF91CF9159
:1025800008954F925F926F927F928F929F92AF9237
:10259000BF92CF92DF92EF92FF920F931F93CF9350
:1025A000DF938B016115710521F0DB018C9311968E
:1025B0009C93EC015E01BFEFAB1ABB0A7501C880AA
:1025C0008C2D90E00E943E14892B11F0E501F2CF92
:1025D000EDE2CE1208C07E01F2E0EF0EF11CC980E0
:1025E000DD24D39409C02BE2C21205C07E0142E073
:1025F000E40EF11CC980D12CE701219743E050E0A3
:102600006EE371E0CE010E944614892BD1F4E701FC
:10261000229645E050E069E371E0CE010E94461445
:10262000892B11F4E70127960115110519F0D8013E
:10263000CD93DC93D11008C160E070E080E89FE7A3
:102640000CC143E050E066E371E0CE010E94461405
:10265000892B59F40115110509F4FBC0B2E0EB0E0A
:10266000F11CF801F182E082F4C0F70160E070E053
:10267000CB01C0E0D0E07F01A0EDAA2EAC0C29E098
:102680002A1530F14D2D4260B42E2D2D2870D2FE2A
:1026900004C0211125C0219623C021112197A5E056
:1026A000B0E09B01AC010E949917660F771F881F4D
:1026B000991F6A0D711D811D911D6839A9E97A075D
:1026C0008A07A9E19A0760F0BD2DB660BB2E08C04D
:1026D0002EEFA2120AC0D3FC50C04D2D4860B42E7C
:1026E0003196D701CC90DB2CC6CF2C2D2F7D2534F5
:1026F00009F043C0A081AD3241F4BD2DB061DB2EA5
:102700007F0122E0E20EF11C0CC07F01AB3231F000
:102710004FEFE41AF40A21E030E006C0A2E0EA0E2E
:10272000F11CA18122E030E0A053AA3018F0E21A97
:10273000F30A23C0F70120E030E02038BCE03B077B
:102740005CF4A901440F551F440F551F240F351F7A
:10275000220F331F2A0F311DAF014F5F5F4F7A01E8
:10276000A081A053AA3010F4FA01E7CFD4FE03C031
:10277000319521953109C20FD31FD1FE09C0011532
:10278000110531F0E1E0EE1AF108D801ED92FC926A
:102790000E94AB0E2D2D2370233019F06B017C01AC
:1027A00006C06B017C01F7FAF094F7F8F09420E092
:1027B00030E0A901C701B6010E94C514882309F4BD
:1027C00040C0D7FF06C0D195C195D10905E511E0FC
:1027D00002C00DE611E04801B8E18B1A910890E2C1
:1027E000A92EB12CF8014590559065907490CA15AA
:1027F000DB055CF0A3019201C701B6010E940E1037
:102800006B017C01CA19DB09F2CF04501109B594A0
:10281000A7940815190531F78E2D880F8F2D881F65
:102820008F3F49F020E030E0A901C701B6010E94C6
:10283000C514811106C082E290E090932A0480932F
:102840002904C701B60109C060E070E080E89FEF8D
:1028500004C060E070E080EC9FE7DF91CF911F91B2
:102860000F91FF90EF90DF90CF90BF90AF909F902F
:102870008F907F906F905F904F9008959111B0C2AC
:10288000803219F089508550D0F70895FB01DC01A2
:102890004150504088F08D9181341CF08B350CF400
:1028A000805E659161341CF06B350CF4605E861BB4
:1028B000611171F3990B0895881BFCCFFB01DC01BA
:1028C0000D900020E9F7119701900D920020E1F79B
:1028D0000895FB01DC018D91019080190110D9F35D
:1028E000990B0895FB01DC0101900D920020E1F7A6
:1028F0000895FB01DC014150504048F001900D92D9
:102900000020C9F701C01D9241505040E0F70895E2
:10291000DC0199278D91882341F0FB010190081675
:102920000110E1F7B9F71197CD0108950F931F93A7
:10293000CF93DF93CDB7DEB72E970FB6F894DEBFF7
:102940000FBECDBF0D891E8986E08C831A83098353
:102950008FEF9FE79E838D83AE01475E5F4F6F8948
:10296000788DCE0101960E94C914EF81F885E00FA1
:10297000F11F10822E960FB6F894DEBF0FBECDBFAA
:10298000DF91CF911F910F91089548DC08F481E009
:1029900008952F923F924F925F926F927F928F9203
:1029A0009F92AF92BF92CF92DF92EF92FF920F93DE
:1029B0001F93CF93DF93CDB7DEB72C970FB6F89464
:1029C000DEBF0FBECDBF7C016B018A01FC01178207
:1029D0001682838181FFBDC1CE0101964C01F701B2
:1029E0009381F60193FD859193FF81916F01882377
:1029F00009F4ABC1853239F493FD859193FF819140
:102A00006F01853229F4B70190E00E940917E7CFE2
:102A1000512C312C20E02032A0F48B3269F030F4BC
:102A2000803259F0833269F420612CC08D3239F044
:102A3000803339F4216026C02260246023C02860DE
:102A400021C027FD27C030ED380F3A3078F426FF3B
:102A500006C0FAE05F9E300D1124532E13C08AE0A9
:102A6000389E300D1124332E20620CC08E3221F49A
:102A700026FD6BC1206406C08C3611F4206802C0AC
:102A8000883641F4F60193FD859193FF81916F01A2
:102A90008111C1CF982F9F7D9554933028F40C5FFE
:102AA0001F4FFFE3F9830DC0833631F0833771F098
:102AB000833509F05BC022C0F801808189830E5FF5
:102AC0001F4F44244394512C540115C03801F2E0A7
:102AD0006F0E711CF801A080B18026FF03C0652D28
:102AE00070E002C06FEF7FEFC5012C870E94FE16D9
:102AF0002C0183012C852F77222E17C03801F2E09C
:102B00006F0E711CF801A080B18026FF03C0652DF7
:102B100070E002C06FEF7FEFC5012C870E94F316B3
:102B20002C012C852068222E830123FC1BC0832DC1
:102B300090E048165906B0F4B70180E290E00E9498
:102B400009173A94F4CFF50127FC859127FE81916E
:102B50005F01B70190E00E94091731103A94F1E04B
:102B60004F1A51084114510471F7E5C0843611F031
:102B7000893639F5F80127FF07C0608171818281AC
:102B800093810C5F1F4F08C060817181882777FD9A
:102B90008095982F0E5F1F4F2F76B22E97FF09C09A
:102BA00090958095709561957F4F8F4F9F4F2068CE
:102BB000B22E2AE030E0A4010E943B17A82EA818EC
:102BC00044C0853729F42F7EB22E2AE030E025C09C
:102BD000F22FF97FBF2E8F36C1F018F4883579F0C7
:102BE000B4C0803719F0883721F0AFC02F2F206193
:102BF000B22EB4FE0DC08B2D8460B82E09C024FF08
:102C00000AC09F2F9660B92E06C028E030E005C0AC
:102C100020E130E002C020E132E0F801B7FE07C059
:102C200060817181828193810C5F1F4F06C060813A
:102C3000718180E090E00E5F1F4FA4010E943B175E
:102C4000A82EA818FB2DFF77BF2EB6FE0BC02B2D8C
:102C50002E7FA51450F4B4FE0AC0B2FC08C02B2D80
:102C60002E7E05C07A2C2B2D03C07A2C01C0752C2A
:102C700024FF0DC0FE01EA0DF11D8081803311F4A7
:102C8000297E09C022FF06C07394739404C0822F6A
:102C9000867809F0739423FD13C020FF06C05A2CD8
:102CA000731418F4530C5718732C731468F4B70189
:102CB00080E290E02C870E94091773942C85F5CF51
:102CC000731410F4371801C0312C24FF12C0B7015F
:102CD00080E390E02C870E9409172C8522FF17C003
:102CE00021FF03C088E590E002C088E790E0B701CB
:102CF0000CC0822F867859F021FD02C080E201C00D
:102D00008BE227FD8DE2B70190E00E940917A51420
:102D100038F4B70180E390E00E9409175A94F7CF86
:102D2000AA94F401EA0DF11D8081B70190E00E94A0
:102D30000917A110F5CF332009F451CEB70180E275
:102D400090E00E9409173A94F6CFF70186819781A7
:102D500002C08FEF9FEF2C960FB6F894DEBF0FBE28
:102D6000CDBFDF91CF911F910F91FF90EF90DF903A
:102D7000CF90BF90AF909F908F907F906F905F901B
:102D80004F903F902F900895DC01CB01FC01F99901
:102D9000FECF06C0F2BDE1BDF89A319600B40D92A7
:102DA00041505040B8F70895F999FECF92BD81BDCA
:102DB000F89A992780B50895A6E1B0E044E050E084
:102DC0000C94C616262FF999FECF1FBA92BD81BD6D
:102DD00020BD0FB6F894FA9AF99A0FBE019608959D
:102DE000992788270895FC010590615070400110D3
:102DF000D8F7809590958E0F9F1F0895FC01615024
:102E0000704001900110D8F7809590958E0F9F1F0C
:102E100008950F931F93CF93DF93182F092FEB0182
:102E20008B8181FD03C08FEF9FEF20C082FF10C018
:102E30004E815F812C813D81421753077CF4E881EC
:102E4000F9819F012F5F3F4F39832883108306C08C
:102E5000E885F985812F0995892B29F72E813F81F6
:102E60002F5F3F4F3F832E83812F902FDF91CF9194
:102E70001F910F910895FA01AA27283051F12031AE
:102E800081F1E8946F936E7F6E5F7F4F8F4F9F4FFE
:102E9000AF4FB1E03ED0B4E03CD0670F781F891F40
:102EA0009A1FA11D680F791F8A1F911DA11D6A0F0E
:102EB000711D811D911DA11D20D009F468943F91C1
:102EC0002AE0269F11243019305D3193DEF6CF01C0
:102ED0000895462F4770405D4193B3E00FD0C9F786
:102EE000F6CF462F4F70405D4A3318F0495D31FDF3
:102EF0004052419302D0A9F7EACFB4E0A695979546
:102F0000879577956795BA95C9F70097610571051B
:102F100008959B01AC010A2E069457954795379565
:102F20002795BA95C9F7620F731F841F951FA01DBF
:102F300008950E94A417A59F900DB49F900DA49F83
:102F4000800D911D11240895A29FB001B39FC0016F
:102F5000A39F700D811D1124911DB29F700D811DC5
:0A2F60001124911D0895F894FFCF8D
:102F6A005E24FFFF010000002B04200024313233CD
:102F7A003435002C00696D706F7274696E672000B9
:102F8A000A73746174696F6E732E2E2E00726561F6
:102F9A0064696E670A6461746162617365202E2ECA
:102FAA002E004552524F523A0A74696D656F757414
:102FBA00202E2E2E000A7570646174652066616980
:102FCA006C65640A00757064617465207265717558
:102FDA00697265640A2E2E2E66656564206D652EFB
:102FEA002E2E005072696E74696E670A475053201C
:102FFA0044617461004D6573736167653A200054DA
:10300A00696D653A20004E52573A20004C61743A75
:10301A0020004C6F6E3A200053706565643A2000B8
:10302A00436F757273653A2000446174653A2000F3
:10303A004D61675661723A20004D6F64653A20000F
:10304A00436865636B73756D3A20005072696E74DC
:10305A00696E67205261770A475053204461746150
:10306A00004D6573736167650054696D65004E5262
:10307A0057004C6174004E2F53004C6F6E00452F61
:10308A005700537065656400436F75727365004439
:10309A00617465004D6167566172004D6F64650029
:1030AA00436865636B73756D00776970696E670A4B
:1030BA006D656D6F72792E2E2E00434F5252555008
:1030CA0054494F4E0A44455445435445440074728A
:1030DA006163696E670A636F7272757074696F6E85
:1030EA002E2E2E0073746174696F6E202300203AAD
:1030FA00200072656164696E670A64617461626165
:10310A0073652E2E2E007570646174696E672E2E9B
:10311A002E0A646F6E277420756E706C7567007561
:10312A00706461746520636F6D706C6574650020EE
:10313A006B6E6F776E0A73746174696F6E73006673
:10314A007265713A20006C61743A20006C6F6E3AB5
:10315A0020006572703A2000686161743A20004E5E
:10316A006561726573742053746174696F6E3A0A8B
:0E317A00002564003000244750524D430000F1
:00000001FF
