:100000000C94E5000C9404010C9404010C9406017A
:100010000C9404010C9404010C9404010C9404014C
:100020000C9404010C9404010C9404010C9404013C
:100030000C9404010C9459010C9404010C940401D7
:100040000C9404010C9404010C9404010C9404011C
:100050000C9435020C9404010C9404010C940401DA
:100060000C9404010C9404010C9404010C940401FC
:100070000C94D8010C9404010C9404010C94040118
:100080000C9404010C9404010C9404014416AD1664
:1000900001171817401795179817F112F712001348
:1000A0000E131F132C1334133C1344135D146014EC
:1000B0006314661469146C146F1472147514781434
:1000C0007B14084AD73B3BCE016E84BCBFFDC12FD9
:1000D0003D6C74319ABD56833DDA3D00C77F11BE39
:1000E000D9E4BB4C3E916BAAAABE000000803F053C
:1000F000A84CCDB2D44EB93836A9020C50B991866D
:1001000088083CA6AAAA2ABE000000803F0800007A
:1001100000BE922449123EABAAAA2ABECDCCCC4C3A
:100120003E00000080BEABAAAAAA3E00000000BFAD
:10013000000000803F0000000000084178D3BB436E
:1001400087D1133D190E3CC3BD4282AD2B3E68ECF6
:100150008276BED98FE1A93E4C80EFFFBE01C4FF7D
:100160007F3F000000000007634236B79BD8A71A04
:1001700039685618AEBAAB558C1D3CB7CC5763BD29
:100180006DEDFD753EF6177231BF000000803F4EE9
:10019000414E494E495459494E46CDCCCC3D0AD7E3
:1001A000233C17B7D13877CC2B329595E6241FB175
:1001B0004F0A000020410000C84200401C4620BCFD
:1001C000BE4CCA1B0E5AAEC59D7411241FBECFEF84
:1001D000D0E4DEBFCDBF14E0A0E0B1E0E2EBF6E496
:1001E00000E00BBF02C007900D92A034B107D9F711
:1001F00014E0A0E4B4E001C01D92AC34B107E1F713
:100200000E94B1150C9457230C9400001F920F927A
:100210000FB60F9211240BB60F922F933F934F936B
:100220005F936F937F938F939F93AF93BF93EF935E
:10023000FF93E0914404F0914504DF01AF5FBE4FAE
:100240008D919C91892B11F184819581892BF1F4F9
:100250008085918501969187808780859185059716
:1002600014F011861086CF010E94590DE0914404CC
:10027000F0914504EF5FFE4F11821082809184005F
:10028000909185001092850010928400FF91EF916B
:10029000BF91AF919F918F917F916F915F914F919E
:1002A0003F912F910F900BBE0F900FBE0F901F909C
:1002B00018951F920F920FB60F9211240BB60F9242
:1002C0002F933F934F938F939F93AF93BF93EF934E
:1002D000FF93E0914404F0914504DF01A75FBE4F16
:1002E0008D919C91892BF1F1ED5FFE4F8081918181
:1002F00097FD0CC045B12081318181E090E0022E54
:1003000001C0880F0A94EAF7482745B9E0914404F0
:10031000F0914504EB5FFE4F8081918197FD0CC009
:1003200045B12081318181E090E0022E01C0880F2B
:100330000A94EAF7482745B9E0914404F09145044E
:10034000E95FFE4F8081918197FD0CC045B120810E
:10035000318181E090E0022E01C0880F0A94EAF713
:10036000482745B9809184009091850010928500BE
:1003700010928400E0914404F0914504EF5FFE4F39
:1003800080819181892B21F481E090E091838083A9
:10039000FF91EF91BF91AF919F918F914F913F91BD
:1003A0002F910F900BBE0F900FBE0F901F901895BE
:1003B0001F920F920FB60F9211240BB60F922F932C
:1003C0003F934F935F936F937F938F939F93AF93DD
:1003D000BF93EF93FF938091440490914504FC01F7
:1003E000EF56FF4F2081DC01AE56BF4F2C93DC014E
:1003F000A057BF4F2C9120832091CE002C93FC015D
:10040000208531852630310561F4E157FF4F308179
:100410002C91DC01A30FB11D1E962C9320812F5F20
:1004200020830E94C80EE0914404F0914504892B7A
:1004300021F086E090E091878087E157FF4F80812F
:1004400087FD1082FF91EF91BF91AF919F918F91A6
:100450007F916F915F914F913F912F910F900BBEC4
:100460000F900FBE0F901F9018951F920F920FB60E
:100470000F9211240BB60F922F933F934F935F93DC
:100480006F937F938F939F93AF93BF93EF93FF935C
:100490008091440490914504FC01ED56FF4F20816A
:1004A0003181203531057CF020E030E0DC01A20F05
:1004B000B31FAB56BF4F1C922F5F3F4F2035310506
:1004C000A9F711821082208131814091C600280F46
:1004D000391FD901AB56BF4F4C93208131812F5F1B
:1004E0003F4F31832083A081B181A80FB91FAC5643
:1004F000BF4F2C912432B1F421E030E0DC01A20F97
:10050000B31FAB56BF4F1C922F5F3F4F20353105B5
:10051000A9F724E2DC01AB56BF4F2C9321E030E079
:10052000318320830190F081E02DE80FF91FEC5614
:10053000FF4F20812D3081F40E94B105892B61F09D
:100540000E94D90DE0914404F0914504E150FF4F21
:1005500081E090E091838083FF91EF91BF91AF9113
:100560009F918F917F916F915F914F913F912F91CB
:100570000F900BBE0F900FBE0F901F901895129A00
:1005800081EE94E00197F1F700C000001298089501
:10059000109241041092400481E090E09093010198
:1005A0008093000181B18FEF81B987E893E10197D2
:1005B000F1F700C00000129810981198169815983D
:1005C000149A139A0E94BF0281EE94E00197F1F70A
:1005D00000C000000E94BF0289EF90E00197F1F790
:1005E00000C000000E94BF0289EF90E00197F1F780
:1005F00000C0000016981598149A13980E94BF0224
:1006000089EF90E00197F1F700C000001698159867
:10061000149A13980E94BF0289EF90E00197F1F7B6
:1006200000C00000169A1598149813980E94BF02F3
:1006300089EF90E00197F1F700C000001698159837
:10064000149813980E94BF0289EF90E00197F1F788
:1006500000C00000169A159A149A13980E94BF02BF
:1006600089EF90E00197F1F700C000001698159807
:10067000149813980E94BF0289EF90E00197F1F758
:1006800000C00000169815981498139A0E94BF0293
:1006900089EF90E00197F1F700C0000016981598D7
:1006A000149813980E94BF0289EF90E00197F1F728
:1006B00000C000001698159A149A13980E94BF0261
:1006C00089EF90E00197F1F700C0000016981598A7
:1006D000149813980E94BF0289EF90E00197F1F7F8
:1006E00000C00000169A159A149A139A0E94BF022D
:1006F00089EF90E00197F1F700C0000080E090E002
:100700000895019711F4169A01C016986130710589
:1007100011F4159A01C015984130510511F4149A3D
:1007200001C014982130310511F4139A01C01398B7
:100730000E94BF0289EF90E00197F1F700C000002E
:1007400008951F93CF93DF9381B1877881B9109873
:10075000119A129A81EE94E00197F1F700C000001F
:1007600012B182B1C2B1A2B11298E9EFF0E03197B3
:10077000F1F700C00000129AE1EEF4E03197F1F7D2
:1007800000C00000E2B162B142B152B1807290E0AB
:1007900026E0880F991F2A95E1F7C071D0E035E077
:1007A000CC0FDD1F3A95E1F78C2B9D2B5870852BD4
:1007B000A870B0E054E0AA0FBB1F5A95E1F78A2B4E
:1007C0009B2BE074F0E073E0EE0FFF1F7A95E1F7EA
:1007D0008E2B9F2B607270E0660F771F660F771F5E
:1007E000862B972B129851B1586751B910981198D0
:1007F000407150E0440F551F842B952B16FB222788
:1008000020F930E03695322F222737952795822B15
:10081000932BDF91CF911F9108950E94A1038F77B1
:10082000992701960895892B11F4169801C0169AFC
:10083000672B11F4159801C0159A452B11F41498E3
:1008400001C0149A232B11F413980895139A089554
:10085000CF93DF93EC0110981198282F22952170E7
:1008600085FB442740F986FB662760F930E050E0BD
:1008700070E081E090E00E9413040E94BF029E019C
:10088000217033274C2F46954170C2FB662760F9D3
:1008900050E070E0C3FB882780F990E00E941304C9
:1008A000DF91CF910C94BF02CF93C82F109A11986B
:1008B00084FB222720F985FB442740F986FB662725
:1008C00060F9881F8827881F30E050E070E090E0D2
:1008D0000E9413040E94BF022C2F2170C1FB4427E9
:1008E00040F9C2FB662760F930E050E070E0C3FBDE
:1008F000882780F990E00E941304CF910C94BF02E6
:10090000CF93C82F20914004309141042F5F3F4F77
:1009100030934104209340042131310531F08A3075
:1009200021F08C2FCF910C94540420910001309130
:1009300001012130310579F480E490E00E9428041F
:1009400022E030E030930101209300011092410435
:100950001092400405C02230310511F40E94C802F3
:10096000CA30F9F6CF9108950F931F93CF93DF9379
:10097000EC010E940D048E01FE0101900020E9F7B8
:100980003197EC1BFD0BC8018C1B9D0B8E179F072D
:1009900040F4F80181918F010E9480040E940D04AF
:1009A000EBCFDF91CF911F910F9108950F931F937C
:1009B000CF93DF93182F092FCB010E94561DEC0116
:1009C000009751F40E94C8028FE291E0DF91CF912D
:1009D0001F910F910C94B4040F931F9383EE91E039
:1009E0009F938F93DF93CF930E943E20CE010E946E
:1009F000B4040F900F900F900F900F900F90CE01B6
:100A0000DF91CF911F910F910C94EE1DCF92DF9249
:100A1000EF92FF920F931F93CF93DF9300D000D0FC
:100A2000CDB7DEB78A01AE014F5F5F4F0E94841BD6
:100A30006B017C0169817A818B819C810E949A196A
:100A4000DC01CB0164E070E00E94D60485E592E011
:100A50000E94B404B801882777FD8095982F0E94E2
:100A6000CD199B01AC0160E070E080E291E40E944E
:100A70001A1C9B01AC01C701B6010E94B71B0E9462
:100A8000661C0E949A197B0177FF04C0EE24FF24A4
:100A9000E61AF70AE114F104A1F0B701882777FDFF
:100AA0008095982F0E94CD190E94391B0E94081A28
:100AB00020E030E040E85FE30E9465180E949A1948
:100AC00002C060E070E0C12CD12C061B170BC016D1
:100AD000D10644F486EE91E00E94B4048FEFC81A68
:100AE000D80AF5CF64E070E0C7010F900F900F9027
:100AF0000F90DF91CF911F910F91FF90EF90DF90BA
:100B0000CF900C94D604CF92DF92EF92FF920F9386
:100B10001F93CF93DF938C016B010E940D0478012A
:100B2000C0E0D0E0CC15DD059CF4F8010190002078
:100B3000E9F73197E01BF10BCE17DF0748F4F70117
:100B400081917F010E9480040E940D042196EACFCA
:100B5000DF91CF911F910F91FF90EF90DF90CF9099
:100B60000895CF93DF9300D000D000D0CDB7DEB78B
:100B700026E0E8E0F1E0DE01119601900D922A9561
:100B8000E1F7FE01319620E030E0DC01A20FB31F57
:100B9000AB56BF4F5C914191541308C02F5F3F4F3C
:100BA0002630310591F781E090E002C080E090E0CE
:100BB00026960FB6F894DEBF0FBECDBFDF91CF9162
:100BC0000895CF93DF93009721F09093430480938F
:100BD0004204C0914204D0914304209769F0CE01B1
:100BE0000E943020009741F0FC011192F0934304E1
:100BF000E0934204CE0102C080E090E0DF91CF910B
:100C000008958F929F92AF92BF92CF92DF92EF9210
:100C1000FF920F931F93CF93DF9300D000D000D0AB
:100C2000CDB7DEB76C01CB015A0120E030E0D50131
:100C3000ED91FC91E20FF31F10822F5F3F4F2031A7
:100C40003105A9F768EE71E00E94E1054C0186E0EC
:100C5000E8E0F1E0DE01119601900D928A95E1F74E
:100C6000F5018081918146E050E0BE016F5F7F4FCA
:100C70000E94212000E010E0892829F10C301105A4
:100C800011F10F5F1F4F7801EE0CFF1CEA0CFB1CEB
:100C900020E030E0D701ED91FC91E20FF31F1082CC
:100CA0002F5F3F4F20313105A9F768EE71E080E0FA
:100CB00090E00E94E1054C01F70180819181B4012F
:100CC0000E941A20D9CF20E030E0F601E20FF31F96
:100CD000EB56FF4F10822F5F3F4F20353105A9F7AC
:100CE000F601ED56FF4F1182108280E090E02696CB
:100CF0000FB6F894DEBF0FBECDBFDF91CF911F912D
:100D00000F91FF90EF90DF90CF90BF90AF909F90AA
:100D10008F900895FC019F01281B390B2617370778
:100D200014F41192F8CF0895AF92BF92CF92DF9250
:100D3000EF92FF921F93CF93DF93CDB7DEB7279744
:100D40000FB6F894DEBF0FBECDBF5C01162FFC01BD
:100D50008081992787FD9095C0972AE0289FB00150
:100D6000299F700D11248181992787FD9095C09747
:100D7000680F791F882777FD8095982F0E94CD19DD
:100D80006B017C01B5016E5F7F4F47E050E0CE0103
:100D900001960E94212060E070E0CE0101960E9441
:100DA0007D1E20E030E040E752E40E9432199B01B2
:100DB000AC01C701B6010E946518133509F49058BB
:100DC00027960FB6F894DEBF0FBECDBFDF91CF914F
:100DD0001F91FF90EF90DF90CF90BF90AF9008955C
:100DE000AF92BF92CF92DF92EF92FF921F93CF9379
:100DF000DF93CDB7DEB727970FB6F894DEBF0FBEEF
:100E0000CDBF5C01162FFC018081992787FD90954D
:100E1000C09724E6289FB001299F700D112481817D
:100E2000992787FD9095C0974AE0489F9001499F78
:100E3000300D1124620F731F8281992787FD9095D1
:100E4000C097680F791F882777FD8095982F0E949B
:100E5000CD196B017C01B5016D5F7F4F47E050E01C
:100E6000CE0101960E94212060E070E0CE01019643
:100E70000E947D1E20E030E040E752E40E943219DB
:100E80009B01AC01C701B6010E946518173509F432
:100E9000905827960FB6F894DEBF0FBECDBFDF91F6
:100EA000CF911F91FF90EF90DF90CF90BF90AF90C8
:100EB0000895AF92BF92CF92DF92EF92FF920F937D
:100EC0001F93CF93DF93CDB7DEB7A0970FB6F894FB
:100ED000DEBF0FBECDBF5C018B0180E2EFE0F1E031
:100EE000DE01119601900D928A95E1F768E070E0BD
:100EF000C8010E948A06D5016D917C91C8010E94AB
:100F00001A2068E070E0C80108960E948A06D501A0
:100F10001296ED91FC9113978081F80180871296CB
:100F2000ED91FC9113978181D80119968C931997B3
:100F30008AE31A968C93D5011296ED91FC91139742
:100F40009281F80193871296ED91FC91139793810A
:100F5000D8011C969C931C971D968C93D5011296D4
:100F6000ED91FC9113978481F80186871296ED919B
:100F7000FC9113978581D8011F968C93D501149607
:100F8000ED91FC9115978081F801808B118A128A6E
:100F9000138A148AD5011896ED91FC91199716962B
:100FA0008D919C91179760810E9494066B017C0142
:100FB00020E030E044EB52EC0E942E1B87FD0FC076
:100FC00020E030E044EB52E4C701B6010E942B1947
:100FD00018162CF0F801C18AD28AE38AF48AD80163
:100FE00055961D921D921D921C925897D5011C96E4
:100FF000ED91FC911D971A968D919C911B976081A4
:101000000E94F0066B017C0120E030E044E353ECE9
:101010000E942E1B87FD0FC020E030E044E353E424
:10102000C701B6010E942B1918162CF0F801C58AC9
:10103000D68AE78AF08ED80159961D921D921D928C
:101040001C925C97F5018685978560E070E00E94B0
:101050007D1ED80159966D937D938D939C935C97DB
:10106000F801158E168E178E10A2D50150968D910F
:101070009C91519760E070E00E947D1EF801658FA1
:10108000768F878F90A368E070E0C80181960E94F8
:101090008A06D5015296ED91FC9153978281F80111
:1010A00081A35296ED91FC9153978381D80192963A
:1010B0008C9392978FE293968C93D5015296ED91F3
:1010C000FC9153979081F80194A35296ED91FC9175
:1010D00053979181D80195969C93959796968C936A
:1010E000D5015296ED91FC9153978481F80187A325
:1010F0005296ED91FC9153978581D80198968C93E7
:101100007801B9E2EB0EF11C68E070E0C7010E94C3
:101110008A06F50164897589C7010E941A20D501E4
:101120005896ED91FC9159978081F80181AB63E06D
:1011300070E0C801C2960E948A06D5015896ED91CA
:10114000FC9159978181F80182AB5896ED91FC9101
:1011500059978281D801D3968C93D5015896ED91F9
:10116000FC9159978381F80184AB20E030E044EB97
:1011700053E4658D768D878D90A10E94321920E011
:1011800030E040E851E40E94B71B6B017C0120E095
:1011900030E040E05FE30E942B19005C1F4F1816FF
:1011A00054F420E030E048E751E4C701B6010E9462
:1011B0002E1B87FD03C069817A8115C020E030E0D5
:1011C00040E05FE3C701B6010E9465180E949A19CA
:1011D000FB01EE0FFF1F81E090E08C0F9D1FE80FD9
:1011E000F91F6081718143E050E0C801A0960FB6FD
:1011F000F894DEBF0FBECDBFDF91CF911F910F914D
:10120000FF90EF90DF90CF90BF90AF900C94212093
:101210004F925F926F927F928F929F92AF92BF9206
:10122000CF92DF92EF92FF920F931F93CF93DF93B2
:10123000CDB7DEB7E0970FB6F894DEBF0FBECDBFD7
:101240008C015B0180E2EFE0F1E0DE01119601909C
:101250000D928A95E1F72BED3FE049E450E4F80167
:1012600061897289838994890E94B71B20E030E0EC
:1012700044E353E40E9432196B017C01F50124819F
:1012800035814CE1429FC001439F900D1124608045
:101290007180680E791E2BED3FE049E450E4F301C4
:1012A00064857585868597850E94B71B20E030E0B0
:1012B00044E353E40E9432194B015C012BED3FE003
:1012C00049E450E4F30160897189828993890E941D
:1012D000B71B20E030E044E353E40E9432192B01B5
:1012E0003C012BED3FE049E450E4F8016589768943
:1012F0008789908D0E94B71B20E030E044E353E4DF
:101300000E9432199B01AC01C301B2010E94641812
:1013100069A37AA38BA39CA30E94861C6DA37EA3C2
:101320008FA398A7C501B4010E942F192B013C017E
:10133000C701B6010E942F1969A77AA78BA79CA79E
:10134000C501B4010E94861C9B01AC01C701B60116
:101350002DA73EA74FA758AB0E94861C6B017C01AE
:1013600069A17AA18BA19CA10E942F1969A37AA3DC
:101370008BA39CA32DA53EA54FA558A969A57AA529
:101380008BA59CA50E94B71B4B015C01A301920198
:10139000C701B6010E94B71B29A13AA14BA15CA1CC
:1013A0000E94B71B9B01AC01C501B4010E946418E7
:1013B0006B017C01A30192016DA17EA18FA198A573
:1013C0000E94B71BA70196010E94D81820E030E0C8
:1013D00044E353E40E94B71B2BED3FE049E450E4A3
:1013E0000E9432196B017C0120E030E0A9010E94CB
:1013F0002B1987FF0AC020E030E044EB53E4C7011B
:10140000B6010E9465186B017C01F801C5AAD6AA35
:10141000E7AAF0AE258D368D478D50A1C701B601E4
:101420000E9464184B015C0120E030E0A9010E9499
:101430002B1987FD06C0F80181AE92AEA3AEB4AE03
:101440000DC020E030E044EB53E4C501B4010E943C
:101450006518F80161AF72AF83AF94AF20E030E060
:1014600044EB53E4C701B6010E94321920E030E09A
:1014700040E851E40E94B71B6B017C0120E030E0A2
:1014800040E05FE30E942B19035C1F4F181654F4D1
:1014900020E030E048E751E4C701B6010E942E1B6E
:1014A00087FD03C069817A8115C020E030E040E00B
:1014B0005FE3C701B6010E9465180E949A19FB01FB
:1014C000EE0FFF1F81E090E08C0F9D1FE80FF91FCA
:1014D0006081718143E050E0C8010E94212081E0D9
:1014E00090E0E0960FB6F894DEBF0FBECDBFDF915F
:1014F000CF911F910F91FF90EF90DF90CF90BF9011
:10150000AF909F908F907F906F905F904F900895D5
:101510004F925F926F927F928F929F92AF92BF9203
:10152000CF92DF92EF92FF920F931F93CF93DF93AF
:10153000CDB7DEB760970FB6F894DEBF0FBECDBF54
:101540002B013C0129873A874B875C87E982FA8225
:101550000B831C839B01AC01C801B7010E94641876
:101560002BED3FE049E450E40E94B71B20E030E05F
:1015700044E353E40E94321920E030E040E05FE3AE
:101580000E94B71B0E94861C6D837E838F83988781
:101590002BED3FE049E450E4C301B2010E94B71BC8
:1015A00020E030E044E353E40E9432190E942F19F6
:1015B0002B013C012BED3FE049E450E4C801B701A9
:1015C0000E94B71B20E030E044E353E40E9432194C
:1015D0000E942F1969837A838B839C8329853A859E
:1015E0004B855C85C601B5010E9464182BED3FE078
:1015F00049E450E40E94B71B20E030E044E353E4A8
:101600000E94321920E030E040E05FE30E94B71B07
:101610000E94861C4B015C012D813E814F815885C3
:10162000CA01B9010E94B71B6B017C0129813A8173
:101630004B815C81C301B2010E94B71BA5019401DB
:101640000E94B71BA50194010E94B71B9B01AC012E
:10165000C701B6010E9465186B017C019B01AC01BA
:1016600060E070E080E89FE30E9464180E94901C94
:101670009B01AC01C701B6012D873E874F87588B70
:101680000E94901C2D853E854F8558890E94D81850
:101690009B01AC010E94651820E038E147EC55E45D
:1016A0000E94B71B60960FB6F894DEBF0FBECDBF89
:1016B000DF91CF911F910F91FF90EF90DF90CF902E
:1016C000BF90AF909F908F907F906F905F904F9062
:1016D00008952F923F924F925F926F927F928F92D6
:1016E0009F92AF92BF92CF92DF92EF92FF920F93B1
:1016F0001F93CF93DF93CDB7DEB72C970FB6F89437
:10170000DEBF0FBECDBF7E836D8329013A01EF821C
:10171000F88609871A879A8389831C861B862FEF90
:101720002B833FEF3C83212C312C30E8832E4FEB71
:10173000942E8B859C85ED81FE818E179F07F4F595
:10174000E981FA81A088B188C288D388E484F584CD
:10175000068517852F81388549855A85C301B201D1
:101760000E94880A7B018C019101A4010E942B191F
:1017700087FD0DC020E030E040E85FEBB101C4011F
:101780000E942B19882341F07101840109C0FB8557
:10179000FB832C852C8304C03B853B838C858C8309
:1017A000EB85FC853196FC87EB8729813A81245EA5
:1017B0003F4F3A83298317014801BBCF8B819C811E
:1017C0002C960FB6F894DEBF0FBECDBFDF91CF9140
:1017D0001F910F91FF90EF90DF90CF90BF90AF904F
:1017E0009F908F907F906F905F904F903F902F9041
:1017F0000895AF92BF92CF92DF92EF92FF920F9334
:101800001F93ECE1E49F9001E59F300D1124620FDE
:10181000731FFB01A088B188C288D388E484F58453
:1018200006851785FC01258936894789508D618990
:101830007289838994890E94880A1F910F91FF9071
:10184000EF90DF90CF90BF90AF9008952BED3FE0E9
:1018500049E450E40E94B71B20E030E044E353E445
:101860000E943219089520E030E044E353E40E94DE
:10187000B71B2BED3FE049E450E40E943219089574
:10188000CF92DF92EF92FF92CF93DF93EC01FC01B6
:1018900080E090E02191222309F445C00196843034
:1018A0009105C1F780E090E0FE01E80FF91F208567
:1018B0002223C9F1019684309105B1F720E030E090
:1018C000A90169897A898B899C890E942B198823AF
:1018D00051F120E030E0A9016D897E898F89988DD2
:1018E0000E942B198823F9F08AA98A32E1F4CD8C61
:1018F000DE8CEF8CF8A020E030E0A901C701B60132
:101900000E942B1987FD0FC0C1E020E030E044EBBE
:1019100053E4C701B6010E942E1B87FDC0E081E0A1
:101920008C2790E002C080E090E0DF91CF91FF90A3
:10193000EF90DF90CF9008950E94782290E0089574
:101940000C9478220C9480220C946822CF92DF921F
:10195000EF92FF920F931F93CF93DF938C0180E060
:1019600090E00E94782290E0F8018F3F910519F0F5
:101970009383828302C013821282FFE926E841E04A
:10198000F15020404040E1F700C000000E94C80232
:101990008AE292E00E94B40463E070E0F801828180
:1019A00093810E94D60485E392E00E94B404F8017A
:1019B000828193812CE1AC01249FC001259F900D71
:1019C00011240E94561DF80191838083892B29F0F0
:1019D000C0E0D0E0C12CD12C09C00E94C8028FE227
:1019E00091E00E94B40480E090E04CC0F801828154
:1019F0009381C816D9060CF043C0BE016F5F7F4FBC
:101A0000F8018081918148E050E08C0F9D1F0E9479
:101A10006822F801E080F180EC0EFD1ECE010996EF
:101A20000E948022F7016087718782879387CE01A9
:101A30000D960E948022F7016487758786879787B5
:101A4000CE0141960E948022F701608B718B828BC0
:101A5000938BCE0145960E948022F701648B758B93
:101A6000868B978BCE0149960E948022F701608F6A
:101A7000718F828F938FFFEFCF1ADF0A6C96B6CFEC
:101A800081E090E0DF91CF911F910F91FF90EF9057
:101A9000DF90CF900895CF93DF93EC0188819981F7
:101AA0000E94EE1D1982188281E090E0DF91CF91B3
:101AB0000895FC018085918582309105B9F044F448
:101AC000009781F00197D9F4299A85B1867F19C0D2
:101AD0008330910579F0049791F485B18A6085B9D6
:101AE00028980895289A85B1857F0BC02B9A85B1D7
:101AF0008C7F07C085B1836085B92B98089585B127
:101B00008B6085B908951092CD008CE08093CC0055
:101B10001092C5008093C400E9ECF0E08081886DEC
:101B20008083E1ECF0E08081886D8083E8ECF0E078
:101B3000808182608083E0ECF0E08081826080833D
:101B4000EAECF0E080818E608083E2ECF0E080815E
:101B5000866080830895E9E6F0E08081806280837A
:101B600080818F7E8083EA9A22982A9A84B18B6042
:101B700084B9289AE0E8F0E080818F738083E1E8FF
:101B8000F0E080818560808380818D7F8083E9E8BB
:101B9000F0E080811082E8E8F0E080818FEF8083C0
:101BA00080818A778083EFE6F0E0808182608083A5
:101BB0000895E1ECF0E08081877280830895E1EC84
:101BC000F0E08081886D808308950F931F93CF93F9
:101BD000DF93EC018FEF84B9F8940E94830D0E948B
:101BE000AB0D0E94DF0D7894FE01E75FFE4F81E0B0
:101BF00090E091838083FE01ED5FFE4F11821082A1
:101C0000FE01EB5FFE4F8EEF9FEF91838083FE011D
:101C1000E95FFE4F918380830E94C8022FE38DE02D
:101C200093E0215080409040E1F700C0000018820E
:101C300019821A821B821D821C821F821E821986B3
:101C400018861B861A8684E28C878EE58D87FE01B6
:101C5000E257FF4F1082FE01E157FF4F1082FE0155
:101C6000E150FF4F11821082FE01EF5FFE4F81E0D5
:101C700090E091838083FE01E057FF4F8BE48083E7
:101C8000FE01EF56FF4F8083FE01EE56FF4F80832B
:101C9000FE01ED56FF4F1182108280E090E0FE01C0
:101CA000E80FF91F1686019680389105C1F780E08C
:101CB00090E0FE01E80FF91FEB56FF4F10820196EE
:101CC00080359105B1F700E010E080E190E00E94DE
:101CD000561DF801EE0FFF1FEC0FFD1FEB51FF4FDC
:101CE0009183808380819181892B49F40E94C8026D
:101CF0008FE291E00E94B40480E090E014C080E0A4
:101D000090E0DF01ED91FC911197E80FF91F10822F
:101D1000019680319105B1F70F5F1F4F0D3011050E
:101D2000A1F681E090E0DF91CF911F910F9108958E
:101D3000EF92FF920F931F93CF93DF937B01EC0100
:101D4000C150DF4F28813981232BD9F0FC01ED569A
:101D5000FF4F0190F081E02DE80FF91FEC56FF4F87
:101D60002CE220838C010B511F4FBC016B567F4F1F
:101D7000A8010E940106B701C8010E9459071982F3
:101D80001882DF91CF911F910F91FF90EF900895EE
:101D9000FC01DC01A057BF4F9C918485981312C0B1
:101DA000DF01AF56BF4F9C91848598130BC0DF01B4
:101DB000AE56BF4F3C91248581E090E0321721F070
:101DC00080E0089580E090E00895FC01DC01A057D8
:101DD000BF4F9C918585981312C0DF01AF56BF4F4E
:101DE0009C91858598130BC0DF01AE56BF4F3C9187
:101DF000258581E090E0321721F080E0089580E0B1
:101E000090E00895FC01E257FF4F2081DC01A20F12
:101E1000B11D1E968C9190819F5F9083908197FD5C
:101E200010820895FC01E257FF4F3081DC01A15779
:101E3000BF4F2C91321731F02081FC01E20FF11DD0
:101E40008685089580E008950F931F93CF93DF93C5
:101E50008B01EA01FC011186108615821482108222
:101E6000118212821382DC01A75FBE4F11961C9271
:101E70001E920E94590D0E94C802209719F482E414
:101E800092E002C087E592E00E94B404C8010E947B
:101E9000A60CFFE32DE083E0F15020408040E1F705
:101EA00000C00000219721F48AE692E00E94B40469
:101EB0009FE9E6E8F1E09150E040F040E1F700C032
:101EC000000081E090E0DF91CF911F910F91089584
:101ED0000F931F93CF93DF938C010E94C8028AE770
:101EE00092E00E94B404C0E0D0E0F8012085318582
:101EF000828593852817390749F46FEFCE010E9438
:101F000086222196C13FFAE0DF0779F7DF91CF9172
:101F10001F910F910895CF93DF93EC010E94C802A7
:101F20008CE892E00E94B404288539858A859B85D7
:101F300028173907C9F3DF91CF910895DF92EF9207
:101F4000FF920F931F93CF93DF938C017B01C0E02F
:101F5000D0E03CE1D32EF70122813381D29EC00133
:101F6000D39E900D1124C817D907C4F4F801208519
:101F70003185828593852817390781F42196CE0112
:101F80000E94A00C811101C08FE30E94800487EAA7
:101F900091E60197F1F700C00000DDCFDF91CF910E
:101FA0001F910F91FF90EF90DF900895EF92FF92B5
:101FB0000F931F93CF93DF937C018A01E9012F3F99
:101FC0008FEF380751F4FB01828193812CE1289F28
:101FD000E001299FD00D112421960E94C8020C1700
:101FE0001D07CCF4F701208531858285938528175C
:101FF000390789F4C8010E94A00C811101C08FE348
:102000000E94800487EA91E60197F1F700C0000082
:102010000F5F1F4FE4CFDF91CF911F910F91FF9082
:10202000EF900895EF92FF920F931F93CF93DF935A
:102030008C018CE1869F7001879FF00C1124C0E019
:10204000D0E0D801ED91FC91EE0DFF1DEC0FFD1FCE
:1020500080810E9480042196C830D10591F7DF91DC
:10206000CF911F910F91FF90EF900895AF92BF9283
:10207000CF92DF92EF92FF920F931F93CF93DF9354
:102080005C01EB016A01FC01208531858285938525
:102090002817390709F0B2C00E94C8028AEA92E004
:1020A0000E94B404FFE926E881E0F150204080401E
:1020B000E1F700C000000E94C802F601E588F6883A
:1020C0000789108D21893289438954896A817B81EE
:1020D000888199810E94690B9D838C83BE01C60112
:1020E0000E9408096C817D81CE010E9412108CEF44
:1020F00091E00E94B4042C813D814CE1429FC001DB
:10210000439F900D1124E881F981E80FF91F608544
:1021100071858285938541E050E00E9406058CE63A
:1021200091E00E94B4044C815D8168817981C6018F
:102130000E94F90B41E050E00E94060585EC92E018
:102140000E94B404F60185AD0E948004F60186ADBC
:102150000E948004F60187AD0E948004F50120856D
:102160003185828593852817390709F047C0FFEB31
:1021700027E289E0F15020408040E1F700C00000F4
:10218000F501208531858285938528173907B1F5BA
:102190000E94C8028BEC92E00E94B404F60165A98B
:1021A00076A987A990AD41E050E00E9406058FED29
:1021B0000E9480048AE00E94800484ED92E00E94E4
:1021C000B404F60161AD72AD83AD94AD41E050E071
:1021D0000E9406058FED0E948004F501208531855F
:1021E000828593852817390749F4FFEB27E289E0B8
:1021F000F15020408040E1F700C00000DF91CF9116
:102200001F910F91FF90EF90DF90CF90BF90AF9014
:102210000895CF92DF92EF92FF920F931F93CF9387
:10222000DF93EC017B01288539858A859B852817FA
:10223000390709F04DC00E94C80263E070E0F70161
:10224000828193810E94D6048DED92E00E94B404B5
:10225000FFE72AE186E0F15020408040E1F700C02E
:1022600000000E94C8028AE00E94800400E010E0A2
:10227000F701828193810817190754F5288539855C
:102280008A859B852817390719F58AE00E94800402
:1022900068019FEFC91AD90A63E070E0C6010E9485
:1022A000D6048DE394E00E94B404B801C7010E94F3
:1022B0001210288539858A859B852817390741F4AE
:1022C000E3E2F4EF3197F1F700C000008601D0CFD0
:1022D000DF91CF911F910F91FF90EF90DF90CF9002
:1022E0000895CF92DF92EF92FF920F931F93CF93B7
:1022F000DF93EC018B016A0163E070E0CA01019693
:102300000E94D6048DE394E00E94B404B601C80193
:102310000E94121083E294EF0197F1F700C00000D1
:102320008CE691E00E94B40488859985069709F4AB
:10233000A1C08DEE92E00E94B4048CE18C9D7001EE
:102340008D9DF00C1124D801ED91FC91EE0DFF1D37
:10235000608571858285938541E050E00E94060585
:1023600083E294EF0197F1F700C000008CE691E062
:102370000E94B40488859985069709F47BC084EF90
:1023800092E00E94B404D801ED91FC91EE0DFF1D86
:10239000648575858685978544E050E00E94060532
:1023A00083E294EF0197F1F700C000008CE691E022
:1023B0000E94B40488859985069709F45BC08AEF6A
:1023C00092E00E94B404D801ED91FC91EE0DFF1D46
:1023D000608971898289938944E050E00E940605F2
:1023E00083E294EF0197F1F700C000008CE691E0E2
:1023F0000E94B404888599850697E1F180E093E016
:102400000E94B404D801ED91FC91EE0DFF1D64898A
:1024100075898689978941E050E00E94060583E22C
:1024200094EF0197F1F700C000008CE691E00E9464
:10243000B404888599850697E9F086E093E00E94C8
:10244000B404D801ED91FC91EE0DFF1D608D718DEE
:10245000828D938D40E050E00E94060583E294EF68
:102460000197F1F700C000008CE691E00E94B404EF
:1024700088859985DF91CF911F910F91FF90EF9003
:10248000DF90CF900895EF92FF920F931F93CF9319
:10249000DF93EC017B01288539858A859B85281788
:1024A0003907E1F50E94C80263E070E0F70182811C
:1024B00093810E94D6048DED92E00E94B404FFE760
:1024C0002AE186E0F15020408040E1F700C00000A2
:1024D00000E010E0F7018281938108171907F4F4F6
:1024E000288539858A859B8528173907B9F40E9484
:1024F000C802A801B701CE010E9471112885398553
:102500008A859B852817390749F4EFE4F3EC319766
:10251000F1F700C000000F5F1F4FDCCFDF91CF91BC
:102520001F910F91FF90EF9008956F927F928F927D
:102530009F92AF92BF92CF92DF92EF92FF920F9352
:102540001F93CF93DF937C01EB01FC012085318544
:10255000828593852817390709F0B6C00E94C80202
:102560008DE093E00E94B404FFE32DE083E0F1509E
:1025700020408040E1F700C000000E94C80200E057
:1025800010E03E0198E0690E711C6E01E2E3CE0E90
:10259000D11C5E01F9E2AF0EB11C4E0121E2820EA8
:1025A000911C0115110569F08CE691E00E94B404BC
:1025B000F8013297E930F10560F4E35BFF4F0C94CA
:1025C000501D8EE193E00E94B40468E070E0CE01FB
:1025D00062C088E293E00E94B40468E070E0C30146
:1025E0005AC08FE293E00E94B40488894AC085E310
:1025F00093E00E94B40469897A898B899C8908C018
:102600008BE393E00E94B4046D897E898F89988D55
:1026100044E050E00E9406058FED33C082EB91E06C
:102620000E94B404698D7A8D8B8D9C8D41E050E0C1
:102630000E94060581E493E00E94B4042EC086E463
:1026400093E00E94B4046D8D7E8D8F8D98A141E042
:1026500050E00E94060521C08FE493E00E94B4047C
:1026600068E070E0C40117C086E593E00E94B404FE
:1026700068E070E0C5010FC08FE593E00E94B404EC
:1026800089A90E94800409C086E693E00E94B404F0
:1026900063E070E0C6010E9483058FE996E8E1E0FF
:1026A00081509040E040E1F700C00000F701208534
:1026B0003185828593852817390731F40F5F1F4FC5
:1026C0000B30110509F06DCFDF91CF911F910F9164
:1026D000FF90EF90DF90CF90BF90AF909F908F9042
:1026E0007F906F9008950F931F93CF93DF938C018A
:1026F000EB01FC01208531858285938528173907F8
:1027000009F0A0C00E94C8028FE493E00E94B404C4
:1027100068E070E0CE0181960E9483058AE00E9405
:10272000800489E591E00E94B40468E070E0CE0185
:1027300008960E948305FFE72AE186E0F1502040D9
:102740008040E1F700C00000F801208531858285D6
:1027500093852817390709F075C00E94C80285E3E0
:1027600093E00E94B40469897A898B899C8944E04A
:1027700050E00E9406058FED0E9480048AE00E94CE
:1027800080048BE393E00E94B4046D897E898F8975
:10279000988D44E050E00E9406058FED0E94800471
:1027A000FFE72AE186E0F15020408040E1F700C0D9
:1027B0000000F80120853185828593852817390727
:1027C00009F040C00E94C8028BEA91E00E94B40464
:1027D0006D8D7E8D8F8D98A141E050E00E940605A1
:1027E0008FED0E9480048CEF91E00E94B404FE0102
:1027F000E05CFF4F80810E948004FE01EF5BFF4F91
:1028000080810E948004FE01EE5BFF4F80810E9468
:10281000800481EB91E00E94B404698D7A8D8B8DE8
:102820009C8D41E050E00E94060581E493E00E9407
:10283000B404FFE72AE186E0F15020408040E1F750
:1028400000C00000DF91CF911F910F9108950F9369
:102850001F93CF93DF938C01FC0120853185828506
:1028600093852817390709F070C00E94C80281E7D4
:1028700093E00E94B404FFE32DE083E0F150204098
:102880008040E1F700C000000E94C802C0E0D0E034
:10289000209769F08CE691E00E94B404FE01329723
:1028A000EB30F10538F4EA5AFF4F0C94501D8FE7D6
:1028B00093E023C087E893E020C08CE893E01DC03C
:1028C00080E993E01AC084E993E017C088E993E0B7
:1028D00014C08CE993E011C080EA93E00EC086EA50
:1028E00093E00BC08DEA93E008C082EB93E005C053
:1028F00089EB93E002C08EEB93E00E94B4048DE379
:1029000094E00E94B404CE01880F991F800F911F9C
:10291000FC01EB51FF4F808191810E94B4049FE93B
:10292000E6E8F1E09150E040F040E1F700C000003F
:10293000F80120853185828593852817390729F488
:102940002196CD30D10509F0A3CFDF91CF911F9112
:102950000F910895AF92BF92CF92DF92EF92FF92C4
:102960000F931F930E94C80287EC93E00E94B40467
:102970002FE78AE196E0215080409040E1F700C0C7
:1029800000000E94C80283EE93E00E94B404A12CD0
:10299000B12C50EDC52E52ECD52EE12CF12C0CE1D2
:1029A00012E420E030E044E952EC60E070E080E2C4
:1029B00092E40E94880A41E050E00E94060583EFFD
:1029C00093E00E94B4042FE181EA97E02150804017
:1029D0009040E1F700C000000E94C80287EF93E03A
:1029E0000E94B40475E3A72E7EE1B72E7DEBC72EBF
:1029F00072ECD72E12E3E12E15E5F12E0CE112E474
:102A000022E430E24DEB52EC65E276E88CE192E4B0
:102A10000E94880A41E050E00E94060583EF93E09F
:102A20000E94B4042FE181EA97E021508040904059
:102A3000E1F700C000001F910F91FF90EF90DF9031
:102A4000CF90BF90AF900895EF92FF920F931F9396
:102A5000CF93DF93EC016A817B8120E030E000E0DE
:102A600010E0061717070CF071C088819981820F5A
:102A7000931F40E050E07C010196D701EC91E052B9
:102A8000EF3508F458C081E090E09F838E830E9468
:102A9000C80288E094E00E94B404BFE7EAE1F6E0EF
:102AA000B150E040F040E1F700C000000E94C802D1
:102AB0008CE194E00E94B4042FE986E891E0215073
:102AC00080409040E1F700C000000E94C80282E30D
:102AD00094E00E94B40463E070E0C80101960E9493
:102AE000D6048CE394E00E94B40487E20E94800440
:102AF000D7018C910E94800487E20E9480048AE0C2
:102B00000E948004BFE7EAE1F6E0B150E040F04007
:102B1000E1F700C00000B801CE010E9412102FEFB3
:102B200084E39CE0215080409040E1F700C0000029
:102B300080E090E00FC04F5F5F4F4830510509F0D3
:102B40009ACF0F5F1F4F245E3F4F8BCF1F821E8295
:102B500081E090E0DF91CF911F910F91FF90EF9076
:102B600008952F923F924F925F926F927F928F9231
:102B70009F92AF92BF92CF92DF92EF92FF920F930C
:102B80001F93CF93DF9300D01F92CDB7DEB78BE0BA
:102B900091E00E94561D9093450480934404009751
:102BA00039F40E94C8028FE291E00E94B40474C21A
:102BB0000E94E50D892B09F46FC283E490E00E9426
:102BC000561D9B838A83892B61F388E090E00E94E5
:102BD000561D8C01009729F38AE391E00E94B4040A
:102BE000C8010E94A60C2FE38DE093E021508040A5
:102BF0009040E1F700C00000E0914404F0914504EA
:102C0000E75FFE4F11821082AA24A394B12C95E0B5
:102C1000C92ED12C2A803B80A0E42A0E311C4A8088
:102C20005B80B1E44B0E511C6A807B80E2E46E0E47
:102C3000711C8A809B80F8E08F0E911C8091440467
:102C400090914504DC0118962D913C9119971B96A3
:102C50003C932E931A97FC01E75FFE4F2081318150
:102C6000232B11F40E94590D809144049091450446
:102C7000DC011896ED91FC911997E730F105F0F61B
:102C8000EA5BFF4F0C94501DF8012281338112162C
:102C9000130634F0DC011996DC92CE921897CECF51
:102CA0000E94DF0D0E94C8028EE491E00E94B404ED
:102CB000E3E2F4EF3197F1F700C000008A819B81D5
:102CC0000E94400C892B91F089E591E00E94B404A8
:102CD00068E070E0C4010E948305FFEE29E482E011
:102CE000F15020408040E1F700C000008091440492
:102CF00090914504DC0118964D915C9119971A96B4
:102D00002D913C911B974217530709F097CF6A8189
:102D10007B810E94980E8A819B810E94400C892BA6
:102D200051F04A815B81B80180914404909145043F
:102D30000E94361083CF0E94C8028FE591E00E9466
:102D4000B4048EE691E00E94B404BFE7EAE1F6E045
:102D5000B150E040F040E1F7E5C00E94C8020E9497
:102D6000DF0D6A817B8180914404909145040E942B
:102D7000980E8A819B810E94400C892B81F18CE7FF
:102D800091E00E94B404AA81BB8151966D917D911E
:102D90008D919C91549743E050E00E94060588EC89
:102DA00092E00E94B404EA81FB8165897689878973
:102DB000908D43E050E00E940605FFE72AE186E09F
:102DC000F15020408040E1F700C000006A817B8123
:102DD00080914404909145040E9473132FCF8FE596
:102DE00091E00E94B4048EE691E00E94B4049FE753
:102DF000AAE1B6E09150A040B040E1F700C0000069
:102E000038C00E94C80286E891E00E94B404EFE74F
:102E1000FAE126E0E150F0402040E1F700C0000078
:102E2000B80180914404909145040E94431206CF5A
:102E30000E94C8020E94DF0D6A817B818091440458
:102E4000909145040E94980E8BE991E00E94B40491
:102E50008FE996E8A1E081509040A040E1F700C0E2
:102E600000006A817B8180914404909145040E9416
:102E7000951280914404909145040E942714DECE5F
:102E80000E94C8020E94DF0D6A817B818091440408
:102E9000909145040E94980E83EA91E00E94B40448
:102EA000E3E2F4EF3197F1F700C000000E94C8029E
:102EB0008BEA91E00E94B404AA81BB815D966D917A
:102EC0007D918D919C91909741E050E00E94060584
:102ED0008FED0E9480048CEF91E00E94B404F10118
:102EE00080810E948004D2018C910E948004F301B1
:102EF00080810E94800481EB91E00E94B404AA8149
:102F0000BB8159966D917D918D919C915C9741E02B
:102F100050E00E940605BFE3EDE0F3E0B150E04071
:102F2000F040E1F700C0000089CE0E948B0F86CEF2
:102F30000E94D90DE0914404F0914504DF01A75FA0
:102F4000BE4F1196BC92AE92DF01AD5FBE4F11969F
:102F50001C921E92DF01AB5FBE4F1196BC92AE92E7
:102F6000DF01A95FBE4F83E090E011969C938E93A2
:102F700084819581892BB1F40E94C8028AEB91E08B
:102F80000E94B404E0914404F0914504B582A48207
:102F9000D80117961C921E92169717821682C801A6
:102FA0000E944B0DE0904404F0904504F701E25775
:102FB000FF4F9081F701E157FF4F80819817E1F1B2
:102FC000F7011082118212821382C7010E94020F40
:102FD000682F809144049091450469830E94E50E16
:102FE000E0914404F09145046981892BB9F040E0F7
:102FF00050E0B801CF010E94240FC8010E9424159F
:10300000D80116968D919C911797892BC1F50E9436
:10301000C80283ED91E00E94B4047DCF8681978140
:103020000E948622E0914404F091450486819781B4
:1030300001969783868302CED7016D917D918D9104
:103040009C9120E030E040E85FE30E946518F701C2
:103050006083718382839383608171818281938194
:1030600020E030E543E457E40E942E1B18160CF0D4
:10307000E5CD41E050E0B801C7010E94240F8091E6
:103080004404909145040E94680FE0914404F0913B
:103090004504D186C086D2CD80E090E00F900F909D
:1030A0000F90DF91CF911F910F91FF90EF90DF90E4
:1030B000CF90BF90AF909F908F907F906F905F90D8
:1030C0004F903F902F9008955058BB27AA270ED0BD
:1030D00063C22CD230F031D220F031F49F3F11F492
:1030E0001EF4FCC10EF4E095E7FBC9C1E92F76D2CE
:1030F00080F3BA17620773078407950718F071F415
:103100009EF5A5C20EF4E0950B2EBA2FA02D0B0153
:10311000B90190010C01CA01A0011124FF27591B1C
:1031200099F0593F50F4503E68F11A16F040A22F22
:10313000232F342F4427585FF3CF46953795279593
:10314000A795F0405395C9F77EF41F16BA0B620B92
:10315000730B840BBAF09150A1F0FF0FBB1F661FD9
:10316000771F881FC2F70EC0BA0F621F731F841F1C
:1031700048F4879577956795B795F7959E3F08F042
:10318000B3CF9395880F08F09927EE0F9795879501
:103190000895CCD158F080E891E009F49EEFCDD1AC
:1031A00028F040E851E059F45EEF09C097C14FC2E2
:1031B000E92FE07813D268F3092E052AC1F3261708
:1031C00037074807590738F00E2E07F8E02569F051
:1031D000E025E0640AC0EF6307F8009407FADB011A
:1031E000B9019D01DC01CA01AD01EF934AD0D4D1F0
:1031F0000AD05F91552331F02BED3FE049E450FDBB
:1032000049EC63CF0895DF93DD27B92FBF7740E8FE
:103210005FE31616170648075B0710F4D92F22D272
:103220009F938F937F936F93B9D3E2ECF0E059D1E2
:10323000B3D12F913F914F915F91A5D2DD2349F0FA
:103240009058A2EA2AED3FE049EC5FE3D0785D2791
:103250004DDFDF91A1C1EFD008F481E0089575D171
:10326000E395ABC10CD098C168D140F05FD130F08C
:1032700021F45F3F19F003C15111EAC12FC1AED152
:1032800098F39923C9F35523B1F3951B550BBB272D
:10329000AA2762177307840738F09F5F5F4F220FDA
:1032A000331F441FAA1FA9F333D00E2E3AF0E0E8D3
:1032B00030D091505040E695001CCAF729D0FE2F1F
:1032C00027D0660F771F881FBB1F261737074807B1
:1032D000AB07B0E809F0BB0B802DBF01FF27935867
:1032E0005F4F2AF09E3F510568F0C9C0B1C15F3FF2
:1032F000ECF3983EDCF3869577956795B795F7954F
:103300009F5FC9F7880F911D9695879597F9089546
:10331000E1E0660F771F881FBB1F621773078407E2
:10332000BA0720F0621B730B840BBA0BEE1F88F7F1
:10333000E095089504D06894B1118AC1089556D1DA
:1033400088F09F5790F0B92F9927B751A0F0D1F08E
:10335000660F771F881F991F1AF0BA95C9F712C018
:10336000B13081F074D1B1E0089571C1672F782F29
:103370008827B85F39F0B93FCCF386957795679584
:10338000B395D9F73EF490958095709561957F4FF0
:103390008F4F9F4F0895E89409C097FB3EF4909596
:1033A0008095709561957F4F8F4F9F4F9923A9F01E
:1033B000F92F96E9BB279395F695879577956795AD
:1033C000B795F111F8CFFAF4BB0F11F460FF1BC0F1
:1033D0006F5F7F4F8F4F9F4F16C0882311F096E984
:1033E00011C0772321F09EE8872F762F05C0662332
:1033F00071F096E8862F70E060E02AF09A95660FEB
:10340000771F881FDAF7880F9695879597F90895A3
:1034100007D180F09F3740F491110EF019C160E0A0
:1034200070E080E89FEB089526F41B16611D711D66
:10343000811D2BC045C0990F0008550FAA0BE0E86D
:10344000FEEF16161706E807F907C0F01216130666
:10345000E407F50798F0621B730B840B950B39F4A6
:103460000A2661F0232B242B252B21F408950A260C
:1034700009F4A140A6958FEF811D811D089597F94C
:103480009F6780E870E060E00895882371F47723F7
:1034900021F09850872B762F07C0662311F49927C7
:1034A0000DC09051862B70E060E02AF09A95660F6F
:1034B000771F881FDAF7880F9695879597F90895F3
:1034C0009F3F31F0915020F4879577956795B79598
:1034D000880F911D9695879597F908959FEF80EC39
:1034E0000895DF93CF931F930F93FF92EF92DF9294
:1034F0007B018C01689405C0DA2EEF0144D1FE01F6
:10350000E894A5912591359145915591AEF3EF0140
:10351000EDDDFE019701A801DA9479F7DF90EF90D5
:10352000FF900F911F91CF91DF91089500240A948D
:103530001616170618060906089500240A9412168E
:103540001306140605060895C9CF50D0E8F3E89491
:10355000E0E0BB279F57F0F02AED3FE049EC06C0C2
:10356000EE0FBB0F661F771F881F28F0B23A620765
:103570007307840728F0B25A620B730B840BE39530
:103580009A9572F7803830F49A95BB0F661F771FB3
:10359000881FD2F7904896CF092E0394000C11F49F
:1035A000882352F0BB0F40F4BF2B11F460FF04C01E
:1035B0006F5F7F4F8F4F9F4F0895EF93E0FF06C0DF
:1035C000A2EA2AED3FE049EC5FEB90DDE5DF0F90EA
:1035D000039401FC9058EFEEF0E01BC257FD9058A9
:1035E000440F551F59F05F3F71F04795880F97FBC7
:1035F000991F61F09F3F79F0879508951216130681
:103600001406551FF2CF4695F1DF08C016161706AF
:103610001806991FF1CF86957105610508940895E4
:10362000E5DFA0F0BEE7B91788F4BB279F3860F448
:103630001616B11D672F782F8827985FF7CF8695CC
:1036400077956795B11D93959639C8F30895E894D9
:10365000BB2766277727CB0197F90895ECDE08F49E
:103660008FEF08959B01AC0160E070E080E89FE37C
:10367000F9CD0AD029ED3BE54EED5EE378C00EF0C2
:103680001FCF2CCF6894FBCEB1DFC8F39923D1F3C1
:10369000C6F3DF93CF931F930F93FF92C92FDD27BC
:1036A00088232AF02197660F771F881FDAF720E01A
:1036B00030E040E85FEB9FE3883920F0803E30F057
:1036C00021968F7702DDEDE0F1E003C0FEDCEAE356
:1036D000F1E007DF8B01BE01EC01FB2E6F57710992
:1036E0007595771F880B990B58DE28E132E741E387
:1036F0005FE349D0AF2D9801AE01FF900F911F916C
:10370000CF91DF91F3DC48CFFA01DC01AA0FBB1F98
:103710009B01AC01BF5728F4222733274427507858
:103720001FC0B75188F4AB2F0024469537952795D5
:10373000011CA395D2F3002069F0220F331F441F10
:10374000B395DAF30DD0C0CC61307105A0E88A07DB
:10375000B94630F49B01AC0166277727882790781B
:10376000309621F0208331834283538308950BD018
:1037700013CFDCDE28F0E1DE18F0952309F07FCED0
:10378000ADCE112465CF2ADFA0F3959FD1F3950F1D
:1037900050E0551F629FF001729FBB27F00DB11DD5
:1037A000639FAA27F00DB11DAA1F649F6627B00D65
:1037B000A11D661F829F2227B00DA11D621F739F4E
:1037C000B00DA11D621F839FA00D611D221F749F5C
:1037D0003327A00D611D231F849F600D211D822FA3
:1037E000762F6A2F11249F5750408AF0E1F08823EA
:1037F0004AF0EE0FFF1FBB1F661F771F881F9150F7
:103800005040A9F79E3F510570F039CE21CF5F3F60
:10381000ECF3983EDCF3869577956795B795F79529
:10382000E7959F5FC1F7FE2B880F911D96958795B1
:1038300097F90895FA01EE0FFF1F30962105310523
:1038400099F16115710561F48038BFE39B0749F177
:1038500068949038810561F08038BFEF9B0741F094
:10386000992342F5FF3FE1053105210511F1E89467
:103870000894E795D901AA2329F4AB2FBE2FF85F4E
:10388000D0F310C0FF5F70F4A695E0F7F73950F061
:1038900019F0FF3A38F49F779F930CD00F9007FCF4
:1038A000905808953EF01ACE60E070E080E89FE303
:1038B00008954FE79F775F934F933F932F93E4DEF5
:1038C0002F913F914F915F9152DF70C08FDEE0F0FA
:1038D0009E37D8F09639B8F49E3848F4672F782F81
:1038E0008827985FF9CF8695779567959395953951
:1038F000D0F3B62FB1706B0F711D811D20F4879529
:10390000779567959395C1CDDBCDA2CE9F931DDEB4
:103910000F9007FCEE5F51CE11F40EF4DFCDD0CD49
:1039200065DED0F39923D9F3CEF39F57550B87FF6C
:1039300069D00024A0E640EA9001805856959795FA
:1039400028F4805C660F771F881F20F02617370742
:10395000480730F4621B730B840B202931294A2B52
:10396000A69517940794202531254A2758F7660F06
:10397000771F881F20F026173707480730F4620B9F
:10398000730B840B200D311D411DA09581F7B901EA
:10399000842F9158880F9695879508959B01AC01C7
:1039A000E6CE19F40EF06BCD52CE98CD1FDEC8F3E3
:1039B0009638C0F707F80F92E8942BE33AEA48EB01
:1039C0005FE7E3DE0F920F920F924DB75EB70F9253
:1039D0009BDEE7E6F1E085DD4F915F91EF91FF918E
:1039E000E595EE1FFF1F49F0FE57E0684427EE0FF4
:1039F000441FFA95E1F74195550B1ED00F9007FE35
:103A000031CE089591505040660F771F881FD2F72E
:103A100008959F938F937F936F93FF93EF939B01F1
:103A2000AC01A5DEEF91FF915CDD2F913F914F91AD
:103A30005F919DCE24CD44CDD9DDE8F39923D9F310
:103A4000940F511DBBF39150504094F059F08823CE
:103A500032F0660F771F881F91505040C1F79E3F8C
:103A6000510544F7880F911D9695879597F908950C
:103A70005F3FACF0983E9CF0BB27869577956795A5
:103A8000B79508F4B1609395C1F7BB0F58F711F4DF
:103A900060FFE8CF6F5F7F4F8F4F9F4FE3CFD8CD51
:103AA000EE0FFF1F0590F491E02D0994CF93DF9363
:103AB0008230910510F482E090E0E0914804F091AA
:103AC000490420E030E0A0E0B0E0309739F14081D7
:103AD000518148175907B8F04817590771F4828186
:103AE0009381109729F013969C938E9312972CC074
:103AF000909349048093480427C02115310531F083
:103B00004217530718F0A901DB0101C0EF019A0128
:103B1000BD01DF010280F381E02DD7CF21153105F2
:103B2000F9F0281B390B2430310580F48A819B8100
:103B30006115710521F0FB019383828304C090938A
:103B4000490480934804FE01329644C0FE01E20F0E
:103B5000F31F8193919322503109398328833AC00E
:103B60002091460430914704232B41F42091040115
:103B700030910501309347042093460420910201BF
:103B8000309103012115310541F42DB73EB7409125
:103B9000060150910701241B350BE0914604F0917A
:103BA0004704E217F307A0F42E1B3F0B2817390731
:103BB00078F0AC014E5F5F4F2417350748F04E0F89
:103BC0005F1F50934704409346048193919302C032
:103BD000E0E0F0E0CF01DF91CF910895CF93DF9344
:103BE000009709F487C0FC01329713821282C091BA
:103BF0004804D0914904209781F420813181280F15
:103C0000391F80914604909147048217930779F5F4
:103C1000F0934704E09346046DC0DE0120E030E0FD
:103C2000AE17BF0750F412964D915C9113979D010A
:103C30004115510509F1DA01F3CFB383A283408125
:103C40005181840F951F8A179B0771F48D919C9168
:103C50001197840F951F02969183808312968D9100
:103C60009C911397938382832115310529F4F09356
:103C70004904E09348043EC0D9011396FC93EE93A7
:103C800012974D915D91A40FB51FEA17FB0779F4C8
:103C900080819181840F951F0296D90111969C9382
:103CA0008E938281938113969C938E931297E0E07A
:103CB000F0E08A819B81009719F0FE01EC01F9CFB9
:103CC000CE01029628813981820F931F20914604EC
:103CD000309147042817390769F4309729F4109276
:103CE00049041092480402C013821282D093470400
:103CF000C0934604DF91CF9108954F925F926F92E7
:103D00007F928F929F92AF92BF92CF92DF92EF926B
:103D1000FF920F931F93CF93DF938B016115710572
:103D200021F0DB018C9311969C93EC015E01BFEFB7
:103D3000AB1ABB0A7501C8808C2D90E00E94FA1F57
:103D4000892B11F0E501F2CFEDE2CE1208C07E0121
:103D5000F2E0EF0EF11CC980DD24D39409C02BE200
:103D6000C21205C07E0142E0E40EF11CC980D12CD4
:103D7000E701219743E050E067E971E0CE010E943E
:103D80000220892BD1F4E701229645E050E062E958
:103D900071E0CE010E940220892B11F4E7012796E1
:103DA0000115110519F0D801CD93DC93D11008C18C
:103DB00060E070E080E89FE70CC143E050E06FE80E
:103DC00071E0CE010E940220892B59F401151105E2
:103DD00009F4FBC0B2E0EB0EF11CF801F182E082C5
:103DE000F4C0F70160E070E0CB01C0E0D0E07F01FB
:103DF000A0EDAA2EAC0C29E02A1530F14D2D426021
:103E0000B42E2D2D2870D2FE04C0211125C021967C
:103E100023C021112197A5E0B0E09B01AC010E94D5
:103E20003D23660F771F881F991F6A0D711D811D25
:103E3000911D6839A9E97A078A07A9E19A0760F014
:103E4000BD2DB660BB2E08C02EEFA2120AC0D3FC57
:103E500050C04D2D4860B42E3196D701CC90DB2C4C
:103E6000C6CF2C2D2F7D253409F043C0A081AD3263
:103E700041F4BD2DB061DB2E7F0122E0E20EF11C8A
:103E80000CC07F01AB3231F04FEFE41AF40A21E0AD
:103E900030E006C0A2E0EA0EF11CA18122E030E091
:103EA000A053AA3018F0E21AF30A23C0F70120E069
:103EB00030E02038BCE03B075CF4A901440F551FFB
:103EC000440F551F240F351F220F331F2A0F311D9A
:103ED000AF014F5F5F4F7A01A081A053AA3010F469
:103EE000FA01E7CFD4FE03C0319521953109C20F05
:103EF000D31FD1FE09C00115110531F0E1E0EE1A22
:103F0000F108D801ED92FC920E94CB192D2D23705F
:103F1000233019F06B017C0106C06B017C01F7FABC
:103F2000F094F7F8F09420E030E0A901C701B60161
:103F30000E942B19882309F440C0D7FF06C0D195F1
:103F4000C195D1090EEA11E002C006EC11E048016A
:103F5000B8E18B1A910890E2A92EB12CF801459096
:103F6000559065907490CA15DB055CF0A301920131
:103F7000C701B6010E94B71B6B017C01CA19DB099E
:103F8000F2CF04501109B594A7940815190531F71B
:103F90008E2D880F8F2D881F8F3F49F020E030E055
:103FA000A901C701B6010E942B19811106C082E246
:103FB00090E090934B0480934A04C701B60109C076
:103FC00060E070E080E89FEF04C060E070E080ECAB
:103FD0009FE7DF91CF911F910F91FF90EF90DF90BE
:103FE000CF90BF90AF909F908F907F906F905F9099
:103FF0004F900895911198C2803219F089508550E0
:10400000D0F70895FB01DC014150504088F08D91BC
:1040100081341CF08B350CF4805E659161341CF0AA
:104020006B350CF4605E861B611171F3990B08957A
:10403000881BFCCFFB01DC0101900D920020E1F711
:104040000895FB01DC014150504048F001900D9271
:104050000020C9F701C01D9241505040E0F708957B
:10406000DC0199278D91882341F0FB01019008160E
:104070000110E1F7B9F71197CD0108950F931F9340
:10408000CF93DF93CDB7DEB72E970FB6F894DEBF90
:104090000FBECDBF0D891E8986E08C831A830983EC
:1040A0008FEF9FE79E838D83AE01475E5F4F6F89E1
:1040B000788DCE0101960E946D20EF81F885E00F8A
:1040C000F11F10822E960FB6F894DEBF0FBECDBF43
:1040D000DF91CF911F910F9108952F923F924F92B0
:1040E0005F926F927F928F929F92AF92BF92CF9288
:1040F000DF92EF92FF920F931F93CF93DF93CDB791
:10410000DEB72C970FB6F894DEBF0FBECDBF7C0193
:104110006B018A01FC0117821682838181FFBDC178
:10412000CE0101964C01F7019381F60193FD859133
:1041300093FF81916F01882309F4ABC1853239F473
:1041400093FD859193FF81916F01853229F4B70129
:1041500090E00E94AD22E7CF512C312C20E020329C
:10416000A0F48B3269F030F4803259F0833269F474
:1041700020612CC08D3239F0803339F4216026C0A3
:104180002260246023C0286021C027FD27C030EDB5
:10419000380F3A3078F426FF06C0FAE05F9E300D03
:1041A0001124532E13C08AE0389E300D1124332E73
:1041B00020620CC08E3221F426FD6BC1206406C043
:1041C0008C3611F4206802C0883641F4F60193FD64
:1041D000859193FF81916F018111C1CF982F9F7DB0
:1041E0009554933028F40C5F1F4FFFE3F9830DC003
:1041F000833631F0833771F0833509F05BC022C01C
:10420000F801808189830E5F1F4F44244394512C11
:10421000540115C03801F2E06F0E711CF801A08046
:10422000B18026FF03C0652D70E002C06FEF7FEF05
:10423000C5012C870E94A2222C0183012C852F7797
:10424000222E17C03801F2E06F0E711CF801A08019
:10425000B18026FF03C0652D70E002C06FEF7FEFD5
:10426000C5012C870E9497222C012C852068222EC4
:10427000830123FC1BC0832D90E048165906B0F43F
:10428000B70180E290E00E94AD223A94F4CFF501AC
:1042900027FC859127FE81915F01B70190E00E9484
:1042A000AD2231103A94F1E04F1A510841145104F3
:1042B00071F7E5C0843611F0893639F5F80127FF2A
:1042C00007C060817181828193810C5F1F4F08C09C
:1042D00060817181882777FD8095982F0E5F1F4F31
:1042E0002F76B22E97FF09C09095809570956195B5
:1042F0007F4F8F4F9F4F2068B22E2AE030E0A401FD
:104300000E94DF22A82EA81844C0853729F42F7EEA
:10431000B22E2AE030E025C0F22FF97FBF2E8F3673
:10432000C1F018F4883579F0B4C0803719F08837B7
:1043300021F0AFC02F2F2061B22EB4FE0DC08B2D07
:104340008460B82E09C024FF0AC09F2F9660B92E42
:1043500006C028E030E005C020E130E002C020E1E6
:1043600032E0F801B7FE07C06081718182819381DC
:104370000C5F1F4F06C06081718180E090E00E5F8E
:104380001F4FA4010E94DF22A82EA818FB2DFF7743
:10439000BF2EB6FE0BC02B2D2E7FA51450F4B4FEFD
:1043A0000AC0B2FC08C02B2D2E7E05C07A2C2B2D06
:1043B00003C07A2C01C0752C24FF0DC0FE01EA0D4C
:1043C000F11D8081803311F4297E09C022FF06C0CF
:1043D0007394739404C0822F867809F0739423FD3C
:1043E00013C020FF06C05A2C731418F4530C57182E
:1043F000732C731468F4B70180E290E02C870E945C
:10440000AD2273942C85F5CF731410F4371801C0C6
:10441000312C24FF12C0B70180E390E02C870E946A
:10442000AD222C8522FF17C021FF03C088E590E054
:1044300002C088E790E0B7010CC0822F867859F05F
:1044400021FD02C080E201C08BE227FD8DE2B701B1
:1044500090E00E94AD22A51438F4B70180E390E00B
:104460000E94AD225A94F7CFAA94F401EA0DF11DEF
:104470008081B70190E00E94AD22A110F5CF3320DA
:1044800009F451CEB70180E290E00E94AD223A9447
:10449000F6CFF7018681978102C08FEF9FEF2C96B0
:1044A0000FB6F894DEBF0FBECDBFDF91CF911F9145
:1044B0000F91FF90EF90DF90CF90BF90AF909F90C3
:1044C0008F907F906F905F904F903F902F900895C6
:1044D000DC01CB01FC01F999FECF06C0F2BDE1BDC4
:1044E000F89A319600B40D9241505040B8F70895B3
:1044F000F999FECF92BD81BDF89A992780B50895AC
:10450000A6E1B0E044E050E00C946A22262FF9992D
:10451000FECF1FBA92BD81BD20BD0FB6F894FA9AA6
:10452000F99A0FBE01960895992788270895FC01EE
:104530000590615070400110D8F7809590958E0FCE
:104540009F1F0895FC016150704001900110D8F741
:10455000809590958E0F9F1F08950F931F93CF9373
:10456000DF93182F092FEB018B8181FD03C08FEFA3
:104570009FEF20C082FF10C04E815F812C813D8162
:10458000421753077CF4E881F9819F012F5F3F4F69
:1045900039832883108306C0E885F985812F099522
:1045A000892B29F72E813F812F5F3F4F3F832E8339
:1045B000812F902FDF91CF911F910F910895FA01D4
:1045C000AA27283051F1203181F1E8946F936E7F52
:1045D0006E5F7F4F8F4F9F4FAF4FB1E03ED0B4E043
:1045E0003CD0670F781F891F9A1FA11D680F791F84
:1045F0008A1F911DA11D6A0F711D811D911DA11D95
:1046000020D009F468943F912AE0269F11243019A4
:10461000305D3193DEF6CF010895462F4770405D3F
:104620004193B3E00FD0C9F7F6CF462F4F70405DEE
:104630004A3318F0495D31FD4052419302D0A9F749
:10464000EACFB4E0A6959795879577956795BA9543
:10465000C9F700976105710508959B01AC010A2E09
:1046600006945795479537952795BA95C9F7620FE0
:10467000731F841F951FA01D08950E944823A59FA6
:10468000900DB49F900DA49F800D911D112408954D
:10469000A29FB001B39FC001A39F700D811D112483
:1046A000911DB29F700D811D1124911D0895F894E4
:0246B000FFCF3A
:1046B200010000004C042000244750524D4300EA00
:1046C20001EE01F201F601FA01FE01020206020AFE
:1046D200020E02120216021A021E022202260262B0
:1046E2006164206D616C6C6F630072656164696EF8
:1046F200670A64617461626173652E2E2E00666DB5
:104702004861726D6F6E790A005554433A20004E2B
:104712006F20475053204669782E2E2E0A0042659C
:104722002050617469656E742E2E2E0047505320FE
:104732004669783A0A00464D2053746174696F6E77
:10474200730A44617461626173650044454255476E
:104752002031004445425547203200434D473A201C
:10476200000A53706565643A20007570646174696B
:104772006E672E2E2E0A646F6E277420756E706C13
:1047820075670075706461746520636F6D706C6528
:1047920074650025640030002C004E2020004E4E2F
:1047A20045004E452000454E45004520200045531A
:1047B20045005345200053534500532020005353D6
:1047C2005700535720005753570057202000574E89
:1047D20057004E5720004E4E5700696D706F72742D
:1047E200696E6720000A73746174696F6E732E2E8E
:1047F2002E0072656164696E670A64617461626148
:104802007365202E2E2E004552524F523A0A746979
:104812006D656F7574202E2E2E000A75706461749A
:1048220065206661696C65640A00776970696E6704
:10483200200A6D656D6F72792E2E2E00757064617F
:1048420074652072657175697265640A2E2E2E6612
:10485200656564206D652E2E2E0046696E64696E54
:1048620067204E6561726573740A53746174696F6F
:104872006E2E2E2E00206B6D2C2000412E42656183
:10488200723A2000522E426561723A2000206B6E0D
:104892006F776E0A73746174696F6E730066726506
:1048A200713A20006C61743A20006C6F6E3A2000FD
:1048B2006572703A2000686161743A20004C61743C
:1048C2006573740A47505320446174613A004D6520
:1048D20073736167653A200054696D653A20004E32
:1048E20052573A20004C61743A20004C6F6E3A20C5
:1048F20000206B747300436F757273653A20004435
:104902006174653A20004D61675661723A20004D2C
:104912006F64653A2000436865636B73756D3A2076
:10492200005261770A47505320446174613A004D46
:104932006573736167650054696D65004E52570077
:104942004C6174004E2F53004C6F6E00452F570080
:10495200537065656400436F7572736500446174DA
:1049620065004D6167566172004D6F646500436872
:1049720065636B73756D0043616C63756C6174691B
:104982006E670A45617274682044697374616E636C
:1049920065730044656E766572202D3E204E594344
:1049A2003A0A00206B6D004E6F727468204B4320F0
:1049B2002D3E204B433A0A00434F52525550544920
:1049C2004F4E0A4445544543544544007472616352
:1049D200696E670A636F7272757074696F6E2E2EDC
:1049E2002E0073746174696F6E202300203A2000D8
:00000001FF
