:100000000C94E5000C9404010C9404010C9406017A
:100010000C9404010C9404010C9404010C9404014C
:100020000C9404010C9404010C9404010C9404013C
:100030000C9404010C9459010C9404010C940401D7
:100040000C9404010C9404010C9404010C9404011C
:100050000C94E2010C9404010C9404010C9404012E
:100060000C9404010C9404010C9404010C940401FC
:100070000C9485010C9404010C9404010C9404016B
:100080000C9404010C9404010C940401D315331650
:1000900082169916BF1614171717B70FBD0FC60F84
:1000A000D40FE50FF20FFA0F02100A1023112611D8
:1000B00029112C112F113211351138113B113E111C
:1000C0004111084AD73B3BCE016E84BCBFFDC12F16
:1000D0003D6C74319ABD56833DDA3D00C77F11BE39
:1000E000D9E4BB4C3E916BAAAABE000000803F053C
:1000F000A84CCDB2D44EB93836A9020C50B991866D
:1001000088083CA6AAAA2ABE000000803F0800007A
:1001100000BE922449123EABAAAA2ABECDCCCC4C3A
:100120003E00000080BEABAAAAAA3E00000000BFAD
:10013000000000803F0000000000084178D3BB436E
:1001400087D1133D190E3CC3BD4282AD2B3E68ECF6
:100150008276BED98FE1A93E4C80EFFFBE01C4FF7D
:100160007F3F000000000007634236B79BD8A71A04
:1001700039685618AEBAAB558C1D3CB7CC5763BD29
:100180006DEDFD753EF6177231BF000000803F4EE9
:10019000414E494E495459494E46CDCCCC3D0AD7E3
:1001A000233C17B7D13877CC2B329595E6241FB175
:1001B0004F0A000020410000C84200401C4620BCFD
:1001C000BE4CCA1B0E5AAEC59D7411241FBECFEF84
:1001D000D0E4DEBFCDBF14E0A0E0B1E0EEE8F5E48E
:1001E00000E00BBF02C007900D92A835B107D9F708
:1001F00014E0A8E5B4E001C01D92A436B107E1F710
:100200000E9458150C94C5220C9400001F920F9266
:100210000FB60F9211240BB60F922F933F934F936B
:100220005F936F937F938F939F93AF93BF93EF935E
:10023000FF93E0915C04F0915D04DF01AF5FBE4F7E
:100240008D919C91892B11F184819581892BF1F4F9
:100250008085918501969187808780859185059716
:1002600014F011861086CF010E94E50CE0915C0429
:10027000F0915D04EF5FFE4F118210828091840047
:10028000909185001092850010928400FF91EF916B
:10029000BF91AF919F918F917F916F915F914F919E
:1002A0003F912F910F900BBE0F900FBE0F901F909C
:1002B00018951F920F920FB60F9211240BB60F9242
:1002C0008F939F93EF93FF9380918400909185008B
:1002D0001092850010928400E0915C04F0915D041E
:1002E000EF5FFE4F80819181892B21F481E090E0C6
:1002F00091838083FF91EF919F918F910F900BBE1F
:100300000F900FBE0F901F9018951F920F920FB66F
:100310000F9211240BB60F922F933F934F935F933D
:100320006F937F938F939F93AF93BF93EF93FF93BD
:1003300080915C0490915D04FC01EF56FF4F208199
:10034000DC01AE56BF4F2C93DC01A057BF4F2C9160
:1003500020832091CE002C93FC012085318526300E
:10036000310561F4E157FF4F30812C91DC01A30F7F
:10037000B11D1E962C9320812F5F20830E943C0E7E
:10038000E0915C04F0915D04892B21F086E090E01F
:1003900091878087E157FF4F808187FD1082FF9111
:1003A000EF91BF91AF919F918F917F916F915F91ED
:1003B0004F913F912F910F900BBE0F900FBE0F905A
:1003C0001F9018951F920F920FB60F9211240BB623
:1003D0000F922F933F934F935F936F937F938F93DE
:1003E0009F93AF93BF93EF93FF9380915C049091A1
:1003F0005D04FC01ED56FF4F208131812035310530
:100400007CF020E030E0DC01A20FB31FAB56BF4F01
:100410001C922F5F3F4F20353105A9F711821082C2
:10042000208131814091C600280F391FD901AB5678
:10043000BF4F4C93208131812F5F3F4F3183208309
:10044000A081B181A80FB91FAC56BF4F2C912432A7
:10045000B1F421E030E0DC01A20FB31FAB56BF4F77
:100460001C922F5F3F4F20353105A9F724E2DC01B4
:10047000AB56BF4F2C9321E030E0318320830190B5
:10048000F081E02DE80FF91FEC56FF4F20812D3051
:1004900081F40E945E05892B61F00E94650DE09158
:1004A0005C04F0915D04E150FF4F81E090E09183A6
:1004B0008083FF91EF91BF91AF919F918F917F9139
:1004C0006F915F914F913F912F910F900BBE0F90C5
:1004D0000FBE0F901F901895129A81EE94E001972D
:1004E000F1F700C00000129808951092590410927C
:1004F000580481E090E0909301018093000181B164
:100500008FEF81B987E893E10197F1F700C0000010
:1005100012981098119816981598149A139A0E9488
:100520006C0281EE94E00197F1F700C000000E9498
:100530006C0289EF90E00197F1F700C000000E9483
:100540006C0289EF90E00197F1F700C00000169867
:100550001598149A13980E946C0289EF90E0019705
:10056000F1F700C0000016981598149A13980E948D
:100570006C0289EF90E00197F1F700C00000169A35
:100580001598149813980E946C0289EF90E00197D7
:10059000F1F700C0000016981598149813980E945F
:1005A0006C0289EF90E00197F1F700C00000169A05
:1005B000159A149A13980E946C0289EF90E00197A3
:1005C000F1F700C0000016981598149813980E942F
:1005D0006C0289EF90E00197F1F700C000001698D7
:1005E00015981498139A0E946C0289EF90E0019775
:1005F000F1F700C0000016981598149813980E94FF
:100600006C0289EF90E00197F1F700C000001698A6
:10061000159A149A13980E946C0289EF90E0019742
:10062000F1F700C0000016981598149813980E94CE
:100630006C0289EF90E00197F1F700C00000169A74
:10064000159A149A139A0E946C0289EF90E0019710
:10065000F1F700C0000080E090E00895019711F4E8
:10066000169A01C016986130710511F4159A01C0EF
:1006700015984130510511F4149A01C01498213095
:10068000310511F4139A01C013980E946C0289EF8E
:1006900090E00197F1F700C0000008951F93CF93F9
:1006A000DF9381B1877881B91098119A129A81EEFF
:1006B00094E00197F1F700C0000012B182B1C2B11D
:1006C000A2B11298E9EFF0E03197F1F700C0000015
:1006D000129AE1EEF4E03197F1F700C00000E2B1C8
:1006E00062B142B152B1807290E026E0880F991F4A
:1006F0002A95E1F7C071D0E035E0CC0FDD1F3A95C7
:10070000E1F78C2B9D2B5870852BA870B0E054E03E
:10071000AA0FBB1F5A95E1F78A2B9B2BE074F0E0E0
:1007200073E0EE0FFF1F7A95E1F78E2B9F2B60721F
:1007300070E0660F771F660F771F862B972B129836
:1007400051B1586751B910981198407150E0440F59
:10075000551F842B952B16FB222720F930E0369568
:10076000322F222737952795822B932BDF91CF911C
:100770001F9108950E944E038F779927019608953F
:10078000892B11F4169801C0169A672B11F415984D
:1007900001C0159A452B11F4149801C0149A232B0B
:1007A00011F413980895139A0895CF93DF93EC01F1
:1007B00010981198282F2295217085FB442740F925
:1007C00086FB662760F930E050E070E081E090E061
:1007D0000E94C0030E946C029E01217033274C2F9F
:1007E00046954170C2FB662760F950E070E0C3FB9C
:1007F000882780F990E00E94C003DF91CF910C948C
:100800006C02CF93C82F109A119884FB222720F9ED
:1008100085FB442740F986FB662760F9881F8827F7
:10082000881F30E050E070E090E00E94C0030E941A
:100830006C022C2F2170C1FB442740F9C2FB6627B4
:1008400060F930E050E070E0C3FB882780F990E069
:100850000E94C003CF910C946C02CF93C82F2091BB
:100860005804309159042F5F3F4F3093590420931F
:1008700058042131310531F08A3021F08C2FCF918D
:100880000C940104209100013091010121303105C7
:1008900079F480E490E00E94D50322E030E03093C8
:1008A000010120930001109259041092580405C0D0
:1008B0002230310511F40E947502CA30F9F6CF9149
:1008C00008950F931F93CF93DF93EC010E94BA0317
:1008D0008E01FE0101900020E9F73197EC1BFD0B22
:1008E000C8018C1B9D0B8E179F0740F4F801819166
:1008F0008F010E942D040E94BA03EBCFDF91CF91AC
:100900001F910F9108950F931F93CF93DF93182F8B
:10091000092FCB010E94C41CEC01009751F40E94E6
:1009200075028FE291E0DF91CF911F910F910C94AE
:1009300061040F931F9383EE91E09F938F93DF9356
:10094000CF930E94AC1FCE010E9461040F900F90C4
:100950000F900F900F900F90CE01DF91CF911F91CC
:100960000F910C945C1DCF92DF92EF92FF920F9348
:100970001F93CF93DF9300D000D0CDB7DEB78A01AD
:10098000AE014F5F5F4F0E94F21A6B017C016981DB
:100990007A818B819C810E940819DC01CB0164E083
:1009A00070E00E94830485E592E00E946104B80132
:1009B000882777FD8095982F0E943B199B01AC01F9
:1009C00060E070E080E291E40E94881B9B01AC0132
:1009D000C701B6010E94251B0E94D41B0E94081962
:1009E0007B0177FF04C0EE24FF24E61AF70AE11426
:1009F000F104A1F0B701882777FD8095982F0E9418
:100A00003B190E94A71A0E94761920E030E040E8C6
:100A10005FE30E94D3170E94081902C060E070E0F3
:100A2000C12CD12C061B170BC016D10644F486EE40
:100A300091E00E9461048FEFC81AD80AF5CF64E0F4
:100A400070E0C7010F900F900F900F90DF91CF9142
:100A50001F910F91FF90EF90DF90CF900C94830443
:100A6000CF92DF92EF92FF920F931F93CF93DF937A
:100A70008C016B010E94BA037801C0E0D0E0CC1574
:100A8000DD059CF4F80101900020E9F73197E01BA7
:100A9000F10BCE17DF0748F4F70181917F010E9427
:100AA0002D040E94BA032196EACFDF91CF911F91C6
:100AB0000F91FF90EF90DF90CF900895CF93DF9349
:100AC00000D000D000D0CDB7DEB726E0E8E0F1E0FE
:100AD000DE01119601900D922A95E1F7FE01319603
:100AE00020E030E0DC01A20FB31FAB56BF4F5C919A
:100AF0004191541308C02F5F3F4F2630310591F7C5
:100B000081E090E002C080E090E026960FB6F89475
:100B1000DEBF0FBECDBFDF91CF910895CF93DF939E
:100B2000009721F090935B0480935A04C0915A047B
:100B3000D0915B04209769F0CE010E949E1F009720
:100B400041F0FC011192F0935B04E0935A04CE0152
:100B500002C080E090E0DF91CF9108958F929F9244
:100B6000AF92BF92CF92DF92EF92FF920F931F93BB
:100B7000CF93DF9300D000D000D0CDB7DEB76C01AB
:100B8000CB015A0120E030E0D501ED91FC91E20F5C
:100B9000F31F10822F5F3F4F20313105A9F768EE18
:100BA00071E00E948E054C0186E0E8E0F1E0DE0194
:100BB000119601900D928A95E1F7F501808191815E
:100BC00046E050E0BE016F5F7F4F0E948F1F00E044
:100BD00010E0892829F10C30110511F10F5F1F4F2A
:100BE0007801EE0CFF1CEA0CFB1C20E030E0D70182
:100BF000ED91FC91E20FF31F10822F5F3F4F2031E8
:100C00003105A9F768EE71E080E090E00E948E0562
:100C10004C01F70180819181B4010E94881FD9CFD6
:100C200020E030E0F601E20FF31FEB56FF4F108299
:100C30002F5F3F4F20353105A9F7F601ED56FF4FE5
:100C40001182108280E090E026960FB6F894DEBF05
:100C50000FBECDBFDF91CF911F910F91FF90EF900D
:100C6000DF90CF90BF90AF909F908F900895FC0140
:100C70009F01281B390B2617370714F41192F8CF60
:100C80000895AF92BF92CF92DF92EF92FF921F939F
:100C9000CF93DF93CDB7DEB727970FB6F894DEBFBB
:100CA0000FBECDBF5C01162FFC018081992787FD07
:100CB0009095C0972AE0289FB001299F700D1124BC
:100CC0008181992787FD9095C097680F791F8827A4
:100CD00077FD8095982F0E943B196B017C01B5012F
:100CE0006E5F7F4F47E050E0CE0101960E948F1F5C
:100CF00060E070E0CE0101960E94EB1D20E030E044
:100D000040E752E40E94A0189B01AC01C701B60164
:100D10000E94D317133509F4905827960FB6F8940C
:100D2000DEBF0FBECDBFDF91CF911F91FF90EF903F
:100D3000DF90CF90BF90AF900895AF92BF92CF92C7
:100D4000DF92EF92FF921F93CF93DF93CDB7DEB781
:100D500027970FB6F894DEBF0FBECDBF5C01162FEC
:100D6000FC018081992787FD9095C09724E6289FF4
:100D7000B001299F700D11248181992787FD9095DD
:100D8000C0974AE0489F9001499F300D1124620F9F
:100D9000731F8281992787FD9095C097680F791FEF
:100DA000882777FD8095982F0E943B196B017C0165
:100DB000B5016D5F7F4F47E050E0CE0101960E9484
:100DC0008F1F60E070E0CE0101960E94EB1D20E0D5
:100DD00030E040E752E40E94A0189B01AC01C7013B
:100DE000B6010E94D317173509F4905827960FB60D
:100DF000F894DEBF0FBECDBFDF91CF911F91FF9062
:100E0000EF90DF90CF90BF90AF900895AF92BF92D8
:100E1000CF92DF92EF92FF920F931F93CF93DF93C6
:100E2000CDB7DEB7A0970FB6F894DEBF0FBECDBF2B
:100E30005C018B0180E2EFE0F1E0DE0111960190B0
:100E40000D928A95E1F768E070E0C8010E943706CC
:100E5000D5016D917C91C8010E94881F68E070E007
:100E6000C80108960E943706D5011296ED91FC91B3
:100E700013978081F80180871296ED91FC9113976A
:100E80008181D80119968C9319978AE31A968C93CD
:100E9000D5011296ED91FC9113979281F8019387F9
:100EA0001296ED91FC9113979381D8011C969C9317
:100EB0001C971D968C93D5011296ED91FC9113977A
:100EC0008481F80186871296ED91FC9113978581B4
:100ED000D8011F968C93D5011496ED91FC9115972E
:100EE0008081F801808B118A128A138A148AD501B5
:100EF0001896ED91FC91199716968D919C911797E4
:100F000060810E9441066B017C0120E030E044EBEF
:100F100052EC0E949C1A87FD0FC020E030E044EBA9
:100F200052E4C701B6010E94991818162CF0F80176
:100F3000C18AD28AE38AF48AD80155961D921D92FD
:100F40001D921C925897D5011C96ED91FC911D970E
:100F50001A968D919C911B9760810E949D066B0152
:100F60007C0120E030E044E353EC0E949C1A87FDB2
:100F70000FC020E030E044E353E4C701B6010E9413
:100F8000991818162CF0F801C58AD68AE78AF08ECF
:100F9000D80159961D921D921D921C925C97F501E5
:100FA0008685978560E070E00E94EB1DD801599618
:100FB0006D937D938D939C935C97F801158E168E9F
:100FC000178E10A2D50150968D919C91519760E09B
:100FD00070E00E94EB1DF801658F768F878F90A3DC
:100FE00068E070E0C80181960E943706D5015296EC
:100FF000ED91FC9153978281F80181A35296ED9176
:10100000FC9153978381D80192968C9392978FE2AB
:1010100093968C93D5015296ED91FC9153979081C4
:10102000F80194A35296ED91FC9153979181D801C8
:1010300095969C93959796968C93D5015296ED91A3
:10104000FC9153978481F80187A35296ED91FC910E
:1010500053978581D80198968C937801B9E2EB0E6D
:10106000F11C68E070E0C7010E943706F501648951
:101070007589C7010E94881FD5015896ED91FC9192
:1010800059978081F80181AB63E070E0C801C29696
:101090000E943706D5015896ED91FC9159978181B0
:1010A000F80182AB5896ED91FC9159978281D80155
:1010B000D3968C93D5015896ED91FC9159978381E5
:1010C000F80184AB20E030E044EB53E4658D768D8D
:1010D000878D90A10E94A01820E030E040E851E404
:1010E0000E94251B6B017C0120E030E040E05FE3C3
:1010F0000E949918005C1F4F181654F420E030E04D
:1011000048E751E4C701B6010E949C1A87FD03C05D
:1011100069817A8115C020E030E040E05FE3C701DB
:10112000B6010E94D3170E940819FB01EE0FFF1FA2
:1011300081E090E08C0F9D1FE80FF91F60817181A5
:1011400043E050E0C801A0960FB6F894DEBF0FBE92
:10115000CDBFDF91CF911F910F91FF90EF90DF9066
:10116000CF90BF90AF900C948F1F4F925F926F9271
:101170007F928F929F92AF92BF92CF92DF92EF9227
:10118000FF920F931F93CF93DF93CDB7DEB7E09716
:101190000FB6F894DEBF0FBECDBF8C015B0180E2BD
:1011A000EFE0F1E0DE01119601900D928A95E1F7F2
:1011B0002BED3FE049E450E4F801618972898389AD
:1011C00094890E94251B20E030E044E353E40E9410
:1011D000A0186B017C01F501248135814CE1429F0F
:1011E000C001439F900D112460807180680E791EAC
:1011F0002BED3FE049E450E4F30164857585868575
:1012000097850E94251B20E030E044E353E40E94D0
:10121000A0184B015C012BED3FE049E450E4F301E1
:1012200060897189828993890E94251B20E030E0C2
:1012300044E353E40E94A0182B013C012BED3FE056
:1012400049E450E4F801658976898789908D0E9488
:10125000251B20E030E044E353E40E94A0189B01EA
:10126000AC01C301B2010E94D21769A37AA38BA378
:101270009CA30E94F41B6DA37EA38FA398A7C50116
:10128000B4010E949D182B013C01C701B6010E94C8
:101290009D1869A77AA78BA79CA7C501B4010E94D6
:1012A000F41B9B01AC01C701B6012DA73EA74FA7B8
:1012B00058AB0E94F41B6B017C0169A17AA18BA140
:1012C0009CA10E949D1869A37AA38BA39CA32DA522
:1012D0003EA54FA558A969A57AA58BA59CA50E94F6
:1012E000251B4B015C01A3019201C701B6010E94BD
:1012F000251B29A13AA14BA15CA10E94251B9B01A2
:10130000AC01C501B4010E94D2176B017C01A3019D
:1013100092016DA17EA18FA198A50E94251BA70116
:1013200096010E94461820E030E044E353E40E9416
:10133000251B2BED3FE049E450E40E94A0186B010F
:101340007C0120E030E0A9010E94991887FF0AC0C3
:1013500020E030E044EB53E4C701B6010E94D3170C
:101360006B017C01F801C5AAD6AAE7AAF0AE258DCB
:10137000368D478D50A1C701B6010E94D2174B018F
:101380005C0120E030E0A9010E94991887FD06C0A9
:10139000F80181AE92AEA3AEB4AE0DC020E030E055
:1013A00044EB53E4C501B4010E94D317F80161AFC7
:1013B00072AF83AF94AF20E030E044EB53E4C70159
:1013C000B6010E94A01820E030E040E851E40E94FD
:1013D000251B6B017C0120E030E040E05FE30E94D0
:1013E0009918035C1F4F181654F420E030E048E7CA
:1013F00051E4C701B6010E949C1A87FD03C06981B0
:101400007A8115C020E030E040E05FE3C701B6011B
:101410000E94D3170E940819FB01EE0FFF1F81E005
:1014200090E08C0F9D1FE80FF91F6081718143E0F0
:1014300050E0C8010E948F1F81E090E0E0960FB657
:10144000F894DEBF0FBECDBFDF91CF911F910F91FA
:10145000FF90EF90DF90CF90BF90AF909F908F90D4
:101460007F906F905F904F9008954F925F926F9230
:101470007F928F929F92AF92BF92CF92DF92EF9224
:10148000FF920F931F93CF93DF93CDB7DEB7609793
:101490000FB6F894DEBF0FBECDBF2B013C012987EC
:1014A0003A874B875C87E982FA820B831C839B0116
:1014B000AC01C801B7010E94D2172BED3FE049E40F
:1014C00050E40E94251B20E030E044E353E40E94F6
:1014D000A01820E030E040E05FE30E94251B0E945E
:1014E000F41B6D837E838F8398872BED3FE049E467
:1014F00050E4C301B2010E94251B20E030E044E328
:1015000053E40E94A0180E949D182B013C012BED72
:101510003FE049E450E4C801B7010E94251B20E0E8
:1015200030E044E353E40E94A0180E949D186983B0
:101530007A838B839C8329853A854B855C85C6019C
:10154000B5010E94D2172BED3FE049E450E40E9420
:10155000251B20E030E044E353E40E94A01820E083
:1015600030E040E05FE30E94251B0E94F41B4B012A
:101570005C012D813E814F815885CA01B9010E94CD
:10158000251B6B017C0129813A814B815C81C30160
:10159000B2010E94251BA50194010E94251BA501F3
:1015A00094010E94251B9B01AC01C701B6010E945A
:1015B000D3176B017C019B01AC0160E070E080E817
:1015C0009FE30E94D2170E94FE1B9B01AC01C70142
:1015D000B6012D873E874F87588B0E94FE1B2D85B5
:1015E0003E854F8558890E9446189B01AC010E9498
:1015F000D31720E038E147EC55E40E94251B6096A4
:101600000FB6F894DEBF0FBECDBFDF91CF911F9113
:101610000F91FF90EF90DF90CF90BF90AF909F9091
:101620008F907F906F905F904F9008952F923F9290
:101630004F925F926F927F928F929F92AF92BF92E2
:10164000CF92DF92EF92FF920F931F93CF93DF938E
:10165000CDB7DEB72C970FB6F894DEBF0FBECDBF67
:101660007E836D8329013A01EF82F88609871A8704
:101670009A8389831C861B862FEF2B833FEF3C8345
:10168000212C312C30E8832E4FEB942E8B859C85BA
:10169000ED81FE818E179F07F4F5E981FA81A0881C
:1016A000B188C288D388E484F584068517852F81A4
:1016B000388549855A85C301B2010E94350A7B01EC
:1016C0008C019101A4010E94991887FD0DC020E0B2
:1016D00030E040E85FEBB101C4010E949918882313
:1016E00041F07101840109C0FB85FB832C852C83AB
:1016F00004C03B853B838C858C83EB85FC853196D0
:10170000FC87EB8729813A81245E3F4F3A83298306
:1017100017014801BBCF8B819C812C960FB6F894A2
:10172000DEBF0FBECDBFDF91CF911F910F91FF9014
:10173000EF90DF90CF90BF90AF909F908F907F9071
:101740006F905F904F903F902F900895AF92BF920F
:10175000CF92DF92EF92FF920F931F93ECE1E49F01
:101760009001E59F300D1124620F731FFB01A088CB
:10177000B188C288D388E484F58406851785FC0186
:10178000258936894789508D618972898389948931
:101790000E94350A1F910F91FF90EF90DF90CF903C
:1017A000BF90AF9008952BED3FE049E450E40E94D4
:1017B000251B20E030E044E353E40E94A018089584
:1017C00020E030E044E353E40E94251B2BED3FE092
:1017D00049E450E40E94A0180895CF93DF93EC01F0
:1017E000FC0180E090E02191222369F10196843090
:1017F0009105C9F780E090E0FE01E80FF91F208510
:10180000222309F1019684309105B1F720E030E000
:10181000A90169897A898B899C890E9499188823F2
:1018200091F020E030E0A9016D897E898F89988D43
:101830000E949918882339F081E090E02AA92A3281
:1018400021F080E002C080E090E0DF91CF91089528
:101850000E94E62190E008950C94E6210C94EE217C
:101860000C94D621CF92DF92EF92FF920F931F93A9
:10187000CF93DF938C0180E090E00E94E62190E01E
:10188000F8018F3F910519F09383828302C0138280
:101890001282FFE926E841E0F15020404040E1F7A4
:1018A00000C000000E9475028AE292E00E9461047A
:1018B00063E070E0F801828193810E94830485E3F4
:1018C00092E00E946104F801828193812CE1AC01D5
:1018D000249FC001259F900D11240E94C41CF80173
:1018E00091838083892B29F0C0E0D0E0C12CD12CDA
:1018F00009C00E9475028FE291E00E94610480E0BD
:1019000090E04CC0F80182819381C816D9060CF092
:1019100043C0BE016F5F7F4FF8018081918148E035
:1019200050E08C0F9D1F0E94D621F801E080F180CD
:10193000EC0EFD1ECE0109960E94EE21F701608794
:10194000718782879387CE010D960E94EE21F70161
:101950006487758786879787CE0141960E94EE211E
:10196000F701608B718B828B938BCE0145960E9421
:10197000EE21F701648B758B868B978BCE01499690
:101980000E94EE21F701608F718F828F938FFFEF9E
:10199000CF1ADF0A6C96B6CF81E090E0DF91CF914D
:1019A0001F910F91FF90EF90DF90CF900895CF930C
:1019B000DF93EC01888199810E945C1D1982188255
:1019C00081E090E0DF91CF910895FC0180859185C1
:1019D00082309105B9F044F4009781F00197D9F471
:1019E000299A85B1867F19C08330910579F00497D3
:1019F00091F485B18A6085B928980895289A85B1AF
:101A0000857F0BC02B9A85B18C7F07C085B1836021
:101A100085B92B98089585B18B6085B9089510928A
:101A2000CD008CE08093CC001092C5008093C40060
:101A3000E9ECF0E08081886D8083E1ECF0E080816A
:101A4000886D8083E8ECF0E0808182608083E0EC48
:101A5000F0E0808182608083EAECF0E080818E603B
:101A60008083E2ECF0E08081866080830895E9E67F
:101A7000F0E080818062808380818F7E8083EA9A1B
:101A800022982A9A84B18B6084B9289AE0E8F0E021
:101A900080818F738083E1E8F0E0808185608083BE
:101AA00080818D7F8083E9E8F0E080811082E8E822
:101AB000F0E080818FEF808380818A778083EFE6FA
:101AC000F0E08081826080830895E1ECF0E0808125
:101AD000877280830895E1ECF0E08081886D8083D7
:101AE00008950F931F93CF93DF93EC018FEF84B989
:101AF000F8940E940F0D0E94370D0E946B0D789490
:101B00000E9475022FE38DE093E0215080409040C9
:101B1000E1F700C00000188219821A821B821D8220
:101B20001C821F821E82198618861B861A8684E2F2
:101B30008C878EE58D87FE01E257FF4F1082FE01F4
:101B4000E157FF4F1082FE01E150FF4F11821082DA
:101B5000FE01EF5FFE4F81E090E091838083FE0104
:101B6000E057FF4F8BE48083FE01EF56FF4F8083E9
:101B7000FE01EE56FF4F8083FE01ED56FF4F1182AE
:101B8000108280E090E0FE01E80FF91F16860196B2
:101B900080389105C1F780E090E0FE01E80FF91F61
:101BA000EB56FF4F1082019680359105B1F700E0AA
:101BB00010E080E190E00E94C41CF801EE0FFF1FCE
:101BC000EC0FFD1FEB51FF4F91838083808191814A
:101BD000892B49F40E9475028FE291E00E94610412
:101BE00080E090E014C080E090E0DF01ED91FC9196
:101BF0001197E80FF91F1082019680319105B1F716
:101C00000F5F1F4F0D301105A1F681E090E0DF91CD
:101C1000CF911F910F910895EF92FF920F931F9311
:101C2000CF93DF937B01EC01C150DF4F28813981D5
:101C3000232BD9F0FC01ED56FF4F0190F081E02DF0
:101C4000E80FF91FEC56FF4F2CE220838C010B515B
:101C50001F4FBC016B567F4FA8010E94AE05B70114
:101C6000C8010E94060719821882DF91CF911F9147
:101C70000F91FF90EF900895FC01DC01A057BF4F3A
:101C80009C918485981312C0DF01AF56BF4F9C9181
:101C9000848598130BC0DF01AE56BF4F3C9124855D
:101CA00081E090E0321721F080E0089580E090E03C
:101CB0000895FC01DC01A057BF4F9C9185859813C6
:101CC00012C0DF01AF56BF4F9C91858598130BC0A2
:101CD000DF01AE56BF4F3C91258581E090E0321781
:101CE00021F080E0089580E090E00895FC01E25743
:101CF000FF4F2081DC01A20FB11D1E968C919081B7
:101D00009F5F9083908197FD10820895FC01E257B8
:101D1000FF4F3081DC01A157BF4F2C91321731F0BA
:101D20002081FC01E20FF11D8685089580E0089571
:101D30000F931F93CF93DF93FC018B01EA01118670
:101D400010861582148210821182128213820E94E0
:101D50007502209719F482E492E002C087E592E0D0
:101D60000E946104C8010E94320C2FE38DE093E0D1
:101D7000215080409040E1F700C00000219721F4FD
:101D80008AE692E00E9461042FE986E891E0215002
:101D900080409040E1F700C0000081E090E0DF91DA
:101DA000CF911F910F910895EF92FF920F931F9380
:101DB000CF93DF937C018A01E9012F3F8FEF380732
:101DC00051F4FB01828193812CE1289FE001299F3E
:101DD000D00D112421960E9475020C171D07CCF41A
:101DE000F70120853185828593852817390789F485
:101DF000C8010E942C0C811101C08FE30E942D04A8
:101E000087EA91E60197F1F700C000000F5F1F4FCE
:101E1000E4CFDF91CF911F910F91FF90EF90089544
:101E2000DF92EF92FF920F931F93CF93DF938C017A
:101E30007B01C0E0D0E03CE1D32EF7012281338169
:101E4000D29EC001D39E900D1124C817D907C4F4A7
:101E5000F80120853185828593852817390781F41B
:101E60002196CE010E942C0C811101C08FE30E94AB
:101E70002D0487EA91E60197F1F700C00000DDCF5D
:101E8000DF91CF911F910F91FF90EF90DF90089518
:101E9000CF93DF93EC010E9475028AE792E00E94E3
:101EA0006104288539858A859B8528173907C9F3F8
:101EB000DF91CF9108956F927F928F929F92AF9210
:101EC000BF92CF92DF92EF92FF920F931F93CF9327
:101ED000DF937C01EB01FC012085318582859385B0
:101EE0002817390709F0B6C00E94750288E992E008
:101EF0000E946104FFE32DE083E0F1502040804028
:101F0000E1F700C000000E94750200E010E03E0111
:101F100098E0690E711C6E01E2E3CE0ED11C5E01E9
:101F2000F9E2AF0EB11C4E0121E2820E911C0115A7
:101F3000110569F08CE691E00E946104F801329786
:101F4000E930F10560F4E35BFF4F0C94BE1C89EAB5
:101F500092E00E94610468E070E0CE0162C083EB11
:101F600092E00E94610468E070E0C3015AC08AEB0D
:101F700092E00E94610488894AC080EC92E00E944D
:101F8000610469897A898B899C8908C086EC92E012
:101F90000E9461046D897E898F89988D44E050E0AC
:101FA0000E94B3048FED33C082EB91E00E94610484
:101FB000698D7A8D8B8D9C8D41E050E00E94B30439
:101FC0008CEC92E00E9461042EC081ED92E00E94B0
:101FD00061046D8D7E8D8F8D98A141E050E00E944F
:101FE000B30421C08AED92E00E94610468E070E0D1
:101FF000C40117C081EE92E00E94610468E070E0C5
:10200000C5010FC08AEE92E00E94610489A90E9476
:102010002D0409C081EF92E00E94610463E070E04A
:10202000C6010E9430058FE39DE0E3E081509040BF
:10203000E040E1F700C00000F7012085318582858E
:1020400093852817390731F40F5F1F4F0B301105A7
:1020500009F06DCFDF91CF911F910F91FF90EF901D
:10206000DF90CF90BF90AF909F908F907F906F90B8
:1020700008950F931F93CF93DF938C01EB01FC0125
:1020800020853185828593852817390709F0A0C0FE
:102090000E9475028AED92E00E94610468E070E09F
:1020A000CE0181960E9430058AE00E942D0489E5C8
:1020B00091E00E94610468E070E0CE0108960E9401
:1020C0003005FFEB27E289E0F15020408040E1F746
:1020D00000C00000F801208531858285938528178E
:1020E000390709F075C00E94750280EC92E00E94E9
:1020F000610469897A898B899C8944E050E00E9457
:10210000B3048FED0E942D048AE00E942D0486EC1A
:1021100092E00E9461046D897E898F89988D44E0E8
:1021200050E00E94B3048FED0E942D04FFEB27E2E4
:1021300089E0F15020408040E1F700C00000F80144
:1021400020853185828593852817390709F040C09D
:102150000E9475028BEA91E00E9461046D8D7E8D74
:102160008F8D98A141E050E00E94B3048FED0E9452
:102170002D048CEF91E00E946104FE01E05CFF4FB2
:1021800080810E942D04FE01EF5BFF4F80810E9441
:102190002D04FE01EE5BFF4F80810E942D0481EB38
:1021A00091E00E946104698D7A8D8B8D9C8D41E058
:1021B00050E00E94B3048CEC92E00E946104FFEBBB
:1021C00027E289E0F15020408040E1F700C00000A4
:1021D000DF91CF911F910F9108950F931F93CF938C
:1021E000DF938C01FC01208531858285938528173A
:1021F000390709F070C00E9475028CEF92E00E94CE
:102200006104FFE32DE083E0F15020408040E1F7DE
:1022100000C000000E947502C0E0D0E0209769F085
:102220008CE691E00E946104FE013297EB30F105EB
:1022300038F4EA5AFF4F0C94BE1C8AE093E023C0A6
:1022400082E193E020C087E193E01DC08BE193E041
:102250001AC08FE193E017C083E293E014C087E2D5
:1022600093E011C08BE293E00EC081E393E00BC0DA
:1022700088E393E008C08DE393E005C084E493E035
:1022800002C089E493E00E94610485E594E00E9425
:102290006104CE01880F991F800F911FFC01EB5143
:1022A000FF4F808191810E9461049FE9E6E8F1E09F
:1022B0009150E040F040E1F700C00000F8012085B7
:1022C0003185828593852817390729F42196CD30E9
:1022D000D10509F0A3CFDF91CF911F910F91089500
:1022E0000F931F93CF93DF938C010E94750282E5B9
:1022F00093E00E946104C0E0D0E0F80120853185C0
:10230000828593852817390749F46FEFCE010E9423
:10231000F4212196C13FFAE0DF0779F7DF91CF91F1
:102320001F910F910895EF92FF920F931F93CF93F8
:10233000DF938C018CE1869F7001879FF00C112444
:10234000C0E0D0E0D801ED91FC91EE0DFF1DEC0F47
:10235000FD1F80810E942D042196C830D10591F780
:10236000DF91CF911F910F91FF90EF900895CF9241
:10237000DF92EF92FF920F931F93CF93DF93EC01C5
:102380007B01288539858A859B852817390709F0BF
:102390004DC00E94750263E070E0F7018281938175
:1023A0000E94830484E693E00E946104FFE72AE12F
:1023B00086E0F15020408040E1F700C000000E941C
:1023C00075028AE00E942D0400E010E0F70182818E
:1023D00093810817190754F5288539858A859B85C7
:1023E0002817390719F58AE00E942D0468019FEF2C
:1023F000C91AD90A63E070E0C6010E94830485E52A
:1024000094E00E946104B801C7010E9493112885DD
:1024100039858A859B852817390741F4E3E2F4EF73
:102420003197F1F700C000008601D0CFDF91CF9146
:102430001F910F91FF90EF90DF90CF900895AF9292
:10244000BF92CF92DF92EF92FF920F931F93CF93A1
:10245000DF935C01EB016A01FC01208531858285F7
:1024600093852817390709F0B2C00E94750284E7E6
:1024700093E00E946104FFE72AE186E0F1502040EA
:102480008040E1F700C000000E947502F601E58877
:10249000F6880789108D21893289438954896A8198
:1024A0007B81888199810E94160B9D838C83BE015C
:1024B000C6010E94B5086C817D81CE010E949311F6
:1024C0008CEF91E00E9461042C813D814CE1429FA0
:1024D000C001439F900D1124E881F981E80FF91F95
:1024E000608571858285938541E050E00E94B30448
:1024F0008CE691E00E9461044C815D816881798164
:10250000C6010E94A60B41E050E00E94B3048FE890
:1025100093E00E946104F60185AD0E942D04F6014E
:1025200086AD0E942D04F60187AD0E942D04F501B1
:1025300020853185828593852817390709F047C0A2
:10254000FFE322E48FE0F15020408040E1F700C03B
:102550000000F5012085318582859385281739078C
:10256000B1F50E94750285E993E00E946104F601CD
:1025700065A976A987A990AD41E050E00E94B30417
:102580008FED0E942D048AE00E942D048EE993E0D5
:102590000E946104F60161AD72AD83AD94AD41E07E
:1025A00050E00E94B3048FED0E942D04F5012085B8
:1025B0003185828593852817390749F4FFE322E4A2
:1025C0008FE0F15020408040E1F700C00000DF9133
:1025D000CF911F910F91FF90EF90DF90CF90BF9020
:1025E000AF900895CF92DF92EF92FF920F931F93D7
:1025F000CF93DF93EC018B016A0163E070E0CA01C5
:1026000001960E94830485E594E00E946104B6016E
:10261000C8010E94931183E294EF0197F1F700C083
:1026200000008CE691E00E946104888599850697F8
:1026300009F4A1C087EA93E00E9461048CE18C9DBB
:1026400070018D9DF00C1124D801ED91FC91EE0DDF
:10265000FF1D608571858285938541E050E00E9471
:10266000B30483E294EF0197F1F700C000008CE619
:1026700091E00E94610488859985069709F47BC0E2
:102680008EEA93E00E946104D801ED91FC91EE0D79
:10269000FF1D648575858685978544E050E00E941E
:1026A000B30483E294EF0197F1F700C000008CE6D9
:1026B00091E00E94610488859985069709F45BC0C2
:1026C00084EB93E00E946104D801ED91FC91EE0D42
:1026D000FF1D608971898289938944E050E00E94DE
:1026E000B30483E294EF0197F1F700C000008CE699
:1026F00091E00E946104888599850697E1F18AEB53
:1027000093E00E946104D801ED91FC91EE0DFF1D54
:10271000648975898689978941E050E00E94B304F5
:1027200083E294EF0197F1F700C000008CE691E09E
:102730000E946104888599850697E9F080EC93E012
:102740000E946104D801ED91FC91EE0DFF1D608D9A
:10275000718D828D938D40E050E00E94B30483E23E
:1027600094EF0197F1F700C000008CE691E00E9421
:10277000610488859985DF91CF911F910F91FF901A
:10278000EF90DF90CF900895EF92FF920F931F93F9
:10279000CF93DF93EC017B01288539858A859B8562
:1027A00028173907E1F50E94750263E070E0F70130
:1027B000828193810E94830484E693E00E946104F5
:1027C000FFE72AE186E0F15020408040E1F700C0B9
:1027D000000000E010E0F7018281938108171907DB
:1027E000F4F4288539858A859B8528173907B9F43B
:1027F0000E947502A801B701CE010E94F21228853D
:1028000039858A859B852817390749F4EFE4F3EC6D
:102810003197F1F700C000000F5F1F4FDCCFDF9151
:10282000CF911F910F91FF90EF900895AF92BF92BB
:10283000CF92DF92EF92FF920F931F930E94750247
:1028400087EC93E00E9461042FE78AE196E0215033
:1028500080409040E1F700C000000E94750283EEC6
:1028600093E00E946104A12CB12C50EDC52E52ECD6
:10287000D52EE12CF12C0CE112E420E030E044E90B
:1028800052EC60E070E080E292E40E94350A41E0A0
:1028900050E00E94B30483EF93E00E9461042FE1B3
:1028A00081EA97E0215080409040E1F700C00000AD
:1028B0000E94750287EF93E00E94610475E3A72EE2
:1028C0007EE1B72E7DEBC72E72ECD72E12E3E12E00
:1028D00015E5F12E0CE112E422E430E24DEB52EC6E
:1028E00065E276E88CE192E40E94350A41E050E02E
:1028F0000E94B30483EF93E00E9461042FE181EA18
:1029000097E0215080409040E1F700C000001F9107
:102910000F91FF90EF90DF90CF90BF90AF90089510
:102920000F931F93CF93DF93EC018B010E947502ED
:1029300088E094E00E9461042FE38DE093E0215051
:1029400080409040E1F700C00000C8010E94ED0BFC
:10295000892B91F40E947502B801CE010E945B0F91
:10296000288539858A859B852817390779F483E27C
:1029700094EF0197F1F7E7CF0E947502B801CE01FD
:10298000DF91CF911F910F910C945B0FDF91CF914D
:102990001F910F910895EF92FF920F931F93CF9382
:1029A000DF93EC016A817B8120E030E000E010E001
:1029B000061717070CF071C088819981820F931F49
:1029C00040E050E07C010196D701EC91E052EF35F8
:1029D00008F458C081E090E09F838E830E947502C6
:1029E00080E294E00E946104BFE7EAE1F6E0B150C2
:1029F000E040F040E1F700C000000E94750284E36F
:102A000094E00E9461042FE986E891E02150804023
:102A10009040E1F700C000000E9475028AE494E053
:102A20000E94610463E070E0C80101960E94830483
:102A300084E594E00E94610487E20E942D04D7019E
:102A40008C910E942D0487E20E942D048AE00E944E
:102A50002D04BFE7EAE1F6E0B150E040F040E1F7D5
:102A600000C00000B801CE010E9493112FEF84E353
:102A70009CE0215080409040E1F700C0000080E0E1
:102A800090E00FC04F5F5F4F4830510509F09ACF7B
:102A90000F5F1F4F245E3F4F8BCF1F821E8281E04E
:102AA00090E0DF91CF911F910F91FF90EF900895EB
:102AB0002F923F924F925F926F927F928F929F924E
:102AC000AF92BF92CF92DF92EF92FF920F931F933C
:102AD000CF93DF931F92CDB7DEB783E091E00E94E2
:102AE000C41C90935D0480935C04009739F40E94A9
:102AF00075028FE291E00E9461043EC20E94710D56
:102B0000892B09F439C283E490E00E94C41C1C01A3
:102B1000009769F388E090E00E94C41C8C01009744
:102B200031F38AE391E00E946104C8010E94320CF3
:102B30002FE38DE093E0215080409040E1F700C00A
:102B4000000085E0C82ED12C2101A0E44A0E511CC2
:102B50003101B1E46B0E711C5101E2E4AE0EB11C07
:102B60004101F8E08F0E911C80915C0490915D040E
:102B7000DC0118962D913C9119971B963C932E934E
:102B80001A970E94E50C80915C0490915D04DC0131
:102B90001896ED91FC911997E730F10528F7EA5B5B
:102BA000FF4F0C94BE1CF8012281338112161306CC
:102BB00034F0DC011996DC92CE921897D5CF0E94A2
:102BC0006B0D0E9475028EE491E00E946104E3E2C5
:102BD000F4EF3197F1F700C0000089E591E00E9421
:102BE000610468E070E0C4010E943005FFEE29E452
:102BF00082E0F15020408040E1F700C00000809169
:102C00005C0490915D04DC0118964D915C911997DC
:102C10001A962D913C911B974217530709F0A4CFA8
:102C2000B1010E940C0EC1010E94ED0B892B49F0ED
:102C3000A101B80180915C0490915D040E941F1273
:102C400093CF0E9475028FE591E00E9461048EE6A9
:102C500091E00E946104BFE7EAE1F6E0B150E04094
:102C6000F040E1F7DEC00E9475020E946B0DB101D9
:102C700080915C0490915D040E940C0EC1010E9441
:102C8000ED0B892B69F18CE791E00E946104D10181
:102C900051966D917D918D919C91549743E050E0B8
:102CA0000E94B30482E993E00E946104F101658906
:102CB00076898789908D43E050E00E94B304FFEB52
:102CC00027E289E0F15020408040E1F700C0000099
:102CD000B10180915C0490915D040E94391044CF51
:102CE0008FE591E00E9461048EE691E00E9461040C
:102CF0009FE7AAE1B6E09150A040B040E1F700C0E4
:102D0000000036C00E94750286E891E00E946104CE
:102D1000EFEBF7E229E0E150F0402040E1F700C09E
:102D20000000B80180915C0490915D040E94C4137E
:102D30001BCF0E9475020E946B0DB10180915C0453
:102D400090915D040E940C0E8BE991E00E94610459
:102D50008FE39DE0A3E081509040A040E1F700C0E8
:102D60000000B10180915C0490915D040E945B0FB2
:102D700080915C0490915D040E94ED10F5CE0E945C
:102D800075020E946B0DB10180915C0490915D040D
:102D90000E940C0E83EA91E00E946104BFE3EDE023
:102DA000F3E0B150E040F040E1F700C000000E94C5
:102DB00075028BEA91E00E946104D1015D966D91EC
:102DC0007D918D919C91909741E050E00E94B304D9
:102DD0008FED0E942D048CEF91E00E946104F201BE
:102DE00080810E942D04D3018C910E942D04F50155
:102DF00080810E942D0481EB91E00E946104D10149
:102E000059966D917D918D919C915C9741E050E038
:102E10000E94B304BFEBE7E2F9E0B150E040F040BC
:102E2000E1F700C00000A0CE0E94480F9DCE0E9496
:102E3000650DE0915C04F0915D0484819581892B9E
:102E4000C1F40E9475028AEB91E00E946104E09156
:102E50005C04F0915D0481E090E095838483D80167
:102E600017961C921E92169717821682C8010E940E
:102E7000D70CE0905C04F0905D04F701E257FF4F3F
:102E80009081F701E157FF4F8081981709F444C002
:102E9000F7011082118212821382C7010E94760EFE
:102EA000682F80915C0490915D0469830E94590EA3
:102EB000E0915C04F0915D046981892BF9F040E0B8
:102EC00050E0B801CF010E94980EC8010E94CB14B7
:102ED000D80116968D919C911797892B09F03FC0C8
:102EE0000E94750283ED91E00E946104BFE3EDE072
:102EF000F3E0B150E040F040E1F793CF8681978155
:102F00000E94F421E0915C04F0915D048681978138
:102F100001969783868328CED7016D917D918D91FF
:102F20009C9120E030E040E85FE30E94D317F70176
:102F300060837183828393836081718182819381B5
:102F400020E030E543E457E40E949C1A18160CF088
:102F50000BCE41E050E0B801C7010E94980E80916D
:102F60005C0490915D040E947011E0915C04F0910A
:102F70005D04D186C086F8CD80E090E00F90DF91AF
:102F8000CF911F910F91FF90EF90DF90CF90BF9066
:102F9000AF909F908F907F906F905F904F903F90F9
:102FA0002F9008955058BB27AA270ED063C22CD269
:102FB00030F031D220F031F49F3F11F41EF4FCC107
:102FC0000EF4E095E7FBC9C1E92F76D280F3BA177A
:102FD000620773078407950718F071F49EF5A5C280
:102FE0000EF4E0950B2EBA2FA02D0B01B901900124
:102FF0000C01CA01A0011124FF27591B99F0593F68
:1030000050F4503E68F11A16F040A22F232F342FAF
:103010004427585FF3CF469537952795A795F040FD
:103020005395C9F77EF41F16BA0B620B730B840B12
:10303000BAF09150A1F0FF0FBB1F661F771F881FCA
:10304000C2F70EC0BA0F621F731F841F48F4879522
:1030500077956795B795F7959E3F08F0B3CF939511
:10306000880F08F09927EE0F979587950895CCD192
:1030700058F080E891E009F49EEFCDD128F040E8C7
:1030800051E059F45EEF09C097C14FC2E92FE078D3
:1030900013D268F3092E052AC1F32617370748070C
:1030A000590738F00E2E07F8E02569F0E025E064B6
:1030B0000AC0EF6307F8009407FADB01B9019D012C
:1030C000DC01CA01AD01EF934AD0D4D10AD05F919F
:1030D000552331F02BED3FE049E450FD49EC63CF3F
:1030E0000895DF93DD27B92FBF7740E85FE3161619
:1030F000170648075B0710F4D92F22D29F938F93AE
:103100007F936F93B9D3E2ECF0E059D1B3D12F9113
:103110003F914F915F91A5D2DD2349F09058A2EAEB
:103120002AED3FE049EC5FE3D0785D274DDFDF918A
:10313000A1C1EFD008F481E0089575D1E395ABC14A
:103140000CD098C168D140F05FD130F021F45F3FDE
:1031500019F003C15111EAC12FC1AED198F39923DF
:10316000C9F35523B1F3951B550BBB27AA2762174B
:103170007307840738F09F5F5F4F220F331F441F90
:10318000AA1FA9F333D00E2E3AF0E0E830D09150C8
:103190005040E695001CCAF729D0FE2F27D0660FB5
:1031A000771F881FBB1F261737074807AB07B0E8F4
:1031B00009F0BB0B802DBF01FF2793585F4F2AF00A
:1031C0009E3F510568F0C9C0B1C15F3FECF3983E26
:1031D000DCF3869577956795B795F7959F5FC9F767
:1031E000880F911D9695879597F90895E1E0660FF0
:1031F000771F881FBB1F621773078407BA0720F069
:10320000621B730B840BBA0BEE1F88F7E0950895D1
:1032100004D06894B1118AC1089556D188F09F579F
:1032200090F0B92F9927B751A0F0D1F0660F771F12
:10323000881F991F1AF0BA95C9F712C0B13081F0F2
:1032400074D1B1E0089571C1672F782F8827B85FD6
:1032500039F0B93FCCF3869577956795B395D9F753
:103260003EF490958095709561957F4F8F4F9F4F5D
:103270000895E89409C097FB3EF490958095709569
:1032800061957F4F8F4F9F4F9923A9F0F92F96E9B2
:10329000BB279395F695879577956795B795F11127
:1032A000F8CFFAF4BB0F11F460FF1BC06F5F7F4FC4
:1032B0008F4F9F4F16C0882311F096E911C07723D6
:1032C00021F09EE8872F762F05C0662371F096E8DF
:1032D000862F70E060E02AF09A95660F771F881FAE
:1032E000DAF7880F9695879597F9089507D180F0BA
:1032F0009F3740F491110EF019C160E070E080E852
:103300009FEB089526F41B16611D711D811D2BC0B6
:1033100045C0990F0008550FAA0BE0E8FEEF1616FE
:103320001706E807F907C0F012161306E407F507B9
:1033300098F0621B730B840B950B39F40A2661F02D
:10334000232B242B252B21F408950A2609F4A140D0
:10335000A6958FEF811D811D089597F99F6780E8DD
:1033600070E060E00895882371F4772321F098508D
:10337000872B762F07C0662311F499270DC0905133
:10338000862B70E060E02AF09A95660F771F881F01
:10339000DAF7880F9695879597F908959F3F31F052
:1033A000915020F4879577956795B795880F911D73
:1033B0009695879597F908959FEF80EC0895DF9390
:1033C000CF931F930F93FF92EF92DF927B018C01BB
:1033D000689405C0DA2EEF0144D1FE01E894A5916E
:1033E0002591359145915591AEF3EF01EDDDFE014B
:1033F0009701A801DA9479F7DF90EF90FF900F9191
:103400001F91CF91DF91089500240A941616170694
:1034100018060906089500240A94121613061406C5
:1034200005060895C9CF50D0E8F3E894E0E0BB2743
:103430009F57F0F02AED3FE049EC06C0EE0FBB0FBE
:10344000661F771F881F28F0B23A62077307840748
:1034500028F0B25A620B730B840BE3959A9572F7BE
:10346000803830F49A95BB0F661F771F881FD2F7FC
:10347000904896CF092E0394000C11F4882352F043
:10348000BB0F40F4BF2B11F460FF04C06F5F7F4F90
:103490008F4F9F4F0895EF93E0FF06C0A2EA2AEDF9
:1034A0003FE049EC5FEB90DDE5DF0F90039401FC1A
:1034B0009058EFEEF0E01BC257FD9058440F551F97
:1034C00059F05F3F71F04795880F97FB991F61F0A6
:1034D0009F3F79F087950895121613061406551F1D
:1034E000F2CF4695F1DF08C0161617061806991F89
:1034F000F1CF86957105610508940895E5DFA0F088
:10350000BEE7B91788F4BB279F3860F41616B11DC3
:10351000672F782F8827985FF7CF869577956795DF
:10352000B11D93959639C8F30895E894BB27662793
:103530007727CB0197F90895ECDE08F48FEF089513
:103540009B01AC0160E070E080E89FE3F9CD0AD018
:1035500029ED3BE54EED5EE378C00EF01FCF2CCF9A
:103560006894FBCEB1DFC8F39923D1F3C6F3DF93A0
:10357000CF931F930F93FF92C92FDD2788232AF043
:103580002197660F771F881FDAF720E030E040E8C8
:103590005FEB9FE3883920F0803E30F021968F77F3
:1035A00002DDEDE0F1E003C0FEDCEAE3F1E007DF7D
:1035B0008B01BE01EC01FB2E6F5771097595771FCA
:1035C000880B990B58DE28E132E741E35FE349D0ED
:1035D000AF2D9801AE01FF900F911F91CF91DF9118
:1035E000F3DC48CFFA01DC01AA0FBB1F9B01AC0141
:1035F000BF5728F422273327442750781FC0B751DC
:1036000088F4AB2F0024469537952795011CA39588
:10361000D2F3002069F0220F331F441FB395DAF371
:103620000DD0C0CC61307105A0E88A07B94630F4EE
:103630009B01AC016627772788279078309621F088
:10364000208331834283538308950BD013CFDCDE74
:1036500028F0E1DE18F0952309F07FCEADCE1124DD
:1036600065CF2ADFA0F3959FD1F3950F50E0551F4A
:10367000629FF001729FBB27F00DB11D639FAA27C7
:10368000F00DB11DAA1F649F6627B00DA11D661F16
:10369000829F2227B00DA11D621F739FB00DA11D37
:1036A000621F839FA00D611D221F749F3327A00DF1
:1036B000611D231F849F600D211D822F762F6A2F8D
:1036C00011249F5750408AF0E1F088234AF0EE0F12
:1036D000FF1FBB1F661F771F881F91505040A9F71F
:1036E0009E3F510570F039CE21CF5F3FECF3983EFD
:1036F000DCF3869577956795B795F795E7959F5F86
:10370000C1F7FE2B880F911D9695879597F908951F
:10371000FA01EE0FFF1F30962105310599F1611571
:10372000710561F48038BFE39B0749F168949038D4
:10373000810561F08038BFEF9B0741F0992342F586
:10374000FF3FE1053105210511F1E8940894E79563
:10375000D901AA2329F4AB2FBE2FF85FD0F310C0F4
:10376000FF5F70F4A695E0F7F73950F019F0FF3AD3
:1037700038F49F779F930CD00F9007FC90580895D2
:103780003EF01ACE60E070E080E89FE308954FE7D6
:103790009F775F934F933F932F93E4DE2F913F9159
:1037A0004F915F9152DF70C08FDEE0F09E37D8F00E
:1037B0009639B8F49E3848F4672F782F8827985F99
:1037C000F9CF86957795679593959539D0F3B62F70
:1037D000B1706B0F711D811D20F4879577956795EA
:1037E0009395C1CDDBCDA2CE9F931DDE0F9007FC3C
:1037F000EE5F51CE11F40EF4DFCDD0CD65DED0F307
:103800009923D9F3CEF39F57550B87FF69D0002436
:10381000A0E640EA900180585695979528F4805C80
:10382000660F771F881F20F026173707480730F4E8
:10383000621B730B840B202931294A2BA695179400
:103840000794202531254A2758F7660F771F881FD0
:1038500020F026173707480730F4620B730B840BF0
:10386000200D311D411DA09581F7B901842F91587C
:10387000880F9695879508959B01AC01E6CE19F4C3
:103880000EF06BCD52CE98CD1FDEC8F39638C0F740
:1038900007F80F92E8942BE33AEA48EB5FE7E3DEA0
:1038A0000F920F920F924DB75EB70F929BDEE7E635
:1038B000F1E085DD4F915F91EF91FF91E595EE1F6E
:1038C000FF1F49F0FE57E0684427EE0F441FFA95AA
:1038D000E1F74195550B1ED00F9007FE31CE0895AC
:1038E00091505040660F771F881FD2F708959F931D
:1038F0008F937F936F93FF93EF939B01AC01A5DEB2
:10390000EF91FF915CDD2F913F914F915F919DCEA3
:1039100024CD44CDD9DDE8F39923D9F3940F511D7B
:10392000BBF39150504094F059F0882332F0660F69
:10393000771F881F91505040C1F79E3F510544F7B3
:10394000880F911D9695879597F908955F3FACF084
:10395000983E9CF0BB27869577956795B79508F4B8
:10396000B1609395C1F7BB0F58F711F460FFE8CF32
:103970006F5F7F4F8F4F9F4FE3CFD8CDEE0FFF1F6D
:103980000590F491E02D0994CF93DF938230910557
:1039900010F482E090E0E0916004F091610420E096
:1039A00030E0A0E0B0E0309739F140815181481714
:1039B0005907B8F04817590771F48281938110971D
:1039C00029F013969C938E9312972CC090936104C8
:1039D0008093600427C02115310531F04217530749
:1039E00018F0A901DB0101C0EF019A01BD01DF015F
:1039F0000280F381E02DD7CF21153105F9F0281B86
:103A0000390B2430310580F48A819B816115710561
:103A100021F0FB019383828304C09093610480931F
:103A20006004FE01329644C0FE01E20FF31F819351
:103A3000919322503109398328833AC020915E0442
:103A400030915F04232B41F4209104013091050152
:103A500030935F0420935E042091020130910301B2
:103A60002115310541F42DB73EB740910601509123
:103A70000701241B350BE0915E04F0915F04E2170F
:103A8000F307A0F42E1B3F0B2817390778F0AC0181
:103A90004E5F5F4F2417350748F04E0F5F1F50935E
:103AA0005F0440935E048193919302C0E0E0F0E0F4
:103AB000CF01DF91CF910895CF93DF93009709F461
:103AC00087C0FC01329713821282C0916004D091AA
:103AD0006104209781F420813181280F391F809162
:103AE0005E0490915F048217930779F5F0935F0469
:103AF000E0935E046DC0DE0120E030E0AE17BF074A
:103B000050F412964D915C9113979D01411551050A
:103B100009F1DA01F3CFB383A28340815181840F8D
:103B2000951F8A179B0771F48D919C911197840FB3
:103B3000951F02969183808312968D919C91139785
:103B4000938382832115310529F4F0936104E09376
:103B500060043EC0D9011396FC93EE9312974D91E9
:103B60005D91A40FB51FEA17FB0779F4808191815D
:103B7000840F951F0296D90111969C938E93828192
:103B8000938113969C938E931297E0E0F0E08A81E4
:103B90009B81009719F0FE01EC01F9CFCE0102964E
:103BA00028813981820F931F20915E0430915F0438
:103BB0002817390769F4309729F41092610410929C
:103BC000600402C013821282D0935F04C0935E042B
:103BD000DF91CF9108954F925F926F927F928F9273
:103BE0009F92AF92BF92CF92DF92EF92FF920F938C
:103BF0001F93CF93DF938B016115710521F0DB01DA
:103C00008C9311969C93EC015E01BFEFAB1ABB0A3B
:103C10007501C8808C2D90E00E94681F892B11F0DF
:103C2000E501F2CFEDE2CE1208C07E01F2E0EF0E28
:103C3000F11CC980DD24D39409C02BE2C21205C057
:103C40007E0142E0E40EF11CC980D12CE7012197EE
:103C500043E050E067E971E0CE010E94701F892BBC
:103C6000D1F4E701229645E050E062E971E0CE012F
:103C70000E94701F892B11F4E70127960115110589
:103C800019F0D801CD93DC93D11008C160E070E049
:103C900080E89FE70CC143E050E06FE871E0CE019F
:103CA0000E94701F892B59F40115110509F4FBC0FE
:103CB000B2E0EB0EF11CF801F182E082F4C0F701F2
:103CC00060E070E0CB01C0E0D0E07F01A0EDAA2E63
:103CD000AC0C29E02A1530F14D2D4260B42E2D2D6B
:103CE0002870D2FE04C0211125C0219623C02111C5
:103CF0002197A5E0B0E09B01AC010E94AB22660FCA
:103D0000771F881F991F6A0D711D811D911D6839CC
:103D1000A9E97A078A07A9E19A0760F0BD2DB66084
:103D2000BB2E08C02EEFA2120AC0D3FC50C04D2DEE
:103D30004860B42E3196D701CC90DB2CC6CF2C2D09
:103D40002F7D253409F043C0A081AD3241F4BD2D53
:103D5000B061DB2E7F0122E0E20EF11C0CC07F017E
:103D6000AB3231F04FEFE41AF40A21E030E006C044
:103D7000A2E0EA0EF11CA18122E030E0A053AA30BB
:103D800018F0E21AF30A23C0F70120E030E02038EF
:103D9000BCE03B075CF4A901440F551F440F551FBD
:103DA000240F351F220F331F2A0F311DAF014F5F24
:103DB0005F4F7A01A081A053AA3010F4FA01E7CF37
:103DC000D4FE03C0319521953109C20FD31FD1FE16
:103DD00009C00115110531F0E1E0EE1AF108D80132
:103DE000ED92FC920E9439192D2D2370233019F089
:103DF0006B017C0106C06B017C01F7FAF094F7F8C7
:103E0000F09420E030E0A901C701B6010E949918A2
:103E1000882309F440C0D7FF06C0D195C195D109C8
:103E20000EEA11E002C006EC11E04801B8E18B1A7D
:103E3000910890E2A92EB12CF8014590559065901B
:103E40007490CA15DB055CF0A3019201C701B601AD
:103E50000E94251B6B017C01CA19DB09F2CF0450BB
:103E60001109B594A7940815190531F78E2D880FFF
:103E70008F2D881F8F3F49F020E030E0A901C70156
:103E8000B6010E949918811106C082E290E09093D9
:103E9000630480936204C701B60109C060E070E06A
:103EA00080E89FEF04C060E070E080EC9FE7DF9166
:103EB000CF911F910F91FF90EF90DF90CF90BF9027
:103EC000AF909F908F907F906F905F904F900895EC
:103ED000911198C2803219F089508550D0F7089519
:103EE000FB01DC014150504088F08D9181341CF081
:103EF0008B350CF4805E659161341CF06B350CF4ED
:103F0000605E861B611171F3990B0895881BFCCFCD
:103F1000FB01DC0101900D920020E1F70895FB0107
:103F2000DC014150504048F001900D920020C9F74B
:103F300001C01D9241505040E0F70895DC019927DF
:103F40008D91882341F0FB01019008160110E1F7E3
:103F5000B9F71197CD0108950F931F93CF93DF9376
:103F6000CDB7DEB72E970FB6F894DEBF0FBECDBF2C
:103F70000D891E8986E08C831A8309838FEF9FE762
:103F80009E838D83AE01475E5F4F6F89788DCE0132
:103F900001960E94DB1FEF81F885E00FF11F108270
:103FA0002E960FB6F894DEBF0FBECDBFDF91CF9136
:103FB0001F910F9108952F923F924F925F926F92AF
:103FC0007F928F929F92AF92BF92CF92DF92EF92A9
:103FD000FF920F931F93CF93DF93CDB7DEB72C974C
:103FE0000FB6F894DEBF0FBECDBF7C016B018A0116
:103FF000FC0117821682838181FFBDC1CE0101962B
:104000004C01F7019381F60193FD859193FF819116
:104010006F01882309F4ABC1853239F493FD859192
:1040200093FF81916F01853229F4B70190E00E94DE
:104030001B22E7CF512C312C20E02032A0F48B3210
:1040400069F030F4803259F0833269F420612CC079
:104050008D3239F0803339F4216026C0226024602B
:1040600023C0286021C027FD27C030ED380F3A302B
:1040700078F426FF06C0FAE05F9E300D1124532E1F
:1040800013C08AE0389E300D1124332E20620CC0FC
:104090008E3221F426FD6BC1206406C08C3611F4EB
:1040A000206802C0883641F4F60193FD859193FFA4
:1040B00081916F018111C1CF982F9F7D95549330CD
:1040C00028F40C5F1F4FFFE3F9830DC0833631F0F6
:1040D000833771F0833509F05BC022C0F80180811D
:1040E00089830E5F1F4F44244394512C540115C003
:1040F0003801F2E06F0E711CF801A080B18026FF3C
:1041000003C0652D70E002C06FEF7FEFC5012C8703
:104110000E9410222C0183012C852F77222E17C09C
:104120003801F2E06F0E711CF801A080B18026FF0B
:1041300003C0652D70E002C06FEF7FEFC5012C87D3
:104140000E9405222C012C852068222E830123FC4D
:104150001BC0832D90E048165906B0F4B70180E2E9
:1041600090E00E941B223A94F4CFF50127FC859140
:1041700027FE81915F01B70190E00E941B22311060
:104180003A94F1E04F1A51084114510471F7E5C017
:10419000843611F0893639F5F80127FF07C06081B0
:1041A0007181828193810C5F1F4F08C06081718192
:1041B000882777FD8095982F0E5F1F4F2F76B22EA0
:1041C00097FF09C090958095709561957F4F8F4FAF
:1041D0009F4F2068B22E2AE030E0A4010E944D22B9
:1041E000A82EA81844C0853729F42F7EB22E2AE0C5
:1041F00030E025C0F22FF97FBF2E8F36C1F018F4C2
:10420000883579F0B4C0803719F0883721F0AFC015
:104210002F2F2061B22EB4FE0DC08B2D8460B82EDE
:1042200009C024FF0AC09F2F9660B92E06C028E05F
:1042300030E005C020E130E002C020E132E0F801CA
:10424000B7FE07C060817181828193810C5F1F4F2F
:1042500006C06081718180E090E00E5F1F4FA40175
:104260000E944D22A82EA818FB2DFF77BF2EB6FE68
:104270000BC02B2D2E7FA51450F4B4FE0AC0B2FC47
:1042800008C02B2D2E7E05C07A2C2B2D03C07A2C36
:1042900001C0752C24FF0DC0FE01EA0DF11D8081C7
:1042A000803311F4297E09C022FF06C073947394F1
:1042B00004C0822F867809F0739423FD13C020FF79
:1042C00006C05A2C731418F4530C5718732C73141B
:1042D00068F4B70180E290E02C870E941B2273945F
:1042E0002C85F5CF731410F4371801C0312C24FF3E
:1042F00012C0B70180E390E02C870E941B222C851E
:1043000022FF17C021FF03C088E590E002C088E7C4
:1043100090E0B7010CC0822F867859F021FD02C0D1
:1043200080E201C08BE227FD8DE2B70190E00E94A0
:104330001B22A51438F4B70180E390E00E941B22F1
:104340005A94F7CFAA94F401EA0DF11D8081B701C8
:1043500090E00E941B22A110F5CF332009F451CE2A
:10436000B70180E290E00E941B223A94F6CFF70159
:104370008681978102C08FEF9FEF2C960FB6F8943D
:10438000DEBF0FBECDBFDF91CF911F910F91FF9088
:10439000EF90DF90CF90BF90AF909F908F907F90E5
:1043A0006F905F904F903F902F900895DC01CB016C
:1043B000FC01F999FECF06C0F2BDE1BDF89A319635
:1043C00000B40D9241505040B8F70895F999FECFCE
:1043D00092BD81BDF89A992780B50895A6E1B0E015
:1043E00044E050E00C94D821262FF999FECF1FBA53
:1043F00092BD81BD20BD0FB6F894FA9AF99A0FBE0E
:1044000001960895992788270895FC010590615029
:1044100070400110D8F7809590958E0F9F1F0895DA
:10442000FC016150704001900110D8F78095909583
:104430008E0F9F1F08950F931F93CF93DF93182F15
:10444000092FEB018B8181FD03C08FEF9FEF20C00F
:1044500082FF10C04E815F812C813D81421753073E
:104460007CF4E881F9819F012F5F3F4F39832883D6
:10447000108306C0E885F985812F0995892B29F7D6
:104480002E813F812F5F3F4F3F832E83812F902FBF
:10449000DF91CF911F910F910895FA01AA2728303B
:1044A00051F1203181F1E8946F936E7F6E5F7F4F01
:1044B0008F4F9F4FAF4FB1E03ED0B4E03CD0670F7D
:1044C000781F891F9A1FA11D680F791F8A1F911DD0
:1044D000A11D6A0F711D811D911DA11D20D009F420
:1044E00068943F912AE0269F11243019305D319362
:1044F000DEF6CF010895462F4770405D4193B3E04B
:104500000FD0C9F7F6CF462F4F70405D4A3318F0F1
:10451000495D31FD4052419302D0A9F7EACFB4E0A2
:10452000A6959795879577956795BA95C9F700975A
:104530006105710508959B01AC010A2E06945795FB
:10454000479537952795BA95C9F7620F731F841F52
:10455000951FA01D08950E94B622A59F900DB49F9F
:10456000900DA49F800D911D11240895A29FB0016C
:10457000B39FC001A39F700D811D1124911DB29F97
:0E458000700D811D1124911D0895F894FFCF38
:10458E000100000064042000244750524D4300EA0D
:10459E0001EE01F201F601FA01FE01020206020A23
:1045AE00020E02120216021A021E022202260262D5
:1045BE006164206D616C6C6F630072656164696E1D
:1045CE00670A64617461626173652E2E2E00666DDA
:1045DE004861726D6F6E790A005554433A20004E51
:1045EE006F20475053204669782E2E2E0A004265C2
:1045FE002050617469656E742E2E2E004750532024
:10460E004669783A0A00464D2053746174696F6E9C
:10461E00730A446174616261736500444542554793
:10462E002031004445425547203200434D473A2041
:10463E00000A53706565643A200075706461746990
:10464E006E672E2E2E0A646F6E277420756E706C38
:10465E0075670075706461746520636F6D706C654D
:10466E0074650025640030002C004E2020004E4E54
:10467E0045004E452000454E45004520200045533F
:10468E0045005345200053534500532020005353FB
:10469E005700535720005753570057202000574EAE
:1046AE0057004E5720004E4E5700696D706F727452
:1046BE00696E6720000A73746174696F6E732E2EB3
:1046CE002E0072656164696E670A6461746162616D
:1046DE007365202E2E2E004552524F523A0A74699F
:1046EE006D656F7574202E2E2E000A7570646174C0
:1046FE0065206661696C65640A0075706461746535
:10470E002072657175697265640A2E2E2E66656556
:10471E0064206D652E2E2E004C61746573740A47ED
:10472E00505320446174613A004D6573736167653F
:10473E003A200054696D653A20004E52573A2000D7
:10474E004C61743A20004C6F6E3A2000206B7473EB
:10475E0000436F757273653A2000446174653A20A8
:10476E00004D61675661723A20004D6F64653A20C4
:10477E0000436865636B73756D3A20005261770A6A
:10478E0047505320446174613A004D6573736167FD
:10479E00650054696D65004E5257004C6174004EB1
:1047AE002F53004C6F6E00452F5700537065656494
:1047BE0000436F757273650044617465004D6167E7
:1047CE00566172004D6F646500436865636B737567
:1047DE006D00776970696E67200A6D656D6F72790D
:1047EE002E2E2E00206B6E6F776E0A7374617469B5
:1047FE006F6E730046696E64696E67204E656172F6
:10480E006573740A53746174696F6E2E2E2E0020B8
:10481E006B6D2C2000412E426561723A2000522EA3
:10482E00426561723A2000667265713A20006C61D1
:10483E00743A20006C6F6E3A20006572703A200058
:10484E00686161743A200043616C63756C617469D0
:10485E006E670A45617274682044697374616E6391
:10486E0065730044656E766572202D3E204E594369
:10487E003A0A00206B6D004E6F727468204B432015
:10488E002D3E204B433A0A0057616974696E6720CA
:10489E00466F720A475053204C6F636B2E2E2E00BC
:1048AE00434F5252555054494F4E0A444554454376
:1048BE005445440074726163696E670A636F727265
:1048CE00757074696F6E2E2E2E0073746174696F1D
:0848DE006E202300203A2000A7
:00000001FF
