:100000000C94DE000C94FD000C94FD000C94FD009B
:100010000C94FD000C94FD000C94FD000C94FD006C
:100020000C94FD000C94FD000C94FD000C94FD005C
:100030000C94FD000C94FD000C94FD000C94FD004C
:100040000C94FD000C94FD000C94FD000C94FD003C
:100050000C942D010C94FD000C94FD000C94FD00FB
:100060000C94FD000C94FD000C94FD000C94FD001C
:100070000C94BB020C94FD000C94FD000C94FD004C
:100080000C94FD000C94FD000C94FD002B0635062D
:1000900042065106600671067D0689069506EE0643
:1000A000F106F406F706FA06FD0600070307060741
:1000B00009070C07084AD73B3BCE016E84BCBFFD45
:1000C000C12F3D6C74319ABD56833DDA3D00C77F28
:1000D00011BED9E4BB4C3E916BAAAABE00000080C1
:1000E0003F05A84CCDB2D44EB93836A9020C50B950
:1000F000918688083CA6AAAA2ABE000000803F0874
:10010000000000BE922449123EABAAAA2ABECDCC62
:10011000CC4C3E00000080BEABAAAAAA3E00000064
:1001200000BF000000803F0000000000084178D3BD
:10013000BB4387D1133D190E3CC3BD4282AD2B3E5C
:1001400068EC8276BED98FE1A93E4C80EFFFBE01FC
:10015000C4FF7F3F000000000007634236B79BD812
:10016000A71A39685618AEBAAB558C1D3CB7CC5798
:1001700063BD6DEDFD753EF6177231BF0000008066
:100180003F4E414E494E495459494E46CDCCCC3D47
:100190000AD7233C17B7D13877CC2B329595E62474
:1001A0001FB14F0A000020410000C84200401C4619
:1001B00020BCBE4CCA1B0E5AAEC59D7411241FBE76
:1001C000CFEFD0E4DEBFCDBF13E0A0E0B1E0E8E4C4
:1001D000F7E300E00BBF02C007900D92A837B1070C
:1001E000D9F714E0A8E7B3E001C01D92A538B10724
:1001F000E1F70E94A20F0C94A21B0C940000109235
:10020000CD008CE08093CC001092C5008093C40098
:10021000E9ECF0E08081886D8083E1ECF0E08081A2
:10022000886D8083E8ECF0E0808182608083E0EC80
:10023000F0E0808182608083EAECF0E080818E6073
:100240008083E2ECF0E08081866080830895E1ECB9
:10025000F0E080818772808308951F920F920FB61D
:100260000F9211240BB60F922F933F934F935F93EE
:100270006F937F938F939F93AF93BF93EF93FF936E
:100280008091D0039091D1038135910574F080E085
:1002900090E0FC01E058FC4F1082019680359105FA
:1002A000C1F71092D1031092D003E091D003F091E6
:1002B000D1038091C600E058FC4F80838091D00329
:1002C0009091D10301969093D1038093D003E09154
:1002D000D003F091D103E158FC4F8081843299F42E
:1002E00081E090E0FC01E058FC4F108201968035DF
:1002F0009105C1F784E28093800381E090E09093C0
:10030000D1038093D003E091D003F091D103E15861
:10031000FC4F80818D3079F580E893E00E94330DA9
:10032000892B49F10E942701E0E8F3E001900020C9
:10033000E9F73297108263E171E080E893E00E9470
:10034000511865E674E00E94870D6091E303709197
:10035000E40385E694E00E94A60E80E090E0FC01B4
:10036000E058FC4F1082019680359105C1F710923C
:10037000D1031092D003FF91EF91BF91AF919F9164
:100380008F917F916F915F914F913F912F910F903E
:100390000BBE0F900FBE0F901F901895E1ECF0E090
:1003A0008081886D808308958FEF84B9F8940E94CE
:1003B000FF0078940E94530A2FE38DE093E02150D0
:1003C00080409040E1F700C000000895EF92FF9256
:1003D0000F931F93CF93DF9380E090E00E94980FDC
:1003E0008F3F910529F09093DC038093DB0304C0D9
:1003F0001092DC031092DB032FE946E851E0215014
:1004000040405040E1F700C000000E94530A85E1DF
:1004100091E00E943F0C63E070E08091DB039091DB
:10042000DC030E94610C80E291E00E943F0C80910D
:10043000DB039091DC032CE1FC012E9FC0012F9F78
:10044000900D11240E948D159093E2038093E10397
:10045000C0E0D0E000E010E08091DB039091DC038D
:10046000081719070CF05CC0BE016F5F7F4F8091C9
:10047000E1039091E20348E050E08C0F9D1F0E9441
:10048000A00FE090E103F090E203EC0EFD1ECE0120
:1004900009960E949E0FF701608771878287938774
:1004A000E090E103F090E203EC0EFD1ECE010D960C
:1004B0000E949E0FF7016487758786879787E09073
:1004C000E103F090E203EC0EFD1ECE0141960E9486
:1004D0009E0FF701608B718B828B938BE090E10311
:1004E000F090E203EC0EFD1ECE0145960E949E0F99
:1004F000F701648B758B868B978BE090E103F0900E
:10050000E203EC0EFD1ECE0149960E949E0FF701FC
:10051000608F718F828F938F0F5F1F4F6C969CCF70
:10052000DF91CF911F910F91FF90EF90089510925E
:10053000DC031092DB038091E1039091E2030E94BF
:1005400025161092E2031092E10308958091D603DC
:100550009091010189130CC02091D703281308C082
:100560003091D80381E090E0321721F080E00895C7
:1005700080E090E008951F920F920FB60F92112421
:100580000BB60F922F933F934F935F936F937F938D
:100590008F939F93AF93BF93EF93FF938091D70374
:1005A0008093D8038091D6038093D7038091CE00A7
:1005B0008093D60380917E0390917F03019769F425
:1005C000E091D903F0E08091D603EB51FC4F80839A
:1005D0008091D9038F5F8093D9030E94A602892B53
:1005E00031F081E090E090937F0380937E038091CF
:1005F000D90387FD1092D903FF91EF91BF91AF917D
:100600009F918F917F916F915F914F913F912F912A
:100610000F900BBE0F900FBE0F901F9018958091FA
:10062000D6039091000189130CC02091D7032813A1
:1006300008C03091D80381E090E0321721F080E0CB
:10064000089580E090E00895E091DA03F0E0EB5146
:10065000FC4F80819091DA039F5F9093DA03909131
:10066000DA0397FD1092DA0308959091DA038091EE
:10067000D903981739F0E091DA03F0E0EB51FC4F21
:100680008081089580E00895CF93DF93EC0110926C
:100690007F0310927E0310927B0310927A031092D4
:1006A000D2031092D3031092D4031092D5030E9468
:1006B000530A209719F48DE291E002C082E491E0A0
:1006C0000E943F0C0E94E6012FE38DE093E0215051
:1006D00080409040E1F700C00000219721F485E5BB
:1006E00091E00E943F0C2FE986E891E02150804084
:1006F0009040E1F700C00000DF91CF9108954F9244
:100700005F926F927F928F929F92AF92BF92CF92A1
:10071000DF92EF92FF920F931F93CF93DF93CDB7AA
:10072000DEB760970FB6F894DEBF0FBECDBF2B01CA
:100730003C0129873A874B875C87E982FA820B83E1
:100740001C839B01AC01C801B7010E949B102BEDDB
:100750003FE049E450E40E94EE1320E030E044E33F
:1007600053E40E94691120E030E040E05FE30E9422
:10077000EE130E94BD146D837E838F8398872BEDCB
:100780003FE049E450E4C301B2010E94EE1320E0CF
:1007900030E044E353E40E9469110E9466112B018A
:1007A0003C012BED3FE049E450E4C801B7010E9451
:1007B000EE1320E030E044E353E40E9469110E940C
:1007C000661169837A838B839C8329853A854B855F
:1007D0005C85C601B5010E949B102BED3FE049E40A
:1007E00050E40E94EE1320E030E044E353E40E9422
:1007F000691120E030E040E05FE30E94EE130E94C8
:10080000BD144B015C012D813E814F815885CA0189
:10081000B9010E94EE136B017C0129813A814B8161
:100820005C81C301B2010E94EE13A50194010E94F4
:10083000EE13A50194010E94EE139B01AC01C701C8
:10084000B6010E949C106B017C019B01AC0160E031
:1008500070E080E89FE30E949B100E94C7149B01F8
:10086000AC01C701B6012D873E874F87588B0E9488
:10087000C7142D853E854F8558890E940F119B0115
:10088000AC010E949C1020E038E147EC55E40E9446
:10089000EE1360960FB6F894DEBF0FBECDBFDF91AA
:1008A000CF911F910F91FF90EF90DF90CF90BF906D
:1008B000AF909F908F907F906F905F904F90089532
:1008C0002F923F924F925F926F927F928F929F9260
:1008D000AF92BF92CF92DF92EF92FF920F931F934E
:1008E000CF93DF93CDB7DEB72C970FB6F894DEBF6A
:1008F0000FBECDBF2B013C012F83388749875A8714
:100900002091DB033091DC033E832D838091E10352
:100910009091E2039A8389831C861B869FEF9B83B9
:10092000EFEFEC83212C312C80E8882E9FEB992E61
:100930008B859C85ED81FE818E179F07F4F5E981FB
:10094000FA81A088B188C288D388E484F5840685BA
:1009500017852F81388549855A85C301B2010E94C8
:100960007F037B018C019101A4010E94621187FD2C
:100970000DC020E030E040E85FEBB101C4010E940F
:100980006211882341F07101840109C0FB85FB835A
:100990002C852C8304C03B853B838C858C83EB8525
:1009A000FC853196FC87EB8729813A81245E3F4F95
:1009B0003A83298317014801BBCF8B819C812C96F8
:1009C0000FB6F894DEBF0FBECDBFDF91CF911F9160
:1009D0000F91FF90EF90DF90CF90BF90AF909F90DE
:1009E0008F907F906F905F904F903F902F900895E1
:1009F000AF92BF92CF92DF92EF92FF920F931F932D
:100A00002CE1AC01249FC001259F900D1124E091A1
:100A1000E103F091E203E80FF91FA091E303B09125
:100A2000E403A088B188C288D388E484F58406856D
:100A3000178555962D913D914D915C915897519602
:100A40006D917D918D919C9154970E947F031F9190
:100A50000F91FF90EF90DF90CF90BF90AF900895EF
:100A60002BED3FE049E450E40E94EE1320E030E03B
:100A700044E353E40E9469110895CF93DF93C0913A
:100A8000E303D091E403FE01CE01049621912223D9
:100A900061F1E817F907D1F780E090E0FE01E80F77
:100AA000F91F2085222309F1019684309105B1F7C1
:100AB00020E030E0A90169897A898B899C890E94AC
:100AC0006211882391F020E030E0A9016D897E89D0
:100AD0008F89988D0E946211882339F081E090E01F
:100AE0002AA92A3221F080E002C080E090E0DF9164
:100AF000CF9108950F931F93CF93DF938C01EB0158
:100B00006F3F8FEF780759F48091DB039091DC03FE
:100B10002CE1289FE001299FD00D112421960E94ED
:100B2000530A0C171D07BCF480917E0390917F033C
:100B3000019789F0C8010E949C0F811101C08FE3C9
:100B40000E940B0C87EA91E60197F1F700C00000C4
:100B50000F5F1F4FE6CFDF91CF911F910F91089547
:100B60001F93CF93DF93C0E0D0E01CE12091DB0323
:100B70003091DC03129FC001139F900D1124C81700
:100B8000D907B4F480917E0390917F03019781F09F
:100B90002196CE010E949C0F811101C08FE30E941B
:100BA0000B0C87EA91E60197F1F700C00000DECF59
:100BB000DF91CF911F9108950E94530A85E691E03D
:100BC0000E943F0C80917E0390917F030197D1F7A3
:100BD0000895CF93DF9380917E0390917F030197D7
:100BE00009F4C4C00E94530A83E891E00E943F0CBC
:100BF0002FE38DE093E0215080409040E1F700C06A
:100C000000000E94530AC0E0D0E0209769F089E616
:100C100093E00E943F0CFE013297E930F10578F431
:100C2000EA5BFF4F0C94871585E991E00E943F0C29
:100C300068E070E08091E3039091E40381C08FE964
:100C400091E00E943F0C8091E3039091E40368E0FF
:100C500070E0089675C086EA91E00E943F0CE09132
:100C6000E303F091E40380895DC08CEA91E00E9487
:100C70003F0CE091E303F091E40361897289838979
:100C800094890CC082EB91E00E943F0CE091E30359
:100C9000F091E403658976898789908D44E050E07E
:100CA0001DC088EB91E00E943F0CE091E303F091BE
:100CB000E403618D728D838D948D41E050E00EC010
:100CC00080EC91E00E943F0CE091E303F091E4039B
:100CD000658D768D878D90A143E050E00E94880C51
:100CE00031C089EC91E00E943F0C8091E303909128
:100CF000E40368E070E0819623C080ED91E00E94FB
:100D00003F0C8091E3039091E40368E070E08996E2
:100D100017C089ED91E00E943F0CE091E303F09150
:100D2000E40381A90E940B0C0DC080EE91E00E94AB
:100D30003F0C8091E3039091E40363E070E0C2967E
:100D40000E94050D2FE38DE093E0215080409040FC
:100D5000E1F700C0000080917E0390917F0301972E
:100D600029F02196CB30D10509F04FCFDF91CF91FB
:100D700008950F931F93CF93DF9380917E039091FB
:100D80007F03019709F46AC00E94530A8BEE91E039
:100D90000E943F0C2FE38DE093E021508040904073
:100DA000E1F700C000000E94530A05E614E0C0E02D
:100DB000D0E0209769F089E693E00E943F0CFE01A5
:100DC0003297EB30F10538F4E15BFF4F0C94871557
:100DD00081E092E023C089E092E020C08EE092E0C2
:100DE0001DC082E192E01AC086E192E017C08AE15C
:100DF00092E014C08EE192E011C082E292E00EC057
:100E000088E292E00BC08FE292E008C084E392E0B7
:100E100005C08BE392E002C080E492E00E943F0CA8
:100E20008FE892E00E943F0CF801819191918F012F
:100E30000E943F0CFFE926E881E0F150204080400D
:100E4000E1F700C0000080917E0390917F0301973D
:100E500029F02196CD30D10509F0ABCFDF91CF91AC
:100E60001F910F910895CF93DF930E94530A89E455
:100E700092E00E943F0CC0E0D0E080917E03909110
:100E80007F03019749F06FEFCE010E94D11A21969E
:100E9000C13F8AE0D80789F7DF91CF9108950F937A
:100EA0001F93CF93DF932CE1289F8001299F100D82
:100EB0001124C0E0D0E0E091E103F091E203E00F03
:100EC000F11FEC0FFD1F80810E940B0C2196C83092
:100ED000D10589F7DF91CF911F910F9108950F935D
:100EE0001F93CF93DF936091DB037091DC038091BC
:100EF000E1039091E203C0E0D0E0C617D7070CF001
:100F00006CC0AC0120E030E08A014F5F5F4FD80138
:100F1000EC91E052EF3508F457C081E090E09093F7
:100F20007903809378030E94530A8AE592E00E9435
:100F30003F0CBFE7EAE1F6E0B150E040F040E1F7F6
:100F400000C000000E94530A8EE692E00E943F0C0F
:100F50002FE986E891E0215080409040E1F700C001
:100F600000000E94530A84E892E00E943F0C63E074
:100F700070E0CE0101960E94610C8EE892E00E9422
:100F80003F0C87E20E940B0CD8018C910E940B0C45
:100F900087E20E940B0C8AE00E940B0CBFE7EAE19B
:100FA000F6E0B150E040F040E1F700C00000CE01B3
:100FB0000E944F072FEF84E39CE021508040904037
:100FC000E1F700C0000009C02F5F3F4F2830310516
:100FD00009F09ACF21964C9690CFDF91CF911F9137
:100FE0000F9108950F931F93CF93DF9380917E030A
:100FF00090917F03019709F44DC00E94530A63E06A
:1010000070E08091DB039091DC030E94610C82E927
:1010100092E00E943F0C2FE78AE196E02150804049
:101020009040E1F700C000000E94530A89E693E077
:101030000E943F0CC0E0D0E08091DB039091DC0384
:10104000C817D9073CF580917E0390917F030197E3
:1010500009F189E693E00E943F0C8E010F5F1F4F5C
:1010600063E070E0C8010E94610C8FE892E00E948A
:101070003F0CCE010E944F0780917E0390917F0329
:10108000019741F083E294EF0197F1F700C000006F
:10109000E801D2CFDF91CF911F910F9108950F9367
:1010A0001F93CF93DF938C0163E070E001960E9461
:1010B000610C8FE892E00E943F0CC8010E944F072C
:1010C00083E294EF0197F1F700C0000089E693E016
:1010D0000E943F0C80917E0390917F03019709F459
:1010E000B1C082EA92E00E943F0C8CE1809FE00157
:1010F000819FD00D1124E091E103F091E203EC0F08
:10110000FD1F608571858285938541E050E00E94D6
:10111000880C83E294EF0197F1F700C0000089E6A4
:1011200093E00E943F0C80917E0390917F03019792
:1011300009F488C089EA92E00E943F0CE091E10343
:10114000F091E203EC0FFD1F648575858685978518
:1011500044E050E00E94880C83E294EF0197F1F79D
:1011600000C0000089E693E00E943F0C80917E035E
:1011700090917F03019709F465C08FEA92E00E9485
:101180003F0CE091E103F091E203EC0FFD1F608959
:1011900071898289938944E050E00E94880C83E23F
:1011A00094EF0197F1F700C0000089E693E00E94F8
:1011B0003F0C80917E0390917F03019709F442C018
:1011C00085EB92E00E943F0CE091E103F091E20395
:1011D000EC0FFD1F648975898689978941E050E08D
:1011E0000E94880C83E294EF0197F1F700C00000A1
:1011F00089E693E00E943F0C80917E0390917F03EB
:10120000019701F18BEB92E00E943F0CE091E1032A
:10121000F091E203EC0FFD1F608D718D828D938D37
:1012200040E050E00E94880C83E294EF0197F1F7D0
:1012300000C0000089E693E00E943F0C80917E038D
:1012400090917F03DF91CF911F910F910895CF93DC
:10125000DF9380917E0390917F030197C9F10E94F3
:10126000530A63E070E08091DB039091DC030E94FD
:10127000610C82E992E00E943F0C2FE78AE196E040
:10128000215080409040E1F700C00000C0E0D0E075
:101290008091DB039091DC03C817D907CCF48091CF
:1012A0007E0390917F03019799F00E94530ACE012B
:1012B0000E944F0880917E0390917F03019741F037
:1012C0008FE493EC0197F1F700C000002196E0CF86
:1012D000DF91CF91089580917E0390917F030197D4
:1012E00009F45DC00E94530A82EC92E00E943F0C18
:1012F0002FE78AE196E0215080409040E1F700C05E
:1013000000000E94530AE091E303F091E403258971
:1013100036894789508D61897289838994890E94B1
:10132000600490930301809302010E944F0789E6B5
:1013300093E00E943F0C80910201909103010E9472
:10134000F80441E050E00E94880C8DED92E00E948C
:101350003F0C80917E0390917F03019701F12FEF65
:1013600084E39CE0215080409040E1F700C0000001
:1013700080917E0390917F03019789F00E94530A28
:1013800080910201909103010E944F082FE78AE1AA
:1013900096E0215080409040E1F700C000000895A1
:1013A000AF92BF92CF92DF92EF92FF920F931F9373
:1013B0000E94530A8EE293E00E943F0C2FE78AE1DD
:1013C00096E0215080409040E1F700C000000E946C
:1013D000530A8AE493E00E943F0CA12CB12C20ED2B
:1013E000C22E22ECD22EE12CF12C0CE112E420E0F2
:1013F00030E044E952EC60E070E080E292E40E9468
:101400007F0341E050E00E94880C8DED92E00E9445
:101410003F0C2FE181EA97E0215080409040E1F7B6
:1014200000C000000E94530A8AE593E00E943F0C2E
:1014300045E3A42E4EE1B42E4DEBC42E42ECD42E47
:1014400012E3E12E15E5F12E0CE112E422E430E284
:101450004DEB52EC65E276E88CE192E40E947F036A
:1014600041E050E00E94880C8DED92E00E943F0C1C
:101470002FE181EA97E0215080409040E1F700C0E1
:1014800000001F910F91FF90EF90DF90CF90BF90E1
:10149000AF900895129A81EE94E00197F1F700C0A1
:1014A0000000129808951092DE031092DD0381E08F
:1014B00090E0909305018093040181B18FEF81B991
:1014C00087E893E10197F1F700C0000012981098A7
:1014D000119816981598149A139A0E944A0A81EE48
:1014E00094E00197F1F700C000000E944A0A89EFDA
:1014F00090E00197F1F700C000000E944A0A89EFCE
:1015000090E00197F1F700C0000016981598149A22
:1015100013980E944A0A89EF90E00197F1F700C002
:10152000000016981598149A13980E944A0A89EF99
:1015300090E00197F1F700C00000169A15981498F2
:1015400013980E944A0A89EF90E00197F1F700C0D2
:10155000000016981598149813980E944A0A89EF6B
:1015600090E00197F1F700C00000169A159A149ABE
:1015700013980E944A0A89EF90E00197F1F700C0A2
:10158000000016981598149813980E944A0A89EF3B
:1015900090E00197F1F700C0000016981598149894
:1015A000139A0E944A0A89EF90E00197F1F700C070
:1015B000000016981598149813980E944A0A89EF0B
:1015C00090E00197F1F700C000001698159A149A60
:1015D00013980E944A0A89EF90E00197F1F700C042
:1015E000000016981598149813980E944A0A89EFDB
:1015F00090E00197F1F700C00000169A159A149A2E
:10160000139A0E944A0A89EF90E00197F1F700C00F
:10161000000080E090E00895019711F4169A01C04F
:1016200016986130710511F4159A01C01598413072
:10163000510511F4149A01C014982130310511F4A8
:10164000139A01C013980E944A0A89EF90E001970B
:10165000F1F700C0000008951F93CF93DF9381B18D
:10166000877881B91098119A129A81EE94E00197C7
:10167000F1F700C0000012B182B1C2B1A2B112985C
:10168000E9EFF0E03197F1F700C00000129AE1EEC7
:10169000F4E03197F1F700C00000E2B162B142B16D
:1016A00052B1807290E026E0880F991F2A95E1F7E9
:1016B000C071D0E035E0CC0FDD1F3A95E1F78C2BFF
:1016C0009D2B5870852BA870B0E054E0AA0FBB1F6B
:1016D0005A95E1F78A2B9B2BE074F0E073E0EE0F54
:1016E000FF1F7A95E1F78E2B9F2B607270E0660FDB
:1016F000771F660F771F862B972B129851B158676B
:1017000051B910981198407150E0440F551F842B27
:10171000952B16FB222720F930E03695322F222711
:1017200037952795822B932BDF91CF911F910895A9
:101730000E942C0B8F77992701960895892B11F41D
:10174000169801C0169A672B11F4159801C0159AC6
:10175000452B11F4149801C0149A232B11F41398FB
:101760000895139A0895CF93DF93EC011098119880
:10177000282F2295217085FB442740F986FB662798
:1017800060F930E050E070E081E090E00E949E0B54
:101790000E944A0A9E01217033274C2F46954170C2
:1017A000C2FB662760F950E070E0C3FB882780F930
:1017B00090E00E949E0BDF91CF910C944A0ACF9348
:1017C000C82F109A119884FB222720F985FB442703
:1017D00040F986FB662760F9881F8827881F30E05C
:1017E00050E070E090E00E949E0B0E944A0A2C2F6D
:1017F0002170C1FB442740F9C2FB662760F930E045
:1018000050E070E0C3FB882780F990E00E949E0BB7
:10181000CF910C944A0ACF93C82F2091DD033091C9
:10182000DE032F5F3F4F3093DE032093DD03213132
:10183000310531F08A3021F08C2FCF910C94DF0BE1
:1018400020910401309105012130310579F480E4C3
:1018500090E00E94B30B22E030E03093050120932A
:1018600004011092DE031092DD0305C02230310521
:1018700011F40E94530ACA30F9F6CF9108950F93DC
:101880001F93CF93DF93EC010E94980B8E01FE0112
:1018900001900020E9F73197EC1BFD0BC8018C1B70
:1018A0009D0B8E179F0740F4F80181918F010E94D4
:1018B0000B0C0E94980BEBCFDF91CF911F910F91F2
:1018C00008950F931F93CF93DF93182F092FCB0108
:1018D0000E948D15D82FC92F0F931F932BE633E04D
:1018E0003F932F939F938F930E9489188D2F9C2F46
:1018F0000E943F0C0F900F900F900F900F900F9041
:101900008D2F9C2FDF91CF911F910F910C94251655
:10191000CF92DF92EF92FF920F931F93CF93DF93BB
:1019200000D000D0CDB7DEB78A01AE014F5F5F4F68
:101930000E94BB136B017C0169817A818B819C8140
:101940000E94D111DC01CB0164E070E00E94610CC7
:1019500080E491E00E943F0CB801882777FD8095D4
:10196000982F0E9404129B01AC0160E070E080E2BD
:1019700091E40E9451149B01AC01C701B6010E9481
:10198000EE130E949D140E94D1117B0177FF04C0C9
:10199000EE24FF24E61AF70AE114F104A1F0B701DE
:1019A000882777FD8095982F0E9404120E9470135B
:1019B0000E943F1220E030E040E85FE30E949C106C
:1019C0000E94D11102C060E070E0C12CD12C061B36
:1019D000170BC016D10644F48EE693E00E943F0C2C
:1019E0008FEFC81AD80AF5CF64E070E0C7010F90F6
:1019F0000F900F900F90DF91CF911F910F91FF905B
:101A0000EF90DF90CF900C94610CCF92DF92EF9229
:101A1000FF920F931F93CF93DF938C016B010E9472
:101A2000980B7801C0E0D0E0CC15DD059CF4F801FE
:101A300001900020E9F73197E01BF10BCE17DF078B
:101A400048F4F70181917F010E940B0C0E94980BD2
:101A50002196EACFDF91CF911F910F91FF90EF90E8
:101A6000DF90CF900895CF93DF9300D000D000D0C7
:101A7000CDB7DEB726E0ECE0F1E0DE011196019093
:101A80000D922A95E1F7FE01319620E030E0DC016D
:101A9000A20FB31F4C9141932F5F3F4F263031056A
:101AA000B1F760E773E0CE0101960E945C1821E077
:101AB00030E0892B11F020E030E0C90126960FB606
:101AC000F894DEBF0FBECDBFDF91CF910895CF93C5
:101AD000DF93009721F09093E0038093DF03C091A0
:101AE000DF03D091E003209769F0CE010E947B18BC
:101AF000009741F0FC011192F093E003E093DF03C3
:101B0000CE0102C080E090E0DF91CF9108950F9365
:101B10001F93CF93DF938B0163E171E00E94670D08
:101B2000EC01BC01D8018D919C910E946518FE01C9
:101B300001900020E9F73197EC1BFD0BE031F10536
:101B40005CF4D8018D919C918E0F9F1FDC011C923B
:101B50003196F4CF0E5F1F4FCD2B11F163E171E091
:101B600080E090E00E94670DEC01BC01F8018281E9
:101B700093810E946518FE0101900020E9F73197DA
:101B8000EC1BFD0BE031F1052CF7D80112968D917D
:101B90009C9113978E0F9F1FDC011C923196F2CF00
:101BA00080E090E0DF91CF911F910F910895FC01AB
:101BB0009F01281B390B2617370714F41192F8CF11
:101BC0000895AF92BF92CF92DF92EF92FF921F9350
:101BD000CF93DF93CDB7DEB727970FB6F894DEBF6C
:101BE0000FBECDBF5C01162FFC018081992787FDB8
:101BF0009095C0972AE0289FB001299F700D11246D
:101C00008181992787FD9095C097680F791F882754
:101C100077FD8095982F0E9404126B017C01B5011D
:101C20006E5F7F4F47E050E0CE0101960E946C1836
:101C300060E070E0CE0101960E94B41620E030E032
:101C400040E752E40E9469119B01AC01C701B60153
:101C50000E949C10133509F4905827960FB6F894FB
:101C6000DEBF0FBECDBFDF91CF911F91FF90EF90F0
:101C7000DF90CF90BF90AF900895AF92BF92CF9278
:101C8000DF92EF92FF921F93CF93DF93CDB7DEB732
:101C900027970FB6F894DEBF0FBECDBF5C01162F9D
:101CA000FC018081992787FD9095C09724E6289FA5
:101CB000B001299F700D11248181992787FD90958E
:101CC000C0974AE0489F9001499F300D1124620F50
:101CD000731F8281992787FD9095C097680F791FA0
:101CE000882777FD8095982F0E9404126B017C0154
:101CF000B5016D5F7F4F47E050E0CE0101960E9435
:101D00006C1860E070E0CE0101960E94B41620E0ED
:101D100030E040E752E40E9469119B01AC01C70129
:101D2000B6010E949C10173509F4905827960FB6FB
:101D3000F894DEBF0FBECDBFDF91CF911F91FF9012
:101D4000EF90DF90CF90BF90AF900895EF92FF9209
:101D50000F931F93CF93DF938C01EB0168E070E04A
:101D6000CE010E94D70DD8016D917C91CE010E94C9
:101D7000651868E070E0CE0108960E94D70DD80182
:101D80001296ED91FC911397808188871296ED91C0
:101D9000FC911397818189878AE38A871296ED9156
:101DA000FC91139792819B871296ED91FC9113976A
:101DB00093819C878D871296ED91FC911397848176
:101DC0008E871296ED91FC91139785818F871496DB
:101DD000ED91FC9115978081888B198A1A8A1B8A4C
:101DE0001C8A1896ED91FC911997608116968D9139
:101DF0009C9117970E94E10D698B7A8B8B8B9C8B42
:101E00001D8A1E8A1F8A188ED8011C96ED91FC919E
:101E10001D9760811A968D919C911B970E943D0E93
:101E20006D8B7E8B8F8B988F198E1A8E1B8E1C8ECE
:101E300060E070E0F801868597850E94B416698F8E
:101E40007A8F8B8F9C8F1D8E1E8E1F8E18A260E046
:101E500070E0D80150968D919C9151970E94B416D4
:101E60006D8F7E8F8F8F98A368E070E0CE01819692
:101E70000E94D70DD8015296ED91FC915397828123
:101E800089A35296ED91FC91539783818AA38FE2A7
:101E90008BA35296ED91FC91539790819CA35296FF
:101EA000ED91FC91539791819DA38EA35296ED9154
:101EB000FC91539784818FA35296ED91FC91539797
:101EC000858188A77E01B9E2EB0EF11C68E070E025
:101ED000C7010E94D70DF80164897589C7010E9466
:101EE0006518D8015896ED91FC915997808189AB7E
:101EF00063E070E0CE01C2960E94D70DD8015896DB
:101F0000ED91FC91599781818AAB5896ED91FC91A6
:101F1000599782818BAB5896ED91FC9159978381AB
:101F20008CABDF91CF911F910F91FF90EF900895AF
:101F30000E94C31A90E008950C94C31A0C94CB1A13
:101F40000C94B31ACF93DF931F92CDB7DEB70E94E4
:101F5000D40105E614E080E190E00E948D15F801BF
:101F6000819391938F01F4E00F371F07A1F785E369
:101F700090E00E948D159093E4038093E30381EE3B
:101F800092E00E943F0C0E94E6012FE38DE093E077
:101F9000215080409040E1F700C0000002E010E0D6
:101FA000E0907E03F0907F03E1E0EE16F10499F1FA
:101FB000F2E0EF16F10461F1EF2891F78091DB0375
:101FC0009091DC031816190644F080917E039091DD
:101FD0007F03019709F060C0E3CF0E94CE010E9409
:101FE000F2070E943D05892B29F00E946B090E948F
:101FF000E905D6CF0E94530A85EF92E00E943F0C7C
:102000002FE38DE093E0215080409040E1F756C0EF
:102010000E94DC05C5CF0E94270180917A03909130
:102020007B03892BA1F40E94530A85E093E00E9470
:102030003F0CF0927B03E0927A03109279031092A6
:10204000780310927D0310927C030E949702909176
:10205000DA038091D903981709F443C01092D20390
:102060001092D3031092D4031092D5030E9424033C
:1020700089830E940F036981892B19F180E090E028
:102080000E9444030E946F07809178039091790326
:10209000892B39F00E94330710937F0300937E034E
:1020A0007FCF0E94530A8EE193E00E943F0CEFE342
:1020B000FDE023E0E150F0402040E1F700C00000E7
:1020C0006FCF80917C0390917D030E94D11A809103
:1020D0007C0390917D03019690937D0380937C0314
:1020E0005FCF20E030E040E85FE36091D203709181
:1020F000D3038091D4039091D5030E949C106093E8
:10210000D2037093D3038093D4039093D50320E03C
:1021100030E543E457E40E94651318160CF040CFF5
:1021200081E090E00E94440360E270E080E090E093
:102130000E947A05AFCF5058BB27AA270ED063C2A2
:102140002CD230F031D220F031F49F3F11F41EF444
:10215000FCC10EF4E095E7FBC9C1E92F76D280F30C
:10216000BA17620773078407950718F071F49EF594
:10217000A5C20EF4E0950B2EBA2FA02D0B01B901CC
:1021800090010C01CA01A0011124FF27591B99F0ED
:10219000593F50F4503E68F11A16F040A22F232FF9
:1021A000342F4427585FF3CF469537952795A79549
:1021B000F0405395C9F77EF41F16BA0B620B730BF0
:1021C000840BBAF09150A1F0FF0FBB1F661F771F61
:1021D000881FC2F70EC0BA0F621F731F841F48F416
:1021E000879577956795B795F7959E3F08F0B3CF9C
:1021F0009395880F08F09927EE0F97958795089586
:10220000CCD158F080E891E009F49EEFCDD128F0D0
:1022100040E851E059F45EEF09C097C14FC2E92F81
:10222000E07813D268F3092E052AC1F32617370781
:102230004807590738F00E2E07F8E02569F0E02529
:10224000E0640AC0EF6307F8009407FADB01B90104
:102250009D01DC01CA01AD01EF934AD0D4D10AD06F
:102260005F91552331F02BED3FE049E450FD49ECFF
:1022700063CF0895DF93DD27B92FBF7740E85FE391
:102280001616170648075B0710F4D92F22D29F9322
:102290008F937F936F93B9D3E4EBF0E059D1B3D12F
:1022A0002F913F914F915F91A5D2DD2349F0905836
:1022B000A2EA2AED3FE049EC5FE3D0785D274DDFED
:1022C000DF91A1C1EFD008F481E0089575D1E395C5
:1022D000ABC10CD098C168D140F05FD130F021F48F
:1022E0005F3F19F003C15111EAC12FC1AED198F37C
:1022F0009923C9F35523B1F3951B550BBB27AA2787
:1023000062177307840738F09F5F5F4F220F331FF8
:10231000441FAA1FA9F333D00E2E3AF0E0E830D0C4
:1023200091505040E695001CCAF729D0FE2F27D0C7
:10233000660F771F881FBB1F261737074807AB0795
:10234000B0E809F0BB0B802DBF01FF2793585F4F0A
:102350002AF09E3F510568F0C9C0B1C15F3FECF360
:10236000983EDCF3869577956795B795F7959F5FCF
:10237000C9F7880F911D9695879597F90895E1E023
:10238000660F771F881FBB1F621773078407BA0782
:1023900020F0621B730B840BBA0BEE1F88F7E095DD
:1023A000089504D06894B1118AC1089556D188F077
:1023B0009F5790F0B92F9927B751A0F0D1F0660F31
:1023C000771F881F991F1AF0BA95C9F712C0B1304C
:1023D00081F074D1B1E0089571C1672F782F8827FB
:1023E000B85F39F0B93FCCF3869577956795B3958B
:1023F000D9F73EF490958095709561957F4F8F4FFA
:102400009F4F0895E89409C097FB3EF490958095FE
:10241000709561957F4F8F4F9F4F9923A9F0F92FAA
:1024200096E9BB279395F695879577956795B79528
:10243000F111F8CFFAF4BB0F11F460FF1BC06F5F0E
:102440007F4F8F4F9F4F16C0882311F096E911C020
:10245000772321F09EE8872F762F05C0662371F041
:1024600096E8862F70E060E02AF09A95660F771F55
:10247000881FDAF7880F9695879597F9089507D101
:1024800080F09F3740F491110EF019C160E070E0C8
:1024900080E89FEB089526F41B16611D711D811DB8
:1024A0002BC045C0990F0008550FAA0BE0E8FEEFBE
:1024B00016161706E807F907C0F012161306E40708
:1024C000F50798F0621B730B840B950B39F40A2601
:1024D00061F0232B242B252B21F408950A2609F4DF
:1024E000A140A6958FEF811D811D089597F99F67E3
:1024F00080E870E060E00895882371F4772321F08C
:102500009850872B762F07C0662311F499270DC0AA
:102510009051862B70E060E02AF09A95660F771F45
:10252000881FDAF7880F9695879597F908959F3F4A
:1025300031F0915020F4879577956795B795880F7E
:10254000911D9695879597F908959FEF80EC0895D2
:10255000DF93CF931F930F93FF92EF92DF927B0154
:102560008C01689405C0DA2EEF0144D1FE01E89495
:10257000A5912591359145915591AEF3EF01EDDD92
:10258000FE019701A801DA9479F7DF90EF90FF90B0
:102590000F911F91CF91DF91089500240A94161690
:1025A000170618060906089500240A941216130641
:1025B000140605060895C9CF50D0E8F3E894E0E08A
:1025C000BB279F57F0F02AED3FE049EC06C0EE0F25
:1025D000BB0F661F771F881F28F0B23A6207730788
:1025E000840728F0B25A620B730B840BE3959A951B
:1025F00072F7803830F49A95BB0F661F771F881FDB
:10260000D2F7904896CF092E0394000C11F488233A
:1026100052F0BB0F40F4BF2B11F460FF04C06F5F9A
:102620007F4F8F4F9F4F0895EF93E0FF06C0A2EAC0
:102630002AED3FE049EC5FEB90DDE5DF0F9003947E
:1026400001FC9058E1EEF0E01BC257FD9058440F9A
:10265000551F59F05F3F71F04795880F97FB991F01
:1026600061F09F3F79F087950895121613061406BE
:10267000551FF2CF4695F1DF08C01616170618064B
:10268000991FF1CF86957105610508940895E5DFDE
:10269000A0F0BEE7B91788F4BB279F3860F4161680
:1026A000B11D672F782F8827985FF7CF869577958C
:1026B0006795B11D93959639C8F30895E894BB27A3
:1026C00066277727CB0197F90895ECDE08F48FEFA2
:1026D00008959B01AC0160E070E080E89FE3F9CDD4
:1026E0000AD029ED3BE54EED5EE378C00EF01FCF3A
:1026F0002CCF6894FBCEB1DFC8F39923D1F3C6F396
:10270000DF93CF931F930F93FF92C92FDD27882369
:102710002AF02197660F771F881FDAF720E030E054
:1027200040E85FEB9FE3883920F0803E30F021964F
:102730008F7702DDEFEFF0E003C0FEDCECE2F1E0CA
:1027400007DF8B01BE01EC01FB2E6F5771097595F8
:10275000771F880B990B58DE28E132E741E35FE3EE
:1027600049D0AF2D9801AE01FF900F911F91CF91ED
:10277000DF91F3DC48CFFA01DC01AA0FBB1F9B01FC
:10278000AC01BF5728F422273327442750781FC0B5
:10279000B75188F4AB2F0024469537952795011C37
:1027A000A395D2F3002069F0220F331F441FB39585
:1027B000DAF30DD0C0CC61307105A0E88A07B946C4
:1027C00030F49B01AC0166277727882790783096F4
:1027D00021F0208331834283538308950BD013CF9C
:1027E000DCDE28F0E1DE18F0952309F07FCEADCED7
:1027F000112465CF2ADFA0F3959FD1F3950F50E008
:10280000551F629FF001729FBB27F00DB11D639FA2
:10281000AA27F00DB11DAA1F649F6627B00DA11D48
:10282000661F829F2227B00DA11D621F739FB00DEE
:10283000A11D621F839FA00D611D221F749F33275E
:10284000A00D611D231F849F600D211D822F762FF7
:102850006A2F11249F5750408AF0E1F088234AF0F4
:10286000EE0FFF1FBB1F661F771F881F9150504040
:10287000A9F79E3F510570F039CE21CF5F3FECF3B1
:10288000983EDCF3869577956795B795F795E7952C
:102890009F5FC1F7FE2B880F911D9695879597F93D
:1028A0000895FA01EE0FFF1F30962105310599F1C9
:1028B0006115710561F48038BFE39B0749F16894A5
:1028C0009038810561F08038BFEF9B0741F0992374
:1028D00042F5FF3FE1053105210511F1E894089427
:1028E000E795D901AA2329F4AB2FBE2FF85FD0F3C7
:1028F00010C0FF5F70F4A695E0F7F73950F019F0BB
:10290000FF3A38F49F779F930CD00F9007FC9058B4
:1029100008953EF01ACE60E070E080E89FE30895ED
:102920004FE79F775F934F933F932F93E4DE2F9171
:102930003F914F915F9152DF70C08FDEE0F09E3784
:10294000D8F09639B8F49E3848F4672F782F882746
:10295000985FF9CF86957795679593959539D0F3DC
:10296000B62FB1706B0F711D811D20F4879577957F
:1029700067959395C1CDDBCDA2CE9F931DDE0F90C1
:1029800007FCEE5F51CE11F40EF4DFCDD0CD65DE45
:10299000D0F39923D9F3CEF39F57550B87FF69D016
:1029A0000024A0E640EA900180585695979528F4B7
:1029B000805C660F771F881F20F0261737074807AF
:1029C00030F4621B730B840B202931294A2BA69506
:1029D00017940794202531254A2758F7660F771F4B
:1029E000881F20F026173707480730F4620B730B57
:1029F000840B200D311D411DA09581F7B901842F55
:102A00009158880F9695879508959B01AC01E6CE65
:102A100019F40EF06BCD52CE98CD1FDEC8F3963868
:102A2000C0F707F80F92E8942BE33AEA48EB5FE728
:102A3000E3DE0F920F920F924DB75EB70F929BDEBF
:102A4000E9E5F1E085DD4F915F91EF91FF91E5952B
:102A5000EE1FFF1F49F0FE57E0684427EE0F441FAA
:102A6000FA95E1F74195550B1ED00F9007FE31CE38
:102A7000089591505040660F771F881FD2F7089530
:102A80009F938F937F936F93FF93EF939B01AC0181
:102A9000A5DEEF91FF915CDD2F913F914F915F910A
:102AA0009DCE24CD44CDD9DDE8F39923D9F3940FFD
:102AB000511DBBF39150504094F059F0882332F0EF
:102AC000660F771F881F91505040C1F79E3F5105F8
:102AD00044F7880F911D9695879597F908955F3F64
:102AE000ACF0983E9CF0BB27869577956795B79597
:102AF00008F4B1609395C1F7BB0F58F711F460FF6C
:102B0000E8CF6F5F7F4F8F4F9F4FE3CFD8CDEE0F52
:102B1000FF1F0590F491E02D0994CF93DF9382304D
:102B2000910510F482E090E0E0918104F09182043C
:102B300020E030E0A0E0B0E0309739F140815181F1
:102B400048175907B8F04817590771F482819381E3
:102B5000109729F013969C938E9312972CC0909304
:102B600082048093810427C02115310531F042177A
:102B7000530718F0A901DB0101C0EF019A01BD0163
:102B8000DF010280F381E02DD7CF21153105F9F067
:102B9000281B390B2430310580F48A819B81611513
:102BA000710521F0FB019383828304C0909382041A
:102BB00080938104FE01329644C0FE01E20FF31FB0
:102BC0008193919322503109398328833AC020910F
:102BD0007F0430918004232B41F42091080130912F
:102BE00009013093800420937F04209106013091E5
:102BF00007012115310541F42DB73EB740910A0177
:102C000050910B01241B350BE0917F04F09180045F
:102C1000E217F307A0F42E1B3F0B2817390778F0B3
:102C2000AC014E5F5F4F2417350748F04E0F5F1F12
:102C30005093800440937F048193919302C0E0E01D
:102C4000F0E0CF01DF91CF910895CF93DF9300970C
:102C500009F487C0FC01329713821282C09181046B
:102C6000D0918204209781F420813181280F391F6F
:102C700080917F04909180048217930779F5F093F7
:102C80008004E0937F046DC0DE0120E030E0AE17E9
:102C9000BF0750F412964D915C9113979D01411519
:102CA000510509F1DA01F3CFB383A2834081518149
:102CB000840F951F8A179B0771F48D919C91119732
:102CC000840F951F02969183808312968D919C911B
:102CD0001397938382832115310529F4F09382049D
:102CE000E09381043EC0D9011396FC93EE931297B2
:102CF0004D915D91A40FB51FEA17FB0779F4808110
:102D00009181840F951F0296D90111969C938E9301
:102D10008281938113969C938E931297E0E0F0E06A
:102D20008A819B81009719F0FE01EC01F9CFCE0159
:102D3000029628813981820F931F20917F04309160
:102D400080042817390769F4309729F41092820417
:102D50001092810402C013821282D0938004C09327
:102D60007F04DF91CF9108954F925F926F927F928F
:102D70008F929F92AF92BF92CF92DF92EF92FF928B
:102D80000F931F93CF93DF938B016115710521F092
:102D9000DB018C9311969C93EC015E01BFEFAB1AA3
:102DA000BB0A7501C8808C2D90E00E943118892BD8
:102DB00011F0E501F2CFEDE2CE1208C07E01F2E0A3
:102DC000EF0EF11CC980DD24D39409C02BE2C2129E
:102DD00005C07E0142E0E40EF11CC980D12CE70160
:102DE000219743E050E069E871E0CE010E94391874
:102DF000892BD1F4E701229645E050E064E871E0C8
:102E0000CE010E943918892B11F4E701279601158C
:102E1000110519F0D801CD93DC93D11008C160E001
:102E200070E080E89FE70CC143E050E061E871E0AA
:102E3000CE010E943918892B59F40115110509F4A6
:102E4000FBC0B2E0EB0EF11CF801F182E082F4C0AD
:102E5000F70160E070E0CB01C0E0D0E07F01A0EDC1
:102E6000AA2EAC0C29E02A1530F14D2D4260B42E6B
:102E70002D2D2870D2FE04C0211125C0219623C01B
:102E800021112197A5E0B0E09B01AC010E94881BB5
:102E9000660F771F881F991F6A0D711D811D911D77
:102EA0006839A9E97A078A07A9E19A0760F0BD2D78
:102EB000B660BB2E08C02EEFA2120AC0D3FC50C0D1
:102EC0004D2D4860B42E3196D701CC90DB2CC6CF67
:102ED0002C2D2F7D253409F043C0A081AD3241F463
:102EE000BD2DB061DB2E7F0122E0E20EF11C0CC093
:102EF0007F01AB3231F04FEFE41AF40A21E030E009
:102F000006C0A2E0EA0EF11CA18122E030E0A0534D
:102F1000AA3018F0E21AF30A23C0F70120E030E0EB
:102F20002038BCE03B075CF4A901440F551F440F57
:102F3000551F240F351F220F331F2A0F311DAF01DC
:102F40004F5F5F4F7A01A081A053AA3010F4FA01BD
:102F5000E7CFD4FE03C0319521953109C20FD31FAD
:102F6000D1FE09C00115110531F0E1E0EE1AF108BA
:102F7000D801ED92FC920E9402122D2D2370233075
:102F800019F06B017C0106C06B017C01F7FAF0942B
:102F9000F7F8F09420E030E0A901C701B6010E94E3
:102FA0006211882309F440C0D7FF06C0D195C195AE
:102FB000D10900EA11E002C008EB11E04801B8E1D4
:102FC0008B1A910890E2A92EB12CF80145905590EA
:102FD00065907490CA15DB055CF0A3019201C701EE
:102FE000B6010E94EE136B017C01CA19DB09F2CF16
:102FF00004501109B594A7940815190531F78E2DC1
:10300000880F8F2D881F8F3F49F020E030E0A90105
:10301000C701B6010E946211811106C082E290E0F0
:103020009093840480938304C701B60109C060E0D3
:1030300070E080E89FEF04C060E070E080EC9FE704
:10304000DF91CF911F910F91FF90EF90DF90CF9084
:10305000BF90AF909F908F907F906F905F904F90B8
:1030600008959111ACC2803219F089508550D0F783
:103070000895FB01DC014150504088F08D9181346E
:103080001CF08B350CF4805E659161341CF06B355F
:103090000CF4605E861B611171F3990B0895881B17
:1030A000FCCFFB01DC010D900020E9F711970190A6
:1030B0000D920020E1F70895FB01DC018D91019054
:1030C00080190110D9F3990B0895FB01DC010190DF
:1030D0000D920020E1F70895FB01DC0141505040C2
:1030E00048F001900D920020C9F701C01D92415097
:1030F0005040E0F70895DC0199278D91882341F035
:10310000FB01019008160110E1F7B9F71197CD0105
:1031100008950F931F93CF93DF93CDB7DEB72E970C
:103120000FB6F894DEBF0FBECDBF0D891E8986E0B5
:103130008C831A8309838FEF9FE79E838D83AE0173
:10314000475E5F4F6F89788DCE0101960E94B81857
:10315000EF81F885E00FF11F10822E960FB6F894DC
:10316000DEBF0FBECDBFDF91CF911F910F910895AC
:103170002F923F924F925F926F927F928F929F9287
:10318000AF92BF92CF92DF92EF92FF920F931F9375
:10319000CF93DF93CDB7DEB72C970FB6F894DEBF91
:1031A0000FBECDBF7C016B018A01FC011782168224
:1031B000838181FFBDC1CE0101964C01F70193814E
:1031C000F60193FD859193FF81916F01882309F4A6
:1031D000ABC1853239F493FD859193FF81916F01E5
:1031E000853229F4B70190E00E94F81AE7CF512CFC
:1031F000312C20E02032A0F48B3269F030F48032A0
:1032000059F0833269F420612CC08D3239F080335B
:1032100039F4216026C02260246023C0286021C0C8
:1032200027FD27C030ED380F3A3078F426FF06C06E
:10323000FAE05F9E300D1124532E13C08AE0389EB1
:10324000300D1124332E20620CC08E3221F426FD65
:103250006BC1206406C08C3611F4206802C0883629
:1032600041F4F60193FD859193FF81916F018111E6
:10327000C1CF982F9F7D9554933028F40C5F1F4F3A
:10328000FFE3F9830DC0833631F0833771F0833566
:1032900009F05BC022C0F801808189830E5F1F4F57
:1032A00044244394512C540115C03801F2E06F0EB0
:1032B000711CF801A080B18026FF03C0652D70E06D
:1032C00002C06FEF7FEFC5012C870E94ED1A2C0121
:1032D00083012C852F77222E17C03801F2E06F0E64
:1032E000711CF801A080B18026FF03C0652D70E03D
:1032F00002C06FEF7FEFC5012C870E94E21A2C01FC
:103300002C852068222E830123FC1BC0832D90E096
:1033100048165906B0F4B70180E290E00E94F81A0E
:103320003A94F4CFF50127FC859127FE81915F0146
:10333000B70190E00E94F81A31103A94F1E04F1A68
:1033400051084114510471F7E5C0843611F08936F3
:1033500039F5F80127FF07C060817181828193816F
:103360000C5F1F4F08C060817181882777FD8095B1
:10337000982F0E5F1F4F2F76B22E97FF09C09095A2
:103380008095709561957F4F8F4F9F4F2068B22E2B
:103390002AE030E0A4010E942A1BA82EA81844C0ED
:1033A000853729F42F7EB22E2AE030E025C0F22F97
:1033B000F97FBF2E8F36C1F018F4883579F0B4C08C
:1033C000803719F0883721F0AFC02F2F2061B22E3F
:1033D000B4FE0DC08B2D8460B82E09C024FF0AC036
:1033E0009F2F9660B92E06C028E030E005C020E18E
:1033F00030E002C020E132E0F801B7FE07C0608192
:103400007181828193810C5F1F4F06C06081718141
:1034100080E090E00E5F1F4FA4010E942A1BA82E9F
:10342000A818FB2DFF77BF2EB6FE0BC02B2D2E7FCD
:10343000A51450F4B4FE0AC0B2FC08C02B2D2E7E99
:1034400005C07A2C2B2D03C07A2C01C0752C24FFCB
:103450000DC0FE01EA0DF11D8081803311F4297E3B
:1034600009C022FF06C07394739404C0822F86782B
:1034700009F0739423FD13C020FF06C05A2C731467
:1034800018F4530C5718732C731468F4B70180E2C6
:1034900090E02C870E94F81A73942C85F5CF731452
:1034A00010F4371801C0312C24FF12C0B70180E39B
:1034B00090E02C870E94F81A2C8522FF17C021FF6C
:1034C00003C088E590E002C088E790E0B7010CC037
:1034D000822F867859F021FD02C080E201C08BE284
:1034E00027FD8DE2B70190E00E94F81AA51438F488
:1034F000B70180E390E00E94F81A5A94F7CFAA949B
:10350000F401EA0DF11D8081B70190E00E94F81AE4
:10351000A110F5CF332009F451CEB70180E290E03D
:103520000E94F81A3A94F6CFF7018681978102C07B
:103530008FEF9FEF2C960FB6F894DEBF0FBECDBF76
:10354000DF91CF911F910F91FF90EF90DF90CF907F
:10355000BF90AF909F908F907F906F905F904F90B3
:103560003F902F900895DC01CB01FC01F999FECF2B
:1035700006C0F2BDE1BDF89A319600B40D924150FB
:103580005040B8F70895F999FECF92BD81BDF89AE1
:10359000992780B50895A6E1B0E044E050E00C948E
:1035A000B51A262FF999FECF1FBA92BD81BD20BD55
:1035B0000FB6F894FA9AF99A0FBE019608959927D2
:1035C00088270895FC010590615070400110D8F7DC
:1035D000809590958E0F9F1F0895FC01615070405B
:1035E00001900110D8F7809590958E0F9F1F089538
:1035F0000F931F93CF93DF93182F092FEB018B812C
:1036000081FD03C08FEF9FEF20C082FF10C04E816D
:103610005F812C813D81421753077CF4E881F98159
:103620009F012F5F3F4F39832883108306C0E885B1
:10363000F985812F0995892B29F72E813F812F5FED
:103640003F4F3F832E83812F902FDF91CF911F918A
:103650000F910895FA01AA27283051F1203181F104
:10366000E8946F936E7F6E5F7F4F8F4F9F4FAF4F8A
:10367000B1E03ED0B4E03CD0670F781F891F9A1F9D
:10368000A11D680F791F8A1F911DA11D6A0F711D51
:10369000811D911DA11D20D009F468943F912AE05D
:1036A000269F11243019305D3193DEF6CF01089545
:1036B000462F4770405D4193B3E00FD0C9F7F6CF76
:1036C000462F4F70405D4A3318F0495D31FD40523E
:1036D000419302D0A9F7EACFB4E0A69597958795D4
:1036E00077956795BA95C9F70097610571050895B3
:1036F0009B01AC010A2E069457954795379527955F
:10370000BA95C9F7620F731F841F951FA01D0895F6
:103710000E94931BA59F900DB49F900DA49F800DB8
:10372000911D11240895A29FB001B39FC001A39FD2
:10373000700D811D1124911DB29F700D811D1124EA
:08374000911D0895F894FFCFDC
:103748005E24FFFF0100000085042000243132338D
:103758003435002C00696D706F7274696E672000D3
:103768000A73746174696F6E732E2E2E0072656110
:1037780064696E670A6461746162617365202E2EE4
:103788002E004552524F523A0A74696D656F75742E
:10379800202E2E2E000A757064617465206661699A
:1037A8006C65640A00757064617465207265717572
:1037B800697265640A2E2E2E66656564206D652E15
:1037C8002E2E005072696E74696E670A4750532036
:1037D80044617461004D6573736167653A200054F4
:1037E800696D653A20004E52573A20004C61743A90
:1037F80020004C6F6E3A200053706565643A2000D3
:10380800436F757273653A2000446174653A20000D
:103818004D61675661723A20004D6F64653A200029
:10382800436865636B73756D3A20005072696E74F6
:10383800696E67205261770A47505320446174616A
:10384800004D6573736167650054696D65004E527C
:1038580057004C6174004E2F53004C6F6E00452F7B
:103868005700537065656400436F75727365004453
:10387800617465004D6167566172004D6F64650043
:10388800436865636B73756D00776970696E670A65
:103898006D656D6F72792E2E2E00434F5252555022
:1038A80054494F4E0A4445544543544544007472A4
:1038B8006163696E670A636F7272757074696F6E9F
:1038C8002E2E2E0073746174696F6E202300203AC7
:1038D8002000206B6E6F776E0A73746174696F6E67
:1038E8007300667265713A20006C61743A20006C4E
:1038F8006F6E3A20006572703A2000686161743A10
:10390800200046696E64696E67204E656172657352
:10391800740A53746174696F6E2E2E2E00206B6DBD
:103928000072656164696E670A64617461626173DB
:10393800652E2E2E00475053204E6F74204C6F6317
:103948006B65640A007570646174696E672E2E2E4B
:103958000A646F6E277420756E706C7567007570D9
:103968006461746520636F6D706C65746500436194
:103978006C63756C6174696E670A4561727468205E
:1039880044697374616E6365730044656E7665722D
:10399800202D3E204E59433A0A004E6F727468201B
:1039A8004B43202D3E204B433A0A0025640030004B
:0839B800244750524D4300006A
:00000001FF
