:100000000C94DE000C94FD000C94FD000C94FD009B
:100010000C94FD000C94FD000C94FD000C94FD006C
:100020000C94FD000C94FD000C94FD000C94FD005C
:100030000C94FD000C94FD000C94FD000C94FD004C
:100040000C94FD000C94FD000C94FD000C94FD003C
:100050000C942D010C94FD000C94FD000C94FD00FB
:100060000C94FD000C94FD000C94FD000C94FD001C
:100070000C94C7020C94FD000C94FD000C94FD0040
:100080000C94FD000C94FD000C94FD003C0446040F
:1000900053046204710482048E049A04A604FF04CB
:1000A0000205050508050B050E05110514051705C4
:1000B0001A051D05084AD73B3BCE016E84BCBFFD27
:1000C000C12F3D6C74319ABD56833DDA3D00C77F28
:1000D00011BED9E4BB4C3E916BAAAABE00000080C1
:1000E0003F05A84CCDB2D44EB93836A9020C50B950
:1000F000918688083CA6AAAA2ABE000000803F0874
:10010000000000BE922449123EABAAAA2ABECDCC62
:10011000CC4C3E00000080BEABAAAAAA3E00000064
:1001200000BF000000803F0000000000084178D3BD
:10013000BB4387D1133D190E3CC3BD4282AD2B3E5C
:1001400068EC8276BED98FE1A93E4C80EFFFBE01FC
:10015000C4FF7F3F000000000007634236B79BD812
:10016000A71A39685618AEBAAB558C1D3CB7CC5798
:1001700063BD6DEDFD753EF6177231BF0000008066
:100180003F4E414E494E495459494E46CDCCCC3D47
:100190000AD7233C17B7D13877CC2B329595E62474
:1001A0001FB14F0A000020410000C84200401C4619
:1001B00020BCBE4CCA1B0E5AAEC59D7411241FBE76
:1001C000CFEFD0E4DEBFCDBF13E0A0E0B1E0E2EDC1
:1001D000F8E300E00BBF02C007900D92AA3AB10706
:1001E000D9F714E0AAEAB3E001C01D92A73BB1071A
:1001F000E1F70E9411100C94671C0C9400001092FF
:10020000CD008CE08093CC001092C5008093C40098
:10021000E9ECF0E08081886D8083E1ECF0E08081A2
:10022000886D8083E8ECF0E0808182608083E0EC80
:10023000F0E0808182608083EAECF0E080818E6073
:100240008083E2ECF0E08081866080830895E1ECB9
:10025000F0E080818772808308951F920F920FB61D
:100260000F9211240BB60F922F933F934F935F93EE
:100270006F937F938F939F93AF93BF93EF93FF936E
:1002800080910204909103048135910574F080E01F
:1002900090E0FC01EE54FC4F1082019680359105F0
:1002A000C1F71092030410920204E0910204F0914D
:1002B00003048091C600EE54FC4F808380910204B9
:1002C0009091030401969093030480930204E091BB
:1002D0000204F0910304EF54FC4F8081843299F4BE
:1002E00081E090E0FC01EE54FC4F108201968035D5
:1002F0009105C1F784E28093B20381E090E090938E
:10030000030480930204E0910204F0910304EF548B
:10031000FC4F80818D3061F582EB93E00E94900B61
:10032000892B31F10E942701E0910204F09103042E
:10033000EF54FC4F8CE2808367E974E082EB93E03A
:100340000E94E40B609115047091160487E994E013
:100350000E94030D80E090E0FC01EE54FC4F1082FF
:10036000019680359105C1F71092030410920204A2
:10037000FF91EF91BF91AF919F918F917F916F917D
:100380005F914F913F912F910F900BBE0F900FBE39
:100390000F901F901895E1ECF0E08081886D8083CC
:1003A00008958FEF84B9F8940E94FF0078940E941A
:1003B000A7082FE38DE093E0215080409040E1F7C3
:1003C00000C000000895EF92FF920F931F93CF9308
:1003D000DF9380E090E00E9407108F3F910529F0A5
:1003E00090930E0480930D0404C010920E0410929A
:1003F0000D042FE946E851E0215040405040E1F71C
:1004000000C000000E94A70883E191E00E94930AC7
:1004100063E070E080910D0490910E040E94B50A93
:100420008EE191E00E94930A80910D0490910E0458
:100430002CE1FC012E9FC0012F9F900D11240E94E2
:100440005D169093140480931304892B29F0C0E067
:10045000D0E000E010E00CC00E94A7088BE291E021
:10046000DF91CF911F910F91FF90EF900C94930A21
:1004700080910D0490910E04081719070CF05CC0D0
:10048000BE016F5F7F4F809113049091140448E088
:1004900050E08C0F9D1F0E940F10E0901304F0900D
:1004A0001404EC0EFD1ECE0109960E940D10F701FA
:1004B0006087718782879387E0901304F09014041B
:1004C000EC0EFD1ECE010D960E940D10F701648703
:1004D000758786879787E0901304F0901404EC0EDC
:1004E000FD1ECE0141960E940D10F701608B718BAD
:1004F000828B938BE0901304F0901404EC0EFD1E9D
:10050000CE0145960E940D10F701648B758B868B8A
:10051000978BE0901304F0901404EC0EFD1ECE01B6
:1005200049960E940D10F701608F718F828F938F13
:100530000F5F1F4F6C969CCFDF91CF911F910F9152
:10054000FF90EF90089510920E0410920D04809188
:100550001304909114040E94F51610921404109242
:1005600013040895809108049091010189130CC02F
:1005700020910904281308C030910A0481E090E01A
:10058000321721F080E0089580E090E008951F92F6
:100590000F920FB60F9211240BB60F922F933F9329
:1005A0004F935F936F937F938F939F93AF93BF937B
:1005B000EF93FF938091090480930A0480910804CB
:1005C000809309048091CE00809308048091B00349
:1005D0009091B103019769F4E0910B04F0E08091F0
:1005E0000804E95EFB4F808380910B048F5F80934A
:1005F0000B040E94B202892B31F081E090E09093CD
:10060000B1038093B00380910B0487FD10920B041B
:10061000FF91EF91BF91AF919F918F917F916F91DA
:100620005F914F913F912F910F900BBE0F900FBE96
:100630000F901F90189580910804909100018913E4
:100640000CC020910904281308C030910A0481E0ED
:1006500090E0321721F080E0089580E090E0089566
:10066000E0910C04F0E0E95EFB4F808190910C0476
:100670009F5F90930C0490910C0497FD10920C04D2
:10068000089590910C0480910B04981739F0E09133
:100690000C04F0E0E95EFB4F8081089580E008954E
:1006A000CF93DF93EC011092B1031092B00310923C
:1006B000AD031092AC031092040410920504109242
:1006C0000604109207040E94A708209719F486E3F5
:1006D00091E002C08BE491E00E94930A0E94E30142
:1006E0002FE38DE093E0215080409040E1F700C07F
:1006F0000000219721F48EE591E00E94930A2FE9F2
:1007000086E891E0215080409040E1F700C0000071
:10071000DF91CF9108950F931F93CF93DF938C01B7
:10072000EB016F3F8FEF780759F480910D049091A2
:100730000E042CE1289FE001299FD00D1124219661
:100740000E94A7080C171D07BCF48091B00390917C
:10075000B103019789F0C8010E940B10811101C0FB
:100760008FE30E945F0A87EA91E60197F1F700C0E4
:1007700000000F5F1F4FE6CFDF91CF911F910F91C8
:1007800008951F93CF93DF93C0E0D0E01CE1209148
:100790000D0430910E04129FC001139F900D11247F
:1007A000C817D907B4F48091B0039091B1030197B1
:1007B00081F02196CE010E940B10811101C08FE3C0
:1007C0000E945F0A87EA91E60197F1F700C00000F6
:1007D000DECFDF91CF911F9108950E94A7088EE68A
:1007E00091E00E94930A8091B0039091B103019728
:1007F000D1F70895CF93DF938091B0039091B10327
:10080000019709F4C4C00E94A7088CE891E00E94F7
:10081000930A2FE38DE093E0215080409040E1F770
:1008200000C000000E94A708C0E0D0E0209769F057
:100830008EE093E00E94930AFE013297E930F105C1
:1008400078F4EA5BFF4F0C9457168DE991E00E9413
:10085000930A68E070E0809115049091160481C0BD
:1008600087EA91E00E94930A809115049091160402
:1008700068E070E0089675C08EEA91E00E94930AE5
:10088000E0911504F091160480895DC084EB91E03D
:100890000E94930AE0911504F0911604618972890F
:1008A000838994890CC08AEB91E00E94930AE091BD
:1008B0001504F0911604658976898789908D44E046
:1008C00050E01DC080EC91E00E94930AE091150475
:1008D000F0911604618D728D838D948D41E050E00E
:1008E0000EC088EC91E00E94930AE0911504F0910B
:1008F0001604658D768D878D90A143E050E00E94AF
:10090000E50A31C081ED91E00E94930A80911504BF
:100910009091160468E070E0819623C088ED91E024
:100920000E94930A809115049091160468E070E08B
:10093000899617C081EE91E00E94930AE091150418
:10094000F091160481A90E945F0A0DC088EE91E023
:100950000E94930A809115049091160463E070E060
:10096000C2960E94620B2FE38DE093E021508040FD
:100970009040E1F700C000008091B0039091B10376
:10098000019729F02196CB30D10509F04FCFDF91A7
:10099000CF9108950F931F93CF93DF938091B0036E
:1009A0009091B103019709F46AC00E94A70883EFF0
:1009B00091E00E94930A2FE38DE093E02150804064
:1009C0009040E1F700C000000E94A70807E914E08A
:1009D000C0E0D0E0209769F08EE093E00E94930A97
:1009E000FE013297EB30F10538F4E15BFF4F0C94D8
:1009F000571680E092E023C088E092E020C08DE0AE
:100A000092E01DC081E192E01AC085E192E017C03A
:100A100089E192E014C08DE192E011C081E292E0A0
:100A20000EC087E292E00BC08EE292E008C083E342
:100A300092E005C08AE392E002C08FE392E00E9458
:100A4000930A8EE892E00E94930AF80181919191B5
:100A50008F010E94930AFFE926E881E0F1502040CF
:100A60008040E1F700C000008091B0039091B10395
:100A7000019729F02196CD30D10509F0ABCFDF9158
:100A8000CF911F910F910895CF93DF930E94A708F4
:100A900088E492E00E94930AC0E0D0E08091B00325
:100AA0009091B103019749F06FEFCE010E94961B20
:100AB0002196C13F8AE0D80789F7DF91CF91089549
:100AC0000F931F93CF93DF932CE1289F8001299FE1
:100AD000100D1124C0E0D0E0E0911304F091140453
:100AE000E00FF11FEC0FFD1F80810E945F0A21962D
:100AF000C830D10589F7DF91CF911F910F910895EB
:100B00000F931F93CF93DF9360910D0470910E04A8
:100B10008091130490911404C0E0D0E0C617D70769
:100B20000CF06CC0AC0120E030E08A014F5F5F4FF9
:100B3000D801EC91E052EF3508F457C081E090E025
:100B40009093AB038093AA030E94A70889E592E0E3
:100B50000E94930ABFE7EAE1F6E0B150E040F040BE
:100B6000E1F700C000000E94A7088DE692E00E9415
:100B7000930A2FE986E891E0215080409040E1F708
:100B800000C000000E94A70883E892E00E94930A38
:100B900063E070E0CE0101960E94B50A8DE892E014
:100BA0000E94930A87E20E945F0AD8018C910E94FA
:100BB0005F0A87E20E945F0A8AE00E945F0ABFE73D
:100BC000EAE1F6E0B150E040F040E1F700C000009B
:100BD000CE010E9460052FEF84E39CE0215080400D
:100BE0009040E1F700C0000009C02F5F3F4F283060
:100BF000310509F09ACF21964C9690CFDF91CF9195
:100C00001F910F9108950F931F93CF93DF938091BE
:100C1000B0039091B103019709F44DC00E94A70859
:100C200063E070E080910D0490910E040E94B50A7B
:100C300081E992E00E94930A2FE78AE196E0215031
:100C400080409040E1F700C000000E94A7088EE0BD
:100C500093E00E94930AC0E0D0E080910D0490914F
:100C60000E04C817D9073CF58091B0039091B103E9
:100C7000019709F18EE093E00E94930A8E010F5FC5
:100C80001F4F63E070E0C8010E94B50A8EE892E051
:100C90000E94930ACE010E9460058091B00390915A
:100CA000B103019741F083E294EF0197F1F700C09F
:100CB0000000E801D2CFDF91CF911F910F910895ED
:100CC0000F931F93CF93DF938C0163E070E0019645
:100CD0000E94B50A8EE892E00E94930AC8010E9421
:100CE000600583E294EF0197F1F700C000008EE009
:100CF00093E00E94930A8091B0039091B103019711
:100D000009F4B1C081EA92E00E94930A8CE1809FCD
:100D1000E001819FD00D1124E0911304F09114049F
:100D2000EC0FFD1F608571858285938541E050E061
:100D30000E94E50A83E294EF0197F1F700C00000FA
:100D40008EE093E00E94930A8091B0039091B103EA
:100D5000019709F488C088EA92E00E94930AE09122
:100D60001304F0911404EC0FFD1F648575858685CE
:100D7000978544E050E00E94E50A83E294EF0197F2
:100D8000F1F700C000008EE093E00E94930A80918A
:100D9000B0039091B103019709F465C08EEA92E027
:100DA0000E94930AE0911304F0911404EC0FFD1FCC
:100DB000608971898289938944E050E00E94E50A44
:100DC00083E294EF0197F1F700C000008EE093E01A
:100DD0000E94930A8091B0039091B103019709F4A6
:100DE00042C084EB92E00E94930AE0911304F091D8
:100DF0001404EC0FFD1F648975898689978941E089
:100E000050E00E94E50A83E294EF0197F1F700C0F9
:100E100000008EE093E00E94930A8091B0039091CD
:100E2000B103019701F18AEB92E00E94930AE091ED
:100E30001304F0911404EC0FFD1F608D718D828DF1
:100E4000938D40E050E00E94E50A83E294EF019721
:100E5000F1F700C000008EE093E00E94930A8091B9
:100E6000B0039091B103DF91CF911F910F9108953D
:100E7000CF93DF938091B0039091B1030197C9F1B3
:100E80000E94A70863E070E080910D0490910E0429
:100E90000E94B50A81E992E00E94930A2FE78AE155
:100EA00096E0215080409040E1F700C00000C0E093
:100EB000D0E080910D0490910E04C817D907CCF4AE
:100EC0008091B0039091B103019799F00E94A70817
:100ED000CE010E9460068091B0039091B10301970A
:100EE00041F08FE493EC0197F1F700C000002196E8
:100EF000E0CFDF91CF910895EF92FF920F931F9370
:100F00008091B0039091B103019709F46DC00E94E4
:100F1000A70881EC92E00E94930A2FE78AE196E00D
:100F2000215080409040E1F700C000000E94A708D7
:100F3000E0911504F0911604E588F6880789108D74
:100F4000218932894389548960910D0470910E047E
:100F500080911304909114040E94020F9093030156
:100F6000809302010E9460058EE093E00E94930A44
:100F70004091020150910301609113047091140497
:100F800080911504909116040E94920F41E050E068
:100F90000E94E50A8CED92E00E94930A8091B003D2
:100FA0009091B103019701F12FEF84E39CE0215070
:100FB00080409040E1F700C000008091B003909124
:100FC000B103019789F00E94A708809102019091D6
:100FD00003010E9460062FE78AE196E021508040DD
:100FE0009040E1F700C000001F910F91FF90EF903B
:100FF0000895AF92BF92CF92DF92EF92FF920F933C
:101000001F930E94A70887E493E00E94930A2FE7AA
:101010008AE196E0215080409040E1F700C0000056
:101020000E94A70883E693E00E94930AA12CB12CAA
:1010300090EDC92E92ECD92EE12CF12C0CE112E4AA
:1010400020E030E044E952EC60E070E080E292E4BD
:101050000E94210E41E050E00E94E50A8CED92E0F2
:101060000E94930A2FE181EA97E02150804090404E
:10107000E1F700C000000E94A70883E793E00E9408
:10108000930A35E3A32E3EE1B32E3DEBC32E32ECA3
:10109000D32E12E3E12E15E5F12E0CE112E422E449
:1010A00030E24DEB52EC65E276E88CE192E40E948E
:1010B000210E41E050E00E94E50A8CED92E00E9492
:1010C000930A2FE181EA97E0215080409040E1F7B8
:1010D00000C000001F910F91FF90EF90DF90CF9024
:1010E000BF90AF9008950E94A70884E893E00E9403
:1010F000930A2FE38DE093E0215080409040E1F788
:1011000000C0000080911504909116040E94CC0F3D
:10111000892B79F40E94A7080E94FA038091B003FA
:101120009091B103019749F083E294EF0197F1F7B1
:10113000E7CF0E94A7080C94FA030895129A81EE53
:1011400094E00197F1F700C0000012980895109202
:10115000100410920F0481E090E0909305018093B9
:10116000040181B18FEF81B987E893E10197F1F72D
:1011700000C0000012981098119816981598149AAB
:10118000139A0E949E0881EE94E00197F1F700C047
:1011900000000E949E0889EF90E00197F1F700C0DF
:1011A00000000E949E0889EF90E00197F1F700C0CF
:1011B000000016981598149A13980E949E0889EFBB
:1011C00090E00197F1F700C0000016981598149A66
:1011D00013980E949E0889EF90E00197F1F700C0F4
:1011E0000000169A1598149813980E949E0889EF8B
:1011F00090E00197F1F700C0000016981598149838
:1012000013980E949E0889EF90E00197F1F700C0C3
:101210000000169A159A149A13980E949E0889EF56
:1012200090E00197F1F700C0000016981598149807
:1012300013980E949E0889EF90E00197F1F700C093
:101240000000169815981498139A0E949E0889EF2A
:1012500090E00197F1F700C00000169815981498D7
:1012600013980E949E0889EF90E00197F1F700C063
:1012700000001698159A149A13980E949E0889EFF8
:1012800090E00197F1F700C00000169815981498A7
:1012900013980E949E0889EF90E00197F1F700C033
:1012A0000000169A159A149A139A0E949E0889EFC4
:1012B00090E00197F1F700C0000080E090E0089511
:1012C000019711F4169A01C016986130710511F456
:1012D000159A01C015984130510511F4149A01C0B6
:1012E00014982130310511F4139A01C013980E940B
:1012F0009E0889EF90E00197F1F700C00000089583
:101300001F93CF93DF9381B1877881B91098119A99
:10131000129A81EE94E00197F1F700C0000012B13B
:1013200082B1C2B1A2B11298E9EFF0E03197F1F7C2
:1013300000C00000129AE1EEF4E03197F1F700C02E
:101340000000E2B162B142B152B1807290E026E099
:10135000880F991F2A95E1F7C071D0E035E0CC0FD6
:10136000DD1F3A95E1F78C2B9D2B5870852BA870CB
:10137000B0E054E0AA0FBB1F5A95E1F78A2B9B2BD4
:10138000E074F0E073E0EE0FFF1F7A95E1F78E2B2B
:101390009F2B607270E0660F771F660F771F862B9A
:1013A000972B129851B1586751B910981198407104
:1013B00050E0440F551F842B952B16FB222720F954
:1013C00030E03695322F222737952795822B932BA5
:1013D000DF91CF911F9108950E9480098F779927FF
:1013E00001960895892B11F4169801C0169A672B5F
:1013F00011F4159801C0159A452B11F4149801C0E9
:10140000149A232B11F413980895139A0895CF93E7
:10141000DF93EC0110981198282F2295217085FBFD
:10142000442740F986FB662760F930E050E070E021
:1014300081E090E00E94F2090E949E089E012170C6
:1014400033274C2F46954170C2FB662760F950E068
:1014500070E0C3FB882780F990E00E94F209DF91D9
:10146000CF910C949E08CF93C82F109A119884FBAB
:10147000222720F985FB442740F986FB662760F97F
:10148000881F8827881F30E050E070E090E00E94BD
:10149000F2090E949E082C2F2170C1FB442740F9BD
:1014A000C2FB662760F930E050E070E0C3FB88279C
:1014B00080F990E00E94F209CF910C949E08CF939E
:1014C000C82F20910F04309110042F5F3F4F3093AD
:1014D000100420930F042131310531F08A3021F0BE
:1014E0008C2FCF910C94330A209104013091050187
:1014F0002130310579F480E490E00E94070A22E06F
:1015000030E03093050120930401109210041092F2
:101510000F0405C02230310511F40E94A708CA301B
:10152000F9F6CF9108950F931F93CF93DF93EC01BA
:101530000E94EC098E01FE0101900020E9F731972D
:10154000EC1BFD0BC8018C1B9D0B8E179F0740F4F5
:10155000F80181918F010E945F0A0E94EC09EBCF94
:10156000DF91CF911F910F9108950F931F93CF9308
:10157000DF93182F092FCB010E945D16EC01009715
:1015800051F40E94A7088BE291E0DF91CF911F9167
:101590000F910C94930A0F931F938CE993E09F9300
:1015A0008F93DF93CF930E944E19CE010E94930A2E
:1015B0000F900F900F900F900F900F90CE01DF9132
:1015C000CF911F910F910C94F516CF92DF92EF926D
:1015D000FF920F931F93CF93DF9300D000D0CDB72E
:1015E000DEB78A01AE014F5F5F4F0E948B146B0123
:1015F0007C0169817A818B819C810E94A112DC012E
:10160000CB0164E070E00E94B50A89E491E00E9499
:10161000930AB801882777FD8095982F0E94D412ED
:101620009B01AC0160E070E080E291E40E94211532
:101630009B01AC01C701B6010E94BE140E946D154A
:101640000E94A1127B0177FF04C0EE24FF24E61A5A
:10165000F70AE114F104A1F0B701882777FD80951E
:10166000982F0E94D4120E9440140E940F1320E071
:1016700030E040E85FE30E946C110E94A11202C0BA
:1016800060E070E0C12CD12C061B170BC016D106F0
:1016900044F48FE993E00E94930A8FEFC81AD80AA6
:1016A000F5CF64E070E0C7010F900F900F900F909E
:1016B000DF91CF911F910F91FF90EF90DF90CF902E
:1016C0000C94B50ACF92DF92EF92FF920F931F9383
:1016D000CF93DF938C016B010E94EC097801C0E08D
:1016E000D0E0CC15DD059CF4F80101900020E9F76D
:1016F0003197E01BF10BCE17DF0748F4F70181911A
:101700007F010E945F0A0E94EC092196EACFDF91D7
:10171000CF911F910F91FF90EF90DF90CF900895A0
:10172000CF93DF9300D000D000D0CDB7DEB726E056
:10173000ECE0F1E0DE01119601900D922A95E1F7BF
:10174000FE01319620E030E0DC01A20FB31F4C9186
:1017500041932F5F3F4F26303105B1F761EA73E0C7
:10176000CE0101960E94211921E030E0892B11F071
:1017700020E030E0C90126960FB6F894DEBF0FBE18
:10178000CDBFDF91CF910895CF93DF93009721F0E4
:101790009093120480931104C0911104D09112040B
:1017A000209769F0CE010E944019009741F0FC019A
:1017B0001192F0931204E0931104CE0102C080E074
:1017C00090E0DF91CF9108950F931F93CF93DF9314
:1017D0008B0168EA73E00E94C40BEC01BC01D801E4
:1017E0008D919C910E942A19FE0101900020E9F739
:1017F0003197EC1BFD0BE031F1055CF4D8018D91C4
:101800009C918E0F9F1FDC011C923196F4CF0E5FCE
:101810001F4FCD2B11F168EA73E080E090E00E9449
:10182000C40BEC01BC01F801828193810E942A194A
:10183000FE0101900020E9F73197EC1BFD0BE03130
:10184000F1052CF7D80112968D919C9113978E0F6C
:101850009F1FDC011C923196F2CF80E090E0DF9177
:10186000CF911F910F910895FC019F01281B390B07
:101870002617370714F41192F8CF0895AF92BF924C
:10188000CF92DF92EF92FF921F93CF93DF93CDB76A
:10189000DEB727970FB6F894DEBF0FBECDBF5C0151
:1018A000162FFC018081992787FD9095C0972AE02B
:1018B000289FB001299F700D11248181992787FDF0
:1018C0009095C097680F791F882777FD8095982F8E
:1018D0000E94D4126B017C01B5016E5F7F4F47E01F
:1018E00050E0CE0101960E94311960E070E0CE0117
:1018F00001960E94841720E030E040E752E40E9405
:1019000039129B01AC01C701B6010E946C1113355D
:1019100009F4905827960FB6F894DEBF0FBECDBFDE
:10192000DF91CF911F91FF90EF90DF90CF90BF900C
:10193000AF900895AF92BF92CF92DF92EF92FF9255
:101940001F93CF93DF93CDB7DEB727970FB6F894E9
:10195000DEBF0FBECDBF5C01162FFC018081992731
:1019600087FD9095C09724E6289FB001299F700DB0
:1019700011248181992787FD9095C0974AE0489F5F
:101980009001499F300D1124620F731F82819927A6
:1019900087FD9095C097680F791F882777FD809500
:1019A000982F0E94D4126B017C01B5016D5F7F4FAF
:1019B00047E050E0CE0101960E94311960E070E0EE
:1019C000CE0101960E94841720E030E040E752E407
:1019D0000E9439129B01AC01C701B6010E946C1133
:1019E000173509F4905827960FB6F894DEBF0FBE4E
:1019F000CDBFDF91CF911F91FF90EF90DF90CF90FF
:101A0000BF90AF900895CF92DF92EF92FF920F9325
:101A10001F93CF93DF938C01EB0168E070E0CE0160
:101A20000E94340CD8016D917C91CE010E942A193C
:101A300068E070E0CE0108960E94340CD80112963E
:101A4000ED91FC911397808188871296ED91FC911E
:101A50001397818189878AE38A871296ED91FC9199
:101A6000139792819B871296ED91FC911397938126
:101A70009C878D871296ED91FC91139784818E87B8
:101A80001296ED91FC91139785818F871496ED91B5
:101A9000FC9115978081888B198A1A8A1B8A1C8A67
:101AA0001896ED91FC911997608116968D919C91F5
:101AB00017970E943E0C6B017C0120E030E044EB64
:101AC00052EC0E94351487FD0EC020E030E044EB5C
:101AD00052E4C701B6010E943212181624F0C98AD6
:101AE000DA8AEB8AFC8A1D8A1E8A1F8A188ED80120
:101AF0001C96ED91FC911D9760811A968D919C9199
:101B00001B970E949A0C6B017C0120E030E044E3BB
:101B100053EC0E94351487FD0EC020E030E044E312
:101B200053E4C701B6010E943212181624F0CD8A80
:101B3000DE8AEF8AF88E198E1A8E1B8E1C8E60E05C
:101B400070E0F801868597850E948417698F7A8FE7
:101B50008B8F9C8F1D8E1E8E1F8E18A260E070E0F2
:101B6000D80150968D919C9151970E9484176D8F4A
:101B70007E8F8F8F98A368E070E0CE0181960E94DF
:101B8000340CD8015296ED91FC915397828189A330
:101B90005296ED91FC91539783818AA38FE28BA398
:101BA0005296ED91FC91539790819CA35296ED91A2
:101BB000FC91539791819DA38EA35296ED91FC9138
:101BC000539784818FA35296ED91FC915397858111
:101BD00088A77E01B9E2EB0EF11C68E070E0C70156
:101BE0000E94340CF80164897589C7010E942A1982
:101BF000D8015896ED91FC915997808189AB63E0AB
:101C000070E0CE01C2960E94340CD8015896ED9136
:101C1000FC91599781818AAB5896ED91FC91599727
:101C200082818BAB5896ED91FC91599783818CAB57
:101C3000DF91CF911F910F91FF90EF90DF90CF90A8
:101C400008954F925F926F927F928F929F92AF9280
:101C5000BF92CF92DF92EF92FF920F931F93CF9399
:101C6000DF93CDB7DEB760970FB6F894DEBF0FBE37
:101C7000CDBF2B013C0129873A874B875C87E982DE
:101C8000FA820B831C839B01AC01C801B7010E943F
:101C90006B112BED3FE049E450E40E94BE1420E0BC
:101CA00030E044E353E40E94391220E030E040E0A9
:101CB0005FE30E94BE140E948D156D837E838F8327
:101CC00098872BED3FE049E450E4C301B2010E9444
:101CD000BE1420E030E044E353E40E9439120E9435
:101CE00036122B013C012BED3FE049E450E4C801E2
:101CF000B7010E94BE1420E030E044E353E40E94A8
:101D000039120E94361269837A838B839C832985DA
:101D10003A854B855C85C601B5010E946B112BEDA0
:101D20003FE049E450E40E94BE1420E030E044E388
:101D300053E40E94391220E030E040E05FE30E946B
:101D4000BE140E948D154B015C012D813E814F8197
:101D50005885CA01B9010E94BE146B017C0129811A
:101D60003A814B815C81C301B2010E94BE14A5017E
:101D700094010E94BE14A50194010E94BE149B010F
:101D8000AC01C701B6010E946C116B017C019B0183
:101D9000AC0160E070E080E89FE30E946B110E945C
:101DA00097159B01AC01C701B6012D873E874F8770
:101DB000588B0E9497152D853E854F8558890E9426
:101DC000DF119B01AC010E946C1120E038E147EC6F
:101DD00055E40E94BE1460960FB6F894DEBF0FBEA5
:101DE000CDBFDF91CF911F910F91FF90EF90DF90CA
:101DF000CF90BF90AF909F908F907F906F905F90AB
:101E00004F9008952F923F924F925F926F927F92E0
:101E10008F929F92AF92BF92CF92DF92EF92FF92FA
:101E20000F931F93CF93DF93CDB7DEB72C970FB6E9
:101E3000F894DEBF0FBECDBF7E836D8329013A01CA
:101E4000EF82F88609871A879A8389831C861B8606
:101E50002FEF2B833FEF3C83212C312C80E8882E01
:101E60009FEB992E8B859C85ED81FE818E179F07B8
:101E7000F4F5E981FA81A088B188C288D388E48426
:101E8000F584068517852F81388549855A85C301D4
:101E9000B2010E94210E7B018C019101A4010E94DC
:101EA000321287FD0DC020E030E040E85FEBB10169
:101EB000C4010E943212882341F07101840109C0DB
:101EC000FB85FB832C852C8304C03B853B838C8561
:101ED0008C83EB85FC853196FC87EB8729813A81E1
:101EE000245E3F4F3A83298317014801BBCF8B8182
:101EF0009C812C960FB6F894DEBF0FBECDBFDF914C
:101F0000CF911F910F91FF90EF90DF90CF90BF90F6
:101F1000AF909F908F907F906F905F904F903F9089
:101F20002F900895AF92BF92CF92DF92EF92FF92DF
:101F30000F931F93ECE1E49F9001E59F300D112476
:101F4000620F731FFB01A088B188C288D388E48424
:101F5000F58406851785FC01258936894789508DCA
:101F600061897289838994890E94210E1F910F9142
:101F7000FF90EF90DF90CF90BF90AF9008952BED42
:101F80003FE049E450E40E94BE1420E030E044E326
:101F900053E40E9439120895CF93DF93EC01FC01C2
:101FA00080E090E02191222369F10196843091052F
:101FB000C9F780E090E0FE01E80FF91F2085222399
:101FC00009F1019684309105B1F720E030E0A901D4
:101FD00069897A898B899C890E943212882391F0C1
:101FE00020E030E0A9016D897E898F89988D0E945B
:101FF0003212882339F081E090E02AA92A3221F0B8
:1020000080E002C080E090E0DF91CF9108950E94CF
:10201000881B90E008950C94881B0C94901B0C94E2
:10202000781BEF92FF920F931F93CF93DF931F9232
:10203000CDB7DEB70E94D10107E914E080E190E05E
:102040000E945D16F801819391938F01892B09F409
:1020500032C1F4E0013B1F0789F785E390E00E945D
:102060005D169093160480931504892B09F423C1FF
:1020700080EE92E00E94930A0E94E3012FE38DE03C
:1020800093E0215080409040E1F700C0000082E0E2
:10209000E82EF12C0091B0031091B103013011052D
:1020A00009F479C00230110509F472C0012B91F7CF
:1020B00080910D0490910E04181619060CF0ACC016
:1020C0000E94CB010E940306809115049091160492
:1020D0000E94CC0F892B09F445C00E94A70884EF09
:1020E00092E00E94930AEFE9F6E821E0E150F04027
:1020F0002040E1F700C00000E0911504F0911604C3
:10210000618972898389948943E050E00E94E50ADD
:1021100083E294EF0197F1F700C000008EEF92E0A8
:102120000E94930AE3E2F4EF3197F1F700C0000058
:10213000E0911504F0911604658976898789908D60
:1021400043E050E00E94E50AFFEB27E289E0F1500E
:1021500020408040E1F700C000000E947C070E9400
:10216000FA0313C00E94A70881E093E00E94930A3B
:1021700080E193E00E94930A9FE7EAE1F6E0915044
:10218000E040F040E1F700C000000E94380782CF35
:102190000E94ED037FCF0E9427018091AC039091B4
:1021A000AD03892BA1F40E94A7088EE193E00E9461
:1021B000930A1093AD030093AC031092AB031092FB
:1021C000AA031092AF031092AE030E94A302909153
:1021D0000C0480910B04981709F443C01092040476
:1021E0001092050410920604109207040E94300316
:1021F00089830E941B036981892B19F180E090E09B
:102200000E9450030E9480058091AA039091AB0325
:10221000892B39F00E944405F092B103E092B0039B
:1022200039CF0E94A70887E393E00E94930A2FE327
:102230008DE093E0215080409040E1F700C0000025
:1022400029CF8091AE039091AF030E94961B80919D
:10225000AE039091AF0301969093AF038093AE03CA
:1022600019CF20E030E040E85FE360910404709112
:10227000050480910604909107040E946C116093FC
:10228000040470930504809306049093070420E0EF
:1022900030E543E457E40E94351418160CF0FACEEA
:1022A00081E090E00E94500360E270E080E090E006
:1022B0000E948B03AFCF0E94A7088BE291E00E949F
:1022C000930A80E090E00F90DF91CF911F910F91E2
:1022D000FF90EF9008955058BB27AA270ED063C2F5
:1022E0002CD230F031D220F031F49F3F11F41EF4A3
:1022F000FCC10EF4E095E7FBC9C1E92F76D280F36B
:10230000BA17620773078407950718F071F49EF5F2
:10231000A5C20EF4E0950B2EBA2FA02D0B01B9012A
:1023200090010C01CA01A0011124FF27591B99F04B
:10233000593F50F4503E68F11A16F040A22F232F57
:10234000342F4427585FF3CF469537952795A795A7
:10235000F0405395C9F77EF41F16BA0B620B730B4E
:10236000840BBAF09150A1F0FF0FBB1F661F771FBF
:10237000881FC2F70EC0BA0F621F731F841F48F474
:10238000879577956795B795F7959E3F08F0B3CFFA
:102390009395880F08F09927EE0F979587950895E4
:1023A000CCD158F080E891E009F49EEFCDD128F02F
:1023B00040E851E059F45EEF09C097C14FC2E92FE0
:1023C000E07813D268F3092E052AC1F326173707E0
:1023D0004807590738F00E2E07F8E02569F0E02588
:1023E000E0640AC0EF6307F8009407FADB01B90163
:1023F0009D01DC01CA01AD01EF934AD0D4D10AD0CE
:102400005F91552331F02BED3FE049E450FD49EC5D
:1024100063CF0895DF93DD27B92FBF7740E85FE3EF
:102420001616170648075B0710F4D92F22D29F9380
:102430008F937F936F93B9D3E4EBF0E059D1B3D18D
:102440002F913F914F915F91A5D2DD2349F0905894
:10245000A2EA2AED3FE049EC5FE3D0785D274DDF4B
:10246000DF91A1C1EFD008F481E0089575D1E39523
:10247000ABC10CD098C168D140F05FD130F021F4ED
:102480005F3F19F003C15111EAC12FC1AED198F3DA
:102490009923C9F35523B1F3951B550BBB27AA27E5
:1024A00062177307840738F09F5F5F4F220F331F57
:1024B000441FAA1FA9F333D00E2E3AF0E0E830D023
:1024C00091505040E695001CCAF729D0FE2F27D026
:1024D000660F771F881FBB1F261737074807AB07F4
:1024E000B0E809F0BB0B802DBF01FF2793585F4F69
:1024F0002AF09E3F510568F0C9C0B1C15F3FECF3BF
:10250000983EDCF3869577956795B795F7959F5F2D
:10251000C9F7880F911D9695879597F90895E1E081
:10252000660F771F881FBB1F621773078407BA07E0
:1025300020F0621B730B840BBA0BEE1F88F7E0953B
:10254000089504D06894B1118AC1089556D188F0D5
:102550009F5790F0B92F9927B751A0F0D1F0660F8F
:10256000771F881F991F1AF0BA95C9F712C0B130AA
:1025700081F074D1B1E0089571C1672F782F882759
:10258000B85F39F0B93FCCF3869577956795B395E9
:10259000D9F73EF490958095709561957F4F8F4F58
:1025A0009F4F0895E89409C097FB3EF4909580955D
:1025B000709561957F4F8F4F9F4F9923A9F0F92F09
:1025C00096E9BB279395F695879577956795B79587
:1025D000F111F8CFFAF4BB0F11F460FF1BC06F5F6D
:1025E0007F4F8F4F9F4F16C0882311F096E911C07F
:1025F000772321F09EE8872F762F05C0662371F0A0
:1026000096E8862F70E060E02AF09A95660F771FB3
:10261000881FDAF7880F9695879597F9089507D15F
:1026200080F09F3740F491110EF019C160E070E026
:1026300080E89FEB089526F41B16611D711D811D16
:102640002BC045C0990F0008550FAA0BE0E8FEEF1C
:1026500016161706E807F907C0F012161306E40766
:10266000F50798F0621B730B840B950B39F40A265F
:1026700061F0232B242B252B21F408950A2609F43D
:10268000A140A6958FEF811D811D089597F99F6741
:1026900080E870E060E00895882371F4772321F0EA
:1026A0009850872B762F07C0662311F499270DC009
:1026B0009051862B70E060E02AF09A95660F771FA4
:1026C000881FDAF7880F9695879597F908959F3FA9
:1026D00031F0915020F4879577956795B795880FDD
:1026E000911D9695879597F908959FEF80EC089531
:1026F000DF93CF931F930F93FF92EF92DF927B01B3
:102700008C01689405C0DA2EEF0144D1FE01E894F3
:10271000A5912591359145915591AEF3EF01EDDDF0
:10272000FE019701A801DA9479F7DF90EF90FF900E
:102730000F911F91CF91DF91089500240A941616EE
:10274000170618060906089500240A94121613069F
:10275000140605060895C9CF50D0E8F3E894E0E0E8
:10276000BB279F57F0F02AED3FE049EC06C0EE0F83
:10277000BB0F661F771F881F28F0B23A62077307E6
:10278000840728F0B25A620B730B840BE3959A9579
:1027900072F7803830F49A95BB0F661F771F881F39
:1027A000D2F7904896CF092E0394000C11F4882399
:1027B00052F0BB0F40F4BF2B11F460FF04C06F5FF9
:1027C0007F4F8F4F9F4F0895EF93E0FF06C0A2EA1F
:1027D0002AED3FE049EC5FEB90DDE5DF0F900394DD
:1027E00001FC9058E1EEF0E01BC257FD9058440FF9
:1027F000551F59F05F3F71F04795880F97FB991F60
:1028000061F09F3F79F0879508951216130614061C
:10281000551FF2CF4695F1DF08C0161617061806A9
:10282000991FF1CF86957105610508940895E5DF3C
:10283000A0F0BEE7B91788F4BB279F3860F41616DE
:10284000B11D672F782F8827985FF7CF86957795EA
:102850006795B11D93959639C8F30895E894BB2701
:1028600066277727CB0197F90895ECDE08F48FEF00
:1028700008959B01AC0160E070E080E89FE3F9CD32
:102880000AD029ED3BE54EED5EE378C00EF01FCF98
:102890002CCF6894FBCEB1DFC8F39923D1F3C6F3F4
:1028A000DF93CF931F930F93FF92C92FDD278823C8
:1028B0002AF02197660F771F881FDAF720E030E0B3
:1028C00040E85FEB9FE3883920F0803E30F02196AE
:1028D0008F7702DDEFEFF0E003C0FEDCECE2F1E029
:1028E00007DF8B01BE01EC01FB2E6F577109759557
:1028F000771F880B990B58DE28E132E741E35FE34D
:1029000049D0AF2D9801AE01FF900F911F91CF914B
:10291000DF91F3DC48CFFA01DC01AA0FBB1F9B015A
:10292000AC01BF5728F422273327442750781FC013
:10293000B75188F4AB2F0024469537952795011C95
:10294000A395D2F3002069F0220F331F441FB395E3
:10295000DAF30DD0C0CC61307105A0E88A07B94622
:1029600030F49B01AC016627772788279078309652
:1029700021F0208331834283538308950BD013CFFA
:10298000DCDE28F0E1DE18F0952309F07FCEADCE35
:10299000112465CF2ADFA0F3959FD1F3950F50E066
:1029A000551F629FF001729FBB27F00DB11D639F01
:1029B000AA27F00DB11DAA1F649F6627B00DA11DA7
:1029C000661F829F2227B00DA11D621F739FB00D4D
:1029D000A11D621F839FA00D611D221F749F3327BD
:1029E000A00D611D231F849F600D211D822F762F56
:1029F0006A2F11249F5750408AF0E1F088234AF053
:102A0000EE0FFF1FBB1F661F771F881F915050409E
:102A1000A9F79E3F510570F039CE21CF5F3FECF30F
:102A2000983EDCF3869577956795B795F795E7958A
:102A30009F5FC1F7FE2B880F911D9695879597F99B
:102A40000895FA01EE0FFF1F30962105310599F127
:102A50006115710561F48038BFE39B0749F1689403
:102A60009038810561F08038BFEF9B0741F09923D2
:102A700042F5FF3FE1053105210511F1E894089485
:102A8000E795D901AA2329F4AB2FBE2FF85FD0F325
:102A900010C0FF5F70F4A695E0F7F73950F019F019
:102AA000FF3A38F49F779F930CD00F9007FC905813
:102AB00008953EF01ACE60E070E080E89FE308954C
:102AC0004FE79F775F934F933F932F93E4DE2F91D0
:102AD0003F914F915F9152DF70C08FDEE0F09E37E3
:102AE000D8F09639B8F49E3848F4672F782F8827A5
:102AF000985FF9CF86957795679593959539D0F33B
:102B0000B62FB1706B0F711D811D20F487957795DD
:102B100067959395C1CDDBCDA2CE9F931DDE0F901F
:102B200007FCEE5F51CE11F40EF4DFCDD0CD65DEA3
:102B3000D0F39923D9F3CEF39F57550B87FF69D074
:102B40000024A0E640EA900180585695979528F415
:102B5000805C660F771F881F20F02617370748070D
:102B600030F4621B730B840B202931294A2BA69564
:102B700017940794202531254A2758F7660F771FA9
:102B8000881F20F026173707480730F4620B730BB5
:102B9000840B200D311D411DA09581F7B901842FB3
:102BA0009158880F9695879508959B01AC01E6CEC4
:102BB00019F40EF06BCD52CE98CD1FDEC8F39638C7
:102BC000C0F707F80F92E8942BE33AEA48EB5FE787
:102BD000E3DE0F920F920F924DB75EB70F929BDE1E
:102BE000E9E5F1E085DD4F915F91EF91FF91E5958A
:102BF000EE1FFF1F49F0FE57E0684427EE0F441F09
:102C0000FA95E1F74195550B1ED00F9007FE31CE96
:102C1000089591505040660F771F881FD2F708958E
:102C20009F938F937F936F93FF93EF939B01AC01DF
:102C3000A5DEEF91FF915CDD2F913F914F915F9168
:102C40009DCE24CD44CDD9DDE8F39923D9F3940F5B
:102C5000511DBBF39150504094F059F0882332F04D
:102C6000660F771F881F91505040C1F79E3F510556
:102C700044F7880F911D9695879597F908955F3FC2
:102C8000ACF0983E9CF0BB27869577956795B795F5
:102C900008F4B1609395C1F7BB0F58F711F460FFCA
:102CA000E8CF6F5F7F4F8F4F9F4FE3CFD8CDEE0FB1
:102CB000FF1F0590F491E02D0994CF93DF938230AC
:102CC000910510F482E090E0E091B304F091B40437
:102CD00020E030E0A0E0B0E0309739F14081518150
:102CE00048175907B8F04817590771F48281938142
:102CF000109729F013969C938E9312972CC0909363
:102D0000B4048093B30427C02115310531F0421774
:102D1000530718F0A901DB0101C0EF019A01BD01C1
:102D2000DF010280F381E02DD7CF21153105F9F0C5
:102D3000281B390B2430310580F48A819B81611571
:102D4000710521F0FB019383828304C09093B40446
:102D50008093B304FE01329644C0FE01E20FF31FDC
:102D60008193919322503109398328833AC020916D
:102D7000B1043091B204232B41F420910801309129
:102D800009013093B2042093B104209106013091DF
:102D900007012115310541F42DB73EB740910A01D5
:102DA00050910B01241B350BE091B104F091B2045A
:102DB000E217F307A0F42E1B3F0B2817390778F012
:102DC000AC014E5F5F4F2417350748F04E0F5F1F71
:102DD0005093B2044093B1048193919302C0E0E018
:102DE000F0E0CF01DF91CF910895CF93DF9300976B
:102DF00009F487C0FC01329713821282C091B30498
:102E0000D091B404209781F420813181280F391F9B
:102E10008091B1049091B2048217930779F5F093F1
:102E2000B204E093B1046DC0DE0120E030E0AE17E3
:102E3000BF0750F412964D915C9113979D01411577
:102E4000510509F1DA01F3CFB383A28340815181A7
:102E5000840F951F8A179B0771F48D919C91119790
:102E6000840F951F02969183808312968D919C9179
:102E70001397938382832115310529F4F093B404C9
:102E8000E093B3043EC0D9011396FC93EE931297DE
:102E90004D915D91A40FB51FEA17FB0779F480816E
:102EA0009181840F951F0296D90111969C938E9360
:102EB0008281938113969C938E931297E0E0F0E0C9
:102EC0008A819B81009719F0FE01EC01F9CFCE01B8
:102ED000029628813981820F931F2091B10430918D
:102EE000B2042817390769F4309729F41092B40412
:102EF0001092B30402C013821282D093B204C09322
:102F0000B104DF91CF9108954F925F926F927F92BB
:102F10008F929F92AF92BF92CF92DF92EF92FF92E9
:102F20000F931F93CF93DF938B016115710521F0F0
:102F3000DB018C9311969C93EC015E01BFEFAB1A01
:102F4000BB0A7501C8808C2D90E00E940119892B65
:102F500011F0E501F2CFEDE2CE1208C07E01F2E001
:102F6000EF0EF11CC980DD24D39409C02BE2C212FC
:102F700005C07E0142E0E40EF11CC980D12CE701BE
:102F8000219743E050E069E871E0CE010E94091901
:102F9000892BD1F4E701229645E050E064E871E026
:102FA000CE010E940919892B11F4E701279601151A
:102FB000110519F0D801CD93DC93D11008C160E060
:102FC00070E080E89FE70CC143E050E061E871E009
:102FD000CE010E940919892B59F40115110509F434
:102FE000FBC0B2E0EB0EF11CF801F182E082F4C00C
:102FF000F70160E070E0CB01C0E0D0E07F01A0ED20
:10300000AA2EAC0C29E02A1530F14D2D4260B42EC9
:103010002D2D2870D2FE04C0211125C0219623C079
:1030200021112197A5E0B0E09B01AC010E944D1C4D
:10303000660F771F881F991F6A0D711D811D911DD5
:103040006839A9E97A078A07A9E19A0760F0BD2DD6
:10305000B660BB2E08C02EEFA2120AC0D3FC50C02F
:103060004D2D4860B42E3196D701CC90DB2CC6CFC5
:103070002C2D2F7D253409F043C0A081AD3241F4C1
:10308000BD2DB061DB2E7F0122E0E20EF11C0CC0F1
:103090007F01AB3231F04FEFE41AF40A21E030E067
:1030A00006C0A2E0EA0EF11CA18122E030E0A053AC
:1030B000AA3018F0E21AF30A23C0F70120E030E04A
:1030C0002038BCE03B075CF4A901440F551F440FB6
:1030D000551F240F351F220F331F2A0F311DAF013B
:1030E0004F5F5F4F7A01A081A053AA3010F4FA011C
:1030F000E7CFD4FE03C0319521953109C20FD31F0C
:10310000D1FE09C00115110531F0E1E0EE1AF10818
:10311000D801ED92FC920E94D2122D2D2370233003
:1031200019F06B017C0106C06B017C01F7FAF09489
:10313000F7F8F09420E030E0A901C701B6010E9441
:103140003212882309F440C0D7FF06C0D195C1953B
:10315000D10900EA11E002C008EB11E04801B8E132
:103160008B1A910890E2A92EB12CF8014590559048
:1031700065907490CA15DB055CF0A3019201C7014C
:10318000B6010E94BE146B017C01CA19DB09F2CFA3
:1031900004501109B594A7940815190531F78E2D1F
:1031A000880F8F2D881F8F3F49F020E030E0A90164
:1031B000C701B6010E943212811106C082E290E07E
:1031C0009093B6048093B504C701B60109C060E0CE
:1031D00070E080E89FEF04C060E070E080EC9FE763
:1031E000DF91CF911F910F91FF90EF90DF90CF90E3
:1031F000BF90AF909F908F907F906F905F904F9017
:1032000008959111A1C2803219F089508550D0F7EC
:103210000895FB01DC014150504088F08D918134CC
:103220001CF08B350CF4805E659161341CF06B35BD
:103230000CF4605E861B611171F3990B0895881B75
:10324000FCCFFB01DC018D91019080190110D9F3B5
:10325000990B0895FB01DC0101900D920020E1F72C
:103260000895FB01DC014150504048F001900D925F
:103270000020C9F701C01D9241505040E0F7089569
:10328000DC0199278D91882341F0FB0101900816FC
:103290000110E1F7B9F71197CD0108950F931F932E
:1032A000CF93DF93CDB7DEB72E970FB6F894DEBF7E
:1032B0000FBECDBF0D891E8986E08C831A830983DA
:1032C0008FEF9FE79E838D83AE01475E5F4F6F89CF
:1032D000788DCE0101960E947D19EF81F885E00F6F
:1032E000F11F10822E960FB6F894DEBF0FBECDBF31
:1032F000DF91CF911F910F9108952F923F924F929E
:103300005F926F927F928F929F92AF92BF92CF9275
:10331000DF92EF92FF920F931F93CF93DF93CDB77E
:10332000DEB72C970FB6F894DEBF0FBECDBF7C0181
:103330006B018A01FC0117821682838181FFBDC166
:10334000CE0101964C01F7019381F60193FD859121
:1033500093FF81916F01882309F4ABC1853239F461
:1033600093FD859193FF81916F01853229F4B70117
:1033700090E00E94BD1BE7CF512C312C20E0203281
:10338000A0F48B3269F030F4803259F0833269F462
:1033900020612CC08D3239F0803339F4216026C091
:1033A0002260246023C0286021C027FD27C030EDA3
:1033B000380F3A3078F426FF06C0FAE05F9E300DF1
:1033C0001124532E13C08AE0389E300D1124332E61
:1033D00020620CC08E3221F426FD6BC1206406C031
:1033E0008C3611F4206802C0883641F4F60193FD52
:1033F000859193FF81916F018111C1CF982F9F7D9E
:103400009554933028F40C5F1F4FFFE3F9830DC0F0
:10341000833631F0833771F0833509F05BC022C009
:10342000F801808189830E5F1F4F44244394512CFF
:10343000540115C03801F2E06F0E711CF801A08034
:10344000B18026FF03C0652D70E002C06FEF7FEFF3
:10345000C5012C870E94B21B2C0183012C852F777C
:10346000222E17C03801F2E06F0E711CF801A08007
:10347000B18026FF03C0652D70E002C06FEF7FEFC3
:10348000C5012C870E94A71B2C012C852068222EA9
:10349000830123FC1BC0832D90E048165906B0F42D
:1034A000B70180E290E00E94BD1B3A94F4CFF50191
:1034B00027FC859127FE81915F01B70190E00E9472
:1034C000BD1B31103A94F1E04F1A510841145104D8
:1034D00071F7E5C0843611F0893639F5F80127FF18
:1034E00007C060817181828193810C5F1F4F08C08A
:1034F00060817181882777FD8095982F0E5F1F4F1F
:103500002F76B22E97FF09C09095809570956195A2
:103510007F4F8F4F9F4F2068B22E2AE030E0A401EA
:103520000E94EF1BA82EA81844C0853729F42F7ECF
:10353000B22E2AE030E025C0F22FF97FBF2E8F3661
:10354000C1F018F4883579F0B4C0803719F08837A5
:1035500021F0AFC02F2F2061B22EB4FE0DC08B2DF5
:103560008460B82E09C024FF0AC09F2F9660B92E30
:1035700006C028E030E005C020E130E002C020E1D4
:1035800032E0F801B7FE07C06081718182819381CA
:103590000C5F1F4F06C06081718180E090E00E5F7C
:1035A0001F4FA4010E94EF1BA82EA818FB2DFF7728
:1035B000BF2EB6FE0BC02B2D2E7FA51450F4B4FEEB
:1035C0000AC0B2FC08C02B2D2E7E05C07A2C2B2DF4
:1035D00003C07A2C01C0752C24FF0DC0FE01EA0D3A
:1035E000F11D8081803311F4297E09C022FF06C0BD
:1035F0007394739404C0822F867809F0739423FD2A
:1036000013C020FF06C05A2C731418F4530C57181B
:10361000732C731468F4B70180E290E02C870E9449
:10362000BD1B73942C85F5CF731410F4371801C0AB
:10363000312C24FF12C0B70180E390E02C870E9458
:10364000BD1B2C8522FF17C021FF03C088E590E039
:1036500002C088E790E0B7010CC0822F867859F04D
:1036600021FD02C080E201C08BE227FD8DE2B7019F
:1036700090E00E94BD1BA51438F4B70180E390E0F0
:103680000E94BD1B5A94F7CFAA94F401EA0DF11DD4
:103690008081B70190E00E94BD1BA110F5CF3320BF
:1036A00009F451CEB70180E290E00E94BD1B3A942C
:1036B000F6CFF7018681978102C08FEF9FEF2C969E
:1036C0000FB6F894DEBF0FBECDBFDF91CF911F9133
:1036D0000F91FF90EF90DF90CF90BF90AF909F90B1
:1036E0008F907F906F905F904F903F902F900895B4
:1036F000DC01CB01FC01F999FECF06C0F2BDE1BDB2
:10370000F89A319600B40D9241505040B8F70895A0
:10371000F999FECF92BD81BDF89A992780B5089599
:10372000A6E1B0E044E050E00C947A1B262FF99912
:10373000FECF1FBA92BD81BD20BD0FB6F894FA9A94
:10374000F99A0FBE01960895992788270895FC01DC
:103750000590615070400110D8F7809590958E0FBC
:103760009F1F0895FC016150704001900110D8F72F
:10377000809590958E0F9F1F08950F931F93CF9361
:10378000DF93182F092FEB018B8181FD03C08FEF91
:103790009FEF20C082FF10C04E815F812C813D8150
:1037A000421753077CF4E881F9819F012F5F3F4F57
:1037B00039832883108306C0E885F985812F099510
:1037C000892B29F72E813F812F5F3F4F3F832E8327
:1037D000812F902FDF91CF911F910F910895FA01C2
:1037E000AA27283051F1203181F1E8946F936E7F40
:1037F0006E5F7F4F8F4F9F4FAF4FB1E03ED0B4E031
:103800003CD0670F781F891F9A1FA11D680F791F71
:103810008A1F911DA11D6A0F711D811D911DA11D82
:1038200020D009F468943F912AE0269F1124301992
:10383000305D3193DEF6CF010895462F4770405D2D
:103840004193B3E00FD0C9F7F6CF462F4F70405DDC
:103850004A3318F0495D31FD4052419302D0A9F737
:10386000EACFB4E0A6959795879577956795BA9531
:10387000C9F700976105710508959B01AC010A2EF7
:1038800006945795479537952795BA95C9F7620FCE
:10389000731F841F951FA01D08950E94581CA59F8B
:1038A000900DB49F900DA49F800D911D112408953B
:1038B000A29FB001B39FC001A39F700D811D112471
:1038C000911DB29F700D811D1124911D0895F894D2
:0238D000FFCF28
:1038D2005E24FFFF01000000B704200024313233D0
:1038E200343500696D706F7274696E6720000A73F7
:1038F200746174696F6E732E2E2E00626164206D86
:10390200616C6C6F630072656164696E670A646101
:10391200746162617365202E2E2E004552524F5201
:103922003A0A74696D656F7574202E2E2E000A7521
:103932007064617465206661696C65640A00757003
:10394200646174652072657175697265640A2E2EF0
:103952002E66656564206D652E2E2E004C617465A1
:1039620073740A47505320446174613A004D657381
:10397200736167653A200054696D653A20004E52C2
:10398200573A20004C61743A20004C6F6E3A200086
:1039920053706565643A2000436F757273653A200F
:1039A20000446174653A20004D61675661723A20A5
:1039B200004D6F64653A2000436865636B73756DF3
:1039C2003A20005261770A475053204461746100E3
:1039D2004D6573736167650054696D65004E52579A
:1039E200004C6174004E2F53004C6F6E00452F57F0
:1039F20000537065656400436F75727365004461BE
:103A02007465004D6167566172004D6F64650043D5
:103A12006865636B73756D00776970696E670A6DAF
:103A2200656D6F72792E2E2E00434F5252555054AF
:103A3200494F4E0A4445544543544544007472610B
:103A420063696E670A636F7272757074696F6E2E46
:103A52002E2E0073746174696F6E202300203A2049
:103A620000206B6E6F776E0A73746174696F6E7388
:103A720000667265713A20006C61743A20006C6FC6
:103A82006E3A20006572703A2000686161743A20D3
:103A92000046696E64696E67204E65617265737473
:103AA2000A53746174696F6E2E2E2E00206B6D00A6
:103AB20072656164696E670A6461746162617365EB
:103AC2002E2E2E00475053204669783A0A002C20A9
:103AD200004E6F20475053204669782E2E2E0A0042
:103AE20042652050617469656E742E2E2E007570C9
:103AF200646174696E672E2E2E0A646F6E277420BD
:103B0200756E706C75670075706461746520636FA3
:103B12006D706C6574650043616C63756C6174698A
:103B22006E670A45617274682044697374616E63DA
:103B320065730044656E766572202D3E204E5943B2
:103B42003A0A004E6F727468204B43202D3E204B80
:103B5200433A0A0057616974696E6720466F720AB8
:103B6200475053204C6F636B2E2E2E00256400307D
:0A3B720000244750524D43002C0080
:00000001FF
