S00F00006461745F6C63642E737265634A
S11300000C94E5000C9404010C9404010C94060176
S11300100C9404010C9404010C9404010C94040148
S11300200C9404010C9404010C9404010C94040138
S11300300C9404010C9404010C9404010C94040128
S11300400C9467010C9404010C9404010C940401B5
S11300500C94E4010C9404010C9404010C94040128
S11300600C9404010C9404010C9404010C940401F8
S11300700C9487010C9404010C9404010C94040165
S11300800C9404010C9404010C940401FA144E150C
S1130090C615DB15F81540164416170F1D0F260F4D
S11300A0310F3A0F470F4F0F570F5F0F57105A106A
S11300B05D1060106310661069106C106F10721080
S11300C07510084AD73B3BCE016E84BCBFFDC12FDF
S11300D03D6C74319ABD56833DDA3D00C77F11BE35
S11300E0D9E4BB4C3E916BAAAABE000000803F0538
S11300F0A84CCDB2D44EB93836A9020C50B9918669
S113010088083CA6AAAA2ABE000000803F08000076
S113011000BE922449123EABAAAA2ABECDCCCC4C36
S11301203E00000080BEABAAAAAA3E00000000BFA9
S1130130000000803F0000000000084178D3BB436A
S113014087D1133D190E3CC3BD4282AD2B3E68ECF2
S11301508276BED98FE1A93E4C80EFFFBE01C4FF79
S11301607F3F000000000007634236B79BD8A71A00
S113017039685618AEBAAB558C1D3CB7CC5763BD25
S11301806DEDFD753EF6177231BF000000803F4EE5
S1130190414E494E495459494E46CDCCCC3D0AD7DF
S11301A0233C17B7D13877CC2B329595E6241FB171
S11301B04F0A000020410000C84200401C4620BCF9
S11301C0BE4CCA1B0E5AAEC59D7411241FBECFEF80
S11301D0D0E4DEBFCDBF14E0A0E0B1E0E6EFF3E48D
S11301E000E00BBF02C007900D92A835B107D9F704
S11301F014E0A8E5B4E001C01D92A436B107E1F70C
S11302000E948C140C94F9210C9400001F920F92FC
S11302100FB60F9211240BB60F928F939F93AF9347
S1130220BF93EF93FF93E0915C04F0915D04DF01D1
S1130230AF5FBE4F8D919C91892BE1F180859185B3
S113024001969187808780859185059714F01186A2
S113025010868085918582309105B9F044F4009729
S113026081F00197D9F4299A85B1867F19C083302A
S1130270910579F0049791F485B18A6085B928983D
S113028010C0289A85B1857F0BC02B9A85B18C7FCD
S113029007C085B1836085B92B9803C085B18B6095
S11302A085B9E0915C04F0915D04EF5FFE4F11822B
S11302B0108216BCFF91EF91BF91AF919F918F91E6
S11302C00F900BBE0F900FBE0F901F9018951F92AA
S11302D00F920FB60F9211240BB60F928F939F9328
S11302E0EF93FF93E0915C04F0915D04EF5FFE4FA8
S11302F081E090E091838083FF91EF919F918F91B2
S11303000F900BBE0F900FBE0F901F9018951F9269
S11303100F920FB60F9211240BB60F922F933F93A7
S11303204F935F936F937F938F939F93AF93BF93F9
S1130330EF93FF9380915C0490915D04FC01EF5670
S1130340FF4F2081DC01AE56BF4F2C93DC01A05738
S1130350BF4F2C9120832091CE002C93FC0120854B
S113036031852630310561F4E157FF4F30812C91FE
S1130370DC01A30FB11D1E962C9320812F5F2083D7
S11303800E949C0DE0915C04F0915D04892B21F0A6
S113039086E090E091878087E157FF4F808187FD59
S11303A01082FF91EF91BF91AF919F918F917F91B7
S11303B06F915F914F913F912F910F900BBE0F90D2
S11303C00FBE0F901F9018951F920F920FB60F92A9
S11303D011240BB60F922F933F934F935F936F9318
S11303E07F938F939F93AF93BF93EF93FF938091EA
S11303F05C0490915D04FC01ED56FF4F2081318136
S1130400213531057CF020E030E0DC01A20FB31F80
S1130410AB56BF4F1C922F5F3F4F20353105A9F7D4
S113042011821082208131814091C600280F391F2A
S1130430D901AB56BF4F4C93208131812F5F3F4F81
S113044031832083A081B181A80FB91FAC56BF4F5F
S11304502C912432B1F421E030E0DC01A20FB31F6F
S1130460AB56BF4F1C922F5F3F4F20353105A9F784
S113047024E2DC01AB56BF4F2C9321E030E0318302
S113048020830190F081E02DE80FF91FEC56FF4F17
S113049020812D30D9F58B569F4F0E948B05892BD7
S11304A0A9F10E94900D80915C0490915D04FC017F
S11304B0ED56FF4F0190F081E02DE80FF91FEC5647
S11304C0FF4F2CE22083BC016B517F4F8B569F4F13
S11304D00E94DF0520915C0430915D04F901E15034
S11304E0FF4F81E090E09183808380E090E0F90108
S11304F0E80FF91FEB56FF4F1082019680359105E6
S1130500B1F7F901ED56FF4F11821082FF91EF917F
S1130510BF91AF919F918F917F916F915F914F9117
S11305203F912F910F900BBE0F900FBE0F901F9015
S11305301895129A81EE94E00197F1F700C000003B
S113054012980895109259041092580481E090E092
S1130550909301018093000181B18FEF81B987E805
S113056093E10197F1F700C00000129810981198D8
S113057016981598149A139A0E94990281EE94E0A1
S11305800197F1F700C000000E94990289EF90E002
S11305900197F1F700C000000E94990289EF90E0F2
S11305A00197F1F700C0000016981598149A139853
S11305B00E94990289EF90E00197F1F700C00000D2
S11305C016981598149A13980E94990289EF90E04E
S11305D00197F1F700C00000169A15981498139823
S11305E00E94990289EF90E00197F1F700C00000A2
S11305F016981598149813980E94990289EF90E020
S11306000197F1F700C00000169A159A149A1398EE
S11306100E94990289EF90E00197F1F700C0000071
S113062016981598149813980E94990289EF90E0EF
S11306300197F1F700C00000169815981498139AC2
S11306400E94990289EF90E00197F1F700C0000041
S113065016981598149813980E94990289EF90E0BF
S11306600197F1F700C000001698159A149A139890
S11306700E94990289EF90E00197F1F700C0000011
S113068016981598149813980E94990289EF90E08F
S11306900197F1F700C00000169A159A149A139A5C
S11306A00E94990289EF90E00197F1F700C00000E1
S11306B080E090E00895019711F4169A01C016980D
S11306C06130710511F4159A01C015984130510536
S11306D011F4149A01C014982130310511F4139ABD
S11306E001C013980E94990289EF90E00197F1F7F5
S11306F000C0000008951F93CF93DF9381B18778E2
S113070081B91098119A129A81EE94E00197F1F749
S113071000C0000012B182B1C2B1A2B11298E9EFD7
S1130720F0E03197F1F700C00000129AE1EEF4E036
S11307303197F1F700C00000E2B162B142B152B1A9
S1130740807290E026E0880F991F2A95E1F7C07126
S1130750D0E035E0CC0FDD1F3A95E1F78C2B9D2BD3
S11307605870852BA870B0E054E0AA0FBB1F5A95AF
S1130770E1F78A2B9B2BE074F0E073E0EE0FFF1F90
S11307807A95E1F78E2B9F2B607270E0660F771FCE
S1130790660F771F862B972B129851B1586751B962
S11307A010981198407150E0440F551F842B952BDD
S11307B016FB222720F930E03695322F2227379571
S11307C02795822B932BDF91CF911F9108950E943F
S11307D07B038F77992701960895892B11F4169836
S11307E001C0169A672B11F4159801C0159A452B70
S11307F011F4149801C0149A232B11F4139808953A
S1130800139A0895CF93DF93EC0110981198282F31
S11308102295217085FB442740F986FB662760F901
S113082030E050E070E081E090E00E94ED030E942F
S113083099029E01217033274C2F46954170C2FBCB
S1130840662760F950E070E0C3FB882780F990E0E8
S11308500E94ED03DF91CF910C949902CF93C82F9E
S1130860109A119884FB222720F985FB442740F92C
S113087086FB662760F9881F8827881F30E050E0D0
S113088070E090E00E94ED030E9499022C2F2170E9
S1130890C1FB442740F9C2FB662760F930E050E011
S11308A070E0C3FB882780F990E00E94ED03CF91AC
S11308B00C949902CF93C82F209158043091590475
S11308C02F5F3F4F30935904209358042131310551
S11308D031F08A3021F08C2FCF910C942E0420918A
S11308E00001309101012130310579F480E490E078
S11308F00E94020422E030E03093010120930001C1
S1130900109259041092580405C02230310511F494
S11309100E94A202CA30F9F6CF9108950F931F9353
S1130920CF93DF93EC010E94E7038E01FE01019057
S11309300020E9F73197EC1BFD0BC8018C1B9D0BC4
S11309408E179F0740F4F80181918F010E945A0489
S11309500E94E703EBCFDF91CF911F910F91089590
S11309600F931F93CF93DF93182F092FCB010E946E
S1130970EF1BEC01009751F40E94A2028FE291E078
S1130980DF91CF911F910F910C948E040F931F93BD
S113099083EE91E09F938F93DF93CF930E94E01EA9
S11309A0CE010E948E040F900F900F900F900F9025
S11309B00F90CE01DF91CF911F910F910C94871C62
S11309C0CF92DF92EF92FF920F931F93CF93DF9317
S11309D000D000D0CDB7DEB78A01AE014F5F5F4FC4
S11309E00E941D1A6B017C0169817A818B819C8133
S11309F00E943318DC01CB0164E070E00E94B00473
S1130A008CE592E00E948E04B801882777FD8095DA
S1130A10982F0E9466189B01AC0160E070E080E2B0
S1130A2091E40E94B31A9B01AC01C701B6010E9474
S1130A30501A0E94FF1A0E9433187B0177FF04C0EA
S1130A40EE24FF24E61AF70AE114F104A1F0B70139
S1130A50882777FD8095982F0E9466180E94D219E6
S1130A600E94A11820E030E040E85FE30E94FE16F7
S1130A700E94331802C060E070E0C12CD12C061B28
S1130A80170BC016D10644F486EE91E00E948E0442
S1130A908FEFC81AD80AF5CF64E070E0C7010F9051
S1130AA00F900F900F90DF91CF911F910F91FF90B6
S1130AB0EF90DF90CF900C94B004CF92DF92EF923E
S1130AC0FF920F931F93CF93DF938C016B010E94CE
S1130AD0E7037801C0E0D0E0CC15DD059CF4F80113
S1130AE001900020E9F73197E01BF10BCE17DF07E7
S1130AF048F4F70181917F010E945A040E94E703A0
S1130B002196EACFDF91CF911F910F91FF90EF9043
S1130B10DF90CF900895CF93DF9300D000D000D022
S1130B20CDB7DEB726E0E8E0F1E0DE0111960190F2
S1130B300D922A95E1F7FE01319620E030E0DC01C8
S1130B40A20FB31F4C9141932F5F3F4F26303105C5
S1130B50B1F768EE71E0CE0101960E94B31E21E068
S1130B6030E0892B11F020E030E0C90126960FB661
S1130B70F894DEBF0FBECDBFDF91CF910895CF9320
S1130B80DF93009721F090935B0480935A04C09103
S1130B905A04D0915B04209769F0CE010E94D21EC2
S1130BA0009741F0FC011192F0935B04E0935A0426
S1130BB0CE0102C080E090E0DF91CF910895AF9222
S1130BC0BF92CF92DF92EF92FF920F931F93CF9336
S1130BD0DF9300D000D000D0CDB7DEB76B0120E0AA
S1130BE030E0D601ED91FC91E20FF31F10822F5FEC
S1130BF03F4F20313105A9F76FEE71E00E94BF0528
S1130C005C0186E0E8EEF1E0DE01119601900D92C0
S1130C108A95E1F7F6018081918146E050E0BE01BA
S1130C206F5F7F4F0E94C31E00E010E0AB2821F1EC
S1130C300C30110509F10F5F1F4F7801EE0CFF1CFA
S1130C40EC0CFD1C80E090E0D701ED91FC91E80FE5
S1130C50F91F1082019680319105B1F76FEE71E0B2
S1130C6080E090E00E94BF055C01F70180819181E2
S1130C70B5010E94BC1EDACF80E090E026960FB644
S1130C80F894DEBF0FBECDBFDF91CF911F910F91BE
S1130C90FF90EF90DF90CF90BF90AF900895FC014C
S1130CA09F01281B390B2617370714F41192F8CF2C
S1130CB00895AF92BF92CF92DF92EF92FF921F936B
S1130CC0CF93DF93CDB7DEB727970FB6F894DEBF87
S1130CD00FBECDBF5C01162FFC018081992787FDD3
S1130CE09095C0972AE0289FB001299F700D112488
S1130CF08181992787FD9095C097680F791F882770
S1130D0077FD8095982F0E9466186B017C01B501D0
S1130D106E5F7F4F47E050E0CE0101960E94C31EF4
S1130D2060E070E0CE0101960E94161D20E030E0E4
S1130D3040E752E40E94CB179B01AC01C701B60106
S1130D400E94FE16133509F4905827960FB6F894AE
S1130D50DEBF0FBECDBFDF91CF911F91FF90EF900B
S1130D60DF90CF90BF90AF900895AF92BF92CF9293
S1130D70DF92EF92FF921F93CF93DF93CDB7DEB74D
S1130D8027970FB6F894DEBF0FBECDBF5C01162FB8
S1130D90FC018081992787FD9095C09724E6289FC0
S1130DA0B001299F700D11248181992787FD9095A9
S1130DB0C0974AE0489F9001499F300D1124620F6B
S1130DC0731F8281992787FD9095C097680F791FBB
S1130DD0882777FD8095982F0E9466186B017C0107
S1130DE0B5016D5F7F4F47E050E0CE0101960E9450
S1130DF0C31E60E070E0CE0101960E94161D20E043
S1130E0030E040E752E40E94CB179B01AC01C701DC
S1130E10B6010E94FE16173509F4905827960FB6AE
S1130E20F894DEBF0FBECDBFDF91CF911F91FF902D
S1130E30EF90DF90CF90BF90AF900895CF92DF9264
S1130E40EF92FF920F931F93CF93DF938C01EB01EB
S1130E5068E070E0CE010E944F06D8016D917C914C
S1130E60CE010E94BC1E68E070E0CE0108960E948C
S1130E704F06D8011296ED91FC91139780818887D3
S1130E801296ED91FC911397818189878AE38A8771
S1130E901296ED91FC91139792819B871296ED9196
S1130EA0FC91139793819C878D871296ED91FC9109
S1130EB0139784818E871296ED91FC911397858107
S1130EC08F871496ED91FC9115978081888B198AF0
S1130ED01A8A1B8A1C8A1896ED91FC91199716960A
S1130EE08D919C91179760810E9459066B017C013A
S1130EF020E030E044EB52EC0E94C71987FD0EC09D
S1130F0020E030E044EB52E4C701B6010E94C4176C
S1130F10181624F0C98ADA8AEB8AFC8A1D8A1E8A8A
S1130F201F8A188ED8011C96ED91FC911D971A9674
S1130F308D919C911B9760810E94B5066B017C0189
S1130F4020E030E044E353EC0E94C71987FD0EC053
S1130F5020E030E044E353E4C701B6010E94C41723
S1130F60181624F0CD8ADE8AEF8AF88E198E1A8E2E
S1130F701B8E1C8EF8018685978560E070E00E94C8
S1130F80161D698F7A8F8B8F9C8F1D8E1E8E1F8EE0
S1130F9018A2D80150968D919C91519760E070E011
S1130FA00E94161D6D8F7E8F8F8F98A368E070E06E
S1130FB0CE0181960E944F06D8015296ED91FC9184
S1130FC05397828189A35296ED91FC915397838123
S1130FD08AA38FE28BA35296ED91FC915397908153
S1130FE09CA35296ED91FC91539791819DA38EA35E
S1130FF05296ED91FC91539784818FA35296ED9173
S1131000FC915397858188A77E01B9E2EB0EF11C10
S113101068E070E0C7010E944F06F8016489758991
S1131020C7010E94BC1ED8015896ED91FC915997B6
S1131030808189AB63E070E0CE01C2960E944F06C6
S1131040D8015896ED91FC91599781818AAB5896B5
S1131050ED91FC91599782818BAB5896ED91FC915F
S1131060599783818CABDF91CF911F910F91FF90A2
S1131070EF90DF90CF9008954F925F926F927F929E
S11310808F929F92AF92BF92CF92DF92EF92FF9294
S11310900F931F93CF93DF93CDB7DEB7E0970FB6CF
S11310A0F894DEBF0FBECDBF8C015B0180E2EFE0A0
S11310B0F1E0DE01119601900D928A95E1F72BED96
S11310C03FE049E450E4F801618972898389948995
S11310D00E94501A20E030E044E353E40E94CB170E
S11310E06B017C01F501248135814CE1429FC001F3
S11310F0439F900D112460807180680E791E2BED42
S11311003FE049E450E4F30164857585868597855D
S11311100E94501A20E030E044E353E40E94CB17CD
S11311204B015C012BED3FE049E450E4F30160899D
S11311307189828993890E94501A20E030E044E347
S113114053E40E94CB172B013C012BED3FE049E413
S113115050E4F801658976898789908D0E94501A38
S113116020E030E044E353E40E94CB179B01AC0140
S1131170C301B2010E94FD1669A37AA38BA39CA3A9
S11311800E941F1B6DA37EA38FA398A7C501B40162
S11311900E94C8172B013C01C701B6010E94C81761
S11311A069A77AA78BA79CA7C501B4010E941F1B3E
S11311B09B01AC01C701B6012DA73EA74FA758ABB1
S11311C00E941F1B6B017C0169A17AA18BA19CA1C8
S11311D00E94C81769A37AA38BA39CA32DA53EA53F
S11311E04FA558A969A57AA58BA59CA50E94501A5C
S11311F04B015C01A3019201C701B6010E94501A80
S113120029A13AA14BA15CA10E94501A9B01AC01F7
S1131210C501B4010E94FD166B017C01A30192017A
S11312206DA17EA18FA198A50E94501AA7019601D5
S11312300E94711720E030E044E353E40E94501A06
S11312402BED3FE049E450E40E94CB176B017C0195
S113125020E030E0A9010E94C41787FF0AC020E003
S113126030E044EB53E4C701B6010E94FE166B0163
S11312707C01F801C5AAD6AAE7AAF0AE258D368D61
S1131280478D50A1C701B6010E94FD164B015C01B8
S113129020E030E0A9010E94C41787FD06C0F801D0
S11312A081AE92AEA3AEB4AE0DC020E030E044EB0C
S11312B053E4C501B4010E94FE16F80161AF72AF98
S11312C083AF94AF20E030E044EB53E4C701B601B0
S11312D00E94CB1720E030E040E851E40E94501A0D
S11312E06B017C0120E030E040E05FE30E94C41722
S11312F09801235C3F4F5901181654F420E030E064
S113130048E751E4C701B6010E94C71987FD03C02D
S113131069817A8115C020E030E040E05FE3C701D5
S1131320B6010E94FE160E943318FB01EE0FFF1F48
S113133081E090E08C0F9D1FE80FF91F608171819F
S113134043E050E0C5010E94C31E20E030E044EBBE
S113135053E4F801658D768D878D90A10E94CB179B
S113136020E030E040E851E40E94501A6B017C0117
S113137020E030E040E05FE30E94C417005C1F4FB0
S1131380181654F420E030E048E751E4C701B601F0
S11313900E94C71987FD03C069817A8115C020E0C6
S11313A030E040E05FE3C701B6010E94FE160E94F0
S11313B03318FB01EE0FFF1F21E030E02C0F3D1F1F
S11313C0E20FF31F6081718143E050E0C8010E9485
S11313D0C31E81E090E0E0960FB6F894DEBF0FBE26
S11313E0CDBFDF91CF911F910F91FF90EF90DF90D0
S11313F0CF90BF90AF909F908F907F906F905F90B1
S11314004F9008954F925F926F927F928F929F9226
S1131410AF92BF92CF92DF92EF92FF920F931F93FE
S1131420CF93DF93CDB7DEB760970FB6F894DEBFE6
S11314300FBECDBF2B013C0129873A874B875C87C0
S1131440E982FA820B831C839B01AC01C801B701BA
S11314500E94FD162BED3FE049E450E40E94501A2F
S113146020E030E044E353E40E94CB1720E030E076
S113147040E05FE30E94501A0E941F1B6D837E832D
S11314808F8398872BED3FE049E450E4C301B20118
S11314900E94501A20E030E044E353E40E94CB174A
S11314A00E94C8172B013C012BED3FE049E450E4B6
S11314B0C801B7010E94501A20E030E044E353E42D
S11314C00E94CB170E94C81769837A838B839C83FD
S11314D029853A854B855C85C601B5010E94FD16B8
S11314E02BED3FE049E450E40E94501A20E030E044
S11314F044E353E40E94CB1720E030E040E05FE394
S11315000E94501A0E941F1B4B015C012D813E81D9
S11315104F815885CA01B9010E94501A6B017C01A0
S113152029813A814B815C81C301B2010E94501A26
S1131530A50194010E94501AA50194010E94501A19
S11315409B01AC01C701B6010E94FE166B017C0130
S11315509B01AC0160E070E080E89FE30E94FD160F
S11315600E94291B9B01AC01C701B6012D873E8750
S11315704F87588B0E94291B2D853E854F8558899E
S11315800E9471179B01AC010E94FE1620E038E115
S113159047EC55E40E94501A60960FB6F894DEBFEB
S11315A00FBECDBFDF91CF911F910F91FF90EF90B0
S11315B0DF90CF90BF90AF909F908F907F906F906F
S11315C05F904F9008952F923F924F925F926F9247
S11315D07F928F929F92AF92BF92CF92DF92EF92BF
S11315E0FF920F931F93CF93DF93CDB7DEB72C9762
S11315F00FB6F894DEBF0FBECDBF7E836D83290185
S11316003A01EF82F88609871A879A8389831C86B0
S11316101B862FEF2B833FEF3C83212C312C30E8AA
S1131620832E4FEB942E8B859C85ED81FE818E1746
S11316309F07F4F5E981FA81A088B188C288D3882C
S1131640E484F584068517852F81388549855A8574
S1131650C301B2010E94020A7B018C019101A40121
S11316600E94C41787FD0DC020E030E040E85FEB26
S1131670B101C4010E94C417882341F0710184019F
S113168009C0FB85FB832C852C8304C03B853B83ED
S11316908C858C83EB85FC853196FC87EB872981CF
S11316A03A81245E3F4F3A83298317014801BBCF17
S11316B08B819C812C960FB6F894DEBF0FBECDBFF4
S11316C0DF91CF911F910F91FF90EF90DF90CF901A
S11316D0BF90AF909F908F907F906F905F904F904E
S11316E03F902F900895AF92BF92CF92DF92EF92E6
S11316F0FF920F931F93ECE1E49F9001E59F300D5F
S11317001124620F731FFB01A088B188C288D3889B
S1131710E484F58406851785FC0125893689478983
S1131720508D61897289838994890E94020A1F916C
S11317300F91FF90EF90DF90CF90BF90AF900895FE
S11317402BED3FE049E450E40E94501A20E030E0E1
S113175044E353E40E94CB17089520E030E044E3CF
S113176053E40E94501A2BED3FE049E450E40E94F8
S1131770CB170895CF93DF93EC01FC0180E090E058
S11317802191222369F1019684309105C9F780E003
S113179090E0FE01E80FF91F2085222309F101964C
S11317A084309105B1F720E030E0A90169897A8994
S11317B08B899C890E94C417882391F020E030E033
S11317C0A9016D897E898F89988D0E94C417882309
S11317D039F081E090E02AA92A3221F080E002C0A9
S11317E080E090E0DF91CF9108950E941A2190E06B
S11317F008950C941A210C9422210C940A21CF925E
S1131800DF92EF92FF920F931F93CF93DF938C019C
S113181080E090E00E941A2190E0F8018F3F91054A
S113182019F09383828302C013821282FFE926E8AF
S113183041E0F15020404040E1F700C000000E9428
S1131840A20281E392E00E948E0463E070E0F8015A
S1131850828193810E94B0048CE392E00E948E0402
S1131860F801828193812CE1AC01249FC001259F62
S1131870900D11240E94EF1BF80191838083892B22
S113188029F0C0E0D0E0C12CD12C09C00E94A202F2
S11318908FE291E00E948E0480E090E04CC0F80159
S11318A082819381C816D9060CF043C0BE016F5FD4
S11318B07F4FF8018081918148E050E08C0F9D1F9B
S11318C00E940A21F801E080F180EC0EFD1ECE0199
S11318D009960E942221F701608771878287938786
S11318E0CE010D960E942221F701648775878687B1
S11318F09787CE0141960E942221F701608B718B5C
S1131900828B938BCE0145960E942221F701648B32
S1131910758B868B978BCE0149960E942221F70105
S1131920608F718F828F938FFFEFCF1ADF0A6C96CF
S1131930B6CF81E090E0DF91CF911F910F91FF909E
S1131940EF90DF90CF900895CF93DF93EC018881DF
S113195099810E94871C1982188281E090E0DF91AE
S1131960CF9108951092CD008CE08093CC0010921A
S1131970C5008093C400E9ECF0E08081886D808329
S1131980E1ECF0E08081886D8083E8ECF0E0808118
S113199082608083E0ECF0E0808182608083EAEC06
S11319A0F0E080818E608083E2ECF0E080818660EC
S11319B080830895E9E6F0E08081806280838081FD
S11319C08F7E8083EA9A22982A9A84B18B6084B9A4
S11319D0289A85B5856085BD85B58D7F85BD8AE7E7
S11319E087BDEEE6F0E080818260808308950F93E6
S11319F01F93CF93DF93EC018FEF84B9F8940E9487
S1131A00B20C0E94DA0C78940E94A2022FE38DE0BB
S1131A1093E0215080409040E1F700C0000018821C
S1131A2019821A821B821D821C821F821E821986C1
S1131A3018861B861A8684E28C878EE58D87FE01C4
S1131A40E257FF4F1082FE01E157FF4F1082FE0163
S1131A50E150FF4F11821082FE01EF5FFE4F81E0E3
S1131A6090E091838083FE01E057FF4F8BE48083F5
S1131A70FE01EF56FF4F8083FE01EE56FF4F808339
S1131A80FE01ED56FF4F1182108280E090E0FE01CE
S1131A90E80FF91F1686019680389105C1F780E09A
S1131AA090E0FE01E80FF91FEB56FF4F10820196FC
S1131AB080359105B1F700E010E080E190E00E94EC
S1131AC0EF1BF801EE0FFF1FEC0FFD1FEB51FF4F53
S1131AD09183808380819181892B49F40E94A202A1
S1131AE08FE291E00E948E0480E090E014C080E0D8
S1131AF090E0DF01ED91FC911197E80FF91F10823E
S1131B00019680319105B1F70F5F1F4F0D3011051C
S1131B10A1F681E090E0DF91CF911F910F9108959C
S1131B20E1ECF0E08081877280830895E1ECF0E0DD
S1131B308081886D80830895FC01DC01A057BF4F2C
S1131B409C918485981312C0DF01AF56BF4F9C91BE
S1131B50848598130BC0DF01AE56BF4F3C9124859A
S1131B6081E090E0321721F080E0089580E090E079
S1131B700895FC01DC01A057BF4F9C918585981303
S1131B8012C0DF01AF56BF4F9C91858598130BC0DF
S1131B90DF01AE56BF4F3C91258581E090E03217BE
S1131BA021F080E0089580E090E00895FC01E25780
S1131BB0FF4F2081DC01A20FB11D1E968C919081F4
S1131BC09F5F9083908197FD10820895FC01E257F6
S1131BD0FF4F3081DC01A157BF4F2C91321731F0F8
S1131BE02081FC01E20FF11D8685089580E00895AF
S1131BF00F931F93CF93DF93FC018B01EA011186AE
S1131C0010861582148210821182128213820E941D
S1131C10A202209719F489E492E002C08EE592E0D2
S1131C200E948E04C8010E94FF0B2FE38DE093E015
S1131C30215080409040E1F700C00000219721F43A
S1131C4081E792E00E948E042FE986E891E021501A
S1131C5080409040E1F700C0000081E090E0DF9117
S1131C60CF911F910F910895EF92FF920F931F93BD
S1131C70CF93DF937C018A01E9012F3F8FEF38076F
S1131C8051F4FB01828193812CE1289FE001299F7B
S1131C90D00D112421960E94A2020C171D07CCF42A
S1131CA0F70120853185828593852817390789F4C2
S1131CB0C8010E94F90B811101C08FE30E945A04EC
S1131CC087EA91E60197F1F700C000000F5F1F4F0C
S1131CD0E4CFDF91CF911F910F91FF90EF90089582
S1131CE0DF92EF92FF920F931F93CF93DF938C01B8
S1131CF07B01C0E0D0E03CE1D32EF70122813381A7
S1131D00D29EC001D39E900D1124C817D907C4F4E4
S1131D10F80120853185828593852817390781F458
S1131D202196CE010E94F90B811101C08FE30E941C
S1131D305A0487EA91E60197F1F700C00000DDCF6D
S1131D40DF91CF911F910F91FF90EF90DF90089555
S1131D50CF93DF93EC010E94A20281E892E00E94FB
S1131D608E04288539858A859B8528173907C9F308
S1131D70DF91CF9108956F927F928F929F92AF924D
S1131D80BF92CF92DF92EF92FF920F931F93CF9364
S1131D90DF937C01EB01FC012085318582859385ED
S1131DA02817390709F0ABC00E94A2028FE992E01C
S1131DB00E948E04FFE32DE083E0F1502040804038
S1131DC0E1F700C000000E94A20200E010E03E0122
S1131DD098E0690E711C6E01E2E3CE0ED11C5E0127
S1131DE0F9E2AF0EB11C4E0121E2820E911C0115E5
S1131DF0110569F085E691E00E948E04F80132979E
S1131E00E930F10560F4E35BFF4F0C94E91B80EBD0
S1131E1092E00E948E0468E070E0CE0157C08AEB25
S1131E2092E00E948E0468E070E0C3014FC081EC30
S1131E3092E00E948E0488893FC087EC92E00E9461
S1131E408E0469897A898B899C8908C08DEC92E01B
S1131E500E948E046D897E898F89988D44E050E0BC
S1131E6013C082EB91E00E948E04698D7A8D8B8D74
S1131E709C8D08C084EA91E00E948E046D8D7E8D55
S1131E808F8D98A141E050E00E94E00421C083EDD1
S1131E9092E00E948E0468E070E0C40117C08AEDED
S1131EA092E00E948E0468E070E0C5010FC083EEEA
S1131EB092E00E948E0489A90E945A0409C08AEE05
S1131EC092E00E948E0463E070E0C6010E945D050A
S1131ED08FE39DE0E3E081509040E040E1F700C0F3
S1131EE00000F701208531858285938528173907FD
S1131EF031F40F5F1F4F0B30110509F078CFDF91DC
S1131F00CF911F910F91FF90EF90DF90CF90BF90F2
S1131F10AF909F908F907F906F900895CF93DF93B1
S1131F20EB01FC01208531858285938528173907CB
S1131F3009F084C00E94A20283ED92E00E948E0404
S1131F4068E070E0CE0181960E945D058AE00E94FF
S1131F505A0485EF92E00E948E0468E070E0CE019E
S1131F6008960E945D05FFEB27E289E0F1502040CE
S1131F708040E1F700C000000E94A20287EC92E0DA
S1131F800E948E0469897A898B899C8944E050E097
S1131F900E94E0048AE00E945A048DEC92E00E94C0
S1131FA08E046D897E898F89988D44E050E00E946B
S1131FB0E0049FEBE7E2F9E09150E040F040E1F704
S1131FC000C000000E94A20284EA91E00E948E04F4
S1131FD06D8D7E8D8F8D98A141E050E00E94E004CC
S1131FE08DEA91E00E948E04FE01E05CFF4F808147
S1131FF00E945A04FE01EF5BFF4F80810E945A0445
S1132000FE01EE5BFF4F80810E945A048AE00E9429
S11320105A0482EB91E00E948E04698D7A8D8B8D37
S11320209C8D41E050E00E94E0042FEB87E299E0B0
S1132030215080409040E1F700C00000DF91CF9133
S113204008950F931F93CF93DF938C01FC01208598
S11320503185828593852817390709F070C00E945D
S1132060A2028BEF92E00E948E04FFE32DE083E056
S1132070F15020408040E1F700C000000E94A2021D
S1132080C0E0D0E0209769F085E691E00E948E04DC
S1132090FE013297EB30F10538F4EA5AFF4F0C9405
S11320A0E91B89E093E023C081E193E020C086E14D
S11320B093E01DC08AE193E01AC08EE193E017C05B
S11320C082E293E014C086E293E011C08AE293E0D6
S11320D00EC080E393E00BC087E393E008C08CE379
S11320E093E005C083E493E002C088E493E00E9497
S11320F08E0484E594E00E948E04CE01880F991F1B
S1132100800F911FFC01EB51FF4F808191810E9450
S11321108E049FE9E6E8F1E09150E040F040E1F7F9
S113212000C00000F8012085318582859385281739
S1132130390729F42196CD30D10509F0A3CFDF91D9
S1132140CF911F910F9108950F931F93CF93DF9316
S11321508C010E94A20281E593E00E948E04C0E0FB
S1132160D0E0F801208531858285938528173907C9
S113217049F46FEFCE010E9428212196C13FFAE075
S1132180DF0779F7DF91CF911F910F910895EF92B7
S1132190FF920F931F93CF93DF938C018CE1869F63
S11321A07001879FF00C1124C0E0D0E0D801ED91BC
S11321B0FC91EE0DFF1DEC0FFD1F80810E945A045F
S11321C02196C830D10591F7DF91CF911F910F91DE
S11321D0FF90EF900895CF92DF92EF92FF920F93CA
S11321E01F93CF93DF93EC017B01288539858A8582
S11321F09B852817390709F04DC00E94A20263E0AD
S113220070E0F701828193810E94B00483E693E039
S11322100E948E04FFE72AE186E0F15020408040CE
S1132220E1F700C000000E94A2028AE00E945A0462
S113223000E010E0F701828193810817190754F533
S1132240288539858A859B852817390719F58AE0F9
S11322500E945A0468019FEFC91AD90A63E070E02A
S1132260C6010E94B00484E594E00E948E04B80183
S1132270C7010E94C710288539858A859B85281740
S1132280390741F4E3E2F4EF3197F1F700C00000BD
S11322908601D0CFDF91CF911F910F91FF90EF90E6
S11322A0DF90CF900895AF92BF92CF92DF92EF92DA
S11322B0FF920F931F93CF93DF935C01EB016A01AD
S11322C0FC0120853185828593852817390709F01B
S11322D0B2C00E94A20283E793E00E948E04FFE74B
S11322E02AE186E0F15020408040E1F700C0000080
S11322F00E94A202F601E588F6880789108D2189DB
S11323003289438954896A817B81888199810E94B9
S1132310E30A9D838C83BE01C6010E943C086C8144
S11323207D81CE010E94C71082E092E00E948E045B
S11323302C813D814CE1429FC001439F900D1124AB
S1132340E881F981E80FF91F60857185828593859D
S113235041E050E00E94E00485E691E00E948E0492
S11323604C815D8168817981C6010E94730B41E0D3
S113237050E00E94E0048EE893E00E948E04F6018F
S113238085AD0E945A04F60186AD0E945A04F601F6
S113239087AD0E945A04F501208531858285938595
S11323A02817390709F047C0FFE322E48FE0F15012
S11323B020408040E1F700C00000F5012085318510
S11323C08285938528173907B1F50E94A20284E912
S11323D093E00E948E04F60165A976A987A990ADC1
S11323E041E050E00E94E00487ED0E945A048AE034
S11323F00E945A048DE993E00E948E04F60161ADB7
S113240072AD83AD94AD41E050E00E94E00487EDED
S11324100E945A04F5012085318582859385281709
S1132420390749F4FFE322E48FE0F1502040804073
S1132430E1F700C00000DF91CF911F910F91FF9051
S1132440EF90DF90CF90BF90AF900895CF92DF923E
S1132450EF92FF920F931F93CF93DF93EC018B01C5
S11324606A0163E070E0CA0101960E94B00484E549
S113247094E00E948E04B601C8010E94C71083E252
S113248094EF0197F1F700C0000085E691E00E9407
S11324908E0488859985069709F4A1C086EA93E09D
S11324A00E948E048CE18C9D70018D9DF00C112492
S11324B0D801ED91FC91EE0DFF1D6085718582853B
S11324C0938541E050E00E94E00483E294EF019799
S11324D0F1F700C0000085E691E00E948E04888533
S11324E09985069709F47BC08DEA93E00E948E04D7
S11324F0D801ED91FC91EE0DFF1D648575858685EF
S1132500978544E050E00E94E00483E294EF019751
S1132510F1F700C0000085E691E00E948E048885F2
S11325209985069709F45BC083EB93E00E948E04BF
S1132530D801ED91FC91EE0DFF1D608971898289AE
S1132540938944E050E00E94E00483E294EF019711
S1132550F1F700C0000085E691E00E948E048885B2
S113256099850697E1F189EB93E00E948E04D801E6
S1132570ED91FC91EE0DFF1D64897589868997891B
S113258041E050E00E94E00483E294EF0197F1F708
S113259000C0000085E691E00E948E04888599853C
S11325A00697E9F08FEB93E00E948E04D801ED9139
S11325B0FC91EE0DFF1D608D718D828D938D40E039
S11325C050E00E94E00483E294EF0197F1F700C029
S11325D0000085E691E00E948E0488859985DF914C
S11325E0CF911F910F91FF90EF90DF90CF900895BE
S11325F0EF92FF920F931F93CF93DF93EC017B0134
S1132600288539858A859B8528173907E1F50E9435
S1132610A20263E070E0F701828193810E94B0041A
S113262083E693E00E948E04FFE72AE186E0F150FE
S113263020408040E1F700C0000000E010E0F70116
S11326408281938108171907F4F4288539858A85CE
S11326509B8528173907B9F40E94A202A801B70183
S1132660CE010E942612288539858A859B852817E4
S1132670390749F4EFE4F3EC3197F1F700C00000B7
S11326800F5F1F4FDCCFDF91CF911F910F91FF9010
S1132690EF900895AF92BF92CF92DF92EF92FF92A4
S11326A00F931F930E94A20286EC93E00E948E0473
S11326B02FE78AE196E0215080409040E1F700C086
S11326C000000E94A20282EE93E00E948E04A12CDC
S11326D0B12C50EDC52E52ECD52EE12CF12C0CE191
S11326E012E420E030E044E952EC60E070E080E283
S11326F092E40E94020A41E050E00E94E00482EF6A
S113270093E00E948E042FE181EA97E021508040FB
S11327109040E1F700C000000E94A20286EF93E01F
S11327200E948E0475E3A72E7EE1B72E7DEBC72EA3
S113273072ECD72E12E3E12E15E5F12E0CE112E432
S113274022E430E24DEB52EC65E276E88CE192E46F
S11327500E94020A41E050E00E94E00482EF93E00C
S11327600E948E042FE181EA97E02150804090403E
S1132770E1F700C000001F910F91FF90EF90DF90F0
S1132780CF90BF90AF9008950F931F93CF93DF9393
S1132790EC018B010E94A20287E094E00E948E0467
S11327A02FE38DE093E0215080409040E1F700C09A
S11327B00000C8010E94BA0B892B91F40E94A20266
S11327C0B801CE010E94BB0E288539858A859B8578
S11327D02817390779F483E294EF0197F1F7E7CFEB
S11327E00E94A202B801CE01DF91CF911F910F91F7
S11327F00C94BB0EDF91CF911F910F910895EF922E
S1132800FF920F931F93CF93DF93EC016A817B8137
S113281020E030E000E010E0061717070CF071C06C
S113282088819981820F931F40E050E07C010196DA
S1132830D701EC91E052EF3508F458C081E090E004
S11328409F838E830E94A2028FE194E00E948E04F3
S1132850BFE7EAE1F6E0B150E040F040E1F700C044
S113286000000E94A20283E394E00E948E042FE9F8
S113287086E891E0215080409040E1F700C00000DC
S11328800E94A20289E494E00E948E0463E070E056
S1132890C80101960E94B00483E594E00E948E046E
S11328A087E20E945A04D7018C910E945A0487E25D
S11328B00E945A048AE00E945A04BFE7EAE1F6E063
S11328C0B150E040F040E1F700C00000B801CE0193
S11328D00E94C7102FEF84E39CE021508040904079
S11328E0E1F700C0000080E090E00FC04F5F5F4F51
S11328F04830510509F09ACF0F5F1F4F245E3F4FB8
S11329008BCF1F821E8281E090E0DF91CF911F91D7
S11329100F91FF90EF9008954F925F926F927F9284
S11329208F929F92AF92BF92CF92DF92EF92FF92DB
S11329300F931F93CF93DF931F92CDB7DEB783E03E
S113294091E00E94EF1B90935D0480935C040097D8
S113295039F40E94A2028FE291E00E948E0439C2EF
S11329600E94F70C892B09F434C283E490E00E949E
S1132970EF1B2C01009769F388E090E00E94EF1BA5
S11329808C01009731F38AE391E00E948E04C80120
S11329900E94FF0B2FE38DE093E021508040904094
S11329A0E1F700C0000085E0C82ED12C3201A0E47C
S11329B06A0E711C5201B1E4AB0EB11C4201E2E497
S11329C08E0E911CA0915C04B0915D0418968D91BB
S11329D09C9119971B969C938E931A9718968D9198
S11329E09C9119978730910588F78A5B9F4FFC016A
S11329F00C94E91BF80182819381181619062CF0B6
S1132A001996DC92CE921897DDCF0E94960D0E9403
S1132A10A2028EE491E00E948E04FFEB27E289E09B
S1132A20F15020408040E1F700C0000080915C0438
S1132A3090915D04FC01E150FF4F20813181232BF3
S1132A4069F0B2018B519F4F0E941E07E0915C0414
S1132A50F0915D04E150FF4F11821082C2010E9487
S1132A60BA0B892B49F0A201B80180915C049091C2
S1132A705D040E945311A6CF0E94A20288E591E052
S1132A800E948E0487E691E00E948E049FE7AAE1EB
S1132A90B6E09150A040B040E1F7EFC00E94A2021E
S1132AA00E94960D80915C0490915D04FC01E150BC
S1132AB0FF4F20813181232B69F0B2018B519F4F4D
S1132AC00E941E07E0915C04F0915D04E150FF4F09
S1132AD011821082C2010E94BA0B892B09F444C0EE
S1132AE085E791E00E948E04EFE9F6E821E0E150E9
S1132AF0F0402040E1F700C00000D20151966D91F2
S1132B007D918D919C91549743E050E00E94E004A4
S1132B10E3E2F4EF3197F1F700C0000081E993E0BC
S1132B200E948E0483E294EF0197F1F700C0000045
S1132B30D20155966D917D918D919C91589743E06A
S1132B4050E00E94E004BFEBE7E2F9E0B150E0405E
S1132B50F040E1F700C00000B20180915C04909164
S1132B605D040E948E0F2ECF88E591E00E948E04B2
S1132B7087E691E00E948E042FE78AE196E02150D7
S1132B8080409040E1F700C000002BC08FE791E047
S1132B900E948E04AFEBB7E2E9E0A150B040E04000
S1132BA0E1F700C00000B80180915C0490915D04DD
S1132BB00E94F81207CF0E94A20284E991E00E94C9
S1132BC08E04FFEB27E289E0F15020408040E1F7DA
S1132BD000C00000B20180915C0490915D040E94E9
S1132BE0BB0E80915C0490915D040E942110EACE9A
S1132BF00E94A2028CE991E00E948E049FEBA7E25E
S1132C00B9E09150A040B040E1F700C000000E943C
S1132C10A20284EA91E00E948E04F201658D768D11
S1132C20878D90A141E050E00E94E0048DEA91E09C
S1132C300E948E04D3018C910E945A04F501808174
S1132C400E945A04D4018C910E945A048AE00E9482
S1132C505A0482EB91E00E948E04F201618D728D20
S1132C60838D948D41E050E00E94E004FFEB27E265
S1132C7089E0F15020408040E1F700C00000A2CE7E
S1132C80CD010E94A80E9ECE0E94900DE0915C049E
S1132C90F0915D0484819581892BC1F40E94A20284
S1132CA08AEB91E00E948E04E0915C04F0915D0453
S1132CB081E090E095838483D80117961C921E923C
S1132CC0169717821682C8010E94A40CE0905C0437
S1132CD0F0905D04F701E257FF4F9081F701E1574F
S1132CE0FF4F8081981709F444C0F70110821182C4
S1132CF012821382C7010E94D60D682F80915C0452
S1132D0090915D0469830E94B90DE0915C04F09197
S1132D105D046981892BF9F040E050E0B801CF01EE
S1132D200E94F80DC8010E94FF13D80116968D91D8
S1132D309C911797892B09F03FC00E94A20283ED52
S1132D4091E00E948E04BFE3EDE0F3E0B150E04077
S1132D50F040E1F792CF868197810E942821E0918B
S1132D605C04F0915D048681978101969783868344
S1132D7029CED7016D917D918D919C9120E030E019
S1132D8040E85FE30E94FE16F7016083718382834B
S1132D909383608171818281938120E030E543E4F3
S1132DA057E40E94C71918160CF00CCE41E050E00D
S1132DB0B801C7010E94F80D80915C0490915D04F4
S1132DC00E94A410E0915C04F0915D04D186C08659
S1132DD0F9CD80E090E00F90DF91CF911F910F919A
S1132DE0FF90EF90DF90CF90BF90AF909F908F9027
S1132DF07F906F905F904F9008955058BB27AA27FB
S1132E000ED063C22CD230F031D220F031F49F3F87
S1132E1011F41EF4FCC10EF4E095E7FBC9C1E92FDF
S1132E2076D280F3BA17620773078407950718F000
S1132E3071F49EF5A5C20EF4E0950B2EBA2FA02DC9
S1132E400B01B90190010C01CA01A0011124FF2753
S1132E50591B99F0593F50F4503E68F11A16F0404E
S1132E60A22F232F342F4427585FF3CF469537954D
S1132E702795A795F0405395C9F77EF41F16BA0B12
S1132E80620B730B840BBAF09150A1F0FF0FBB1FC0
S1132E90661F771F881FC2F70EC0BA0F621F731F09
S1132EA0841F48F4879577956795B795F7959E3F66
S1132EB008F0B3CF9395880F08F09927EE0F9795F4
S1132EC087950895CCD158F080E891E009F49EEFFD
S1132ED0CDD128F040E851E059F45EEF09C097C124
S1132EE04FC2E92FE07813D268F3092E052AC1F303
S1132EF0261737074807590738F00E2E07F8E0253C
S1132F0069F0E025E0640AC0EF6307F8009407FA6B
S1132F10DB01B9019D01DC01CA01AD01EF934AD087
S1132F20D4D10AD05F91552331F02BED3FE049E431
S1132F3050FD49EC63CF0895DF93DD27B92FBF77A8
S1132F4040E85FE31616170648075B0710F4D92F0D
S1132F5022D29F938F937F936F93B9D3E2ECF0E0E7
S1132F6059D1B3D12F913F914F915F91A5D2DD23D8
S1132F7049F09058A2EA2AED3FE049EC5FE3D078AB
S1132F805D274DDFDF91A1C1EFD008F481E0089502
S1132F9075D1E395ABC10CD098C168D140F05FD135
S1132FA030F021F45F3F19F003C15111EAC12FC180
S1132FB0AED198F39923C9F35523B1F3951B550B5F
S1132FC0BB27AA2762177307840738F09F5F5F4FF8
S1132FD0220F331F441FAA1FA9F333D00E2E3AF039
S1132FE0E0E830D091505040E695001CCAF729D053
S1132FF0FE2F27D0660F771F881FBB1F26173707A2
S11330004807AB07B0E809F0BB0B802DBF01FF27D1
S113301093585F4F2AF09E3F510568F0C9C0B1C173
S11330205F3FECF3983EDCF3869577956795B7950B
S1133030F7959F5FC9F7880F911D9695879597F926
S11330400895E1E0660F771F881FBB1F621773079F
S11330508407BA0720F0621B730B840BBA0BEE1FB4
S113306088F7E095089504D06894B1118AC1089551
S113307056D188F09F5790F0B92F9927B751A0F0F7
S1133080D1F0660F771F881F991F1AF0BA95C9F7F8
S113309012C0B13081F074D1B1E0089571C1672FCD
S11330A0782F8827B85F39F0B93FCCF386957795A8
S11330B06795B395D9F73EF4909580957095619591
S11330C07F4F8F4F9F4F0895E89409C097FB3EF4BC
S11330D090958095709561957F4F8F4F9F4F992361
S11330E0A9F0F92F96E9BB279395F69587957795DF
S11330F06795B795F111F8CFFAF4BB0F11F460FF9F
S11331001BC06F5F7F4F8F4F9F4F16C0882311F0F6
S113311096E911C0772321F09EE8872F762F05C00A
S1133120662371F096E8862F70E060E02AF09A95A5
S1133130660F771F881FDAF7880F9695879597F99A
S1133140089507D180F09F3740F491110EF019C112
S113315060E070E080E89FEB089526F41B16611D83
S1133160711D811D2BC045C0990F0008550FAA0B76
S1133170E0E8FEEF16161706E807F907C0F0121686
S11331801306E407F50798F0621B730B840B950B89
S113319039F40A2661F0232B242B252B21F40895DE
S11331A00A2609F4A140A6958FEF811D811D08957B
S11331B097F99F6780E870E060E00895882371F4D0
S11331C0772321F09850872B762F07C0662311F4BC
S11331D099270DC09051862B70E060E02AF09A95F3
S11331E0660F771F881FDAF7880F9695879597F9EA
S11331F008959F3F31F0915020F487957795679516
S1133200B795880F911D9695879597F908959FEF27
S113321080EC0895DF93CF931F930F93FF92EF9267
S1133220DF927B018C01689405C0DA2EEF0144D152
S1133230FE01E894A5912591359145915591AEF300
S1133240EF01EDDDFE019701A801DA9479F7DF9033
S1133250EF90FF900F911F91CF91DF91089500247B
S11332600A941616170618060906089500240A94E7
S113327012161306140605060895C9CF50D0E8F3B4
S1133280E894E0E0BB279F57F0F02AED3FE049ECDB
S113329006C0EE0FBB0F661F771F881F28F0B23AD7
S11332A062077307840728F0B25A620B730B840B0E
S11332B0E3959A9572F7803830F49A95BB0F661FA0
S11332C0771F881FD2F7904896CF092E0394000CDD
S11332D011F4882352F0BB0F40F4BF2B11F460FFAC
S11332E004C06F5F7F4F8F4F9F4F0895EF93E0FFB0
S11332F006C0A2EA2AED3FE049EC5FEB90DDE5DF92
S11333000F90039401FC9058EFEEF0E01BC257FDC0
S11333109058440F551F59F05F3F71F04795880F3F
S113332097FB991F61F09F3F79F0879508951216D6
S113333013061406551FF2CF4695F1DF08C0161682
S113334017061806991FF1CF869571056105089433
S11333500895E5DFA0F0BEE7B91788F4BB279F38CE
S113336060F41616B11D672F782F8827985FF7CF62
S1133370869577956795B11D93959639C8F3089509
S1133380E894BB2766277727CB0197F90895ECDEED
S113339008F48FEF08959B01AC0160E070E080E8D1
S11333A09FE3F9CD0AD029ED3BE54EED5EE378C00D
S11333B00EF01FCF2CCF6894FBCEB1DFC8F3992356
S11333C0D1F3C6F3DF93CF931F930F93FF92C92FCB
S11333D0DD2788232AF02197660F771F881FDAF7E5
S11333E020E030E040E85FEB9FE3883920F0803E46
S11333F030F021968F7702DDEDE0F1E003C0FEDCD2
S1133400EAE3F1E007DF8B01BE01EC01FB2E6F570D
S113341071097595771F880B990B58DE28E132E7FF
S113342041E35FE349D0AF2D9801AE01FF900F91C6
S11334301F91CF91DF91F3DC48CFFA01DC01AA0F91
S1133440BB1F9B01AC01BF5728F422273327442715
S113345050781FC0B75188F4AB2F00244695379598
S11334602795011CA395D2F3002069F0220F331F86
S1133470441FB395DAF30DD0C0CC61307105A0E8D8
S11334808A07B94630F49B01AC0166277727882761
S11334909078309621F020833183428353830895BA
S11334A00BD013CFDCDE28F0E1DE18F0952309F011
S11334B07FCEADCE112465CF2ADFA0F3959FD1F343
S11334C0950F50E0551F629FF001729FBB27F00DCE
S11334D0B11D639FAA27F00DB11DAA1F649F662723
S11334E0B00DA11D661F829F2227B00DA11D621F72
S11334F0739FB00DA11D621F839FA00D611D221F2C
S1133500749F3327A00D611D231F849F600D211D0F
S1133510822F762F6A2F11249F5750408AF0E1F0B2
S113352088234AF0EE0FFF1FBB1F661F771F881FFB
S113353091505040A9F79E3F510570F039CE21CFEC
S11335405F3FECF3983EDCF3869577956795B795E6
S1133550F795E7959F5FC1F7FE2B880F911D969510
S1133560879597F90895FA01EE0FFF1F309621050C
S1133570310599F16115710561F48038BFE39B074A
S113358049F168949038810561F08038BFEF9B075A
S113359041F0992342F5FF3FE1053105210511F181
S11335A0E8940894E795D901AA2329F4AB2FBE2FF8
S11335B0F85FD0F310C0FF5F70F4A695E0F7F73919
S11335C050F019F0FF3A38F49F779F930CD00F9086
S11335D007FC905808953EF01ACE60E070E080E851
S11335E09FE308954FE79F775F934F933F932F9304
S11335F0E4DE2F913F914F915F9152DF70C08FDED7
S1133600E0F09E37D8F09639B8F49E3848F4672F26
S1133610782F8827985FF9CF869577956795939546
S11336209539D0F3B62FB1706B0F711D811D20F445
S11336308795779567959395C1CDDBCDA2CE9F9362
S11336401DDE0F9007FCEE5F51CE11F40EF4DFCDBA
S1133650D0CD65DED0F39923D9F3CEF39F57550B24
S113366087FF69D00024A0E640EA9001805856956F
S1133670979528F4805C660F771F881F20F0261723
S11336803707480730F4621B730B840B2029312958
S11336904A2BA69517940794202531254A2758F7D5
S11336A0660F771F881F20F026173707480730F466
S11336B0620B730B840B200D311D411DA09581F706
S11336C0B901842F9158880F9695879508959B0189
S11336D0AC01E6CE19F40EF06BCD52CE98CD1FDEC0
S11336E0C8F39638C0F707F80F92E8942BE33AEA48
S11336F048EB5FE7E3DE0F920F920F924DB75EB790
S11337000F929BDEE7E6F1E085DD4F915F91EF914B
S1133710FF91E595EE1FFF1F49F0FE57E06844272F
S1133720EE0F441FFA95E1F74195550B1ED00F900B
S113373007FE31CE089591505040660F771F881FC1
S1133740D2F708959F938F937F936F93FF93EF9393
S11337509B01AC01A5DEEF91FF915CDD2F913F91C0
S11337604F915F919DCE24CD44CDD9DDE8F39923CB
S1133770D9F3940F511DBBF39150504094F059F07C
S1133780882332F0660F771F881F91505040C1F78D
S11337909E3F510544F7880F911D9695879597F99B
S11337A008955F3FACF0983E9CF0BB2786957795D3
S11337B06795B79508F4B1609395C1F7BB0F58F7B7
S11337C011F460FFE8CF6F5F7F4F8F4F9F4FE3CFC0
S11337D0D8CDEE0FFF1F0590F491E02D0994CF93FF
S11337E0DF938230910510F482E090E0E091600470
S11337F0F091610420E030E0A0E0B0E0309739F1CE
S11338004081518148175907B8F04817590771F496
S113381082819381109729F013969C938E9312972B
S11338202CC0909361048093600427C02115310556
S113383031F04217530718F0A901DB0101C0EF0171
S11338409A01BD01DF010280F381E02DD7CF21155C
S11338503105F9F0281B390B2430310580F48A81B5
S11338609B816115710521F0FB019383828304C060
S11338709093610480936004FE01329644C0FE017B
S1133880E20FF31F819391932250310939832883E6
S11338903AC020915E0430915F04232B41F42091BF
S11338A004013091050130935F0420935E0420915C
S11338B00201309103012115310541F42DB73EB7C2
S11338C04091060150910701241B350BE0915E04E1
S11338D0F0915F04E217F307A0F42E1B3F0B2817A7
S11338E0390778F0AC014E5F5F4F2417350748F075
S11338F04E0F5F1F50935F0440935E048193919336
S113390002C0E0E0F0E0CF01DF91CF910895CF93C2
S1133910DF93009709F487C0FC0132971382128267
S1133920C0916004D0916104209781F42081318199
S1133930280F391F80915E0490915F0482179307CA
S113394079F5F0935F04E0935E046DC0DE0120E03E
S113395030E0AE17BF0750F412964D915C91139767
S11339609D014115510509F1DA01F3CFB383A28317
S113397040815181840F951F8A179B0771F48D91A3
S11339809C911197840F951F0296918380831296C0
S11339908D919C911397938382832115310529F48A
S11339A0F0936104E09360043EC0D9011396FC9344
S11339B0EE9312974D915D91A40FB51FEA17FB0783
S11339C079F480819181840F951F0296D901119613
S11339D09C938E938281938113969C938E931297DA
S11339E0E0E0F0E08A819B81009719F0FE01EC0190
S11339F0F9CFCE01029628813981820F931F20913D
S1133A005E0430915F042817390769F4309729F46C
S1133A10109261041092600402C013821282D09347
S1133A205F04C0935E04DF91CF9108954F925F923B
S1133A306F927F928F929F92AF92BF92CF92DF92BA
S1133A40EF92FF920F931F93CF93DF938B01611536
S1133A50710521F0DB018C9311969C93EC015E01BE
S1133A60BFEFAB1ABB0A7501C8808C2D90E00E9491
S1133A70931E892B11F0E501F2CFEDE2CE1208C0BE
S1133A807E01F2E0EF0EF11CC980DD24D39409C05D
S1133A902BE2C21205C07E0142E0E40EF11CC98093
S1133AA0D12CE701219743E050E067E971E0CE01B2
S1133AB00E949B1E892BD1F4E701229645E050E039
S1133AC062E971E0CE010E949B1E892B11F4E7018B
S1133AD027960115110519F0D801CD93DC93D11067
S1133AE008C160E070E080E89FE70CC143E050E06B
S1133AF06FE871E0CE010E949B1E892B59F40115D9
S1133B00110509F4FBC0B2E0EB0EF11CF801F182DF
S1133B10E082F4C0F70160E070E0CB01C0E0D0E0E7
S1133B207F01A0EDAA2EAC0C29E02A1530F14D2D11
S1133B304260B42E2D2D2870D2FE04C0211125C060
S1133B40219623C021112197A5E0B0E09B01AC018F
S1133B500E94DF21660F771F881F991F6A0D711D50
S1133B60811D911D6839A9E97A078A07A9E19A0795
S1133B7060F0BD2DB660BB2E08C02EEFA2120AC0A5
S1133B80D3FC50C04D2D4860B42E3196D701CC9053
S1133B90DB2CC6CF2C2D2F7D253409F043C0A0810A
S1133BA0AD3241F4BD2DB061DB2E7F0122E0E20E87
S1133BB0F11C0CC07F01AB3231F04FEFE41AF40A70
S1133BC021E030E006C0A2E0EA0EF11CA18122E06F
S1133BD030E0A053AA3018F0E21AF30A23C0F70128
S1133BE020E030E02038BCE03B075CF4A901440F3E
S1133BF0551F440F551F240F351F220F331F2A0F43
S1133C00311DAF014F5F5F4F7A01A081A053AA30ED
S1133C1010F4FA01E7CFD4FE03C0319521953109A0
S1133C20C20FD31FD1FE09C00115110531F0E1E027
S1133C30EE1AF108D801ED92FC920E9464182D2D21
S1133C402370233019F06B017C0106C06B017C01E9
S1133C50F7FAF094F7F8F09420E030E0A901C701F6
S1133C60B6010E94C417882309F440C0D7FF06C0D8
S1133C70D195C195D1090EEA11E002C006EC11E01C
S1133C804801B8E18B1A910890E2A92EB12CF801F1
S1133C904590559065907490CA15DB055CF0A301BE
S1133CA09201C701B6010E94501A6B017C01CA1926
S1133CB0DB09F2CF04501109B594A794081519052E
S1133CC031F78E2D880F8F2D881F8F3F49F020E00C
S1133CD030E0A901C701B6010E94C417811106C0D2
S1133CE082E290E09093630480936204C701B6017A
S1133CF009C060E070E080E89FEF04C060E070E01D
S1133D0080EC9FE7DF91CF911F910F91FF90EF908F
S1133D10DF90CF90BF90AF909F908F907F906F90E7
S1133D205F904F9008959111A1C2803219F089508B
S1133D308550D0F70895FB01DC014150504088F0D4
S1133D408D9181341CF08B350CF4805E6591613467
S1133D501CF06B350CF4605E861B611171F3990BDA
S1133D600895881BFCCFFB01DC018D910190801923
S1133D700110D9F3990B0895FB01DC0101900D9218
S1133D800020E1F70895FB01DC014150504048F068
S1133D9001900D920020C9F701C01D92415050407E
S1133DA0E0F70895DC0199278D91882341F0FB0108
S1133DB0019008160110E1F7B9F71197CD010895A4
S1133DC00F931F93CF93DF93CDB7DEB72E970FB624
S1133DD0F894DEBF0FBECDBF0D891E8986E08C83AB
S1133DE01A8309838FEF9FE79E838D83AE01475E1D
S1133DF05F4F6F89788DCE0101960E940F1FEF816E
S1133E00F885E00FF11F10822E960FB6F894DEBFEE
S1133E100FBECDBFDF91CF911F910F9108952F92C7
S1133E203F924F925F926F927F928F929F92AF9246
S1133E30BF92CF92DF92EF92FF920F931F93CF9393
S1133E40DF93CDB7DEB72C970FB6F894DEBF0FBE65
S1133E50CDBF7C016B018A01FC011782168283812C
S1133E6081FFBDC1CE0101964C01F7019381F6019A
S1133E7093FD859193FF81916F01882309F4ABC170
S1133E80853239F493FD859193FF81916F018532D9
S1133E9029F4B70190E00E944F21E7CF512C312C37
S1133EA020E02032A0F48B3269F030F4803259F0F3
S1133EB0833269F420612CC08D3239F0803339F4B7
S1133EC0216026C02260246023C0286021C027FD11
S1133ED027C030ED380F3A3078F426FF06C0FAE0F8
S1133EE05F9E300D1124532E13C08AE0389E300D8E
S1133EF01124332E20620CC08E3221F426FD6BC1B6
S1133F00206406C08C3611F4206802C0883641F45F
S1133F10F60193FD859193FF81916F018111C1CFCA
S1133F20982F9F7D9554933028F40C5F1F4FFFE327
S1133F30F9830DC0833631F0833771F0833509F08E
S1133F405BC022C0F801808189830E5F1F4F442427
S1133F504394512C540115C03801F2E06F0E711CCA
S1133F60F801A080B18026FF03C0652D70E002C077
S1133F706FEF7FEFC5012C870E9444212C01830140
S1133F802C852F77222E17C03801F2E06F0E711C9A
S1133F90F801A080B18026FF03C0652D70E002C047
S1133FA06FEF7FEFC5012C870E9439212C012C85EE
S1133FB02068222E830123FC1BC0832D90E0481629
S1133FC05906B0F4B70180E290E00E944F213A9480
S1133FD0F4CFF50127FC859127FE81915F01B7019C
S1133FE090E00E944F2131103A94F1E04F1A5108A9
S1133FF04114510471F7E5C0843611F0893639F55E
S1134000F80127FF07C060817181828193810C5F71
S11340101F4F08C060817181882777FD8095982F94
S11340200E5F1F4F2F76B22E97FF09C09095809593
S1134030709561957F4F8F4F9F4F2068B22E2AE075
S113404030E0A4010E948121A82EA81844C085371D
S113405029F42F7EB22E2AE030E025C0F22FF97F1A
S1134060BF2E8F36C1F018F4883579F0B4C080378C
S113407019F0883721F0AFC02F2F2061B22EB4FE83
S11340800DC08B2D8460B82E09C024FF0AC09F2F59
S11340909660B92E06C028E030E005C020E130E08B
S11340A002C020E132E0F801B7FE07C060817181EF
S11340B0828193810C5F1F4F06C06081718180E013
S11340C090E00E5F1F4FA4010E948121A82EA81822
S11340D0FB2DFF77BF2EB6FE0BC02B2D2E7FA51414
S11340E050F4B4FE0AC0B2FC08C02B2D2E7E05C0CD
S11340F07A2C2B2D03C07A2C01C0752C24FF0DC003
S1134100FE01EA0DF11D8081803311F4297E09C07E
S113411022FF06C07394739404C0822F867809F03A
S1134120739423FD13C020FF06C05A2C731418F493
S1134130530C5718732C731468F4B70180E290E0A1
S11341402C870E944F2173942C85F5CF731410F49F
S1134150371801C0312C24FF12C0B70180E390E06E
S11341602C870E944F212C8522FF17C021FF03C0FA
S113417088E590E002C088E790E0B7010CC0822F88
S1134180867859F021FD02C080E201C08BE227FD50
S11341908DE2B70190E00E944F21A51438F4B701D5
S11341A080E390E00E944F215A94F7CFAA94F4013F
S11341B0EA0DF11D8081B70190E00E944F21A1100A
S11341C0F5CF332009F451CEB70180E290E00E948C
S11341D04F213A94F6CFF7018681978102C08FEF81
S11341E09FEF2C960FB6F894DEBF0FBECDBFDF91C4
S11341F0CF911F910F91FF90EF90DF90CF90BF90E0
S1134200AF909F908F907F906F905F904F903F9072
S11342102F900895DC01CB01FC01F999FECF06C073
S1134220F2BDE1BDF89A319600B40D924150504070
S1134230B8F70895F999FECF92BD81BDF89A9927F0
S113424080B50895A6E1B0E044E050E00C940C2160
S1134250262FF999FECF1FBA92BD81BD20BD0FB69E
S1134260F894FA9AF99A0FBE019608959927882727
S11342700895FC010590615070400110D8F78095B5
S113428090958E0F9F1F0895FC016150704001901E
S11342900110D8F7809590958E0F9F1F08950F9366
S11342A01F93CF93DF93182F092FEB018B8181FD8F
S11342B003C08FEF9FEF20C082FF10C04E815F814B
S11342C02C813D81421753077CF4E881F9819F01D9
S11342D02F5F3F4F39832883108306C0E885F98513
S11342E0812F0995892B29F72E813F812F5F3F4F1D
S11342F03F832E83812F902FDF91CF911F910F91B8
S11343000895FA01AA27283051F1203181F1E89467
S11343106F936E7F6E5F7F4F8F4F9F4FAF4FB1E0B4
S11343203ED0B4E03CD0670F781F891F9A1FA11DAF
S1134330680F791F8A1F911DA11D6A0F711D811DB0
S1134340911DA11D20D009F468943F912AE0269F75
S113435011243019305D3193DEF6CF010895462FD4
S11343604770405D4193B3E00FD0C9F7F6CF462FB5
S11343704F70405D4A3318F0495D31FD405241931E
S113438002D0A9F7EACFB4E0A695979587957795DB
S11343906795BA95C9F700976105710508959B0162
S11343A0AC010A2E06945795479537952795BA95EB
S11343B0C9F7620F731F841F951FA01D08950E94E3
S11343C0EA21A59F900DB49F900DA49F800D911D8F
S11343D011240895A29FB001B39FC001A39F700D43
S11343E0811D1124911DB29F700D811D1124911DF9
S10943F00895F894FFCFCC
S11343F6010000006404200024313233343500F116
S113440601F501F901FD010102050209020D02117E
S113441602150219021D022102250229022D026239
S11344266164206D616C6C6F630072656164696EB2
S1134436670A64617461626173652E2E2E00666D6F
S11344464861726D6F6E79004E6F20475053204657
S113445669782E2E2E0A0042652050617469656EB5
S1134466742E2E2E00475053204669783A0A004689
S11344764D2053746174696F6E730A44617461628A
S11344866173650044454255472031004445425511
S113449647203200436F757273653A2000206F72AD
S11344A6200053706565643A200075706461746910
S11344B66E672E2E2E0A646F6E277420756E706CCE
S11344C675670075706461746520636F6D706C65E3
S11344D67465002564003000244750524D43002C77
S11344E6004E2020004E4E45004E452000454E45C8
S11344F600452020004553450053452000535345AD
S11345060053202000535357005357200057535746
S11345160057202000574E57004E5720004E4E5746
S113452600696D706F7274696E6720000A73746136
S113453674696F6E732E2E2E0072656164696E67E0
S11345460A6461746162617365202E2E2E004552E1
S1134556524F523A0A74696D656F7574202E2E2E69
S1134566000A757064617465206661696C65640A25
S1134576007570646174652072657175697265642D
S11345860A2E2E2E66656564206D652E2E2E004C31
S113459661746573740A47505320446174613A0028
S11345A64D6573736167653A200054696D653A20F9
S11345B6004E52573A20004C61743A20004C6F6EFC
S11345C63A2000446174653A20004D616756617271
S11345D63A20004D6F64653A2000436865636B7347
S11345E6756D3A20005554433A20005261770A47C4
S11345F6505320446174613A004D65737361676575
S11346060054696D65004E5257004C6174004E2F7C
S113461653004C6F6E00452F570053706565640058
S1134626436F757273650044617465004D61675626
S11346366172004D6F646500436865636B73756DE5
S113464600776970696E67200A6D656D6F72792EE1
S11346562E2E00206B6E6F776E0A73746174696F09
S11346666E730046696E64696E67204E6561726595
S113467673740A53746174696F6E2E2E2E00206B48
S11346866D2C2000412E426561723A2000522E4262
S11346966561723A2000667265713A20006C617435
S11346A63A20006C6F6E3A20006572703A200068FA
S11346B66161743A200043616C63756C6174696E60
S11346C6670A45617274682044697374616E636530
S11346D6730044656E766572202D3E204E59433A2A
S11346E60A00206B6D004E6F727468204B43202DB8
S11346F63E204B433A0A0057616974696E67204647
S11347066F720A475053204C6F636B2E2E2E004354
S11347164F5252555054494F4E0A444554454354FA
S113472645440074726163696E670A636F727275D9
S11347367074696F6E2E2E2E0073746174696F6EB9
S10B4746202300203A200000AA
S9030000FC
