:100000000C94CA000C94E9000C94E9000C94EB00E9
:100010000C94E9000C94E9000C94E9000C94E900BC
:100020000C94E9000C94E9000C94E9000C94E900AC
:100030000C94E9000C9442010C94E9000C94E90042
:100040000C94E9000C94E9000C94E9000C94E9008C
:100050000C941C020C94E9000C94E9000C94E90047
:100060000C94E9000C94E9000C94E9000C94E9006C
:100070000C94BF010C94E9000C94E9000C94E90085
:100080000C94E9000C94E9000C94E900084AD73B71
:100090003BCE016E84BCBFFDC12F3D6C74319ABD57
:1000A00056833DDA3D00C77F11BED9E4BB4C3E917B
:1000B0006BAAAABE000000803F05A84CCDB2D44E6A
:1000C000B93836A9020C50B9918688083CA6AAAA6C
:1000D0002ABE000000803F08000000BE92244912A2
:1000E0003EABAAAA2ABECDCCCC4C3E00000080BEBE
:1000F000ABAAAAAA3E00000000BF000000803F009B
:1001000000000000084178D3BB4387D1133D190E8E
:100110003CC3BD4282AD2B3E68EC8276BED98FE1F6
:10012000A93E4C80EFFFBE01C4FF7F3F00000000EE
:100130000007634236B79BD8A71A39685618AEBA7B
:10014000AB558C1D3CB7CC5763BD6DEDFD753EF6D0
:10015000177231BF000000803F494E46494E495456
:10016000594E414E000020410000C84200401C464C
:1001700020BCBE4CCA1B0E5AAEC59D74CDCCCC3D26
:100180000AD7233C17B7D13877CC2B329595E62484
:100190001FB14F0A11241FBECFEFD0E4DEBFCDBF89
:1001A00014E0A0E0B1E0E8EAFCE400E00BBF02C02C
:1001B00007900D92AA35B107D9F714E0AAE5B4E08B
:1001C00001C01D92A636B107E1F70E9429180C94D0
:1001D00052260C9400001F920F920FB60F9211241A
:1001E0000BB60F922F933F934F935F936F937F9331
:1001F0008F939F93AF93BF93EF93FF93E0915E0430
:10020000F0915F04DF01AF5FBE4F8D919C91892B10
:1002100031F180859185069711F180859185079749
:10022000F1F0808591850196918780878085918501
:10023000069714F011861086CF010E94740EE0918B
:100240005E04F0915F04EF5FFE4F11821082809197
:100250008400909185001092850010928400FF9197
:10026000EF91BF91AF919F918F917F916F915F912E
:100270004F913F912F910F900BBE0F900FBE0F909B
:100280001F9018951F920F920FB60F9211240BB664
:100290000F922F933F934F935F936F938F939F93FF
:1002A000EF93FF9380915E0490915F04FC01E75F00
:1002B000FE4F20813181232BE1F1FC01ED5FFE4FE8
:1002C0002081318137FD0CC065B14081518121E031
:1002D00030E0042E01C0220F0A94EAF7622765B9C4
:1002E000FC01EB5FFE4F8081918197FD0CC045B111
:1002F0002081318181E090E0022E01C0880F0A94B4
:10030000EAF7482745B9E0915E04F0915F04E95FA0
:10031000FE4F8081918197FD0CC045B120813181D4
:1003200081E090E0022E01C0880F0A94EAF7482786
:1003300045B98091840090918500109285001092BB
:100340008400E0915E04F0915F04EF5FFE4F8081D6
:100350009181892B21F481E090E091838083FF914A
:10036000EF919F918F916F915F914F913F912F915D
:100370000F900BBE0F900FBE0F901F9018951F92FD
:100380000F920FB60F9211240BB60F922F933F933B
:100390004F935F936F937F938F939F93AF93BF938D
:1003A000EF93FF9380915E0490915F04FC01EF5600
:1003B000FF4F2081DC01AE56BF4F2C93DC01A057CC
:1003C000BF4F2C9120832091CE002C93FC012085DF
:1003D00031852730310561F4E157FF4F30812C9191
:1003E000DC01A30FB11D1E962C9320812F5F20836B
:1003F0000E94EB0FE0915E04F0915F04892B21F0E5
:1004000087E090E091878087E157FF4F808187FDEB
:100410001082FF91EF91BF91AF919F918F917F914A
:100420006F915F914F913F912F910F900BBE0F9065
:100430000FBE0F901F9018951F920F920FB60F923C
:1004400011240BB60F922F933F934F935F936F93AB
:100450007F938F939F93AF93BF93EF93FF9380917D
:100460005E0490915F04FC01ED56FF4F20813181C5
:10047000203531057CF020E030E0DC01A20FB31F15
:10048000AB56BF4F1C922F5F3F4F20353105A9F768
:1004900011821082FC01ED56FF4F20813181409185
:1004A000C600280F391FD901AB56BF4F4C9320818E
:1004B00031812F5F3F4F318320830190F081E02D08
:1004C000E80FF91FEC56FF4F20812432C9F421E0D8
:1004D00030E0FC01E20FF31FEB56FF4F10822F5F5D
:1004E0003F4F20353105A9F7FC01EB56FF4F24E2C1
:1004F0002083FC01ED56FF4F21E030E03183208363
:10050000FC01ED56FF4F0190F081E02DE80FF91F3F
:10051000EC56FF4F20812D3081F40E94B205892BCB
:1005200061F00E94FC0EE0915E04F0915F04E150E6
:10053000FF4F81E090E091838083FF91EF91BF9125
:10054000AF919F918F917F916F915F914F913F916B
:100550002F910F900BBE0F900FBE0F901F9018950C
:10056000129A81EE94E00197F1F700C00000129812
:100570000895019711F4169A01C01698613071051B
:1005800011F4159A01C015984130510511F4149ACF
:1005900001C014982130310511F4139A01C0139849
:1005A0000E94B00289EF90E00197F1F700C00000CF
:1005B000089510925B0410925A0481E090E09093A9
:1005C00001018093000181B18FEF81B987E893E148
:1005D0000197F1F700C00000129810981198169832
:1005E0001598149A139A0E94B00281EE94E0019734
:1005F000F1F700C000000E94B00289EF90E001977F
:10060000F1F700C000000E94B00289EF90E001976E
:10061000F1F700C0000016981598149A13980E94DC
:10062000B00289EF90E00197F1F700C00000169842
:100630001598149A13980E94B00289EF90E00197E0
:10064000F1F700C00000169A1598149813980E94AC
:10065000B00289EF90E00197F1F700C00000169812
:100660001598149813980E94B00289EF90E00197B2
:10067000F1F700C00000169A159A149A13980E9478
:10068000B00289EF90E00197F1F700C000001698E2
:100690001598149813980E94B00289EF90E0019782
:1006A000F1F700C00000169815981498139A0E944C
:1006B000B00289EF90E00197F1F700C000001698B2
:1006C0001598149813980E94B00289EF90E0019752
:1006D000F1F700C000001698159A149A13980E941A
:1006E000B00289EF90E00197F1F700C00000169882
:1006F0001598149813980E94B00289EF90E0019722
:10070000F1F700C00000169A159A149A139A0E94E5
:10071000B00289EF90E00197F1F700C0000080E09F
:1007200090E008951F93CF93DF9321B1277821B9EB
:100730001098119A129A81EE94E00197F1F700C097
:10074000000012B122B1C2B1A2B1129889EF90E0BB
:100750000197F1F700C00000129A81EE94E0019732
:10076000F1F700C00000E2B162B142B152B12072B3
:1007700030E086E0220F331F8A95E1F7C071D0E0A8
:1007800095E0CC0FDD1F9A95E1F72C2B3D2B58708F
:10079000252BA870B0E054E0AA0FBB1F5A95E1F7D3
:1007A0002A2B3B2BE074F0E073E0EE0FFF1F7A95ED
:1007B000E1F72E2B3F2B607270E0660F771F660FFC
:1007C000771F262B372B129851B1586751B91098C3
:1007D0001198407150E0440F551F242B352B16FB08
:1007E000882780F990E09695982F88279795879588
:1007F000282B392BC901DF91CF911F9108950E94B9
:1008000092039C012F7733272F5F3F4FC901089533
:10081000892B11F4169801C0169A672B11F41598BC
:1008200001C0159A452B11F4149801C0149A232B7A
:1008300011F413980895139A0895CF93C82F109A1E
:10084000119884FB222720F985FB442740F986FB79
:10085000662760F930E050E070E0881F8827881F25
:1008600090E00E9408040E94B0022C2F2170C1FB6E
:10087000442740F9C2FB662760F930E050E070E0A1
:10088000C3FB882780F990E00E940804CF910C9464
:10089000B002CF93DF93EC0110981198282F229586
:1008A000217085FB442740F986FB662760F930E01C
:1008B00050E070E081E090E00E9408040E94B002E5
:1008C0009E01217033274C2F46954170C2FB66274D
:1008D00060F950E070E0C3FB882780F990E00E9447
:1008E0000804DF91CF910C94B002CF93C82F2091D0
:1008F0005A0430915B042F5F3F4F30935B04209389
:100900005A042131310531F08A3021F08C2FCF91FA
:100910000C941D042091000130910101213031051A
:1009200079F480E490E00E94490422E030E03093C2
:1009300001012093000110925B0410925A0405C03B
:100940002230310511F40E94D902CA30F9F6CF9154
:100950000895EF92FF920F931F93CF93DF937C0143
:100960000E94FF03CE2DDF2D8E0107C0F80181917B
:100970008F010E9475040E94FF03F701019000207F
:10098000E9F73197EE19FF0998012C1B3D0B2E1743
:100990003F0760F3DF91CF911F910F91FF90EF9090
:1009A00008950F931F93CF93DF93182F092FCB0137
:1009B0000E945320292FC82FD92F209751F40E942D
:1009C000D9028FE291E0DF91CF911F910F910C94AA
:1009D000A9040F931F9383EE91E09F938F932F931E
:1009E000CF930E943523CE010E94A9040F900F904F
:1009F0000F900F900F900F90CE01DF91CF911F912C
:100A00000F910C94EE20CF92DF92EF92FF920F9312
:100A10001F93CF93DF9300D000D0CDB7DEB78A010C
:100A2000AE014F5F5F4F0E94871E6B017C016981A1
:100A30007A818B819C810E949D1CDC01CB0164E04A
:100A400070E00E94D10485E592E00E94A904B801FB
:100A5000882777FD8095982F0E94D01C9B01AC01C0
:100A600060E070E080E291E40E941D1F262F372F86
:100A7000482F592FC701B6010E94BA1E0E94691F54
:100A80000E949D1C7B0177FF03C0F194E194F10863
:100A9000E114F104A1F0B701882777FD8095982F24
:100AA0000E94D01C0E943C1E0E940B1D20E030E0E2
:100AB00040E85FE30E94681B0E949D1C02C060E04A
:100AC00070E0C12CD12C061B170B07C086EE91E0FD
:100AD0000E94A9048FEFC81AD80AC016D106B4F331
:100AE00064E070E0C7010F900F900F900F90DF91BE
:100AF000CF911F910F91FF90EF90DF90CF900C94CA
:100B0000D104CF92DF92EF92FF920F931F93CF9376
:100B1000DF93D82EC92E7B010E94FF03CD2DDC2D43
:100B200000E010E013C0AD2DBC2DFD0101900020B0
:100B3000E9F73197EA1BFB0B0E171F0750F4899159
:100B40000E9475040E94FF030F5F1F4F0E151F05C3
:100B500054F3DF91CF911F910F91FF90EF90DF90B1
:100B6000CF900895CF93DF9300D000D000D0CDB7C1
:100B7000DEB726E0E8E0F1E0DE01119601900D928B
:100B80002A95E1F7FE01319620E030E0DC01A20F6A
:100B9000B31FAB56BF4F5C914191541308C02F5FF8
:100BA0003F4F2630310591F721E030E002C020E0D0
:100BB00030E0C90126960FB6F894DEBF0FBECDBF58
:100BC000DF91CF910895CF93DF93009721F0909319
:100BD0005D0480935C04C0915C04D0915D04209717
:100BE00071F0CE010E942723009739F0FC01119289
:100BF000F0935D04E0935C0402C0C0E0D0E0CE015D
:100C0000DF91CF9108958F929F92AF92BF92CF9232
:100C1000DF92EF92FF920F931F93CF93DF9300D059
:100C200000D000D0CDB7DEB76C01CB015A0120E077
:100C300030E0D501ED91FC91E20FF31F10822F5FA0
:100C40003F4F20313105A9F768EE71E00E94E305BE
:100C50004C0186E0E8E0F1E0DE01119601900D9292
:100C60008A95E1F7F5018081918146E050E0BE016F
:100C70006F5F7F4F0E94182300E010E021C00F5FDC
:100C80001F4F7801EE0CFF1CEA0CFB1C20E030E04B
:100C9000D701ED91FC91E20FF31F10822F5F3F4FC0
:100CA00020313105A9F768EE71E080E090E00E9404
:100CB000E3054C01F70180819181B4010E94112369
:100CC000892819F00C301105D1F620E030E0F6014A
:100CD000E20FF31FEB56FF4F10822F5F3F4F20357F
:100CE0003105A9F7F601ED56FF4F1182108280E021
:100CF00090E026960FB6F894DEBF0FBECDBFDF9111
:100D0000CF911F910F91FF90EF90DF90CF90BF9008
:100D1000AF909F908F9008959C01FC0101C01192AB
:100D2000CF01821B930B86179707CCF30895BF92D0
:100D3000CF92DF92EF92FF920F931F93CF93DF93A7
:100D4000CDB7DEB727970FB6F894DEBF0FBECDBF85
:100D50007C01162FFC0180816181772767FD7095EA
:100D6000FAE08F02600D711D1124605172408827D6
:100D700077FD8095982F0E94D01CB62EC72ED82EB6
:100D8000092FB7016E5F7F4F47E050E0CE0101961B
:100D90000E94182360E070E0CE0101960E948C2131
:100DA00020E030E040E752E40E94351C9B01AC019A
:100DB0006B2D7C2D8D2D902F0E94681B472F382F77
:100DC000292F862F942FA32FB22F133509F4B05853
:100DD000682F792F8A2F9B2F27960FB6F894DEBFA6
:100DE0000FBECDBFDF91CF911F910F91FF90EF907C
:100DF000DF90CF90BF900895BF92CF92DF92EF9295
:100E0000FF920F931F93CF93DF93CDB7DEB7279752
:100E10000FB6F894DEBF0FBECDBF7C01162FFC01CC
:100E200060818181F4E66F02B00111249AE08902A9
:100E3000600D711D1124F7018281680F711D87FDFE
:100E40007A95605D7441882777FD8095982F0E9480
:100E5000D01CB62EC72ED82E092FB7016D5F7F4F3D
:100E600047E050E0CE0101960E94182360E070E058
:100E7000CE0101960E948C2120E030E040E752E450
:100E80000E94351C9B01AC016B2D7C2D8D2D902F6C
:100E90000E94681B472F382F292F862F942FA32FAE
:100EA000B22F173509F4B058682F792F8A2F9B2F4E
:100EB00027960FB6F894DEBF0FBECDBFDF91CF915E
:100EC0001F910F91FF90EF90DF90CF90BF9008950A
:100ED000AF92BF92CF92DF92EF92FF920F931F9348
:100EE000CF93DF93CDB7DEB7A0970FB6F894DEBFF0
:100EF0000FBECDBF5C018B0180E2EFE0F1E0DE01CF
:100F0000119601900D928A95E1F768E070E0C801B2
:100F10000E948C06D5016D917C91C8010E9411231D
:100F200068E070E0C80108960E948C06D501129610
:100F3000ED91FC9113978081F80180871296ED91D5
:100F4000FC9113978181D80119968C9319978AE3A4
:100F50001A968C93D5011296ED91FC91139792817C
:100F6000F80193871296ED91FC9113979381D80124
:100F70001C969C931C971D968C93D5011296ED910F
:100F8000FC9113978481F80186871296ED91FC916C
:100F900013978581D8011F968C93D5011496ED91F6
:100FA000FC9115978081F801808B118A128A138A2F
:100FB000148AD5011896ED91FC91199716968D918A
:100FC0009C91179760810E9497066B017C0120E03D
:100FD00030E044EB52EC0E94311E87FD0FC020E050
:100FE00030E044EB52E4C701B6010E942E1C1816F3
:100FF0002CF0F801C18AD28AE38AF48AD801559686
:101000001D921D921D921C925897D5011C96ED9130
:10101000FC911D971A968D919C911B9760810E945F
:10102000FC066B017C0120E030E044E353EC0E94BD
:10103000311E87FD0FC020E030E044E353E4C701D8
:10104000B6010E942E1C18162CF0F801C58AD68A0B
:10105000E78AF08ED80159961D921D921D921C921E
:101060005C97F5018685978560E070E00E948C2191
:10107000D80159966D937D938D939C935C97F8015D
:10108000158E168E178E10A2D50150968D919C91BB
:10109000519760E070E00E948C21F801658F768F97
:1010A000878F90A368E070E0C80181960E948C064B
:1010B000D5015296ED91FC9153978281F80181A35D
:1010C0005296ED91FC9153978381D80192968C931F
:1010D00092978FE293968C93D5015296ED91FC9165
:1010E00053979081F80194A35296ED91FC915397F8
:1010F0009181D80195969C93959796968C93D5015E
:101100005296ED91FC9153978481F80187A35296F2
:10111000ED91FC9153978581D80198968C93780135
:10112000B9E2EB0EF11C68E070E0C7010E948C068A
:10113000F50164897589C7010E941123D50158966C
:10114000ED91FC9159978081F80181AB63E070E0EB
:10115000C801C2960E948C06D5015896ED91FC916B
:1011600059978181F80182AB5896ED91FC9159977E
:101170008281D801D3968C93D5015896ED91FC913C
:1011800059978381F80184AB20E030E044EB53E4CD
:10119000658D768D878D90A10E94351C20E030E012
:1011A00040E851E40E94BA1E6B017C0120E030E06F
:1011B00040E05FE37D2D9F2D0E942E1C181664F4E5
:1011C00020E030E048E751E46C2D7D2D8E2D9F2DE1
:1011D0000E94311E87FD03C069817A8113C020E01F
:1011E00030E040E05FE36C2D7D2D8E2D9F2D0E9421
:1011F000681B0E949D1CFB01EE0FFF1FEC0FFD1FE3
:101200006181728143E050E0C8018A5A9F4FA096E5
:101210000FB6F894DEBF0FBECDBFDF91CF911F9107
:101220000F91FF90EF90DF90CF90BF90AF900C9414
:1012300018232F923F924F925F926F927F928F92DC
:101240009F92AF92BF92CF92DF92EF92FF920F9355
:101250001F93CF93DF93CDB7DEB7EE970FB6F89419
:10126000DEBF0FBECDBF3C012B0180E2EFE0F1E01D
:101270008E010F5F1F4FD80101900D928A95E1F703
:101280002BED3FE049E450E4F301618972898389E1
:1012900094890E94BA1E20E030E044E353E40E94A7
:1012A000351C69A77AA78BA79CA72BED3FE049E4E3
:1012B00050E4F301658976898789908D0E94BA1E72
:1012C00020E030E044E353E40E94351C6FAB78AF7C
:1012D00089AF9AAF7AA269A25CA24BA2212C312CD1
:1012E000F20182819381281639060CF076C1EBA1B8
:1012F000FCA126813781FCE1F29FC001F39F900D94
:101300001124F20100811181080F191F2BED3FE01C
:1013100049E450E4F80164857585868597850E94C7
:10132000BA1E20E030E044E353E40E94351C4B0138
:101330005C012BED3FE049E450E4F80160897189DC
:10134000828993890E94BA1E20E030E044E353E48E
:101350000E94351CBFA9A8ADF9ADEAAD2B2F3A2FDD
:101360004F2F5E2F0E94671B162F072F8DA79EA75A
:10137000A801652F742F0E94891F6FA778AB89ABD6
:101380009AAB682D792D8A2D9B2D0E94321C6DA35E
:101390007EA38FA398A759A54AA53BA52CA5652F89
:1013A000742F832F922F0E94321C6B017C01682DB9
:1013B000792D8A2D9B2D0E94891F9B01AC01B9A517
:1013C000AAA5FBA5ECA56B2F7A2F8F2F9E2F2BAFF5
:1013D0003CAF4DAF5EAF0E94891F6BAB7CAB8DAB5A
:1013E0009EABADA5FEA5612F702F8A2F9F2F0E9467
:1013F000321C4B015C012BAD3CAD4DAD5EADC70168
:10140000B6010E94BA1E6B017C012DA13EA14FA125
:1014100058A56BA97CA98DA99EA90E94BA1EA501F9
:1014200094010E94BA1E9B01AC01C701B6010E9443
:10143000671B6B017C012DA13EA14FA158A56FA593
:1014400078A989A99AA90E94BA1EA70196010E94AB
:10145000DB1B20E030E044E353E40E94BA1E2BED96
:101460003FE049E450E40E94351C6B017C0120E020
:1014700030E0A9017D2D9F2D0E942E1C87FF0CC0FE
:1014800020E030E044EB53E46C2D7D2D8E2D9F2D1C
:101490000E94681B6B017C018C2D9D2DAE2DBF2DF4
:1014A000E9A1FAA185AB96ABA7ABB0AFF301258D4F
:1014B000368D478D50A16C2D7D2D8E2D9F2D0E9438
:1014C000671B4B015C0120E030E0A901792D9B2DC9
:1014D0000E942E1C09A11AA10F5B1F4F87FD0AC095
:1014E000882D992DAA2DBB2DF80180839183A2838D
:1014F000B3830FC020E030E044EB53E4682D792D36
:101500008A2D9B2D0E94681BF80160837183828362
:10151000938320E030E044EB53E46C2D7D2D8E2D41
:101520009F2D0E94351C20E030E040E851E40E94ED
:10153000BA1E7B018C0120E030E040E05FE37F2DAC
:10154000912F0E942E1C181664F420E030E048E72A
:1015500051E46E2D7F2D802F912F0E94311E87FD2B
:1015600003C069817A8117C020E030E040E05FE38A
:101570006E2D7F2D802F912F0E94681B0E949D1C35
:10158000FB01EE0FFF1F81E090E08C0F9D1FE80F25
:10159000F91F60817181C101880F991F820D931D10
:1015A000835B9F4F43E050E0860D971D0E941823F8
:1015B0009FEF291A390AE9A1FAA13496FAA3E9A3FF
:1015C0008BA19CA104969CA38BA393E029163104C4
:1015D00009F086CE21E030E002C020E030E0C90111
:1015E000EE960FB6F894DEBF0FBECDBFDF91CF9160
:1015F0001F910F91FF90EF90DF90CF90BF90AF9031
:101600009F908F907F906F905F904F903F902F9022
:1016100008954F925F926F927F928F929F92AF92B6
:10162000BF92CF92DF92EF92FF920F931F93CF93CF
:10163000DF93CDB7DEB760970FB6F894DEBF0FBE6D
:10164000CDBF2B013C0129873A874B875C87E98214
:10165000FA820B831C839B01AC01C801B7010E9475
:10166000671B2BED3FE049E450E40E94BA1E20E0E6
:1016700030E044E353E40E94351C20E030E040E0D9
:101680005FE30E94BA1E0E94891F6D837E838F8351
:1016900098872BED3FE049E450E4C301B2010E947A
:1016A000BA1E20E030E044E353E40E94351C0E945F
:1016B000321C2B013C012BED3FE049E450E4C80112
:1016C000B7010E94BA1E20E030E044E353E40E94D8
:1016D000351C0E94321C69837A838B839C83298505
:1016E0003A854B855C85C601B5010E94671B2BEDD1
:1016F0003FE049E450E40E94BA1E20E030E044E3B9
:1017000053E40E94351C20E030E040E05FE30E949B
:10171000BA1E0E94891F4B015C012D813E814F81C1
:101720005885CA01B9010E94BA1E6B017C0129814A
:101730003A814B815C81C301B2010E94BA1EA501AE
:1017400094010E94BA1EA50194010E94BA1E9B0139
:10175000AC01C701B6010E94681B6B017C01762FAA
:10176000272F3D2D4E2D5F2D60E070E080E89FE338
:101770000E94671B0E94931F9B01AC016C2D7D2D65
:101780008E2D9F2D2D873E874F87588B0E94931F4C
:101790002D853E854F8558890E94DB1B9B01AC013E
:1017A0000E94681B20E038E147EC55E40E94BA1E15
:1017B00060960FB6F894DEBF0FBECDBFDF91CF911C
:1017C0001F910F91FF90EF90DF90CF90BF90AF905F
:1017D0009F908F907F906F905F904F900895AF9201
:1017E000BF92CF92DF92EF92FF920F931F93ECE1A3
:1017F000E49F9001E59F300D1124620F731FFB01E0
:10180000A088B188C288D388E484F58406851785CA
:10181000FC01258936894789508D618972898389C0
:1018200094890E94090B1F910F91FF90EF90DF9018
:10183000CF90BF90AF9008952F923F924F925F92BA
:101840006F927F928F929F92AF92BF92CF92DF92D0
:10185000EF92FF920F931F93CF93DF93CDB7DEB735
:1018600028970FB6F894DEBF0FBECDBF98878F8341
:101870002A013B010B831C832D833E838FEF9FEF57
:10188000AF81B88517969C938E93169719969C9363
:101890008E9318971B969C938E931A971D969C93E4
:1018A0008E931C971F969C938E931E9751969C9394
:1018B0008E9350971296ED91FC911397FA83E983DA
:1018C000212C312C812C912CAAC0ED91FC91E20DA0
:1018D000F31DA088B188C288D388E484F584068586
:1018E00017852B813C814D815E81C301B2010E942D
:1018F000090B6B017C01EF81F885A084B184B501EF
:10190000882777FD8095982F0E94D01C9B01AC0101
:10191000C701B6010E942E1CAF81B8851C960D919F
:101920001C911D9787FD06C016968D919C91179767
:101930000196E9F4EF81F885118B008B8285938500
:1019400097878687B586A4868681978193878287C5
:10195000C701B6010E949D1CAF81B88519967C9382
:101960006E93189717969C928E92169752C0B80154
:10197000882777FD8095982F0E94D01C9B01AC0191
:10198000C701B6010E942E1CEF81F88522853385A0
:10199000AF81B88587FD04C02F3FFFEF3F0799F463
:1019A00051961C930E9350971F963C932E931E971F
:1019B000C701B6010E949D1CEF81F8857587648779
:1019C0009386828626C050966D917C915197882788
:1019D00077FD8095982F0E94D01C9B01AC01C70118
:1019E000B6010E942E1C87FD06C0EF81F885868512
:1019F0009785019671F4C701B6010E949D1CAF81C5
:101A0000B88551967C936E9350971F969C928E92B8
:101A10001E97BFEF8B1A9B0AECE12E0E311C8981B9
:101A20009A81AF81B885881699060CF44ECF169628
:101A30008C91169717969C9128960FB6F894DEBF56
:101A40000FBECDBFDF91CF911F910F91FF90EF900F
:101A5000DF90CF90BF90AF909F908F907F906F90CE
:101A60005F904F903F902F9008952BED3FE049E419
:101A700050E40E94BA1E20E030E044E353E40E94A8
:101A8000351C089520E030E044E353E40E94BA1E80
:101A90002BED3FE049E450E40E94351C0895CF92BD
:101AA000DF92EF92FF92CF93DF93EC01FC0180E095
:101AB00090E02191222309F445C0019684309105DC
:101AC000C1F780E090E0FE01E80FF91F2085222396
:101AD000C9F1019684309105B1F720E030E0A90109
:101AE00069897A898B899C890E942E1C882351F1EF
:101AF00020E030E0A9016D897E898F89988D0E9450
:101B00002E1C8823F9F08AA98A32E1F4CD8CDE8C70
:101B1000EF8CF8A020E030E0A901C701B6010E94D7
:101B20002E1C87FD0FC0C1E020E030E044EB53E401
:101B3000C701B6010E94311E87FDC0E021E02C27BD
:101B400030E002C020E030E0C901DF91CF91FF908A
:101B5000EF90DF90CF9008950E947C2590E008954B
:101B60000C947C250C9484250C946C25CF92DF92E8
:101B7000EF92FF920F931F93CF93DF93EC0180E0DE
:101B800090E00E947C2590E08F3F910519F09B83A7
:101B90008A8302C01B821A828FEF9FEF9D838C8302
:101BA0009F838E83998788879B878A879D878C8769
:101BB0009F878E87998B888B2FE946E851E02150CB
:101BC00040405040E1F700C000000E94D9028AE284
:101BD00092E00E94A90463E070E08A819B810E94E8
:101BE000D10485E392E00E94A9048A819B812CE1C3
:101BF000FC012E9FC0012F9F900D11240E945320A5
:101C000099838883009709F04BC00E94D9028FE224
:101C100091E00E94A90420E030E04EC0B8016F5F5F
:101C20007F4F8881998148E050E0800F911F0E948A
:101C30006C25E880F980E00EF11EC80109960E942B
:101C40008425F7016087718782879387C8010D9685
:101C50000E948425F7016487758786879787C80166
:101C600041960E948425F701608B718B828B938B48
:101C7000C80145960E948425F701648B758B868B7D
:101C8000978BC80149960E948425F701608F718F58
:101C9000828F938FFFEFCF1ADF0A045E1F4F04C0BD
:101CA00000E010E0C12CD12C8A819B81C816D90696
:101CB0000CF4B4CF21E030E0C901DF91CF911F9146
:101CC0000F91FF90EF90DF90CF900895CF93DF9327
:101CD000EC01888199810E94EE201982188281E0AE
:101CE00090E0DF91CF910895FC018085918582304D
:101CF0009105A9F02CF4009751F0019719F50BC04C
:101D000084309105A9F07CF00597E1F416C0289A7B
:101D100085B1857F19C0299A85B1867F15C02B9A18
:101D200085B18C7F11C085B1836085B92B980895EA
:101D300085B18A6085B92898089585B1896085B98B
:101D40002998089585B18B6085B908951092CD00CA
:101D50008CE08093CC001092C5008093C400E9EC25
:101D6000F0E08081886D8083E1ECF0E08081886D17
:101D70008083E8ECF0E0808182608083E0ECF0E03A
:101D8000808182608083EAECF0E080818E608083D5
:101D9000E2ECF0E08081866080830895E9E6F0E07F
:101DA00080818062808380818F7E8083EA9A2298FE
:101DB0002A9A84B18B6084B9289AE0E8F0E08081A7
:101DC0008F738083E1E8F0E080818560808380818B
:101DD0008D7F8083E9E8F0E080811082E8E8F0E020
:101DE00080818FEF808380818A778083EFE6F0E0C7
:101DF0008081826080830895E1ECF0E080818772C9
:101E000080830895E1ECF0E08081886D80830895FF
:101E10000F931F93CF93DF93EC018FEF84B9F89466
:101E20000E94A60E0E94CE0E0E94020F7894FE0120
:101E3000E75FFE4F01E010E011830083FE01ED5FDC
:101E4000FE4F11821082FE01EB5FFE4F8EEF9FEF7F
:101E500091838083FE01E95FFE4F918380830E941E
:101E6000D9022FE38DE093E0215080409040E1F7CC
:101E700000C00000188219821A821B821D821C82F7
:101E80001F821E82198618861B861A8684E28C871A
:101E90008EE58D87FE01E257FF4F1082FE01E1576C
:101EA000FF4F1082FE01E150FF4F11821082FE01B0
:101EB000EF5FFE4F11830083FE01E057FF4F8BE47D
:101EC0008083FE01EF56FF4F8083FE01EE56FF4FE9
:101ED0008083FE01ED56FF4F1182108280E090E07A
:101EE000FE01E80FF91F1686019680389105C1F7AB
:101EF00080E090E0FE01E80FF91FEB56FF4F1082E3
:101F0000019680359105B1F700E010E080E190E0A6
:101F10000E9453209C01F801EE0FFF1FEC0FFD1FE4
:101F2000EB51FF4F3183208380819181892B49F4CC
:101F30000E94D9028FE291E00E94A90420E030E0E3
:101F400014C080E090E0DF01ED91FC911197E80F63
:101F5000F91F1082019680319105B1F70F5F1F4F75
:101F60000D30110599F621E030E0C901DF91CF91E4
:101F70001F910F910895EF92FF920F931F93CF93AC
:101F8000DF937B01EC01C150DF4F28813981232B86
:101F9000D9F0FC01ED56FF4F0190F081E02DE80FE4
:101FA000F91FEC56FF4F2CE220838C010B511F4F81
:101FB000BC016B567F4FA8010E940306B701C80100
:101FC0000E94680719821882DF91CF911F910F91AB
:101FD000FF90EF900895FC01DC01A057BF4F9C914A
:101FE0008485981310C0DF01AF56BF4F9C91848544
:101FF000981309C0DF01AE56BF4F9C91848521E044
:1020000030E0981711F020E030E0C9010895FC019C
:10201000DC01A057BF4F9C918585981310C0DF014C
:10202000AF56BF4F9C918585981309C0DF01AE560E
:10203000BF4F9C91858521E030E0981711F020E09A
:1020400030E0C9010895FC01E257FF4F2081DC0117
:10205000A20FB11D1E968C9190819F5F90839081FD
:1020600097FD10820895FC01E257FF4F3081DC019B
:10207000A157BF4F2C91321731F02081FC01E20FA4
:10208000F11D8685089580E008950F931F93CF93E7
:10209000DF93FC018B01EA011186108613861286FC
:1020A000158214821082118212821382DC01A75FD2
:1020B000BE4F11961C921E920E94740E0E94D9026D
:1020C000209719F482E492E002C087E592E00E9432
:1020D000A904C8010E94B60D2FE38DE093E02150C2
:1020E00080409040E1F700C00000219721F48AE68B
:1020F00092E00E94A9042FE986E891E021508040F7
:102100009040E1F700C0000081E090E0DF91CF91C6
:102110001F910F9108950F931F93CF93DF938C011D
:102120000E94D9028AE792E00E94A904C0E0D0E0B0
:10213000F80120853185828593852817390749F470
:102140006FEFCE010E948A252196C13FFAE0DF079A
:1021500079F7DF91CF911F910F910895CF93DF937E
:10216000EC010E94D9028CE892E00E94A904288523
:1021700039858A859B8528173907C9F3DF91CF9167
:102180000895DF92EF92FF920F931F93CF93DF9307
:102190008C017B01C0E0D0E09CE1D92E17C0F80192
:1021A000208531858285938528173907D1F42196BA
:1021B000CE010E94B00D811101C08FE30E94750411
:1021C00087EA91E60197F1F700C00000F70122814C
:1021D0003381D29EC001D39E900D1124C817D90718
:1021E000F4F2DF91CF911F910F91FF90EF90DF906C
:1021F0000895CF92DF92EF92FF920F931F93CF93A8
:10220000DF9300D0CDB7DEB77C0189012F3F8FEF80
:10221000380759F4FB01828193812CE1289F8001CA
:10222000299F100D11240F5F1F4F49835A830E946D
:10223000D9024981C42E5A81D52E19C0F7012085B3
:1022400031858285938528173907A1F4C6010E943C
:10225000B00D811101C08FE30E94750487EA91E6F9
:102260000197F1F700C000009FEFC91AD90AC01604
:10227000D10624F30F900F90DF91CF911F910F9112
:10228000FF90EF90DF90CF900895EF92FF920F9321
:102290001F93CF93DF938C018CE1869F7001879F02
:1022A000F00C1124C0E0D0E0D801ED91FC91EE0DCE
:1022B000FF1DEC0FFD1F80810E9475042196C83020
:1022C000D10591F7DF91CF911F910F91FF90EF9082
:1022D0000895CF92DF92EF92FF920F931F93CF93C7
:1022E000DF93EC017B01288539858A859B8528173A
:1022F000390709F04DC00E94D90263E070E0F70190
:10230000828193810E94D1048AEA92E00E94A9040A
:10231000FFE72AE186E0F15020408040E1F700C06D
:1023200000000E94D9028AE00E94750400E010E0DB
:1023300029C0288539858A859B852817390741F565
:102340008AE00E94750468019FEFC91AD90A63E008
:1023500070E0C6010E94D10487E594E00E94A904C0
:10236000B801C7010E944511288539858A859B855A
:102370002817390769F4E3E2F4EF3197F1F700C069
:1023800000008601F70182819381081719078CF2FA
:10239000DF91CF911F910F91FF90EF90DF90CF9041
:1023A00008955F926F927F928F929F92AF92BF92A9
:1023B000CF92DF92EF92FF920F931F93CF93DF9311
:1023C0005C01EB017A010E94D9028AEB92E00E9443
:1023D000A9042FE38DE093E0215080409040E1F785
:1023E00000C00000F701058916892789308D4189D1
:1023F000528963897489CE010E941C0C9D838C8351
:10240000BE01C7010E94190987016E014701612CB5
:10241000712C2CE1522E8A819B81681679060CF072
:10242000A1C0F5012085318582859385281739075C
:1024300009F098C00E94D902F60166817781CE0129
:102440000E9445118CEF91E00E94A904F6012681BB
:102450003781529EC001539E900D1124E881F9816D
:10246000E80FF91F608571858285938541E050E012
:102470000E9403058CE691E00E94A904F6014681C2
:10248000578168817981C7010E94EF0B42E050E0DB
:102490000E94030584ED92E00E94A904F801E35B29
:1024A000FF4F80810E947504F801E25BFF4F80813D
:1024B0000E947504F801E15BFF4F80810E94750462
:1024C000FFE72AE186E0F15020408040E1F700C0BC
:1024D0000000F5012085318582859385281739070D
:1024E00009F040C00E94D9028AED92E00E94A9043E
:1024F000F40165A976A987A990AD41E050E00E945A
:1025000003058FED0E9475048AE00E94750483EE36
:1025100092E00E94A904F401EF5BFF4F608171819A
:102520008281938141E050E00E9403058FED0E947B
:102530007504FFE72AE186E0F15020408040E1F792
:1025400000C000009FEF691A790AE4E08E0E911C2A
:10255000F4E0CF0ED11C0D5F1F4F23E06216710413
:1025600009F059CFDF91CF911F910F91FF90EF901C
:10257000DF90CF90BF90AF909F908F907F906F90A3
:102580005F900895CF92DF92EF92FF920F931F9387
:10259000CF93DF936C017B01EA01DC0118962D914A
:1025A0003C9119971A968D919C911B972817390782
:1025B00009F0C4C00E94D9028CEE92E00E94A904E6
:1025C000BFE9E6E8F1E0B150E040F040E1F700C0DB
:1025D00000000E94D9020D891E892F89388D4989F2
:1025E0005A896B897C89C7010E941C0CD7011596FA
:1025F0009C938E931497B701CE010E941909F7019D
:1026000064817581C7010E9445118CEF91E00E94A1
:10261000A904D70114962D913C9115974CE1429F46
:10262000C001439F900D1124ED91FC91E80FF91F1B
:10263000608571858285938541E050E00E940305A5
:102640008CE691E00E94A904F701448155816081E4
:102650007181CE010E94EF0B42E050E00E94030521
:1026600084ED92E00E94A904FE01E35BFF4F8081AC
:102670000E947504FE01E25BFF4F80810E94750499
:10268000FE01E15BFF4F80810E947504D601189620
:102690002D913C9119971A968D919C911B97281713
:1026A000390709F04BC0BFEBE7E2F9E0B150E04079
:1026B000F040E1F700C00000D60118962D913C9142
:1026C00019971A968D919C911B9728173907B1F588
:1026D0000E94D9028AED92E00E94A9046DA97EA908
:1026E0008FA998AD41E050E00E9403058FED0E9454
:1026F00075048AE00E94750483EE92E00E94A904AA
:10270000CF5BDF4F688179818A819B8141E050E016
:102710000E9403058FED0E947504F6012085318526
:10272000828593852817390749F4FFEB27E289E072
:10273000F15020408040E1F700C00000DF91CF91D0
:102740001F910F91FF90EF90DF90CF900895CF925F
:10275000DF92EF92FF920F931F93CF93DF93EC01E1
:102760008B016A0163E070E0CA0101960E94D10406
:1027700087E594E00E94A904B601C8010E944511B2
:1027800083E294EF0197F1F700C000008CE691E03E
:102790000E94A90488859985079709F4A1C087E05C
:1027A00093E00E94A9048CE18C9D70018D9DF00C3A
:1027B0001124D801ED91FC91EE0DFF1D608571850E
:1027C0008285938541E050E00E94030583E294EF07
:1027D0000197F1F700C000008CE691E00E94A90487
:1027E00088859985079709F47BC08EE093E00E9465
:1027F000A904D801ED91FC91EE0DFF1D648575854E
:102800008685978544E050E00E94030583E294EFBB
:102810000197F1F700C000008CE691E00E94A90446
:1028200088859985079709F45BC084E193E00E944D
:10283000A904D801ED91FC91EE0DFF1D608971890D
:102840008289938944E050E00E94030583E294EF7B
:102850000197F1F700C000008CE691E00E94A90406
:10286000888599850797E1F18AE193E00E94A904A0
:10287000D801ED91FC91EE0DFF1D64897589868963
:10288000978941E050E00E94030583E294EF0197AD
:10289000F1F700C000008CE691E00E94A904888551
:1028A00099850797E9F080E293E00E94A904D80196
:1028B000ED91FC91EE0DFF1D608D718D828D938DDC
:1028C00040E050E00E94030583E294EF0197F1F7A6
:1028D00000C000008CE691E00E94A90488859985DB
:1028E000DF91CF911F910F91FF90EF90DF90CF90EC
:1028F0000895EF92FF920F931F93CF93DF93EC0114
:102900007B01288539858A859B8528173907E1F55C
:102910000E94D90263E070E0F701828193810E94F6
:10292000D1048AEA92E00E94A904FFE72AE186E046
:10293000F15020408040E1F700C0000000E010E0CE
:102940001DC0288539858A859B8528173907E1F4BC
:102950000E94D902A801B701CE010E94A7132885C1
:1029600039858A859B852817390771F4EFE4F3ECE4
:102970003197F1F700C000000F5F1F4FF701828110
:10298000938108171907ECF2DF91CF911F910F91F6
:10299000FF90EF9008956F927F928F929F92AF92E7
:1029A000BF92CF92DF92EF92FF920F931F93CF933C
:1029B000DF937C018B01FC01208531858285938525
:1029C0002817390709F0D3C00E94D90287E293E0A3
:1029D0000E94A904FFE32DE083E0F15020408040F5
:1029E000E1F700C000000E94D902C0E0D0E0380149
:1029F00098E0690E711C6801E9E2CE0ED11C580105
:102A0000F1E2AF0EB11C480122E3820E911C209727
:102A100031F18CE691E00E94A904C630D10509F499
:102A200060C07CF4C330D10589F124F4C230D105F3
:102A3000F1F425C0C430D10599F1C530D105B9F400
:102A40003EC0C830D10509F462C00CF458C0C9308A
:102A5000D10509F464C0CA30D10549F469C088E3DE
:102A600093E00E94A90468E070E0C80168C082E4B5
:102A700093E00E94A90468E070E0C30160C089E4AB
:102A800093E00E94A904F80180894FC08FE493E08D
:102A90000E94A904F801618972898389948909C017
:102AA00085E593E00E94A904F80165897689878904
:102AB000908D44E050E00E9403058FED36C082EB1C
:102AC00091E00E94A904F801618D728D838D948D2F
:102AD00041E050E00E9403058BE593E00E94A904C9
:102AE00030C080E693E00E94A904F801658D768DE0
:102AF000878D90A141E050E00E94030522C089E645
:102B000093E00E94A90468E070E0C50118C080E766
:102B100093E00E94A90468E070E0C60110C089E754
:102B200093E00E94A904F80181A90E94750409C0DC
:102B300080E893E00E94A90463E070E0C4010E9471
:102B40008105FFE926E881E0F15020408040E1F76F
:102B500000C00000F7012085318582859385281704
:102B6000390729F42196CB30D10509F050CFDF91F8
:102B7000CF911F910F91FF90EF90DF90CF90BF907A
:102B8000AF909F908F907F906F9008950F931F93B9
:102B9000CF93DF938C01EB01FC0120853185828589
:102BA00093852817390709F0A0C00E94D90289E649
:102BB00093E00E94A90468E070E0CE0181960E9433
:102BC00081058AE00E94750489E591E00E94A904CC
:102BD00068E070E0CE0108960E948105FFE72AE1D7
:102BE00086E0F15020408040E1F700C00000F8018D
:102BF00020853185828593852817390709F075C0AE
:102C00000E94D9028FE493E00E94A90469897A891D
:102C10008B899C8944E050E00E9403058FED0E945F
:102C200075048AE00E94750485E593E00E94A9047A
:102C30006D897E898F89988D44E050E00E9403055C
:102C40008FED0E947504FFE72AE186E0F1502040F5
:102C50008040E1F700C00000F801208531858285C1
:102C600093852817390709F040C00E94D9028BEAE2
:102C700091E00E94A9046D8D7E8D8F8D98A141E019
:102C800050E00E9403058FED0E9475048CEF91E0E7
:102C90000E94A904FE01EA5AFF4F80810E94750438
:102CA000FE01E95AFF4F80810E947504FE01E85A37
:102CB000FF4F80810E94750481EB91E00E94A9047E
:102CC000698D7A8D8B8D9C8D41E050E00E940305CB
:102CD0008BE593E00E94A904FFE72AE186E0F1502A
:102CE00020408040E1F700C00000DF91CF911F91AC
:102CF0000F9108950F931F93CF93DF938C01FC01E5
:102D000020853185828593852817390709F08FC082
:102D10000E94D9028BE893E00E94A904FFE32DE012
:102D200083E0F15020408040E1F700C000000E94A5
:102D3000D902C0E0D0E0209761F18CE691E00E94DA
:102D4000A904C730D105D1F194F4C430D10569F19B
:102D50003CF4C230D10519F1C330D105E9F422C0E9
:102D6000C530D10529F1C630D105B1F424C0CA302F
:102D7000D10569F13CF4C830D10519F1C930D1054C
:102D800059F422C0CB30D10529F1CC30D10521F442
:102D900024C089E993E023C081EA93E020C086EA59
:102DA00093E01DC08AEA93E01AC08EEA93E017C050
:102DB00082EB93E014C086EB93E011C08AEB93E0C2
:102DC0000EC080EC93E00BC087EC93E008C08CEC65
:102DD00093E005C083ED93E002C088ED93E00E948C
:102DE000A90487E594E00E94A904CE01880F991FE9
:102DF000800F911FFC01EB51FF4F808191810E9458
:102E0000A9049FE9E6E8F1E09150E040F040E1F7E5
:102E100000C00000F8012085318582859385281740
:102E2000390729F42196CD30D10509F084CFDF91FF
:102E3000CF911F910F910895AF92BF92CF92DF92E1
:102E4000EF92FF920F931F930E94D90281EE93E0BD
:102E50000E94A9042FE78AE196E02150804090402B
:102E6000E1F700C000000E94D9028DEF93E00E94BC
:102E7000A904A12CB12C40EDC42E42ECD42EE12C9F
:102E8000F12C0CE112E420E030E044E952EC60E087
:102E900070E080E292E40E94090B41E050E00E9461
:102EA00003058DE094E00E94A9042FE181EA97E0F8
:102EB000215080409040E1F700C000000E94D902FC
:102EC00081E194E00E94A90465E3A62E6EE1B62E8E
:102ED0006DEBC62E62ECD62E12E3E12E15E5F12E37
:102EE0000CE112E422E430E24DEB52EC65E276E8CC
:102EF0008CE192E40E94090B41E050E00E9403053E
:102F00008DE094E00E94A9042FE181EA97E021502E
:102F100080409040E1F700C000001F910F91FF90AA
:102F2000EF90DF90CF90BF90AF900895CF92DF9257
:102F3000EF92FF920F931F93CF93DF93EC012A81BF
:102F40003B8180E090E000E010E071C0C880D98053
:102F5000C80ED91EF601E12CF12C419140524F359B
:102F600008F45AC081E090E09B8B8A8B0E94D902C2
:102F700082E294E00E94A9042FE74AE186E0215012
:102F800040408040E1F700C000000E94D90286E383
:102F900094E00E94A9049FE926E841E09150204076
:102FA0004040E1F700C000000E94D9028CE494E0A8
:102FB0000E94A90463E070E0C80101960E94D10458
:102FC00086E594E00E94A90487E20E947504F60158
:102FD000EE0DFF1D80810E94750487E20E9475043A
:102FE0008AE00E9475048FE79AE126E081509040C4
:102FF0002040E1F700C00000B801CE010E94451159
:103000004FEF84E39CE0415080409040E1F700C0E6
:10301000000020E030E013C04FEFE41AF40A48E06B
:10302000E416F10409F099CF0F5F1F4F4C96021779
:1030300013070CF48BCF1B8A1A8A21E030E0C901F8
:10304000DF91CF911F910F91FF90EF90DF90CF9084
:1030500008952F923F924F925F926F927F928F923C
:103060009F92AF92BF92CF92DF92EF92FF920F9317
:103070001F93CF93DF9300D01F92CDB7DEB78BE0C5
:1030800091E00E94532090935F0480935E04009728
:1030900039F40E94D9028FE291E00E94A904FFC294
:1030A0000E94080F892B09F4FAC289E590E00E947A
:1030B00053208A839B838A819B81892B51F380E0F3
:1030C00090E0A0E8BFEBEA81FB8185AB96ABA7ABB4
:1030D000B0AFEF5BFF4F80839183A283B383EA811C
:1030E000FB81E35BFF4F2FEF2083EA81FB81E25BF3
:1030F000FF4F2083EA81FB81E15BFF4F2083EA8160
:10310000FB8181AF92AFA3AFB4AFEB5BFF4F808386
:103110009183A283B383EA81FB81E05BFF4F20832D
:10312000EA81FB81EF5AFF4F2083EA81FB81EE5A4F
:10313000FF4F2083EA81FB81FD9680839183A283E8
:10314000B383EA81FB81E75BFF4F80839183A28396
:10315000B383EA81FB81ED5AFF4F2083EA81FB8133
:10316000EC5AFF4F2083EA81FB81EB5AFF4F20830B
:1031700084E190E00E9453208C01009709F489CFEC
:103180008AE391E00E94A904C8010E94B60DFFE302
:103190002DE083E0F15020408040E1F700C00000C6
:1031A000E0915E04F0915F04E75FFE4F11821082B0
:1031B0002A803B8096E5290E311C4A805B80A7E57A
:1031C0004A0E511C6A807B80B8E56B0E711C93E03F
:1031D000A92EB12C26E0C22ED12C8A809B80E8E05B
:1031E0008E0E911C80915E0490915F04DC01189614
:1031F0002D913C9119971B963C932E931A97FC01A5
:10320000E75FFE4F20813181232B11F40E94740E61
:1032100080915E0490915F04FC012085318523300C
:10322000310509F4E6C04CF42130310509F476C0CB
:103230000CF0C8C0232B79F0D5CF2530310509F427
:103240004CC10CF4FEC02630310509F463C12730AF
:10325000310541F662C1D80112962D913C91139728
:103260001216130614F0FC01D3C10E94020F0E9433
:10327000D9028EE491E00E94A90483E294EF0197C1
:10328000F1F700C000008A819B810E944F0D892BBD
:1032900091F089E591E00E94A90468E070E0C40122
:1032A0000E9481059FEEA9E4B2E09150A040B04099
:1032B000E1F700C0000080915E0490915F04FC0182
:1032C00040855185228533854217530709F08ACFFF
:1032D0006A817B810E94BB0F8A819B810E944F0D76
:1032E000892B51F04A815B81B80180915E049091F5
:1032F0005F040E94C21276CF0E94D9028FE591E04E
:103300000E94A9048EE691E00E94A904FFE72AE149
:1033100086E0F15020408040E1F78AC10E94D90246
:103320000E94020F6A817B8180915E0490915F040C
:103330000E94BB0F8A819B810E944F0D892B81F1D6
:103340008CE791E00E94A904AA81BB8151966D91FE
:103350007D918D919C91549743E050E00E9403052C
:1033600087ED92E00E94A904EA81FB816589768954
:103370008789908D43E050E00E940305FFE72AE132
:1033800086E0F15020408040E1F700C000006A81F3
:103390007B8180915E0490915F040E94C61522CFCC
:1033A0008FE591E00E94A9048EE691E00E94A904B5
:1033B0009FE7AAE1B6E09150A040B040E1F700C01D
:1033C000000038C00E94D90286E891E00E94A9045A
:1033D000EFE7FAE126E0E150F0402040E1F700C0DD
:1033E0000000B80180915E0490915F040E947914FE
:1033F000F9CE0E94D9020E94020F6A817B818091DE
:103400005E0490915F040E94BB0F8BE991E00E94E3
:10341000A9048FE996E8A1E081509040A040E1F72F
:1034200000C000006A817B8180915E0490915F04FE
:103430000E94CB1480915E0490915F040E947A16E2
:10344000D1CE0E94D9020E94020F6A817B818091B5
:103450005E0490915F040E94BB0F83EA91E00E949A
:10346000A904E3E2F4EF3197F1F700C000000E94F5
:10347000D9028BEA91E00E94A904AA81BB815D96E2
:103480006D917D918D919C91909741E050E00E94CB
:1034900003058FED0E9475048CEF91E00E94A90452
:1034A000F10180810E947504D2018C910E94750403
:1034B000F30180810E94750481EB91E00E94A904D0
:1034C000AA81BB8159966D917D918D919C915C975C
:1034D00041E050E00E940305A4C00E94D9020E946E
:1034E000020F6A817B8180915E0490915F040E944B
:1034F000BB0F8A819B810E944F0D892B09F4FCCE62
:103500004A815B81B80180915E0490915F040E94C2
:10351000D11168CE0E94AE1065CE0E94FC0EE091E3
:103520005E04F0915F04DF01A75FBE4FEE24E394D9
:10353000F12C1196FC92EE92DF01AD5FBE4F119619
:103540001C921E92DF01AB5FBE4F1196FC92EE9271
:10355000DF01A95FBE4F1196BC92AE928481958126
:10356000892BB1F40E94D9028AEB91E00E94A90450
:10357000E0915E04F0915F04F582E482D8015396F5
:103580001C921E92529717821682C8010E94660EE4
:10359000E0905E04F0905F04F701E257FF4F9081E6
:1035A000F701E157FF4F8081981709F452C0F701E6
:1035B0001082118212821382C7010E942310682F89
:1035C00080915E0490915F0469830E940710E091EE
:1035D0005E04F0915F046981892B69F140E050E05D
:1035E000B801CF010E944510C8010E949617D8016A
:1035F00052968D919C915397019769F480915E0446
:1036000090915F040E948B10E0915E04F0915F0442
:10361000D186C086E7CD0E94D90283ED91E00E9459
:10362000A904BFE3EDE0F3E0B150E040F040E1F782
:1036300000C00000D7CD868197810E948A25E09145
:103640005E04F0915F04868197810196978386835B
:10365000C9CDD7016D917D918D919C9120E030E095
:1036600040E85FE30E94681BAB01BC01F7014083A7
:10367000518362837383608171818281938120E0B1
:1036800030E543E457E40E94311E18160CF0AACD31
:1036900041E050E0B801C7010E944510AFCF80E083
:1036A00090E00F900F900F90DF91CF911F910F91AD
:1036B000FF90EF90DF90CF90BF90AF909F908F9052
:1036C0007F906F905F904F903F902F90089550584B
:1036D000BB27AA270ED063C22CD230F031D220F003
:1036E00031F49F3F11F41EF4FCC10EF4E095E7FBAA
:1036F000C9C1E92F76D280F3BA176207730784072E
:10370000950718F071F49EF5A5C20EF4E0950B2E06
:10371000BA2FA02D0B01B90190010C01CA01A00123
:103720001124FF27591B99F0593F50F4503E68F17E
:103730001A16F040A22F232F342F4427585FF3CFBF
:10374000469537952795A795F0405395C9F77EF490
:103750001F16BA0B620B730B840BBAF09150A1F0D9
:10376000FF0FBB1F661F771F881FC2F70EC0BA0F5F
:10377000621F731F841F48F4879577956795B795E7
:10378000F7959E3F08F0B3CF9395880F08F09927DF
:10379000EE0F979587950895CCD158F080E891E089
:1037A00009F49EEFCDD128F040E851E059F45EEFE6
:1037B00009C097C14FC2E92FE07813D268F3092EF0
:1037C000052AC1F3261737074807590738F00E2E88
:1037D00007F8E02569F0E025E0640AC0EF6307F828
:1037E000009407FADB01B9019D01DC01CA01AD01BA
:1037F000EF934AD0D4D10AD05F91552331F02BED0D
:103800003FE049E450FD49EC63CF0895DF93DD27A5
:10381000B92FBF7740E85FE31616170648075B0726
:1038200010F4D92F22D29F938F937F936F93B9D3A4
:10383000ECE8F0E059D1B3D12F913F914F915F91D6
:10384000A5D2DD2349F09058A2EA2AED3FE049ECE9
:103850005FE3D0785D274DDFDF91A1C1EFD008F4A1
:1038600081E0089575D1E395ABC10CD098C168D1C2
:1038700040F05FD130F021F45F3F19F003C15111E6
:10388000EAC12FC1AED198F39923C9F35523B1F3FF
:10389000951B550BBB27AA2762177307840738F0BF
:1038A0009F5F5F4F220F331F441FAA1FA9F333D01E
:1038B0000E2E3AF0E0E830D091505040E695001CD2
:1038C000CAF729D0FE2F27D0660F771F881FBB1F8E
:1038D000261737074807AB07B0E809F0BB0B802D68
:1038E000BF01FF2793585F4F2AF09E3F510568F0B4
:1038F000C9C0B1C15F3FECF3983EDCF38695779584
:103900006795B795F7959F5FC9F7880F911D9695B5
:10391000879597F90895E1E0660F771F881FBB1F11
:10392000621773078407BA0720F0621B730B840BBE
:10393000BA0BEE1F88F7E095089504D06894B11192
:103940008AC1089556D188F09F5790F0B92F9927D2
:10395000B751A0F0D1F0660F771F881F991F1AF09A
:10396000BA95C9F712C0B13081F074D1B1E00895B1
:1039700071C1672F782F8827B85F39F0B93FCCF332
:10398000869577956795B395D9F73EF49095809590
:10399000709561957F4F8F4F9F4F0895E89409C0B0
:1039A00097FB3EF490958095709561957F4F8F4F72
:1039B0009F4F9923A9F0F92F96E9BB279395F69588
:1039C000879577956795B795F111F8CFFAF4BB0F06
:1039D00011F460FF1BC06F5F7F4F8F4F9F4F16C06A
:1039E000882311F096E911C0772321F09EE8872FF4
:1039F000762F05C0662371F096E8862F70E060E0B0
:103A00002AF09A95660F771F881FDAF7880F969528
:103A1000879597F9089507D180F09F3740F4911169
:103A20000EF019C160E070E080E89FEB089526F485
:103A30001B16611D711D811D2BC045C0990F00080B
:103A4000550FAA0BE0E8FEEF16161706E807F90770
:103A5000C0F012161306E407F50798F0621B730B0B
:103A6000840B950B39F40A2661F0232B242B252B8C
:103A700021F408950A2609F4A140A6958FEF811D2F
:103A8000811D089597F99F6780E870E060E00895D0
:103A9000882371F4772321F09850872B762F07C065
:103AA000662311F499270DC09051862B70E060E0D9
:103AB0002AF09A95660F771F881FDAF7880F969578
:103AC000879597F908959F3F31F0915020F487959D
:103AD00077956795B795880F911D9695879597F976
:103AE00008959FEF80EC0895DF93CF931F930F937A
:103AF000FF92EF92DF927B018C01689405C0DA2E71
:103B0000EF0144D1FE01E894A591259135914591AD
:103B10005591AEF3EF01EDDDFE019701A801DA94B6
:103B200079F7DF90EF90FF900F911F91CF91DF9188
:103B3000089500240A941616170618060906089513
:103B400000240A9412161306140605060895C9CF18
:103B500050D0E8F3E894E0E0BB279F57F0F02AED5F
:103B60003FE049EC06C0EE0FBB0F661F771F881FB2
:103B700028F0B23A62077307840728F0B25A620B42
:103B8000730B840BE3959A9572F7803830F49A950D
:103B9000BB0F661F771F881FD2F7904896CF092E5C
:103BA0000394000C11F4882352F0BB0F40F4BF2B98
:103BB00011F460FF04C06F5F7F4F8F4F9F4F0895D8
:103BC000EF93E0FF06C0A2EA2AED3FE049EC5FEB8D
:103BD00090DDE5DF0F90039401FC9058E9EBF0E0F5
:103BE0001BC257FD9058440F551F59F05F3F71F0AD
:103BF0004795880F97FB991F61F09F3F79F0879554
:103C00000895121613061406551FF2CF4695F1DFDC
:103C100008C0161617061806991FF1CF869571056C
:103C2000610508940895E5DFA0F0BEE7B91788F4B0
:103C3000BB279F3860F41616B11D672F782F882791
:103C4000985FF7CF869577956795B11D93959639CF
:103C5000C8F30895E894BB2766277727CB0197F927
:103C60000895ECDE08F48FEF08959B01AC0160E04D
:103C700070E080E89FE3F9CD0AD029ED3BE54EEDF9
:103C80005EE378C00EF01FCF2CCF6894FBCEB1DF7F
:103C9000C8F39923D1F3C6F3DF93CF931F930F9308
:103CA000FF92C92FDD2788232AF02197660F771FFF
:103CB000881FDAF720E030E040E85FEB9FE38839C7
:103CC00020F0803E30F021968F7702DDE7EDF0E0C6
:103CD00003C0FEDCE4E0F1E007DF8B01BE01EC0194
:103CE000FB2E6F5771097595771F880B990B58DE5E
:103CF00028E132E741E35FE349D0AF2D9801AE01FF
:103D0000FF900F911F91CF91DF91F3DC48CFFA0123
:103D1000DC01AA0FBB1F9B01AC01BF5728F422276F
:103D20003327442750781FC0B75188F4AB2F0024A5
:103D3000469537952795011CA395D2F3002069F08D
:103D4000220F331F441FB395DAF30DD0C0CC61307E
:103D50007105A0E88A07B94630F49B01AC016627DB
:103D6000772788279078309621F02083318342830B
:103D7000538308950BD013CFDCDE28F0E1DE18F07A
:103D8000952309F07FCEADCE112465CF2ADFA0F3B5
:103D9000959FD1F3950F50E0551F629FF001729FE0
:103DA000BB27F00DB11D639FAA27F00DB11DAA1FFF
:103DB000649F6627B00DA11D661F829F2227B00D4C
:103DC000A11D621F739FB00DA11D621F839FA00DD7
:103DD000611D221F749F3327A00D611D231F849F27
:103DE000600D211D822F762F6A2F11249F5750407E
:103DF0008AF0E1F088234AF0EE0FFF1FBB1F661F19
:103E0000771F881F91505040A9F79E3F510570F0D1
:103E100039CE21CF5F3FECF3983EDCF38695779562
:103E20006795B795F795E7959F5FC1F7FE2B880FCC
:103E3000911D9695879597F90895FA01EE0FFF1F4A
:103E400030962105310599F16115710561F48038CD
:103E5000BFE39B0749F168949038810561F0803891
:103E6000BFEF9B0741F0992342F5FF3FE105310584
:103E7000210511F1E8940894E795D901AA2329F4C2
:103E8000AB2FBE2FF85FD0F310C0FF5F70F4A69584
:103E9000E0F7F73950F019F0FF3A38F49F779F9325
:103EA0000CD00F9007FC905808953EF01ACE60E0B9
:103EB00070E080E89FE308954FE79F775F934F930B
:103EC0003F932F93E4DE2F913F914F915F9152DF0B
:103ED00070C08FDEE0F09E37D8F09639B8F49E3887
:103EE00048F4672F782F8827985FF9CF86957795C4
:103EF000679593959539D0F3B62FB1706B0F711DFF
:103F0000811D20F48795779567959395C1CDDBCD7D
:103F1000A2CE9F931DDE0F9007FCEE5F51CE11F4F1
:103F20000EF4DFCDD0CD65DED0F39923D9F3CEF3F7
:103F30009F57550B87FF69D00024A0E640EA900107
:103F400080585695979528F4805C660F771F881FD8
:103F500020F026173707480730F4621B730B840BD9
:103F6000202931294A2BA69517940794202531251D
:103F70004A2758F7660F771F881F20F02617370744
:103F8000480730F4620B730B840B200D311D411D6B
:103F9000A09581F7B901842F9158880F9695879540
:103FA00008959B01AC01E6CE19F40EF06BCD52CE14
:103FB00098CD1FDEC8F39638C0F707F80F92E89443
:103FC0002BE33AEA48EB5FE7E3DE0F920F920F92A2
:103FD0004DB75EB70F929BDEE1E3F1E085DD4F91D7
:103FE0005F91EF91FF91E595EE1FFF1F49F0FE579E
:103FF000E0684427EE0F441FFA95E1F74195550B11
:104000001ED00F9007FE31CE089591505040660F9C
:10401000771F881FD2F708959F938F937F936F9395
:10402000FF93EF939B01AC01A5DEEF91FF915CDD67
:104030002F913F914F915F919DCE24CD44CDD9DDFD
:10404000E8F39923D9F3940F511DBBF391505040DD
:1040500094F059F0882332F0660F771F881F915033
:104060005040C1F79E3F510544F7880F911D96952A
:10407000879597F908955F3FACF0983E9CF0BB2779
:10408000869577956795B79508F4B1609395C1F7D4
:10409000BB0F58F711F460FFE8CF6F5F7F4F8F4F72
:1040A0009F4FE3CFD8CD0F931F93CF93DF938230F1
:1040B000910510F482E090E0E0916204F0916304D5
:1040C00020E030E0C0E0D0E023C0408151814817BB
:1040D0005907A8F04817590761F482819381209706
:1040E00019F09B838A832EC09093630480936204AB
:1040F00029C02115310529F04217530710F0A901F5
:1041000002C0BE01DF0102811381EF019A01F801B3
:104110003097D9F62115310509F1281B390B2430C8
:10412000310590F412968D919C911397611571054C
:1041300021F0FB019383828304C0909363048093F6
:104140006204FD01329644C0FD01E20FF31F81932A
:104150009193225031092D933C933AC020916004F1
:1041600030916104232B41F4209104013091050129
:104170003093610420936004209102013091030187
:104180002115310541F42DB73EB7409106015091FC
:104190000701241B350BE0916004F0916104E217E4
:1041A000F307A0F42E1B3F0B2817390778F0AC015A
:1041B0004E5F5F4F2417350748F04E0F5F1F509337
:1041C0006104409360048193919302C0E0E0F0E0C9
:1041D000CF01DF91CF911F910F910895EF92FF9240
:1041E0000F931F93CF93DF93009709F48EC0DC01E8
:1041F000129713961C921E921297E0906204F09010
:104200006304E114F10489F42D913C911197280F76
:10421000391F80916004909161048217930789F59A
:10422000B0936104A093600470C0E70120E030E027
:1042300001C0EA01CA17DB0738F44A815B819E019D
:1042400041155105B1F722C0AC0142505109FA01A4
:10425000D383C28300811181BC01600F711F6C1771
:104260007D0761F468817981600F711F6E5F7F4FF8
:10427000718360836A817B81738362832115310539
:1042800029F4B0936304A09362043FC0F901B3839F
:10429000A283E90149915991C40FD51FAC17BD07FD
:1042A00071F4DC019E918E91840F951F029691838B
:1042B000808312968D919C91139793838283A0E0C3
:1042C000B0E002C0D7017C01F701828193810097A1
:1042D000C9F7C701029620813181820F931F209177
:1042E0006004309161042817390779F4109729F494
:1042F000109263041092620404C013961C921E92E2
:104300001297F0926104E0926004DF91CF911F91C7
:104310000F91FF90EF9008958F929F92AF92BF926E
:10432000CF92DF92EF92FF920F931F93CF93DF9381
:104330008B016115710519F0FB01808391837C016C
:10434000F701C1907F01EF018C2D90E00E94F122D6
:10435000892BB1F7FDE2CF1204C0C990DD24D394BC
:1043600005C02BE2C21201C0C990D12C7E0141E0F0
:10437000E41AF10843E050E069E571E0C7010E94EA
:10438000F922892BE9F47E0182E0E80EF11C45E078
:1043900050E06CE571E0C7010E94F922892B21F4FD
:1043A0007E01E7E0EE0EF11C0115110519F0F80190
:1043B000F182E08210E0D0E0C0E8D110FBC0FFC085
:1043C00043E050E061E671E0C7010E94F922892BC9
:1043D00049F40115110509F4EFC02296F801D183C3
:1043E000C083EAC060E070E0CB01E12CF12CEC2D41
:1043F000E053EA3048F5FD2DF2602D2D2870D2FEF5
:1044000006C0211127C02FEFE21AF20A23C022238F
:1044100019F041E0E41AF108A5E0B0E09B01AC011D
:104420000E943B26660F771F881F991F6E0F711D14
:10443000811D911D6839E9E97E078E07E9E19E0734
:1044400048F0FD2DF66006C0EE3F39F4D3FC3DC0C8
:10445000FD2DF860C990DF2ECACFE53311F0E531AC
:10446000A1F5A881AD3219F4F0E1DF2A06C0AB3224
:1044700021F0219621E030E004C0A981229622E0BB
:1044800030E0A053AA3018F0C21BD30B1EC0FE01AF
:1044900020E030E020384CE034075CF4A901440F00
:1044A000551F440F551F240F351F220F331F2A0F8E
:1044B000311DA191A053EF01AA3060F3D4FE03C0D7
:1044C000319521953109E20EF31ED1FE07C0011589
:1044D000110521F02197F801D183C0830E94CE1CE1
:1044E0002D2D2370233029F0162FD72FC82F092FF9
:1044F00007C0DC01CB01B058182FD92FCA2F0B2FC2
:1045000020E030E0A901612F7D2F8C2F902F0E9499
:104510002E1C882309F454C0F7FE08C0F194E194DE
:10452000F10830E9C32E31E0D32E04C028E7C22EB3
:1045300021E0D22E4601F8E18F1A910890E2A92ECF
:10454000B12C15C0F6014591559165917491242FB8
:10455000352F462F572F612F7D2F8C2F902F0E94A4
:10456000BA1E162FD72FC82F092FEA18FB08EA14F6
:10457000FB0444F724E0C21AD108B594A794C814E8
:10458000D904A9F7612F7D2F8C2F902F282F220F70
:10459000292F221F2F3F39F020E030E0A9010E948F
:1045A0002E1C81110DC082E290E0909365048093EF
:1045B000640406C00FEF04C010E0D0E0C0EC0FE7C9
:1045C000612F7D2F8C2F902FDF91CF911F910F9115
:1045D000FF90EF90DF90CF90BF90AF909F908F9023
:1045E00008959111A5C2803219F089508550D0F7F5
:1045F0000895FB01DC014150504088F08D918134D9
:104600001CF08B350CF4805E659161341CF06B35C9
:104610000CF4605E861B611171F3990B0895881B81
:10462000FCCFFB01DC0101900D920020E1F7089521
:10463000FB01DC014150504048F001900D920020F8
:10464000C9F701C01D9241505040E0F70895DC01C8
:1046500099278D91882341F0FB01019008160110E4
:10466000E1F7B9F71197CD0108950F931F93CF93F9
:10467000DF93CDB7DEB760970FB6F894DEBF0FBEFD
:10468000CDBF0F89188D86E08C831A8309838FEF45
:104690009FE79E838D83AE01455E5F4F588B4F87AA
:1046A000698D7A8DCE0101960E946623EF81F8858F
:1046B000E00FF11F108260960FB6F894DEBF0FBEB8
:1046C000CDBFDF91CF911F910F9108952F923F920F
:1046D0004F925F926F927F928F929F92AF92BF9212
:1046E000CF92DF92EF92FF920F931F93CF93DF93BE
:1046F000CDB7DEB72C970FB6F894DEBF0FBECDBF97
:104700007C016B018A01FC0117821682838181FF83
:10471000C7C188248394912C8C0E9D1EF701938130
:10472000F60193FD859193FF81916F01882309F430
:10473000B3C1853239F493FD859193FF81916F0167
:10474000853229F4B70190E00E94B125E7CF712CA2
:10475000312C20E02032A8F48B3261F028F4803232
:1047600051F0833271F40BC08D3239F0803349F44B
:10477000216028C02260246025C0286023C02061F9
:1047800021C027FD27C0382F30533A3078F426FF58
:1047900006C0FAE07F9E300D1124732E13C08AE00C
:1047A000389E300D1124332E20620CC08E3221F43D
:1047B00026FD72C1206406C08C3611F4206802C048
:1047C000883641F4F60193FD859193FF81916F0145
:1047D0008111C0CF982F9554933018F09052933098
:1047E00028F40C5F1F4FFFE3F9830DC0833631F0CF
:1047F000833771F0833509F05EC023C0F8018081F2
:1048000089830E5F1F4F66246394712C540115C079
:104810002801F2E04F0E511CF801A080B18026FF64
:1048200003C0672D70E002C06FEF7FEFC5012C87DA
:104830000E94A6253C0182012C856FE7262E2222AC
:1048400018C02801F2E04F0E511CF801A080B18081
:1048500026FF03C0672D70E002C06FEF7FEFC50138
:104860002C870E949B253C012C8550E8252E222A6E
:10487000820123FC1CC006C0B70180E290E00E94C8
:10488000B1253A94832D90E068167906A8F30FC0FD
:10489000F50127FC859127FE81915F01B70190E02A
:1048A0000E94B12531103A94F1E06F1A7108611439
:1048B000710471F7EEC0843611F0893641F5F801C4
:1048C00027FF07C060817181828193810C5F1F4F38
:1048D00008C060817181882777FD8095982F0E5FD1
:1048E0001F4F4FE6642E622297FF09C09095809576
:1048F000709561957F4F8F4F9F4FF0E86F2A2AE0A8
:1049000030E0A4010E94DD25A82EA81844C08537F8
:1049100031F43FEEB32EB2222AE030E024C099EF0A
:10492000B92EB2228F36B9F020F4883509F0B4C020
:104930000DC0803721F0883709F0AEC002C020E1F9
:10494000B22AB4FE0BC084E0B82A08C024FF09C014
:10495000E6E0BE2A06C028E030E005C020E130E0F5
:1049600002C020E132E0F801B7FE07C0608171812A
:10497000828193810C5F1F4F06C06081718180E04E
:1049800090E00E5F1F4FA4010E94DD25A82EA818FD
:104990008FE7682E6B2066FE0BC0362D3E7FA71476
:1049A00050F464FE0AC062FC08C0362D3E7E05C08D
:1049B000BA2C362D03C0BA2C01C0B72C34FF0DC061
:1049C000FE01EA0DF11D8081803311F4397E09C0AA
:1049D00032FF06C0B394B39404C0832F867809F0E5
:1049E000B39433FD14C030FF0FC07A2CB31460F4BD
:1049F000730C7B18B32C08C0B70180E290E03C87B1
:104A00000E94B125B3943C85B314B0F304C0B31431
:104A100010F43B1801C0312C34FF12C0B70180E301
:104A200090E03C870E94B1253C8532FF1EC031FFDB
:104A300003C088E590E002C088E790E0B7010CC0B1
:104A4000832F867891F031FD02C080E201C08BE2B5
:104A500037FD8DE2B70190E00E94B12506C0B70195
:104A600080E390E00E94B1257A94A714C0F3AA9441
:104A7000F401EA0DF11DB701808190E00E94B1259B
:104A8000A110F5CF06C0B70180E290E00E94B125E9
:104A90003A943110F8CF42CEF7012681378102C017
:104AA0002FEF3FEFC9012C960FB6F894DEBF0FBE73
:104AB000CDBFDF91CF911F910F91FF90EF90DF90CD
:104AC000CF90BF90AF909F908F907F906F905F90AE
:104AD0004F903F902F900895DC01CB01FC01F99994
:104AE000FECF06C0F2BDE1BDF89A319600B40D923A
:104AF00041505040B8F70895F999FECF92BD81BD5D
:104B0000F89A992780B50895A6E1B0E044E050E016
:104B10000C946E25262FF999FECF1FBA92BD81BD48
:104B200020BD0FB6F894FA9AF99A0FBE019608952F
:104B3000992788270895FC01059061507040011065
:104B4000D8F7809590958E0F9F1F0895FC016150B6
:104B5000704001900110D8F7809590958E0F9F1F9F
:104B600008950F931F93CF93DF938C01EB018B81FB
:104B700081FD03C00FEF1FEF1AC082FF0DC02E8111
:104B80003F818C819D812817390764F4E881F98180
:104B90000193F983E88306C0E885F985802F09959C
:104BA000892B41F78E819F8101969F838E83C80157
:104BB000DF91CF911F910F910895FA01AA27283014
:104BC00051F1203181F1E8946F936E7F6E5F7F4FDA
:104BD0008F4F9F4FAF4FB1E03ED0B4E03CD0670F56
:104BE000781F891F9A1FA11D680F791F8A1F911DA9
:104BF000A11D6A0F711D811D911DA11D20D009F4F9
:104C000068943F912AE0269F11243019305D31933A
:104C1000DEF6CF010895462F4770405D4193B3E023
:104C20000FD0C9F7F6CF462F4F70405D4A3318F0CA
:104C3000495D31FD4052419302D0A9F7EACFB4E07B
:104C4000A6959795879577956795BA95C9F7009733
:104C50006105710508959B01AC010A2E06945795D4
:104C6000479537952795BA95C9F7620F731F841F2B
:104C7000951FA01D08950E944626A59F900DB49FE4
:104C8000900DA49F800D911D11240895A29FB00145
:104C9000B39FC001A39F01D0B29F700D811D11244D
:084CA000911D0895F894FFCF67
:104CA8000100000066042000244750524D4300EAEA
:104CB80001EE01F201F601FA01FE01020206020A02
:104CC800020E02120216021A021E022202260262B4
:104CD8006164206D616C6C6F630072656164696EFC
:104CE800670A64617461626173652E2E2E00666DB9
:104CF8004861726D6F6E790A005554433A20004E30
:104D08006F20475053204669782E2E2E0A004265A0
:104D18002050617469656E742E2E2E004750532002
:104D28004669783A0A00464D2053746174696F6E7B
:104D3800730A446174616261736500444542554772
:104D48002031004445425547203200434D473A2020
:104D5800000A53706565643A20007570646174696F
:104D68006E672E2E2E0A646F6E277420756E706C17
:104D780075670075706461746520636F6D706C652C
:104D880074650025640030002C004E2020004E4E33
:104D980045004E452000454E45004520200045531E
:104DA80045005345200053534500532020005353DA
:104DB8005700535720005753570057202000574E8D
:104DC80057004E5720004E4E5700696D706F727431
:104DD800696E6720000A73746174696F6E732E2E92
:104DE8002E0072656164696E670A6461746162614C
:104DF8007365202E2E2E004552524F523A0A74697E
:104E08006D656F7574202E2E2E000A75706461749E
:104E180065206661696C65640A00776970696E6708
:104E2800200A6D656D6F72792E2E2E007570646183
:104E380074652072657175697265640A2E2E2E6616
:104E4800656564206D652E2E2E00206B6E6F776E63
:104E58000A73746174696F6E73004C697374696E58
:104E680067204E6561726573740A53746174696F63
:104E78006E733A00206B6D2C2000412E42656172E2
:104E88003A2000522E426561723A200046696E64EB
:104E9800696E67204E6561726573740A5374617434
:104EA800696F6E2E2E2E00667265713A20006C6155
:104EB800743A20006C6F6E3A20006572703A2000D8
:104EC800686161743A20004C61746573740A4750D4
:104ED8005320446174613A004D6573736167653AA4
:104EE800200054696D653A20004E52573A20004C14
:104EF80061743A20004C6F6E3A2000206B74730086
:104F0800436F757273653A2000446174653A2000F6
:104F18004D61675661723A20004D6F64653A200012
:104F2800436865636B73756D3A20005261770A4771
:104F3800505320446174613A004D6573736167652D
:104F48000054696D65004E5257004C6174004E2F35
:104F580053004C6F6E00452F570053706565640011
:104F6800436F757273650044617465004D616756DF
:104F78006172004D6F646500436865636B73756D9E
:104F88000043616C63756C6174696E670A45617290
:104F980074682044697374616E6365730044656E58
:104FA800766572202D3E204E59433A0A00206B6DDB
:104FB800004E6F727468204B43202D3E204B433ABD
:104FC8000A00434F5252555054494F4E0A444554D3
:104FD80045435445440074726163696E670A636FA0
:104FE8007272757074696F6E2E2E2E0073746174F0
:0A4FF800696F6E202300203A2000AC
:00000001FF
